:020000040001F9
:10900000103700204D95010055950100579501003E
:10901000599501005B9501005D950100000000007D
:109020000000000000000000000000005F9501004B
:109030006195010000000000639501006595010045
:10904000E198010067950100319C010067950100DE
:109050006795010000000000099701006795010075
:10906000679501006795010067950100679501000C
:1090700067950100679501006795010067950100FC
:109080006795010039990100679501006795010016
:109090005D990100679501006199010067950100E4
:1090A00067950100679501000000000000000000C6
:1090B00067950100679501000000000000000000B6
:1090C00000000000000000000000000000000000A0
:1090D0000000000000000000000000000000000090
:1090E0000000000000000000000000000000000080
:1090F0000000000000000000000000000000000070
:10910000000000000000000000000000000000005F
:10911000000000000000000000000000000000004F
:10912000000000000000000000000000000000003F
:10913000000000000000000000000000000000002F
:10914000000000000000000000000000000000001F
:10915000000000000000000000000000000000000F
:1091600000000000000000000000000000000000FF
:1091700000000000000000000000000000000000EF
:1091800000000000000000000000000000000000DF
:1091900000000000000000000000000000000000CF
:1091A00000000000000000000000000000000000BF
:1091B00000000000000000000000000000000000AF
:1091C000000000000000000000000000000000009F
:1091D000000000000000000000000000000000008F
:1091E000000000000000000000000000000000007F
:1091F000000000000000000000000000000000006F
:10920000DFF80CD000F042FA0048004745D90100D1
:109210001037002030B4044654E8000F0D4644E8EF
:109220000053002BF8D1156030BC704730B40446B1
:1092300054E8000F40EA010544E80053002BF7D141
:10924000156030BC704730B4044654E8000F00EAA3
:10925000010544E80053002BF7D1156030BC70477E
:1092600030B4044654E8000F80EA010544E8005396
:10927000002BF7D1156030BC704730B4044654E879
:10928000000F00EB010544E80053002BF7D11560F7
:1092900030BC704730B4044654E8000FA0EB010521
:1092A00044E80053002BF7D1156030BC7047000034
:1092B00030B450E8012F93B2C48923448489A34277
:1092C00028BF1B1B0489A34202BFBFF32F8F0020BE
:1092D00007E0C3EA020340E80134002CE9D14FF073
:1092E00001000A6030BC704750E8012FC2EA024218
:1092F00040E801210029F7D1704730B450E8022F2F
:109300001FFAA2F3C488A34202BFBFF32F8F00202D
:109310000DE0C48923448489A34228BF1B1BC2EAF1
:10932000034340E80234002CE8D14FF001000A600A
:1093300030BC704750E8022FC2EA224240E80221C6
:109340000029F7D17047034653E8022FD988B2EBC2
:10935000324F4FF0000017BF92B241EA014142EA9A
:10936000014104E05A68B2EB324F08BF012043E8E4
:109370000212002AE8D1704730B4044654E8000FC6
:109380000D4644E80053002BF8D1156030BC7047FF
:1093900030B4044654E8000F40EA010544E80053A5
:1093A000002BF7D1156030BC704730B4044654E848
:1093B000000F00EA010544E80053002BF7D11560C7
:1093C00030BC704730B4044654E8000F80EA010511
:1093D00044E80053002BF7D1156030BC704730B41F
:1093E000044654E8000F00EB010544E80053002B4D
:1093F000F7D1156030BC704730B4044654E8000F14
:10940000A0EB010544E80053002BF7D1156030BCF8
:109410007047000030B4044654E8000F0D4644E89D
:109420000053002BF8D1156030BC704730B40446AF
:1094300054E8000F40EA010544E80053002BF7D13F
:10944000156030BC704730B4044654E8000F00EAA1
:10945000010544E80053002BF7D1156030BC70477C
:1094600030B4044654E8000F80EA010544E8005394
:10947000002BF7D1156030BC704730B4044654E877
:10948000000F00EB010544E80053002BF7D11560F5
:1094900030BC704730B4044654E8000FA0EB01051F
:1094A00044E80053002BF7D1156030BC7047000032
:1094B00030B4044654E8000F0D4644E80053002B36
:1094C000F8D1156030BC704730B4044654E8000F42
:1094D00040EA010544E80053002BF7D1156030BC89
:1094E000704730B4044654E8000F00EA010544E830
:1094F0000053002BF7D1156030BC704730B40446E0
:1095000054E8000F80EA010544E80053002BF7D12E
:10951000156030BC704730B4044654E8000F00EBCF
:10952000010544E80053002BF7D1156030BC7047AB
:1095300030B4044654E8000FA0EB010544E80053A2
:10954000002BF7D1156030BC7047000006488047FB
:1095500006480047FEE7FEE7FEE7FEE7FEE7FEE718
:10956000FEE7FEE7FEE7FEE76599010001920100D4
:109570002DE9F05F0546002092469B468846064648
:10958000814640241BE0284641464746224600F0DB
:109590006CF853465A46C01A914110D311461846EA
:1095A000224600F053F82D1A67EB01084F46224679
:1095B0000120002100F04AF817EB00094E41201E5F
:1095C000A4F10104DFDC484631462A464346BDE8A3
:1095D000F09F0000004870471C2E020040EA010383
:1095E0009B0703D009E008C9121F08C0042AFAD259
:1095F00003E011F8013B00F8013B521EF9D270471D
:10960000D2B201E000F8012B491EFBD270470022C4
:10961000F6E710B513460A4604461946FFF7F0FF71
:10962000204610BD421C10F8011B0029FBD1801AF6
:10963000704730B504460020034600E05B1C9342AF
:1096400003D2E05CCD5C401BF8D030BD202A04DBA7
:10965000203A00FA02F1002070479140C2F1200345
:1096600020FA03F3194390407047202A04DB203A84
:1096700021FA02F00021704721FA02F3D040C2F132
:10968000200291400843194670470000064C074DE0
:1096900006E0E06840F0010394E8070098471034C2
:1096A000AC42F6D3FFF7B0FDFC3302001C340200DD
:1096B00070B58C1810F8015B15F0070301D110F894
:1096C000013B2A1106D110F8012B03E010F8016BC1
:1096D00001F8016B5B1EF9D12B0705D40023521E44
:1096E0000DD401F8013BFAE710F8013BCB1A921CAC
:1096F00003E013F8015B01F8015B521EF9D5A142AA
:10970000D8D3002070BD00002DE9F04700268CB0B2
:10971000DFF86091B0464FF4807501243746069615
:10972000284605F08FF938B1D9F80403204203D058
:10973000284605F07DF926432D1D64007F1CADB23F
:10974000082FEDD34FF4BE74204605F07BF948B1E5
:10975000204605F06DF946F0004606AA01210020DA
:1097600005F052F9444D16F0FF0F15D001270024E3
:1097700037420DD009EB8401D1F81005D1F810154E
:10978000C0F3042055F82420C1F3014102B19047F1
:109790007F00641C082CEBD3002E67DA4FF0FF30FB
:1097A000CDE9088000263446281910F8507F90F93A
:1097B000000027F0C008401C44D009A9404604F02E
:1097C00071FB58B34FEA9719404602F06DF955F80E
:1097D00020701FB1B9F1030F03D00FE0B9F1030FEF
:1097E00030D108A84FEAD80208F00703815C4FF097
:1097F000010C0CFA03FC41EA0C0181544FF0A0412A
:1098000001EB8800D0F8000706A9C0F3014A4046E2
:1098100004F048FB18B1BAF1020F03D012E0BAF11C
:10982000030F0FD1B9F1030F08D1BAF1020F1BD00A
:109830000221404605F0CCF8761CF6B217B1494635
:109840004046B847641C042CAED3002E0ED06A46A6
:109850000121002005F0D8F806990098884205D02B
:109860000690089809909DE70321E2E70CB0BDE857
:10987000F087000000600040A026002000F01F02DA
:10988000012191404009800000F1E020C0F88012E1
:10989000704700F01F02012191404009800000F153
:1098A000E020C0F80011704700F01F020121914034
:1098B0004009800000F1E020C0F80012704749071D
:1098C000090E002806DA00F00F0000F1E02080F811
:1098D000141D704700F1E02080F80014704700006C
:1098E0002DE9F0414FF48077384604F06FFB0124F6
:1098F000104EA50748B1384604F06FFB0120C5F8AB
:1099000008037470002002F043F94FF48277384660
:1099100004F05CFB00280BD0384604F05EFB02200C
:10992000C5F80803B470BDE8F041012002F030B979
:10993000BDE8F0818C26002007480021C0F84011C6
:10994000C0F84411C0F84811C0F84C11C0F800111B
:10995000C0F8041108F036BC0010014008F080BBCC
:1099600005F06EBDF0B5A1480127031D01783A0747
:10997000181D06290BD11C78240708D10478C4F3DC
:109980000314032C06D0042C04D0052C02D0062985
:1099900007D011E0B2F82443954DC4F304242C60A1
:1099A00002E01C78240707D10478C4F30314032CC5
:1099B00002D1914D8F4C6C67D2F844428F4DC4F365
:1099C00042342C6006290CD11C78240709D1047874
:1099D000C4F30314032C04D1894C256825F0807549
:1099E00025604FF080440025C4F80C51C4F8105194
:1099F000824C241F2560062907D11C78240704D136
:109A00000478C4F30314032C02D0062908D01FE005
:109A1000DFF8E8C103240CF1640CCCF8004007E047
:109A20001C78240714D10478C4F30314032C0FD139
:109A3000DFF8D0C10524CCF80040724C78342760A0
:109A4000704C083425600CF1040C3F24CCF8004025
:109A50006D4C2468DFF8B4C1CCF800406A4C241D7A
:109A600024680CF1040CCCF80040674C08342468DE
:109A70000CF1040CCCF80040634C0C3424680CF15D
:109A8000040CCCF80040604C103424680CF1040C39
:109A9000CCF800405C4C143424680CF1040CCCF875
:109AA0000040594C18342468DFF860C10CF1200CD8
:109AB000CCF80040544C1C3424680CF1040CCCF855
:109AC0000040514C203424680CF1040CCCF80040C8
:109AD0004D4C243424680CF1040CCCF800404A4C62
:109AE000283424680CF1040CCCF80040464C2C348B
:109AF00024680CF1040CCCF80040434C303424684A
:109B0000DFF808C10CF1400CCCF800403E4C343476
:109B100024680CF1040CCCF800403B4C3834246829
:109B20000CF1040CCCF80040374C3C3424680CF1A8
:109B3000040CCCF80040344C403424680CF1040C84
:109B4000CCF80040DFF8C8C0FB24CCF80040062960
:109B500013D11C78240710D10478C4F30314032C08
:109B600003D0042C01D0052C07D1D2F85842DFF8DD
:109B7000A4C004F04F04CCF8004027480168C9078E
:109B800002D06FF0010101604FF01021D1F8000206
:109B9000002803DBD1F80402002822DA1F4A1760EC
:109BA0001F480368002BFCD01523C1F8003204685D
:109BB000002CFCD0C1F8043201680029FCD01560EB
:109BC00001680029FCD0BFF34F8F0D48F0380168C1
:109BD000144A01F4E06111430160BFF34F8F00BFED
:109BE000FDE7124910480860F0BD0000E00F00F0EA
:109BF000403501400DF0ADBA00C007403C050040C3
:109C0000FCED00E0105600400404001020C50040A8
:109C100018F50040E40E00400004004004E5014057
:109C200000E401400400FA050090D003281D002044
:109C30000149024808F02EBBF82600200020004011
:109C400002E008C8121F08C1002AFAD17047704705
:109C5000002001E001C1121F002AFBD17047000063
:109C60000121202803DA81400548014003E0402813
:109C700002DA2038814009B1012070470020704786
:109C8000FC06FFBD082806D228B1012803D004280D
:109C900001D0012070470020704710B560B159B164
:109CA00002780B785208B2EB530F05D10622401C04
:109CB000491CFFF7BEFC08B1002010BD012010BDFB
:109CC000800701D00020704701207047C3688B4295
:109CD00006D811440069491E814201D8012070470D
:109CE0000020704710B501220221002001F004FD80
:109CF00008B1072810D107220221012001F0FCFC45
:109D000008B1072808D100210A22084601F0F4FC16
:109D100008B1072800D1002010BD000010B550B1D7
:109D20000A480321008801EB004009A105F04EF824
:109D300006F0ECFD03E00321094800F01BFD0028BC
:109D400003D0BDE8104000F0C5B810BD881D00204C
:109D5000457261736520626F6E64732100000000BC
:109D6000501E002070B58CB015460E4600236C4680
:109D7000C3F10F01415CE1545B1C102BF8D30D21A2
:109D800004F11000FFF743FC0020C0F10F02315C2A
:109D90002244401C11740328F7D3684643DF002097
:109DA000C0F10F01214491F820102954401C0328D0
:109DB000F6D30CB070BD022001F090BB01490979C7
:109DC00000F0E8BEE41B002070B50024064D06E05C
:109DD0006868012110F8340004F0A4F9641C2878A4
:109DE0008442F5D3002070BD641C0020F8B51546F0
:109DF0000C460646052A01D20720F8BD04F078FA81
:109E000018B904F047FA0028F7D1104900204E6035
:109E10000C70C1E902500E4D08610DE006EBC40064
:109E20006968009181788DF801100078094A6946C7
:109E300004F0CAF90028E0D1641EE4B2EED2BDE815
:109E4000F840054A0021024800F050B8641C002088
:109E5000502B0200DDCC010081BE010005F06EF840
:109E600004F0C8FE0028FBD1104C0121208801EB32
:109E700000400FA104F0AAFF10480068C00700D0FE
:109E800000BE2088022101EB00400DA104F09EFFDE
:109E9000BFF34F8F0948E43801680D4A01F4E061CF
:109EA00011430160BFF34F8F00BFFDE7881D002005
:109EB000466174616C206572726F7200F0ED00E0B3
:109EC00053797374656D20726573657400000000CA
:109ED0000400FA050EB500210091CDE901106A4693
:109EE00044F20100FFF7BAFF0EBD0000074B9B785C
:109EF00023B12AB120B10068037C1BB10820704750
:109F000007207047417442610020704734270020C9
:109F100070B507F0C9F9104800240B210470447093
:109F20000E4D817014206C602C706C70FFF7A6FCD5
:109F300007211420FFF7C3FC1420FFF7AAFC0848F0
:109F4000046007211120FFF7BAFC0548001F0068D4
:109F5000A860002070BD000034270020781C00207D
:109F6000081501402DE9FC47DFF8789099F8023098
:109F700073B368B3052902D20720BDE8FC874369A3
:109F800033B3437C012B25D00027044600258846A7
:109F900016468DF80050684600F038F801A808F021
:109FA000A9FAC8B1012101700F4944600968C0E9EC
:109FB0000218C0E904769DF8040089F801009DF8B4
:109FC000000000F047F81420FFF76EFC2846D4E7A5
:109FD0000820D2E70F46D8E704259DF8000000F0DE
:109FE00039F8F3E734270020041501400649897841
:109FF00039B130B1416921B100210174022108F069
:10A00000BDB80820704700003427002030B5EFF3BA
:10A01000108172B60D4A9468012324B1037000299F
:10A0200000D162B630BD93604FF0E023D3F8805189
:10A03000074C25401560C3F88041D3F88441546033
:10A040005A17C3F8842100220270E8E74028002054
:10A05000FC06FFBD0B498A68002A11D000280FD1E9
:10A06000EFF3108072B60B684FF0E022C2F80031B7
:10A070004B68C2F8043100228A60002800D162B621
:10A0800070470000402800202DE9F041064608688E
:10A090000C46411C4FF0A0474FF0010506D005FAD1
:10A0A00000F1C7F80815206804F077FC6068411CCF
:10A0B00002D0002104F068FC3168A069C1F82405D1
:10A0C000607D217D32680843C2F86C05D4E9001236
:10A0D0003068C0F80C15C0F81425207D012815D172
:10A0E000A068411C02D0002104F04EFCE068411C35
:10A0F00005D08540C7F80855E06804F04EFCD4E967
:10A1000002123068C0F80825C0F81015BDE8F081CB
:10A110002DE9F047074600888EB0804600F0EAFC43
:10A120000646404603F058F8824604462E4800256D
:10A130002A460178404600F043FD002E50D0787941
:10A14000400734D501254FF6FF7603AB2A46072199
:10A15000504605F0DBFC010004D0404607F01AFB36
:10A1600000252BE0B1463146049802F089FF0646EF
:10A1700048450FD004460146404603F017F84046D4
:10A18000FFF71CFE30B9404607F0D6FA4046FFF70D
:10A1900015FE48B122460721504605F04DFD01004D
:10A1A00003D0404607F0F6FA00254E4506D040465B
:10A1B00005F0B0FE10B1504602F0FAFF02208DF813
:10A1C0001800ADF81A807879400701D5012000E029
:10A1D00002208DF820008DF8215006A801F09CFF88
:10A1E0000EB0BDE8F0870000E41B00202DE9F0432D
:10A1F0000546007D93B00E460024A0B107949DF85B
:10A200001C0020F00F00401C20F0F00010308DF8F2
:10A210001C00707B8DF81D009DF81E0020F00600CC
:10A22000801C8DF81E001C216846FFF7F0F99DF890
:10A23000000040F002008DF80000297D11B140F0CF
:10A24000100001E020F010008DF80000019403944C
:10A250000494287D00B107A8CDE9050401278DF8F5
:10A26000427042F61920ADF840000D94B07B8DF895
:10A270003400F07B8DF835009DF83600142120F075
:10A280000600801C20F019008DF83600307B8DF818
:10A29000440008A8FFF7BBF90DF140080DF134099F
:10A2A000ADF8287011A8CDE90889ADF82A40ADF8BD
:10A2B0002C700C90A888AB1D08AA6946A2DF002864
:10A2C00038D1B06898B38DF8427042F60810ADF8F6
:10A2D00040000D94307C8DF834009DF8350020F05E
:10A2E000FF008DF835009DF8360020F00600801C38
:10A2F00020F019008DF836000EA8B16801F0D2F8F0
:10A300000646142108A8FFF782F9ADF828600EA8C8
:10A31000CDE90889ADF82A40ADF82C600C90E888AA
:10A3200005F10E0208A9A3DF002803D101E0FFE731
:10A33000EC81002013B0BDE8F083000010B50B499C
:10A340000B4807F062FAC1B20A4800F0F8FA002898
:10A350000BD0082809D0132807D043F201418842C6
:10A3600003D0BDE81040FFF7B5BD10BD281F002089
:10A37000741B0020F81D00202DE9FC4700251788DC
:10A380000646158090F82D001446894630B13A46AD
:10A390002146484600F02CFC050009D1B0784FF06A
:10A3A0000C0A18B32088C846001DB84202D950468E
:10A3B000BDE8FC87684679DF0028F9D120880321B1
:10A3C00008F8001020881921401C80B2208008F86D
:10A3D00000102088401C80B2208000EB0801BDF8EE
:10A3E000000007F0D3FF218808442080F078022283
:10A3F000C8B1218896F9033001F1030C4846BC45E9
:10A40000D5D8425421884FF0010C491C89B22180D3
:10A4100000F801C02188491C89B2218009F8013067
:10A420002088401C20807068B8B1218890F90030E5
:10A4300001F1030C4846BC45B9D8425421880A2290
:10A44000491C89B2218042542188491C89B221804B
:10A4500009F801302088401C2080308950B1CDE9B6
:10A4600000474B460622022106F1080008F05AF880
:10A4700005009DD1308A50B1CDE900474B460722F7
:10A48000032106F1100008F04DF8050090D1308B43
:10A4900050B1CDE900474B461522142106F11800B2
:10A4A00008F040F8050083D1306A30B13B462246BF
:10A4B000494601F0D7FB0500DBD1706A30B13B465D
:10A4C0002246494603F024FB0500D2D196F82C0021
:10A4D00038B13B4622464946304607F01FFA050090
:10A4E000C7D1307838B13B4622464946304603F062
:10A4F00097FB0500BDD128465AE7F0B50C4693B04E
:10A500001F210726ADF80010ADF80410002750B148
:10A51000C17849070DD56A4602A9FFF72DFF00282B
:10A5200008D102AD02E00025ADF800706CB1E07812
:10A5300010B1304613B0F0BD01AA0AA92046FFF7BA
:10A540001BFF0028F6D10AAA02E00022ADF8047031
:10A55000BDF80400C3B2BDF80000C1B2284672DFE6
:10A56000E8E780F82410704770B50D00044653D01A
:10A57000F4B3012020700026E670202205F1780156
:10A58000201DFFF72BF884F82460D5F89800C4F854
:10A59000CC00D5F89C00C4F8D0004FF6FF70A4F8AA
:10A5A000C800C4F82560A4F8296084F82B6004F181
:10A5B00030003C210646FFF72AF8287884F830005E
:10A5C000A87884F83200E87884F83300687884F852
:10A5D0003100D5E90401C4E91001D5E90201C4E95B
:10A5E0000E01D5E90601C4E9120195F82D0000E03D
:10A5F00012E084F85D00686AD8B104F1780104F1D2
:10A600006C0061676065696A09880180686A616DCC
:10A6100080888880002008E00E2070BD696A2218BA
:10A620008968095C82F87810401C616D89888142D4
:10A63000F4D8A86AE8B104F1A400C4F8A0000C386A
:10A64000A065A96A89888180A86AA16D00880880B0
:10A65000002006E0A96A22188968095C82F8A41023
:10A66000401CA16D89888142F4D895F82C0084F8AB
:10A670005C00286A48B104F1C4002065296A498851
:10A680004180286A216D00880880686800B1606395
:10A6900005F13C013046BDE87040FFF72EBF10B514
:10A6A0000288102A1AD0112A1FD01B2A1CD1007A26
:10A6B0000C46002818D1E0780521401CB0FBF1F2CF
:10A6C00001FB1201204600F055F800280CD0D4F808
:10A6D000D010002908D0BDE810400847C27B012AED
:10A6E00002D18088A1F8C80010BD0C46002184F872
:10A6F000D4108088B4F8C8108842F5D12079002899
:10A70000F2D10121DEE710B50C46022801D0032862
:10A7100011D1607800280ED000206070E1782046CA
:10A7200000F028F8002806D0D4F8D010002902D074
:10A73000BDE81040084710BD10B5044674DF012085
:10A7400084F8D400002084F8D600062084F8330072
:10A75000002104F13000FFF7D0FE002809D1E17894
:10A76000204600F007F818B1D4F8D01001B188479E
:10A77000002010BD2DE9FF47044600780F4638B190
:10A78000E770002003F0F8FF012628B16670D2E0E0
:10A79000082004B0BDE8F0870025C4F82550A4F8CF
:10A7A000295084F82B50A07910B1E078012806D008
:10A7B000E07970B1E078012801D0022809D1D4F8FD
:10A7C000CC1021B184F82C600820884701E084F87F
:10A7D0002C5004F1260100200A5C0AB1304603E047
:10A7E000401C0628F8D300204FF002084FF0030A5F
:10A7F0004FF00409012F06D0022F09D0032F0CD0EF
:10A80000042F12D10DE0A17911B108B130460DE04D
:10A81000E17911B108B1404608E0207A08B150460C
:10A8200004E0607A08B1484600E02846E070D4F8B9
:10A83000CC1041B1032801D0042804D1607910B1B3
:10A8400094F8D400A8B184F8D550009502950195EC
:10A8500003958DF800508DF80850E17804F125003B
:10A8600004F13002052958D2DFE801F0670A131F0E
:10A870003B0084F8D65084F8D56007208847E4E789
:10A88000A67001908DF80060ADF80C50ADF80A503C
:10A8900043E084F8028001908DF80060208AADF8D2
:10A8A0000C00A089ADF80A0037E0A08AADF80A00D4
:10A8B000208BADF80C00607980B194F8D40068B9B1
:10A8C00094F8D60050B18DF8088084F833900021B8
:10A8D0001046FFF712FE00BB05211AE084F802A023
:10A8E0001BE0A08BADF80A00208CADF80C0060795D
:10A8F00088B194F8D40070B994F8D60058B18DF8A6
:10A90000088084F8339000211046FFF7F6FD20B947
:10A910000621A17001E084F80290E07830B194F84B
:10A920002410684673DF00287FF433AFD4F8CC10CE
:10A9300009B1A078884700202BE7A570F6E773B52A
:10A9400086B0040034D0217C9DF81C200020914268
:10A950002CD0002501260095ADF8006007A8ADF8C1
:10A9600002500190E188608A6A46A4DF00281DD168
:10A970009DF81C002074608AA0F57F41FF3919D032
:10A98000207DB8B10295039504950595E088ADF852
:10A990000800BDF80200ADF80C0001988DF80A60BF
:10A9A000CDF810D00590608A02A9A6DF08B070BD6E
:10A9B0000E20FBE70820F9E738B50D4604001BD050
:10A9C000D5B1286820604FF6FF7060822879207525
:10A9D000FF20207401208DF8020041F60F00ADF831
:10A9E0000000221D69460120A0DF002803D129466E
:10A9F0002046FFF7FBFB38BD0E2038BD38B50029D7
:10AA000022D0002820D00288102A18D0112A18D06D
:10AA1000502A19D10C46097D002915D030F8061F9F
:10AA20006289914210D1418902290DD12168002902
:10AA30000AD00C3000F032FD38B1002006E08088EA
:10AA400001E04FF6FF70488238BD01208DF800000C
:10AA5000226869462046904738BD000070B5040062
:10AA600012D001461C221448FEF7B8FD1248134DBF
:10AA70000560206850B17ADF002806D1206801689F
:10AA800029604068686005E00E2070BD0B487BDFE0
:10AA90000028FAD108484FF6FF711438084A20F808
:10AAA000041B0549343901600021FFF71FFA002813
:10AAB000EBD0032070BD0000D81F0020A01B002099
:10AAC0007524020002494A6C091D06F0DFBC000033
:10AAD000F41F002002460248016D001D06F0C3BCB1
:10AAE000F41F002002460248416D001D06F0BBBC69
:10AAF000F41F002070B5084E054600242A46301D7C
:10AB0000716C06F0B0FC28B12A46301DF16C06F0DD
:10AB1000AAFC0124204670BDF41F002070B50A4E27
:10AB2000054600242A46301D716C06F09CFC40B19D
:10AB30002A46301DB16C06F096FC08B1022400E0F4
:10AB40000124204670BD0000F41F002010B5002431
:10AB5000204607F0C3FC28B1641CE4B2182CF7D3DC
:10AB6000182010BD03480122A24001681143016072
:10AB7000204610BDF41F002010B5044607F0AEFCBF
:10AB8000002803D0024800EB8400806D10BD000057
:10AB9000F41F002070B505460C46084607F09EFCE1
:10ABA000002809D005482A4600EB8401001D896D64
:10ABB000BDE8704006F057BC70BD0000F41F0020D7
:10ABC00070B5064615460C46084607F087FC002877
:10ABD0000AD006482B4600EB84013246BDE870409F
:10ABE000001D583106F077BC70BD0000F41F002036
:10ABF0007CB5054608880C460930904201D90C20E6
:10AC00007CBD68466DDF0028FAD121880820685491
:10AC100020881B21401C80B2208029542088401CA1
:10AC200080B220802844DDF801100160BDF80510D5
:10AC300081802088801D80B220809DF80010490806
:10AC400000D0012129542088401C208000207CBD98
:10AC50007FB5044601208DF8060041F60A00ADF8E4
:10AC60000400454A01A90120A0DF00287ED12288E6
:10AC700004F13C0552B140482B46801C009042F63E
:10AC80002920616800F018FF002873D1228952B191
:10AC900039482B460A30009042F62420E16800F043
:10ACA0000BFF002866D1228A52B133482B4612305E
:10ACB000009042F62520616900F0FEFE002859D17F
:10ACC000228B52B12C482B461A30009042F6272096
:10ACD000E16900F0F1FE00284CD1228C52B12648E7
:10ACE0002B462230009042F62620616A00F0E4FEF6
:10ACF00000283FD1228D52B11F482B462A300090A8
:10AD000042F62820E16A00F0D7FE002832D1216BFC
:10AD100071B102A807F082F917482B463230009033
:10AD2000082202A942F6232000F0C6FE002821D105
:10AD3000606B58B110492B463A3100910279016895
:10AD400042F62A2000F0B8FE002813D1A16B81B191
:10AD500002A805F049FE08482B4642300090072221
:10AD600002A942F6502000F0A7FE00E002E0002811
:10AD700000D1002004B070BD021C0020F0B50446D4
:10AD800001880020494D0326494F89B015294ED02E
:10AD90001CDC484D012962D0444803224FF6FF765F
:10ADA0000088102902EB00401CD011290CD142A1CF
:10ADB00004F00CF8AE806888B04205D005F02EFD96
:10ADC00008B1FFF787F86E8009B0F0BD212922D0C5
:10ADD0003B2928D0512946D05629F5D1A0881321E6
:10ADE00076DF11E038A103F0F1FF6E80072000F05C
:10ADF000A5FC08B1FFF76EF8A088A880002243F2F6
:10AE000033317868FFF7AEF80028DDD009B0BDE82F
:10AE1000F040FFF75FB80090A08869468FDF40E000
:10AE2000FFF758F8D0E7A088132176DFECE7A16898
:10AE30000091A189ADF804108DF806007868FFF73D
:10AE4000D5F808B1FFF746F8684604F08BF80246DB
:10AE5000288820A106EB004003F0BCFFB4E70021E6
:10AE6000A88866DFD0E71022A11D04A8FEF7B6FB74
:10AE70009DF810100029A7D09DF81800042803D0D1
:10AE8000062801D005289FD102290DD05FF00100CE
:10AE90008DF800004FF4C170ADF80400A088694639
:10AEA000A8DF0028BCD18FE70220F1E7881D002031
:10AEB000002A0200681B0020446973636F6E6E6590
:10AEC0006374656400000000436F6E6E65637465B3
:10AED00064000000506173736B65793A202573003C
:10AEE00010B51A4C0188606810290ED011292BD199
:10AEF000401E606028D1FEF7F5FE002824D02168AE
:10AF0000002921D0BDE810400847D0B90021012216
:10AF1000084600F0F1FB08B107280FD107220221F3
:10AF2000012000F0E9FB08B1072807D10422022123
:10AF3000002000F0E1FB20B1072802D0216801B118
:10AF400088476068401C606010BD0000981B0020AE
:10AF50002DE9F04701883B4E40F2F3194FF6FF759B
:10AF600010291BD011293ED0122954D0502946D186
:10AF7000C188F289841D914241D1618902293ED163
:10AF80008688304602F0D6F9050038D004F10C006E
:10AF900000F084FAA8B3294630464EE0C17B87888A
:10AFA000044601292BD1A846284602F0C3F9050022
:10AFB00017D02F8000202872234843464A46016854
:10AFC000C5F80A104068C5F80E0004F1100105F13B
:10AFD0000A0002F015FA6872F08900280FD129469C
:10AFE0002AE0042013E0808802F0A4F9040006D0CF
:10AFF0006068FEF7FBFF08B106F0B0FB2580BDE8F6
:10B00000F087FFE76868FEF7F1FF0028F7D0BDE89A
:10B01000F04706F0A3BB87880646384602F08AF957
:10B020000400ECD02B464A4606F1080104F10A0060
:10B0300002F0E6F9607221463846BDE8F04700F0BC
:10B0400057BE0000D81F0020A01B00202DE9F047AC
:10B050000546038839480122A4B000F1480A102BA4
:10B0600009D0112B48D01A2B64D1297AB2EB111FC9
:10B0700047D2012346E0D0E911218A430446011D4D
:10B0800012A806F003FA442212A901A8FEF7A6FAB4
:10B09000DFF8A8900026374609F144090DF10408AD
:10B0A0000AE000BF08EB46001D2283884946201DA8
:10B0B000009706F09DF9761C0198B042F2D8606CBA
:10B0C000AD88C04306F0B6F9A0F57F41FF390DD039
:10B0D00004EB4000012385802A465146201D06F0DE
:10B0E000FAF901232A464946201D1EE024B0042017
:10B0F000BDE8F047FEF7EEBE0023AA885146001DCA
:10B1000013E000230D490446AA885031001D06F0C3
:10B11000E2F9287A0221B1EB101F01D2012300E0ED
:10B1200000230649AA885431201D24B0BDE8F04709
:10B1300006F0D1B924B0BDE8F0870000F41F00206C
:10B1400010B504460748007800280AD0204601F0D0
:10B150001DFF204606F0CCFC2046BDE8104001F063
:10B1600041BB10BDD41B0020FEB5002504460220C3
:10B170000095ADF8000002A8ADF8025001900E460F
:10B18000E189608D6A46A5DF002813D102A800F08E
:10B1900085F90746E18C608D6A46A5DF002809D154
:10B1A00002A800F077F9384202D00120307000E0A8
:10B1B00035700020FEBD000030B50020094A014670
:10B1C000FF2302F55C7400BF00EB400505EBC005F2
:10B1D00002F825102354401C1428F5DB0248018096
:10B1E000002030BD08230020601C0020014800889A
:10B1F00070470000601C002070B5134D0146288880
:10B2000014280BD01148002404EB440202EBC402C2
:10B2100010F8222022B1641C142CF5DB042070BD30
:10B2200004EB440202EBC402012300F8223000EBDD
:10B2300082002A22801CFEF7D1F9054928880C5487
:10B24000401C2880002070BD601C002008230020C6
:10B25000782600200B460B4910B50988884201D397
:10B26000072010BD08492A22085C00EB400101EBD1
:10B27000C000064901EB80011846891CFEF7AEF9B3
:10B28000002010BD601C002078260020082300202C
:10B2900008460349CA884280521CCA80FFF7ACBFE7
:10B2A0004C1C0020F0B58DB00D460446FFF784FF1E
:10B2B00000283BD1FFF79AFF1D4E002758B1401ED2
:10B2C000C0B202A9FFF7C6FF00282FD1BDF80A00BF
:10B2D000401CF08000E0F7802868206068686060AB
:10B2E0002889A085A87A84F82E004FF6FF70608523
:10B2F00000203070377101208DF8060041F60800FB
:10B30000ADF8040004F1080201A90120A0DF002823
:10B310000CD1204601F066FC002807D1204601F040
:10B32000DCFB002802D1204605F020FE0DB0F0BD68
:10B330004C1C002038B5058800243B4A512D40D0D4
:10B3400016DC102D24D0112D25D0502D26D10A46E3
:10B3500030F8061FD38999422BD14189154602291D
:10B360001CD10C3000F09AF8C8B18DF8004019E0FB
:10B370002D4B532D1B783BD0572D0FD10846147100
:10B38000022B1BD0012B09D1BDE8384005F0BEBC13
:10B39000808848853DE04FF6FF70488538BD012024
:10B3A0008DF800002A68002AF8D0694628469047A0
:10B3B00038BD538C9942FBD1014614E01A490C3137
:10B3C0002DE00A46011D10F8063F022BF0D1897AC4
:10B3D0000429EDD00629EBD00529E9D04188538C0A
:10B3E0009942E5D1811CBDE83840104604F036B9D9
:10B3F0000C46C088498C8842DAD1032B09D0022B35
:10B400000AD061680029D3D001B00820BDE83040DF
:10B4100008470020107038BD034920460C31BDE8B4
:10B42000384005F0D3BC00004C1C0020FF231370F3
:10B43000537000239370536000280BD00B78137067
:10B44000012801D94B785370022803D9801E9070CF
:10B45000891C51607047024610B5002000290FD0AA
:10B4600010780870507848700220002305E0546876
:10B47000E45C0C54401CC0B25B1C94789C42F6DC2B
:10B4800010BD70B504460D460846FEF7CBF8208087
:10B49000656070BD0078C0F340007047007800F030
:10B4A000010070470A7802704978417002207047A5
:10B4B0000149085C704700000C2A02000649095C3B
:10B4C0004FF0A040D0F81005C84010F0010000D0A7
:10B4D000012080F0010070470C2A020007490B5C34
:10B4E0004FF0A041D1F804250120984020EA020342
:10B4F000C1F808351040C1F80C057047082A020051
:10B500000249085C012103F074BA0000082A020015
:10B510000249085C002103F06CBA0000082A02000E
:10B520000649095C4FF0A040D0F80405C84010F06F
:10B53000010000D0012080F001007047082A0200BD
:10B540007CB50024084E25460122305D009500237D
:10B550001146019503F0D9F9641C042CF4D3BDE81D
:10B560007C4000F003B80000082A020010B5002457
:10B570002046FFF7C5FF641C042CF9D310BD10B59D
:10B5800000242046FFF7C4FF641C042CF9D310BD2F
:10B5900010B50246064B4FF0FF3000215C5C944230
:10B5A00001D1084610BD491C0429F7D310BD000085
:10B5B0000C2A020070B50C4E0C004FF000053060F4
:10B5C0000BD0012000F06AF808B1022004E000204E
:10B5D00000F064F800B10B202070706810B9FEF71D
:10B5E00081FB0546284670BD981B002010B5002041
:10B5F00000F0D6F908B1062806D1012000F0D0F9F4
:10B6000008B1062800D1002010BD00002DE9F04748
:10B610000D468146FFF7BCFF0446042836D2DFF80A
:10B6200074801B481C4EA8F10C0725B3012D0ED0C9
:10B63000022D2BD104EB440030444578002D25D059
:10B64000B968002922D02846BDE8F047084704EB36
:10B650004401755C0E44717849B10E4A4FF40041C3
:10B66000093A8068FEF77EFC08B987F80390B17844
:10B6700008F80410E2E78068FEF7B8FC04EB440128
:10B68000314418F804008D78A842D7D0BDE8F0877F
:10B69000102A0200941B0020781F0020FFF70EBF25
:10B6A0000146134810B5808804290DD0072914D00D
:10B6B0000A2905D00F2919D1BDE8104005F0E0BBDB
:10B6C000BDE8104006F000BA132176DF0CE0002838
:10B6D0000CD0BDE81040FEF7FDBBA0F57F41FF395F
:10B6E00004D10448FFF728F80828F0D110BD000065
:10B6F000681B0020501E002070B50023042810D2C3
:10B700000D4D00EB4004012A02D101290CD000228A
:10B71000094E00EB4000304461B1012906D00229F6
:10B7200006D00723184670BD0E30C2B22A55F9E77D
:10B730004270F7E78270F5E7781F0020044A01465F
:10B7400000201279D20702D0084600F04DB87047A9
:10B75000881B002070B506461E480024C0E9016120
:10B76000B00720D50025012211462846FFF7C4FF67
:10B770006D1C0446042D02D2002CF4D013E094B9C1
:10B7800040F2666204211448FEF730FB04000AD13F
:10B79000FEF71AFB040006D10F48104A0021001FD3
:10B7A000FEF7A4FB0446F00701D0FFF7C9FE74B909
:10B7B00009480B4A00210C38FEF798FB040006D11B
:10B7C0000548084A01210838FEF790FB0446204648
:10B7D00070BD0000881B00201C2A02003DBA010039
:10B7E00025D50100B79D01002DE9F05F6A4C0546A3
:10B7F00000266078B34618B184F801B001F07AFEF3
:10B80000664F4FF47A694FF4C87A4FF00108182D4B
:10B8100062D2DFE805F0AC0C0C31404D62676B740E
:10B820006B74BE7D7D7D7D7DACAFB2B5BEBE0020AC
:10B83000FFF776FE00284FF0000008D0FFF760FE0B
:10B84000022D02D14FF4E16008E0484606E0FFF720
:10B850005FFE022D01D1C82000E05046410CC0031C
:10B860004FF4FA72801841F1000125705200002354
:10B87000FDF77EFE01462AE00020FFF751FE00287A
:10B880004FF0000004D0FFF73BFE4FF44870E5E7AF
:10B89000FFF73EFEDFE70020FFF742FE00284FF0F3
:10B8A000000002D0FFF72CFECFE7FFF731FED4E710
:10B8B0000020FFF735FE00284FF0000002D0FFF710
:10B8C0001FFE01E0FFF724FE257041F69A110022C9
:10B8D0003868FEF747FB064646E00020FFF7FEFD0E
:10B8E000257008E0002051E025703DE084F80180DB
:10B8F0000120FFF7F3FD002240F6CD41E8E784F890
:10B9000001800120FFF7EAFD00224FF48041DFE7CC
:10B910007868FEF76BFB0646D5F1110000D02EB11A
:10B920000220FFF7EDFD84F802B01DE0012816D9D2
:10B9300080B2C8214843C117C90341EA5041C0033E
:10B940004FF4FA72801841F1000152000023FDF714
:10B950000FFE014600227868FEF704FB064602202F
:10B96000FFF7D6FD84F802803046BDE8F09F01F075
:10B97000C1FDB9E701F0BEFDB4E701F0BBFD04E095
:10B9800001F0B8FD0020FFF7C3FD0120FFF7C0FD67
:10B99000AAE7FFF7F4FDA7E7881B0020102A0200A2
:10B9A00010B5FFF785FD032103F001F8002010BD5D
:10B9B000F8B5861C00208DF800000C46012768466B
:10B9C000FEF724FB0F4801682160D0E90012891AB4
:10B9D00082680446511AB51C07E000BF01F068FFF9
:10B9E000D4E90001401AA168091A491C8D42F5D812
:10B9F0002068304420609DF80000FEF72BFB38469D
:10BA0000F8BD0000EC2A002030B482680468531CA2
:10BA10008360A154D0E901128A4202D330BC02F003
:10BA200082BD30BC70470000034803C8814201D189
:10BA30000120704700207047EC2A00200078022186
:10BA4000FFF7E4BD05494FF0FF32082841F82020F8
:10BA500002D3084480F8482070470000A026002048
:10BA6000F0B54FF0FF3512B10023082601E008239E
:10BA70000C260C4C05E000BF54F823707F1C04D04A
:10BA80005B1CB342F8D32846F0BD26185DB286F899
:10BA9000305044F82310002AF5D1E11881F848000D
:10BAA000F1E70000A02600200249084490F9300088
:10BAB00070470000A02600202DE9F0438FB01E46FD
:10BAC000DDF8589015460F00804602D10020FEF7A1
:10BAD00001FA15B90020FEF7FDF91C216846FDF7B3
:10BAE00096FD00249DF80000039440F002008DF8BC
:10BAF0000000012001948DF836000494059406940A
:10BB0000ADF834800C9430788DF8300070788DF872
:10BB100031009DF83200142120F00600801C20F036
:10BB200019008DF8320007A8FDF771FD0DA80790E8
:10BB30000CA808900748ADF82450ADF82640ADF8A1
:10BB400028500B974B4607AA69460088A2DF0FB022
:10BB5000BDE8F083021C002070B504464FF6FF7567
:10BB60000A462846AC4208D14FF48074214610465C
:10BB700004F084FDA04209D070BDFF2CFCD8214602
:10BB8000104604F06EFD08B1204670BD284670BD19
:10BB900070B5084C050009D010342168002907D081
:10BBA00008682060496828468847F6E70834F4E7C3
:10BBB00070BD00008C2600202DE9F05F264841680A
:10BBC000F1B3DFF898B00E688146DBF80040876873
:10BBD0008078E11B21F07F45ED1CB0B9DFF8808053
:10BBE0004FF48030C8F84403C8F804031120FDF76F
:10BBF00045FE1120FDF74DFE4FF0010AC8F800A0E8
:10BC00002F2002F0F3F989F802A0B54200D23546A0
:10BC1000124BE8193C3320F07F401860DBF800102D
:10BC20005A46091B21F07F41001B20F07F40C91CB0
:10BC300081420FD9106818602F2002F0D7F900E078
:10BC400004E0BDE8F05F1120FDF72EBEBDE8F05F17
:10BC500005F02ABBBDE8F09F781C002004150140C8
:10BC6000001001402DE9F04117880646B81D144622
:10BC70000D46984202D90C20BDE8F0813188072298
:10BC800006290AD34FF4486C4FF6FF73614501D97A
:10BC9000994202D17088062801D21046ECE760452F
:10BCA00001D99842F9D1994203D0984201D08142FA
:10BCB000F3D80520E85520881221401C80B220804E
:10BCC00029542088401C80B220804119308806F019
:10BCD0005DFB2188084480B220804119708806F0FD
:10BCE00055FB2188084420800020C5E7FEF7F2B804
:10BCF00038B54A7A0F4B62B100220A72596900299D
:10BD000006D001228DF80020ADF802006846884771
:10BD100038BD0A7A62B19B684C68024619462046D3
:10BD2000FEF720F90028F3D0BDE8384005F016BD35
:10BD30005B68F1E7D81F0020F0B585B016460F46C6
:10BD400004461D4614220B496846FDF747FC0A4885
:10BD50008DF80870ADF80240ADF80A608DF80C500F
:10BD6000017800222046FEF72BFF684600F0D4F948
:10BD700005B0F0BD202B0200E41B00202DE9F843A4
:10BD80000025441C90460E462F468DF8005068460C
:10BD9000FEF73CF919480268C8F80020D0E90023F2
:10BDA000D0F808C0D11AACEB0101491C8C4208D86C
:10BDB000511C01EA0C0100EB81051119016037608B
:10BDC0000AE003EA0C03A34207D913194A1E1A44D6
:10BDD000491E0260094D31600C35D0E900128068BF
:10BDE000891A401A401C022800D200259DF8000044
:10BDF000FEF730F92846BDE8F8830000EC2A002061
:10BE00007FB50C4610B1012004B070BD207900262A
:10BE100038B141F61D5501281BD0022826D00F202D
:10BE2000F2E70220207102960396E06801906946CD
:10BE300001A805F04BF950B102988188E180008893
:10BE40002081BDF80010029805F0BEF9DCE70A2059
:10BE5000DAE70A4B6A460021A01D05F0F3F838B175
:10BE6000064918398E61CE610A28CDD12846CBE724
:10BE700002488188019805F0A7F9F5E7A41C002085
:10BE80002DE9F04100260125144C22E0606822696A
:10BE900000EBC607387805FA00F1114217D08A4343
:10BEA000226102F0EDF902463878E36805FA00F104
:10BEB000194002FA00F3994209D17978012901D099
:10BEC000012100E0002151407A6802B19047761CC0
:10BED000F6B220788642D9D3BDE8F081641C0020F8
:10BEE0000E4910B50A784C780023A24212D0521C99
:10BEF000D2B20A70022A00D10B70084A0B780C32B9
:10BF000052F8232002608868104420F07F40886047
:10BF1000012010BD0360002010BD0000781C00202F
:10BF200013460A460021FFF707BF00002DE9F8433A
:10BF3000104D0F4680461E4691466946286801F01E
:10BF400026FF040014D01C21FDF761FB01202071A5
:10BF5000C4F81490380BC4F80080C4E90260694644
:10BF6000286801F035FF04F06BFE0020BDE8F8837F
:10BF70000420FBE7802B020010B503780022072B7A
:10BF800006D2DFE803F005040610202930000A700D
:10BF900010BD01230B7003898B818388CB81C0681E
:10BFA00088600A7410BD02220A7002898A81828820
:10BFB000CA81C2688A60807D062802D00020087489
:10BFC00010BD0120FBE703220A70C2888A81028922
:10BFD000CA81C068886010BD04230B70C088888146
:10BFE000CA818A6010BD0520087010BD70B5064D6D
:10BFF0000646002455F8241009B130468847641CD1
:10C00000042CF7D370BD00005828002030B504463A
:10C01000006885B00D46806800281CD01421684651
:10C02000FDF7F5FA0195A0680490207910B1012878
:10C030000DD104E001208DF80000206904E0022009
:10C040008DF80000E06800030290606903902068AA
:10C0500081686846884705B030BD70B586B0154622
:10C060000C00064619D0112C17D0082C15D014211D
:10C070006846FDF7CCFAADF80260304601F0ACF846
:10C08000ADF804000D2C0AD0862C1CD007208DF8AA
:10C0900000000294684600F04DF806B070BD032021
:10C0A0008DF8000025B12878C00701D0012000E0FC
:10C0B00002208DF8080000208DF80C0041F20110DC
:10C0C000ADF80A00E6E706208DF80000E2E7000080
:10C0D00010B50446408801F07FF8A080024801684E
:10C0E0002046BDE810400847B01B00202DE9F04174
:10C0F00007460024064E074D05E000BF56F8241001
:10C1000038468847641CE8788442F7DBBDE8F08154
:10C11000BC220020D41B002010B50446408801F04A
:10C120005BF8A080024801682046BDE8104008473F
:10C13000F42A02000149096808470000482B020060
:10C1400070B586B0044614216846FDF760FAA089F0
:10C150000026A0F54040ADF8040020782D4D0628BB
:10C1600035D2DFE800F0340303032E4EA08900F03F
:10C17000C9F9012130B9E08943F6FE72A0F54040CB
:10C18000904224D8A07B8DF808002078032810D096
:10C190005FF000008DF80900A0680390606850B15E
:10C1A00009208DF8000060680490684603F08CFD5B
:10C1B0000DE00120EEE708208DF800008DF810104A
:10C1C000F3E7A08900F09EF908B1E08938B16878FA
:10C1D000002802D06E7003F0A7FE06B070BD606844
:10C1E00038B10B208DF800006E70AE7003F09CFE2D
:10C1F000DBE70A208DF80000BDF8040003F024FFFF
:10C20000F2E713208DF800004FF6FF70ADF8040040
:10C21000CBE70000C01B002038B504460E4800786C
:10C22000A8B1A4F57F40FF380FD0684604F042FC67
:10C2300078B10521017001210171C480684604F0C4
:10C2400047FC04F0EDFC002038BD042038BD02207E
:10C2500038BD082038BD0000AC1C00200C4808B5D3
:10C26000007888B1684604F025FC78B10621017099
:10C27000684604F02DFC0748017809B101210173DB
:10C2800004F0CEFC002008BD022008BD082008BD37
:10C29000AC1C00201C290020F0B589B01421684690
:10C2A000FDF7B5F92D4C207818B16846FFF79EFED2
:10C2B00052E0201D012105AAFCF7B8FFC8BB4FF0D2
:10C2C000102040694FF080510969421C02D101EBF6
:10C2D00041000001224900220861A0F54050C860D9
:10C2E00020491F4802F03FFA002820D11F481C2394
:10C2F0008C221D49006801F037FD03F099FA050012
:10C3000014D0022D12D000270126062D12D006A827
:10C3100004F0D0FB88B106700C2D18D2DFE805F0D0
:10C32000170F170F17161716171113110B2009B037
:10C33000F0BD11E026706760B7E70820F7E70771E6
:10C3400005E0032100E00221017100E0067106A86A
:10C3500004F0BEFB04F064FC0020E8E7AC1C002005
:10C360002C1D0020902B020068280020582B020072
:10C3700038B5040014D0694604F0A8FEA0B1BDF899
:10C38000000000EB8001094800EB8100C16849B161
:10C39000A17A39B1C168491EC1600020A07238BDC0
:10C3A000052038BD062038BD0A2038BDF4280020FD
:10C3B0001FB501A9684604F045FE04B010BD07B5DD
:10C3C00013460A466946002004F03CFE0EBD07B540
:10C3D00013460A460021684604F034FE0EBD20B123
:10C3E00019B1006808600020704705207047000000
:10C3F0007CB50D46040019D0C5B1694604F066FE4F
:10C40000B0B1BDF800000B4900EB800001EB8000EB
:10C41000012101AA0C306668FCF72FFF2E606068CE
:10C420000C3068600120A07200207CBD05207CBD1E
:10C430000A207CBDF428002018B10323002206F056
:10C44000B7B9052070470223002206F0B1B912B136
:10C45000022306F0ADB9052070470000094908B570
:10C460000A69042A0BD0084A096942F821000548E4
:10C47000012110306A46FCF700FF002008BD0C20A7
:10C4800008BD00008C1C00205828002038B5044648
:10C4900009480D46007858B164B16946284606F04F
:10C4A00081FA002803D1BDF800102180658038BDD5
:10C4B000022038BD052038BDAC1C002010B5044654
:10C4C0000E48007898B1A4B12188022913D80C4AEB
:10C4D00001EB810002EB800260885289C31C934209
:10C4E00009D806F053FA00202080608010BD022099
:10C4F00010BD052010BD042010BD0000AC1C0020A4
:10C50000F428002043F6FE71A0F54040884201D88F
:10C51000012070470020704710B5044600781828A5
:10C5200002D1FEF713FB207010BD10B50446007851
:10C53000182802D1FEF70AFB207010BD70B5134613
:10C54000002206461546862902D0112902D002E0B3
:10C55000012200E001250D4C73B1A179FEF730FBFB
:10C560002A4661793046FEF72BFB0022A17830463F
:10C57000FEF726FB002203E0A178FEF721FB2A4606
:10C5800061783046BDE87040FEF71ABBEC1B002016
:10C59000406804F0A5BA00000EB516A19DF8080089
:10C5A00020F00F00401C20F0F00010308DF8080043
:10C5B0000E2202A87CDF08B1FDF78CFC4FF48060EE
:10C5C00078DF08B1FDF786FC00200090019008217B
:10C5D000ADF80400ADF800104FF4C8705021ADF86C
:10C5E0000600ADF8021068467ADF002801D0FDF79A
:10C5F00071FC0EBD4E6F726469635F476C75636F4B
:10C600007365000070B508B1012070BD194C00259C
:10C61000207B08B1257301E000F0A0F820780828FD
:10C6200026D2DFE800F02504080C10251420BDE810
:10C63000704000F021B8BDE8704000F07DB8BDE862
:10C64000704000F05FB8BDE8704000F03BB8608813
:10C65000084900EB8000283901EB80004068BDE804
:10C66000704003F0C5B86560BDE8704003F0CEB817
:10C670000F2070BD1C2900201149F0B48A1C002035
:10C680000346A1F128050C18A67A4EB1A37200EB5F
:10C69000800405EB8404E66816B9247C012C0AD0DA
:10C6A000401C80B20228EED30B704B804B60F0BC74
:10C6B00041F61D5070471080F0BC00F03DB80000FE
:10C6C0001C2900200C48418801EB8102A0F12801BF
:10C6D00001EB8201CA6852B10521017007480221AD
:10C6E0008180016800230122054802F015B8042268
:10C6F00002704968F6E700001C290020B41C0020E5
:10C700002C1D002038B50A49084803240B684268EC
:10C71000898803EB810153880470DB1C00201B0413
:10C7200000909B0B034802F0BDF838BD1C29002087
:10C73000B41C00202C1D0020074910B54888091D95
:10C7400004F014FD18B1BDE81040FFF7DBBFBDE8F1
:10C750001040FFF7B7BF00001C290020F0B51F48AC
:10C760001F490125067802248B88A0F12802082E93
:10C7700019D2DFE806F00418181B222F2F170189A1
:10C78000491C01810021418080F80C1001EB8103DC
:10C7900012F8233043B100234418491C89B2A37214
:10C7A0000229F3D30570F0BD0123F5E742685288F2
:10C7B000D21C1A448A800470F0BD46880D6806EBCE
:10C7C000860602EB860256680E60556013818C80E7
:10C7D000062100E007210170F0BD00001C290020A7
:10C7E000B41C002030B501888588224C85B05029C2
:10C7F00024D0522902D0542932D103E0284601F036
:10C8000001F82DE014221C496846FCF7E7FEADF85C
:10C810000250284600F0E0FCADF8040000F08AFA6F
:10C82000002261792846FEF7CBF9002221792846BB
:10C83000FEF7C6F96846FFF74BFC11E0017B0129C2
:10C840000ED1817A01290BD10089A0F5245102393A
:10C8500006D10121284601F009F8A07803F08AFCEE
:10C86000E07803F087FC207905B0BDE8304003F0A4
:10C8700081BC0000A81B0020782A020010B50446E5
:10C88000007800280FD1608800F0BCFF608800F0BD
:10C89000F9FA002807D00449608801220979BDE827
:10C8A0001040FEF78DB910BDA81B002010B5124C2A
:10C8B00000202070FEF74AF9A070FEF747F9E070FB
:10C8C000FEF744F92071FEF741F96071A17818294B
:10C8D0000FD0E17818290CD02179182909D018280F
:10C8E00007D00121601C03F0B5FE0120207000205C
:10C8F00010BD032010BD0000A81B00202DE9F04151
:10C9000092B000F02FFA6846FEF7DCF800246E467D
:10C910000D4D4FF6FF780DE006EB4407B88800F0A8
:10C920005BFC404504D1B88801222979FEF748F91B
:10C93000641CA4B20098A042EED8287903F01AFC37
:10C9400012B0BDE8F0810000A81B00207CB50446B1
:10C9500000781C4D08282FD1607A38BB207A4FF61A
:10C96000FF7601280DD0072802D0082824D11EE028
:10C97000A08800F06FFBB0421ED0012100F076FFCE
:10C980001AE0A0886A46012103F096F870B9019870
:10C99000007858B1A08800F05DFBB0420CD00122B5
:10C9A0002979FEF70DF9287903F0E4FB04E0054846
:10C9B0000021401C03F089FEA878BDE87C4003F00C
:10C9C000D9BB0000A81B002010B504460A484178D6
:10C9D0002046FEF7DFF868B10848002101EB41026C
:10C9E00000EB82025288A24201D1C8B210BD491C9C
:10C9F0001429F3D3FF2010BDBA1B0020AC20002067
:10CA000070B5094D094E002404EB440005EB80008D
:10CA100071784088FEF7BEF820B1641C142CF3D363
:10CA2000FF2070BDE0B270BDAC200020BA1B00201A
:10CA30002DE9F04104460E46007801F8010B6088AC
:10CA400005F0A9FC401CC7B2F519A088294605F0DD
:10CA5000A2FCA1792954401CC0B2E1792954401CA0
:10CA6000C0B2217A2954401CC0B2617A2954401CBA
:10CA7000C0B2A17A2954401C3844C5B22078C007FE
:10CA800005D07119A08905F086FC2844C5B220782C
:10CA9000800716D5A07B4FF6FF7101EA0030218A8E
:10CAA000C1F30B01084370556D1CE9B2000A7054C4
:10CAB000491CC8B2E27CA17C62F31F113154401CB6
:10CAC000C5B22078000705D57119A08A05F063FC6E
:10CAD0002844C5B22846BDE8F08130B58FB0054680
:10CAE0001C216846FCF793FD9DF80000002440F0EF
:10CAF00002008DF80000039401208DF8360042F604
:10CB00005120ADF834000C949DF83000019420F0D1
:10CB10000F00401C20F0F00020308DF830009DF810
:10CB20003100049420F0FF008DF831009DF83200B0
:10CB3000059420F00600801C20F019008DF83200CA
:10CB40000694142107A8FCF762FDA88D8DF8380023
:10CB5000000A8DF839000DA807900CA80890022053
:10CB6000ADF82400ADF828000EA8ADF826400B90D3
:10CB7000288905F11A0307AA6946A2DF0FB030BD64
:10CB800030B50A468BB0044605A91046FFF750FFA2
:10CB90000546ADF80000002001900290039004903B
:10CBA0006189ADF804100121ADF808008DF8061078
:10CBB00005A8CDF80CD00490608D01A9A6DF00284F
:10CBC00004D1BDF80010A94202D00C200BB030BD3A
:10CBD0000349CA78521CCA700A79521C0A71F5E7D7
:10CBE0004C1C002030B59FB00024054607949DF8EA
:10CBF0001C001C2120F00F00401C20F0F000103021
:10CC00008DF81C009DF81D0020F00F00401C20F046
:10CC1000F00020308DF81D009DF81E0020F0060069
:10CC2000801C8DF81E006846FCF7F1FC9DF80000A2
:10CC3000019440F010008DF8000007A8CDE90440F1
:10CC400001208DF87A0042F61820ADF8780018948B
:10CC50009DF86000039420F0FF008DF860009DF8BF
:10CC60006100069420F0FF008DF861009DF86200DD
:10CC7000142120F00600801C20F0180040F0010074
:10CC80008DF8620013A8FCF7C2FC2C2108A8FCF761
:10CC9000BEFCFEF7ABFA10F0FF0006D0401EC0B29B
:10CCA00008A9FEF7D7FA002816D11EA8139018A8D5
:10CCB000149019A908A8FFF7BBFEADF85400142082
:10CCC000ADF8580019A8ADF856401790288905F11D
:10CCD0000A0313AA6946A2DF1FB030BD2DE9F04157
:10CCE000124E07460125BD403068FDF77FF9002848
:10CCF0000DD10F4C2069284207D1384601F0C0FA07
:10CD00000028E06805D0284304E0A8432061BDE87E
:10CD1000F081A843E060206928432061A168306861
:10CD2000BDE8F0410022FDF71DB90000502B0200C4
:10CD3000641C00201CB5054AD2E90212CDE900129C
:10CD40000022694602F0DDFE1CBD0000902A0200B0
:10CD500003484FF6FF718180012101700020704768
:10CD6000B41B002010B54FF6FF7002F05DFE0349C2
:10CD70008880BDE8104004F069BD0000B41B0020AD
:10CD80002DE9FC41804600F027FA00240325012705
:10CD9000A0F57F412646FF3908D06A46082102F0F7
:10CDA0008BFE18B90198841D8688056832462B468B
:10CDB00021464046A9DF042804D0082804D00B28C7
:10CDC00008D002E0112000E00020002F00D10B204D
:10CDD000BDE8FC810027A80701D50125E6E734431B
:10CDE000F5D0002426460325E0E72DE9FC418046E6
:10CDF00000F0F2F90646A0F57F40FF380ED001257D
:10CE00002A466D1C0027ADB26B460821304602F061
:10CE10007DFE040006D0072C25D025E043F2020059
:10CE2000BDE8FC81019903230A1D0B604046891D62
:10CE3000AADF040004D00C2C09D0052C09D009E08D
:10CE400032460821104602F0F7FE04460CE00127A6
:10CE500000E000240821304602F0DAFE00B103248D
:10CE6000002FCDD100E00C242046D9E7044880886B
:10CE7000A0F57F41FF3901D004F0E8BC7047000005
:10CE8000B41B00200EB502A9019100F0A5F96A4675
:10CE9000012102F011FE08B100200EBD01980078BA
:10CEA0000EBD00002DE9F04107464FF6FF760A4817
:10CEB000ABDF10B10320BDE8F081074C43F203055E
:10CEC000A41E324661883846A7DFA842F3D16088A5
:10CED000401C6080F5E70000B61B0020428800EB94
:10CEE00082020C328A4201D9022070478188A1F562
:10CEF0007F42FF3A03D0008808B10020704701202C
:10CF00007047884204D20068401C01D0012070475D
:10CF1000002070473EB5027802230C46B3EB520F57
:10CF200017D1B0F80110ADF80010C1788DF80210DB
:10CF30008188ADF8041080798DF8060002AA01A955
:10CF40002046FCF70FFF032202A96846FCF771FB9D
:10CF500008B100203EBD01203EBD000010B50C46CA
:10CF6000FFF732FDFF280CD0074900EB400001EB32
:10CF70008000416821600189A180807AA071002031
:10CF800010BD052010BD0000AC20002070B5018848
:10CF900092B0102959D1011D34226846FCF71EFBBE
:10CFA0009DF804004FF6FF76032134466D46B1EB41
:10CFB000500F2AD002F0F6FE9DF8040040080ED073
:10CFC00001280CD0022820D118E00F99281D11311A
:10CFD000FCF763FE18B100BFBDF8344015E00EAA9F
:10CFE0000DA9072002F0B2FE0028EED10DE00F9946
:10CFF000281D491CFFF78EFF0028EDD10EAA0DA9B0
:10D00000072002F0A3FE0028F1D1BDF80000291D81
:10D0100000F054FEB44218D0BDF80000214600F0E4
:10D02000C5F8BDF80000ADF836000020ADF8384076
:10D03000074E8DF834000DAD044600BF56F824109D
:10D0400028468847641C022CF8D312B070BD00003B
:10D05000A42A0200094A002101EB410332F82330DF
:10D06000834205D101EB410002EB8000408870470C
:10D07000491C1429F0D34FF6FF707047AC200020F4
:10D080003EB50C46054602F08DFE0BE0BDF80000F3
:10D09000A04207D02846029900F02EF810B1BDF842
:10D0A00000003EBD01AA6946072002F04FFE00289D
:10D0B000ECD14FF6FF703EBD10B50D4C18200D4A57
:10D0C000607000204FF6FF7100EB400302EB83031A
:10D0D000401C59801428F7D3FDF738FD60701828DC
:10D0E00003D001202070002010BD032010BD0000DF
:10D0F000BA1B0020AC2000202DE9F0410C4605466B
:10D1000000F1110701F111061022491C401CFCF727
:10D1100090FA48B9681C00F0DDF928B1601C00F0F5
:10D12000D9F908B1012400E0002431463846FCF763
:10D13000B4FD3B780222B2EB530F0CD00321B1EBCC
:10D14000530F08D03378B2EB530F04D0B1EB530F29
:10D1500001D0012100E00021084201D18C4302D01E
:10D160000120BDE8F0810020FBE7018811B94218D9
:10D1700092780AB101207047491C0829F7D3002092
:10D18000704710B50C460346FFF7EFFF00280AD0A2
:10D1900018882188884205D10822A11C981CFCF718
:10D1A00048FA08B1002010BD012010BD02F0A0BF58
:10D1B00070B50446FFF74EFF0546204602F07FFC9F
:10D1C0004FF6FF7104468D4203D014B9284602F091
:10D1D0008FFF204670BD000010B5FFF7F5FBFF285C
:10D1E00005D0044900EB400031F8200010BD4FF697
:10D1F000FF7010BDAC2000203EB5044602F0D2FD09
:10D200000EE0019920464631FFF7BBFF28B901998E
:10D2100020462A31FFF7B5FF10B1BDF808003EBD2A
:10D220006A4602A9072002F091FD0028E9D14FF6D5
:10D23000FF703EBD38B504460A4801216A46FCF736
:10D24000A7F868B90848606002F00CF905491C238A
:10D250008C22087404488C39001F006800F084FD9B
:10D26000002038BDC8290020842B02002DE9F041A0
:10D270002D4F002518B17D600120BDE8F0810879AF
:10D28000012258B1294E01280CD0274C4FF002083A
:10D290000834022821D0032842D128E00A7102F084
:10D2A000B5FA3BE05FF0000000EB800116F82110BA
:10D2B000022908D0401C80B20228F5D33A707D6064
:10D2C00041F61D50D9E700EB800006F8205006EB30
:10D2D0008000406802F08CFA20E00D71A4F8048010
:10D2E000002301221248216801F016FA16E00D71A0
:10D2F000206802F07DFA0D4923682831498801EB46
:10D30000810206EB8201D1F804C0C4F800C04B6072
:10D31000A3880B81A4F8048006F822500028ACD022
:10D320007D600E20A9E70000AC1C0020F42800203E
:10D330002C1D00200146034802888A4200D00020AC
:10D3400070470000C41F00202DE9FC5F0E008346DB
:10D35000DDE90C47C6F1000098469246814600D4AC
:10D360000846012503E000BF90FBFAF06D1C504514
:10D37000FADAA84500D9454624B1002E01DB78072A
:10D3800000D5641EB80702D5B8F1000F0AD0F8071F
:10D3900008D13CB1A54205D220215846641EFEF7B3
:10D3A00033FBF6E7002E02DA4E462D2102E0780725
:10D3B00003D52B215846FEF727FB07F00300022870
:10D3C0000BD1B8F1000F08D13CB1A54205D23021F4
:10D3D0005846641EFEF718FBF6E7CDE900474346C2
:10D3E00052463146584604F0EBFFBDE8FC9F000072
:10D3F0000248007A002800D001207047C829002088
:10D40000F0B58488A518944200D82246A41AC28890
:10D41000D6189A4200D81346D21A4B880788BB42C6
:10D420000CD34088834209D88888A04206D3A842FA
:10D4300004D8C888904201D3B04201D90020F0BD81
:10D440000120F0BD70B50022214C0A70027803253E
:10D4500005232478032A01D094BB0EE0012C01D0CF
:10D46000072008E042780AB10D702BE0807808B1FF
:10D470000B7027E00120087024E0012A03D0042A61
:10D4800001D00220F7E742780424072A1CD2DFE803
:10D4900002F01B0418081804040080780028E7D163
:10D4A0000CE042681278012A05D00920022AE2D055
:10D4B000072AE0D2DCE780780328D9D1012070BDAB
:10D4C00000E00C700020FAE7072AFAD2CCE700004F
:10D4D0004C1C00200021425C0AB101207047491C0D
:10D4E0001029F8D300207047800701D00020704732
:10D4F000012070470A4810B5807860B1002401E02F
:10D50000022C06D02046FDF7FBFF641C042CF7D349
:10D5100010BD0324F6E7BDE81040FEF727B8000071
:10D52000881B002003480179C90702D00078FEF764
:10D530005BB97047881B0020064901200860064837
:10D540000168C1F300410029FAD104490020887024
:10D55000704700000C000040180400408C2600209A
:10D560001721018041800021017141717047000045
:10D570002DE9FE4F2A4D984691460F00824601D074
:10D5800000260DE0684600F0C5FB6A4600215046C3
:10D5900002F001FA2878009E10B99DF8090098B1B0
:10D5A0004A463146504604F0F5FB04460146002247
:10D5B0005046FEF7C3FF112C1AD008DC74B3082CB8
:10D5C0002CD00D2C09D129E00520BDE8FE8F862C3A
:10D5D0001AD0A4F54050023820D00325B8F1000F2E
:10D5E00004D0324621465046FEF737FD2846ECE788
:10D5F0003A4629795046FDF7E3FA4A46E97850461B
:10D60000FDF7DEFA0025E9E73A4629795046FDF7AD
:10D61000D7FA4A46E9785046FDF7D2FA2546DDE7C3
:10D62000EC1B00202DE9F041204F0E461546044624
:10D630003978FDF7AFFA002835D0204602F086F998
:10D6400050B32046FFF7C8FD80462046B978FDF765
:10D65000A1FA08B1012700E00227204602F05AFC97
:10D660000028404602D0FFF7A3FD0DE0A8F57F415A
:10D67000FF3909D0072102F0CBFA010004D00529B7
:10D6800002D0204604F086F82B4632463946204622
:10D69000BDE8F041FEF750BB2A4631462046BDE8C2
:10D6A000F041FEF73DBCBDE8F0810000E41B002026
:10D6B0002DE9F04391B08146FDF75EFA002820D0B5
:10D6C0006846FDF7FFF900246E4617E006EB4405B7
:10D6D0004946A888FDF75EFA78B10B4FA888F9781B
:10D6E000FDF758FA8046A8883979FDF753FA0146C4
:10D6F000A88801234246FFF73BFF641C0098A04224
:10D70000E4D811B0BDE8F083EC1B00202DE9F04710
:10D71000394E002780463D46DFF8E090D6F804A059
:10D7200057E003D00446D0F81C8035E099F800207B
:10D7300002EB4201521CD2B289F8002009EBC10170
:10D7400099F80230091D9A4201D189F800504868C1
:10D750000A780446012A12D0022A02D0032A3BD1B9
:10D7600008E004F0DBFC00B10127257434E0057407
:10D77000C06900E070680028F9D170602CE0207C5E
:10D7800050BB88686060C868A0600869E06048694C
:10D79000A061F07800B165606268B168184B501AFA
:10D7A00020F07F40984202D2A168084406E0881A1F
:10D7B000A16820F07F40814202D9081A206000E071
:10D7C000256065600120A56020742046E56104F0B5
:10D7D00087FCB8F10000A4D199F8001099F8010075
:10D7E0008142A3D117B97168514502D00120BDE82B
:10D7F000F0870020FBE70000781C00203427002081
:10D80000FFFF7F0030B585B005460024142168462F
:10D81000FBF7FDFEA5F57F40ADF80250FF3815D0AF
:10D820002846FFF7ADFA98B10B2815D0112811D072
:10D83000A0F54051023903D00146284603F096FF77
:10D8400009482246C1782846FDF7BAF905B030BD2F
:10D850000E2002E00124F3E70F208DF80000684657
:10D86000FEF736FCECE70000A81B00200A46024940
:10D870008978FDF7A5B90000A81B0020F8B505467A
:10D8800000780C46002620420FD100208DF80000C1
:10D890006846FCF7BBFB2878204202D12043287061
:10D8A00001269DF80000FCF7D5FB3046F8BD0000CE
:10D8B00070B588B0214800F096FA2048001F06464F
:10D8C00000F091FA1E4DD5E9014105E0C0F389123F
:10D8D00002EB9050641C044404EA010005EB800054
:10D8E000C0688207F2D000200DF1080204EA0103AB
:10D8F00005EB8303641CDB6842F82030401C0228DF
:10D90000F4D3029800F00300012808D002280AD1BD
:10D910000298032101EB905004EB900403E002987D
:10D92000C0F3831004443046002101AAFBF7D9FD5F
:10D93000002800D06C6008B070BD0000042F0020EB
:10D94000EC2A0020A8B0002001F0B2FA08B1FCF7E0
:10D95000C1FA01F041F9FCF7DBFA08B1FCF7BAFAB9
:10D960005A4A01215A48FCF7C1FA08B1FCF7B2FA49
:10D970005748584A0021001DFCF7B8FA08B1FCF7D7
:10D98000A9FA55490320FDF7E5FE08B1FCF7A2FA14
:10D9900069460020FDF70EFE08B1FCF79BFA9DF8E2
:10D9A000000002287DD0002701F014FD08B1FCF72B
:10D9B00091FA002569460120009501F0DBFB08B1D2
:10D9C000FCF788FA684601F053FC08B1FCF782FACC
:10D9D000FEF7E2FD0021414800F06CFA08B1FCF7C7
:10D9E00079FAA0216846FBF712FE02208DF80000AC
:10D9F00001248DF8024005208DF8030038480326E5
:10DA00000590ADF8106028202290B420239035486E
:10DA1000269032488DF87C4069461030FCF7A4FD12
:10DA200008B1FCF757FA2D4801211030FCF799FD99
:10DA300003F0BAFF29485121E83001606421C0E9B0
:10DA40000114047301462648083803F0D3FE1C2154
:10DA50006846FBF7DCFD4FF42030CDE900504FF471
:10DA6000702002902048059020488DF80C600690A8
:10DA7000ADF80E508DF810506846FCF7EFFF08B176
:10DA8000FCF728FA02F042FB114800224FF4A021D3
:10DA90000068FCF767FA08B1FCF71CFA1448008824
:10DAA00000E011E006EB004012A101F08FF93846CA
:10DAB000FCF734F901F09EF80028FBD13EDF002886
:10DAC000F8D0FCF707FAF5E701276DE73DA3010061
:10DAD000002A02000D170200A1B60100401E00201E
:10DAE0007C1B00207DF50100C9F50100EDBC0100A3
:10DAF000881D0020476C75636F7365206578616DC4
:10DB0000706C6520737461727465642E000000008F
:10DB100070B5144682880E4605462088111D0144C2
:10DB2000921C994201D8FE2A01D90C2070BD521CCA
:10DB300032542088FF21401C80B22080315420883C
:10DB4000401C80B220808119288804F01FFC2188A5
:10DB5000084480B22080AA8842B1A96841B130440B
:10DB6000FBF73CFD2088A98808442080002070BD78
:10DB7000072070BD2DE9F047C7880446181D1646DA
:10DB80008946B0FBF7F1B0FBF7F207FB12009A19D8
:10DB90003A44D21CB2FBF7F2DDF820A001E0246881
:10DBA000491E0029FBD13D1A8846B54216D818E017
:10DBB000BAF1000F05D0211809EB08002A46091D0B
:10DBC00004E0204409EB08012A46001DFBF706FD8E
:10DBD00000202468761BA844B74201D9354600E0EE
:10DBE0003D46002EE4D1BDE8F087000030B5024686
:10DBF00069B101F08BF90021084C0BE001EB410306
:10DC000004EB830315685B88AB4202D111600020EE
:10DC100030BD491C8142F1D3052030BD401D00209C
:10DC2000F8B50E46017814460546012901D16878F9
:10DC300030B12088821C9A422DD8012902D006E0FA
:10DC40000720F8BD69780144891C994223D8181A25
:10DC5000801E87B2ADF800702188B01C0844694668
:10DC60007DDF0028EDD12878022805D1BDF800100D
:10DC7000B94201D809210AE00821012805D16878B4
:10DC8000B84202D8ADF8000001E0ADF80070BDF870
:10DC90000000FE2801D90C20F8BD2288401CB05499
:10DCA0002088401C80B2208031542088401C208075
:10DCB000BDF80010084420800020F8BD70B505466E
:10DCC0000C004FF0FF0020D04FF6FF76B5421CD07D
:10DCD0000E48012241782846FCF772FF2846FEF7DD
:10DCE00073FEFF2803D1FEF78BFEFF280DD0084BF3
:10DCF00000EB400203EB82014D8023F82260226892
:10DD00004A60A2880A81A2798A7270BDBA1B00207B
:10DD1000AC200020034A00219268C0E90021816004
:10DD200070470000EC1B002070B54FF6FF750E46E3
:10DD3000A84201D1002000E0401C84B208E0214646
:10DD4000304602F0B6FC08B1204670BD641CA4B297
:10DD5000FF2CF4D9284670BD10B5FBF7F4FA08B1D2
:10DD6000002010BD112010BD10B531B1B2FBF3F48D
:10DD700003FB14241CB1092010BD0E2010BD01604E
:10DD80000021416081608281C381084610BD70B569
:10DD90000C460546FBF78CFA002802D0218828683B
:10DDA000084470BD10B50A8849888A4203D1FBF740
:10DDB000C1FA012010BD002010BD70B50C4605460B
:10DDC000FBF79BFA002802D061882868084470BDE0
:10DDD00010B50A8849888A4203D1FBF785FA0120E9
:10DDE00010BD002010BD08B501216A46FBF76CFB91
:10DDF000009808BD08B56A46FBF73FFA009808BDD1
:10DE000038B5044600258DF800506846FCF7FEF84A
:10DE100021686268086890420ED9401E0860017847
:10DE2000238AE26801FB0325227A2168101AC0B216
:10DE30000A79824200D208719DF80000FCF70AF9C5
:10DE4000284638BD38B5054600208DF800000C4640
:10DE50006846FCF7DBF8E868298A201AB0FBF1F184
:10DE60002A681068431C136001709DF80000FCF7DD
:10DE7000F1F838BD10B530B1017A42680368891AEB
:10DE8000C9B21A6006E00E2010BD03681A68541C5F
:10DE90001C601170491EC9B2F7D2006800210171DF
:10DEA000084610BDC20800F007030120895C9840B5
:10DEB0000840704710B560B1C160172120F8021BFF
:10DEC00020F8021B1B2100F8021BFFF749FB002072
:10DED00010BD0E2010BD00002DE9FC4182880C46CB
:10DEE000002A51D101880126354F0025102906D07E
:10DEF000112925D03A2927D055294BD146E0C07B9E
:10DF000004F1060E012802D12088AEF80000BEF808
:10DF10000010BEF8020081423CD910469EDF02008C
:10DF200008D0112A09D03888264906EB004000F0B5
:10DF300051FF2FE08EF805602CE08EF804602CE095
:10DF4000A01DFFF70DFB25E02346408934F8061F8E
:10DF5000814200D808466080172800D217206080D0
:10DF6000D86878B1607968B11749D1E90001CDE985
:10DF70000001ADF802206088ADF80400DA68694657
:10DF80001846904765712571BDE8FC810146204621
:10DF900001F028FBA07A0028F6D02846E1889EDF11
:10DFA00002000AD0112AEFD0388802B006EB0040F8
:10DFB000BDE8F041034900F00DBFA572E672E3E74A
:10DFC000401D0020202E0200AC2A020000F18040FB
:10DFD0000068002800D00120704708B500F180409B
:10DFE000002101600068009008BD000000283ED0BC
:10DFF0001F49204A096800BF00BF00BF00BF00BF23
:10E0000000BF00BF00BF91422FD000BF00BF00BFC4
:10E0100000BF00BF00BF00BF00BF00BF00BF00BF08
:10E0200000BF00BF00BF00BF00BF00BF00BF00BFF8
:10E0300000BF00BF00BF00BF00BF00BF00BF00BFE8
:10E0400000BF00BF00BF00BF00BF00BF00BF00BFD8
:10E0500000BF00BF00BF00BF00BF00BF00BF00BFC8
:10E0600000BF00BF00BF00BF00BF0138C3D1704771
:10E07000281D00200024F40070B50F4C00252078E6
:10E0800008B1852516E00021A16061602161E16091
:10E090004FF0E020D0F80001012610F0010F03D16D
:10E0A0000721002000F022F801F0DCF908B903484C
:10E0B00006602670284670BD8C260020180500409A
:10E0C00008B500208DF800006846FBF79FFF064862
:10E0D000C168491EC160C06808B9FFF72DFA9DF8F4
:10E0E0000000FBF7B7FF08BD8C2600204907090E8A
:10E0F000002806DA00F00F0202F1E02282F8141D77
:10E1000003E000F1E02282F8001400F01F02012178
:10E1100091404009800000F1E020C0F88012C0F872
:10E12000001170472DE9F0418846054602F08EF84F
:10E13000234E002828461AD0FDF7B6FC304490F84C
:10E1400048008009032802D001280ED007E04FF0D4
:10E15000A040D0F81005E84010F0010F05D00321D1
:10E160002846BDE8F04100F033BC0221F8E702F098
:10E1700079F8002822D02846FDF796FC04464FF493
:10E18000807000EB84000F4F81B207EB8400D0F861
:10E19000102542F00102C0F81025084600F048FCA6
:10E1A000B8F1000F0AD02846FDF77EFC56F8200093
:10E1B000002803D00120A040C7F80403BDE8F08187
:10E1C000A0260020006000402DE9FC41DFF8A4807B
:10E1D000044608EB0400002790F930001346C017EE
:10E1E0000E46401C01D0082741E0F278194620462F
:10E1F000FDF736FC0546401C38D0B07850B14FF0E2
:10E20000A04000EB8400D0F8001721F00201C0F814
:10E21000001707E000217378204600910A4601911B
:10E2200000F085FBF078C0B11348317800EB850031
:10E23000D0F81025114B1A40C0F810254FF4F852B1
:10E240004FF4403302EA042203EA01410A43D0F8C2
:10E2500010150A43C0F8102509E008EB05003278D4
:10E2600010F8481F41EA8211017000E00427384687
:10E27000BDE8FC81A026002000600040FFE0FCFF1C
:10E280004FF0A041D1F81015C14011F0010000D0AD
:10E290000120704770B5144D95F8540008B108205E
:10E2A00070BD0020411E2A18401CC0B282F83010F8
:10E2B0002028F8D300242046FDF7C4FB641CE4B2F8
:10E2C0000C2CF8D307210620FFF710FF4FF4BE7087
:10E2D00000F0AEFB05494FF00040C1F804030120F7
:10E2E00085F85400002070BDA0260020006000408A
:10E2F000034890F85400002800D001207047000027
:10E30000A02600200121B1EB507F01D101207047F0
:10E31000002070472DE9F04105460F4600791F495E
:10E32000C0EBC00001EB80041646E07E10B108206F
:10E33000BDE8F08139462846FBF7A6FE66603869DD
:10E340002060F6B13E7F4FF48871286801F00FF924
:10E350004FF49071286801F00AF94FF4927128681F
:10E3600001F005F94FF4A271286801F000F928685E
:10E370000B49C0F8041328683146000B40B2FFF780
:10E38000B5FE28680821C0F800150020E075207649
:10E39000A0750121E176A076CAE70000F8260020EA
:10E3A000100302002DE9F04704460079254FC0EB29
:10E3B000C00007EB800590460E460846FFF7A2FF17
:10E3C00030B1204600F040F820B11120BDE8F087C0
:10E3D0001020FBE785F816804FF00008AE60A5F826
:10E3E000148020794FF49079C0EBC00007EB8005D2
:10E3F00046464946206801F0BAF84FF4AC773946F2
:10E40000206801F0B4F82068A97DAA68C0F8442506
:10E41000C0F84815206801218160686880B9CA4643
:10E42000B9465146206801F09DF8074649462068E4
:10E4300001F098F80743F4D000B10F2685F8168054
:10E440003046C3E7F826002000790549C0EBC0003C
:10E4500001EB8000807D002800D001207047000083
:10E46000F82600202DE9F041024600792549C0EB4D
:10E47000C00001EB800710684FF00008C0F800856D
:10E48000786880B110682049C0F80813106801212D
:10E49000000B40B200F01F0399404009800000F1DA
:10E4A000E020C0F880111068D0F80C35D0F8146561
:10E4B000D0F80855D0F810454FF0FF31C0F80C15D2
:10E4C000C0F814151068C0F80815C0F81015581CCD
:10E4D00002D0184600F04FFA701C02D0304600F00F
:10E4E0004AFA601C02D0204600F045FA681C02D0AF
:10E4F000284600F040FA87F81B80C7F80480BDE882
:10E50000F0810000F8260020100302000FB408B5C7
:10E510000399002904D004AA00926A4600F00FF87B
:10E5200001B05DF814FB10B582680446002A05D0DE
:10E53000D4E90403216898470020A06010BD2DE9AC
:10E54000FC4791460C00804676D014F8011B39B187
:10E5500025290ED04046FDF757FA20780028F4D13F
:10E5600098F80C00002867D04046BDE8FC47FFF74C
:10E57000DABF0020012221782B291BD02D2902D0BF
:10E58000302908D102E040F0010001E040F0020033
:10E59000641C002AEFD100252A290ED02178A1F190
:10E5A00030020A2A11D205EB850201EB4205641CF8
:10E5B000303DF1E740F00400EAE7D9F800100B1D08
:10E5C000C9F800300968641C0D44217800232E2905
:10E5D0000BD114F8011FA1F130020A2A05D203EB76
:10E5E000830201EB4203303BF3E76C290DD068292D
:10E5F0000BD0692921D00BDC252918D0582931D01E
:10E6000063290ED0642915D117E014F8011FECE737
:10E61000702969D0732932D075291BD0782909D186
:10E6200020E0D9F80000011DC9F80010017840462B
:10E63000FDF7EAF9641C90E76CE0D9F800100A1DB8
:10E64000C9F800200968CDE900500A224046FEF7CB
:10E650007BFEEFE7D9F800100A1DC9F80020096811
:10E660000A2206E0D9F800100A1DC9F8002009683E
:10E670001022CDE90050404603F0A2FEDAE7D9F8B7
:10E68000001000270A1DC9F800200E68C00705D138
:10E6900012E04046761C7F1CFDF7B6F93178002960
:10E6A000F7D104E0202140466D1EFDF7ADF9BD42D3
:10E6B000C0D9002DF6D1BDE74EB13046FAF7B2FF12
:10E6C000074604E0202140466D1EFDF79DF9BD423E
:10E6D00006D9002DF6D103E04046761CFDF794F9EB
:10E6E00031780029F8D1A5E7D9F80000011DC9F853
:10E6F0000010056830214046FDF786F97821404634
:10E70000FDF782F908200021CDE90001034610221F
:10E710002946B0E7BDE8FC872DE9F0411F461546C4
:10E7200004000E4616D02068B8B1C5B16068026812
:10E73000501E304215D16A432046FBF7C7FA80B11C
:10E7400020683B462A46D0F810C031462046BDE836
:10E75000F04160470E20BDE8F0810820FBE709206A
:10E76000F9E71020F7E720B119B101600B681146F5
:10E7700018470E20704700002DE9F04128B10168CC
:10E7800019B1C969BDE8F04108470D4D0D48002495
:10E79000461B14270DE000BF04EB840005EB80004E
:10E7A000016829B1C969884710B10120BDE8F0812D
:10E7B000641CB6FBF7F0A042EED80020F6E700009C
:10E7C0002C1D0020401D0020044801214174007AC6
:10E7D00008B100207047012070470000C8290020C0
:10E7E000012801D0032808D10449002201284A74D5
:10E7F00000D00020087402F0C7B97047C829002073
:10E8000070B5254C0246207A012837D0022841D124
:10E8100022480023022A006802D0032A2ED11BE0DE
:10E82000E360017911B1012928D10DE0D0E9056536
:10E83000711B4FF48056B14200D3314629448161A7
:10E840004569A9420ED019E00169491C016142697C
:10E85000914213D1237217E0E168491CE160082955
:10E860000CD9E3602372022A0ED00D21FDF7CEFBF6
:10E870000B480A49091D0068FFF794FA607C28B12B
:10E88000BDE8704000F0F4BD0021EFE7BDE8704046
:10E8900002F07AB970BD0000C8290020BC1C00201D
:10E8A000802B02002DE9F8431D46089F1646884636
:10E8B00004000DD066B1206860B135B16068406871
:10E8C000B5FBF0F100FB115030B10920BDE8F88331
:10E8D0000E20FBE70820F9E74046FBF7F1F990B17D
:10E8E0003046FBF7EDF970B12A4641462046FBF76A
:10E8F000EDF940B1009720682B463246C768414683
:10E900002046B847E2E71020E0E770B541EA42014F
:10E91000DDE904564FF0A04441EA830141EA0521B4
:10E9200004EB800041EA0641C0F8001770BD70B5E5
:10E9300041EA4201DDE904564FF0A04441EA830177
:10E9400041EA052104EB800041EA0641C0F80017C6
:10E9500070BD70B541EA4201DDE904564FF0A044B4
:10E9600041EA830141EA052104EB800041EA0641C6
:10E97000C0F8001770BD1CB5002100910B460122A4
:10E980000191FFF7E6FF1CBD1CB500220B4600926B
:10E9900011460192FFF7DDFF1CBD1CB5002100915F
:10E9A0000B46012201911146FFF7D3FF1CBD4FF02A
:10E9B000A04202EB8000D0F8002722F44032C0F8D9
:10E9C0000027D0F8002742EA0141C0F8001770473D
:10E9D0004FF0A04202EB8000D0F8002722F4403232
:10E9E000C0F80027D0F8002742EA0141C0F800171C
:10E9F000704701224FF0A043824011B1C3F80825AF
:10EA00007047C3F80C25704718B5084B6C46014495
:10EA10001B68009306E000BF54F82030D3F810358F
:10EA2000401C08C28142F7D818BD00004C2B0200E0
:10EA3000034908B50844002101600068009008BD42
:10EA40000060004002494058012800D00020704773
:10EA50000060004030B5124B01460020D3F810444E
:10EA6000224609E0157A854205D1401C0A28F7DBC9
:10EA70004FF0FF3030BD5268002AF3D1421CF9D06C
:10EA80000872D3F810242AB152684A60D3F81024CF
:10EA9000516030BD0022C3F810144A6030BD000040
:10EAA000EC2A0020F0B595B01C4615460F460846E6
:10EAB0001A9E00F02FFB182109A8FAF7A8FD0E9660
:10EAC000CDE909540023082203A9384600F03CFB95
:10EAD000059806900498ADF81C0000208DF82000E1
