:020000040000FA
:10000000B0250020150400001D0400001F0400009E
:10001000210400002304000025040000000000006B
:1000200000000000000000000000000027040000A5
:1000300029040000000000002B0400002D04000033
:100040002F0400002F040000790900002F04000095
:100050002F0400002F0400002F04000039050000C9
:100060002D0900002F0400002F0400002F040000C1
:100070002F0400002F0400002F0400002F040000B4
:100080002F0400002F0400002F0400002F040000A4
:100090002F0400002F0400002F0400002F04000094
:1000A0002F0400002F0400002F0400002F04000084
:1000B0002F0400002F0400000000000000000000DA
:1000C0002F0400002F0400002F0400002F04000064
:1000D0002F0400002F0400002F0400000000000087
:1000E0000000000000000000000000000000000010
:1000F0000000000000000000000000000000000000
:1001000000000000000000000000000000000000EF
:1001100000000000000000000000000000000000DF
:10040000DFF80CD000F066F800480047E11000006B
:10041000B02500200648804706480047FEE7FEE773
:10042000FEE7FEE7FEE7FEE7FEE7FEE7FEE7FEE7A4
:1004300091060000010400000048704700230000FE
:1004400040EA01039B0703D009E008C9121F08C056
:10045000042AFAD203E011F8013B00F8013B521ED6
:10046000F9D27047421C10F8011B0029FBD1801AF9
:1004700070472DE9F05F0546002092469B4688466E
:100480000646814640241BE0284641464746224610
:1004900000F041F853465A46C01A914110D3114614
:1004A0001846224600F028F82D1A67EB01084F463F
:1004B00022460120002100F01FF817EB00094E41F1
:1004C000201EA4F10104DFDC484631462A4643469B
:1004D000BDE8F09F064C074D06E0E06840F00103E0
:1004E00094E8070098471034AC42F6D3FFF78CFF2E
:1004F0001023000030230000202A04DB203A00FAF9
:1005000002F1002070479140C2F1200320FA03F36A
:10051000194390407047202A04DB203A21FA02F068
:100520000021704721FA02F3D040C2F1200291402D
:1005300008431946704700002DE9FE434FF48278C6
:10054000404601F0B9FB504F0025504C012600B346
:10055000404601F0B9FB94F82B0010B194F82C1030
:10056000D1B18DF80050616801912189ADF8081072
:10057000E16829B16160A18A2181E56018B103E0D9
:1005800084F8295000E03E6021686846884784F876
:100590002C5094F82B0098B34FF48077384601F034
:1005A0008BFB68B3384601F08FFBE28A72B194F896
:1005B0002A108A4210D9A2EB010080B2E08222897F
:1005C000A2EB0000626802EB40000BE0208994F887
:1005D0002A10A0EB0100F0E707D1E06828B184F809
:1005E0002C60E58201F022FB04E08A4202D184F80B
:1005F0002C60E582404601F067FB2348001D066041
:100600004FF48877384601F057FB50B1384601F077
:100610005BFB84F8295002208DF8000021686846B1
:1006200088474FF48A77384601F046FB30B13846A8
:1006300001F04AFB84F82950BDE8FE834FF00048E2
:100640004FF48C7927691CE0B7FA87F028FA00F19B
:1006500009EB80058F43284601F02EFB88B1284620
:1006600001F032FBA5F58C75E8088DF8040045F320
:100670008000401C8DF800608DF8050021686846F8
:100680008847002FE0D1D7E7007000403C000020F1
:10069000F0B598480023021D01780125101D4FF088
:1006A0008056062907D11478240704D10478C4F3AE
:1006B0000314032C02D0062904D00FE08F4F8E4C78
:1006C0007C670EE01478240708D10478C4F303147F
:1006D000032C06D0042C04D0052C02D0062907D008
:1006E0000EE0D6F84442864FC4F342343C6002E048
:1006F0001478240704D10478C4F30314032C02D023
:10070000062906D011E07F4C276827F08077276004
:100710000EE01478240708D10478C4F30314032CE2
:1007200006D0042C04D0052C02D006290AD011E0F2
:100730004FF08044C4F80C31C4F81031704C241FC1
:10074000236002E01478240704D10478C4F303146E
:10075000032C02D0062905D00CE0694F032464372E
:100760003C600AE01478240704D10478C4F303142D
:10077000032C02D006290DD014E0634F05243C6001
:10078000614C78342560604C083423603F243F1D61
:100790003C6002E01478240704D10478C4F3031405
:1007A000052C02D0062957D068E058490968584AF4
:1007B00011605649091D0968121D1160534908311D
:1007C0000968121D116051490C310968121D116030
:1007D0004E4910310968121D11604C4914310968E5
:1007E000121D1160494918310968494A20321160C7
:1007F00046491C310968121D1160444920310968BD
:10080000121D1160414924310968121D11603F49D0
:1008100028310968121D11603C492C310968121DEC
:1008200011603A4930310968394A4032116037491C
:1008300034310968121D1160344938310968121DBC
:10084000116032493C310968121D11602F49403155
:100850000968121D116002E0117809070ED10078B5
:10086000C0F30310032803D0042801D0052805D1C4
:10087000D6F85802274900F04F0008602148743824
:10088000016841F470010160BFF34F8FBFF36F8FB8
:100890004FF01021D1F80002002803DBD1F8040248
:1008A000002822DA1C4A15601C480468002CFCD081
:1008B0001524C1F800420568002DFCD0C1F804429F
:1008C00001680029FCD0136001680029FCD0BFF347
:1008D0004F8F0C48F0380168114A01F4E061114370
:1008E0000160BFF34F8F00BFFDE70F490D4808605F
:1008F000F0BD0000E00F00F00DF0ADBA00C0074001
:100900003C050040FCED00E01056004004040010DF
:1009100020C50040E40E004004E5014000E4014031
:100920000400FA050090D003240000202DE9F843CC
:1009300000250F4C04274FF4A078BE034FEA0509A9
:1009400008EB850006FA05F122585AB1D4F80423C1
:100950000A4207D044F800902158064A0091516895
:10096000126890476D1CEDB2BD42E9D3BDE8F88333
:10097000008000406C0000200448017F04480029EA
:10098000024901D001F0CFBB01F03EBB780000204E
:10099000002000400FB41CB50A46521ECDE90002EB
:1009A00007A9054B6A46069800F018F8009A00213E
:1009B00011701CBC5DF814FB3F0E000002E008C87B
:1009C000121F08C1002AFAD170477047002001E0C9
:1009D00001C1121F002AFBD1704700002DE9FF4F13
:1009E0008DB00F460546002606E025280BD0DDE930
:1009F0000F1290476D1C761C28780028F5D111B095
:100A00003046BDE8F08F0024A246A1460122EC4901
:100A100000E0044315F8013F203B02FA03F00842CE
:100A2000F7D128782A2810D06FF02F022878A0F16B
:100A30003001092914D80AEB8A0102EB410144F084
:100A4000020400EB010A6D1CF0E701CF5FEA000A27
:100A500003D544F40054CAF1000A44F002046D1CAA
:100A600028782E2817D115F8010F44F004042A28FD
:100A70000ED06FF02F022878A0F1300109290AD892
:100A800009EB890102EB410100EB01096D1CF2E762
:100A900057F8049B6D1C28786C280FD006DC4C2876
:100AA00017D068280DD06A2814D104E0742810D01B
:100AB0007A280FD10DE044F400140AE044F48014C5
:100AC00001E044F440146978814202D104F58014B5
:100AD0006D1C6D1C2A786E2A1FD00CDC632A31D065
:100AE00004DC002A8BD0582A11D1A3E0642A68D0F4
:100AF000692A0CD165E0732A2ED004DC6F2A73D0EA
:100B0000702A04D19BE0752A6FD0782A6ED01046E7
:100B1000DDE90F129047761C50E1C4F30250022821
:100B200006D0032809D0042801CF09D0066045E18A
:100B300001CFF117C0E9006140E101CF06803DE13E
:100B400006703BE117F8040B8DF8000000208DF8CB
:100B50000100EB46012003E057F804BB4FF0FF30E3
:100B600061074FF0000102D40DE008F10101884651
:100B700049450FDA8045F8DB1BF808100029F4D14D
:100B800008E008F1010188468142FADB1BF80810F1
:100B90000029F6D1DDE90F23AAEB080081462146A2
:100BA00000F036F9304400EB080604E0DDE90F12EE
:100BB0001BF8010B9047B8F10108F7D221464846CF
:100BC000F7E00A21C4F302534FF0000B0891022B07
:100BD00004D001CFC117032B09D00AE0FF1D27F075
:100BE0000707F7E8020108E032E01FE020E000B26A
:100BF000C117042B01D140B2C117031E71F10003CC
:100C000007DA4FF0000CD0EB0C006CEB01012D2348
:100C100002E0230504D52B238DF82430012303E0C3
:100C2000E30701D02023F7E7984658E00A2110E0B7
:100C300010210EE010204FF0000B08900CE0102166
:100C40004FF0000B44F004044FF00809089103E052
:100C500008214FF0000B0891C4F30253022B04D07B
:100C600001CF0021032B06D006E0FF1D27F0070768
:100C7000F7E8020103E080B2042B00D1C0B24FF0CC
:100C8000000823072BD5702A07D0DDF820C08CF090
:100C9000100C5CEA0B0C05D00EE040238DF82430DC
:100CA000012308E050EA010306D030238DF82430F8
:100CB0008DF8252002239846DDF820C08CF0080C22
:100CC0005CEA0B0C0BD150EA010301D1630706D596
:100CD00030238DF824304FF00108A9F10109582A7A
:100CE00004D038A20B9208AA0A920BE03AA2F9E7C4
:100CF0005B46089AFFF7BDFB0B9B9B5C0A9A521E52
:100D00000A92137050EA0102F2D10A98ADEB00008A
:100D100000F1200B600702D524F4803401E04FF08D
:100D20000109D94502DDA9EB0B0000E0002000EB32
:100D30000B0141440890AAEB010AE00306D4DDE967
:100D40000F232146504600F063F806444FF0000997
:100D500008E009A911F80900DDE90F12904709F12F
:100D60000109761CC145F4DBE0030CD5DDE90F2356
:100D70002146504600F04CF8064404E0DDE90F122D
:100D800030209047761C0899481E08900029F5DC11
:100D900008E00A980A990078491C0A91DDE90F12C7
:100DA0009047761CBBF10001ABF1010BF1DC214651
:100DB0005046DDE90F2300F019F806446D1C1BE6D0
:100DC0000928010030313233343536373839616221
:100DD00063646566000000003031323334353637E5
:100DE0003839414243444546000000002DE9F041B6
:100DF000044600251E461746880404D405E03946FB
:100E00002020B0476D1C641EF9D52846BDE8F0814E
:100E10002DE9F041044600251E469046C80301D541
:100E2000302700E02027880404D505E041463846F5
:100E3000B0476D1C641EF9D52846BDE8F0814A68AC
:100E4000002A06D00A68531C0B6010704868401EC8
:100E5000486070470DA1012000F07CFE00F0D4FD39
:100E600000F0D6FD0028FBD10CA1032000F072FE9B
:100E7000BFF34F8F10480168104A01F4E06111433D
:100E80000160BFF34F8F00BFFDE700003A455252AB
:100E90004F523A466174616C0D0A00003A494E4661
:100EA0004F3A486974207765616B2068616E646CA5
:100EB00065720D0A000000000CED00E00400FA0568
:100EC0000EB500210091CDE901106A4644F20100FF
:100ED000FFF7C0FF0EBD00F003B800F009B8000036
:100EE00072B602480168491C01607047100000207A
:100EF00003490868401E086000D162B670470000D0
:100F0000100000202DE9F041064608680C46411CFF
:100F10004FF0A0474FF0010506D005FA00F1C7F8E1
:100F20000815206800F004FC6068411C02D0002114
:100F300000F0F5FB3079204901EB4010A169007FFA
:100F400000283068C0F8241525D0607D227D3168E6
:100F50001043C1F86C05D4E900123068C0F80C15D4
:100F6000C0F8142524E0A068411C02D0002100F044
:100F7000D6FBE068411C05D08540C7F80855E068FD
:100F800000F0D6FBD4E902123068C0F80825C0F89A
:100F90001015BDE8F081607D217D32680843C2F8FC
:100FA0006C05D4E900123068C0F81425C0F80C159F
:100FB000207D0128D7D0ECE778000020002901DA55
:100FC0000020704702681144016001207047000052
:100FD00070B5461C0D4601240020FFF77CFF114A26
:100FE00010682860D2E900109568081A2B1A701C46
:100FF0005B1C98420FD963B10B480C4B2940006829
:101000001B6802EB810163F39F20C8601068401CDD
:101010001060002401E0881910600020FFF75DFFD8
:10102000204670BD980100205822000020000020BA
:10103000034803C8814201D1012070470020704756
:101040009801002070B50E460446007918494FF407
:10105000A27501EB4010017F2068A1B14FF48871A7
:1010600000F052FE4FF49071206800F04DFE4FF4F6
:101070009271206800F048FE2946206800F044FE86
:101080000C49206809E04FF48E7100F02CFE2946CF
:10109000206800F028FE08492068C0F80413206882
:1010A00000F071F83146BDE8704000F050B8000023
:1010B000780000201003020080000200012181401E
:1010C00003484068014201D001207047002070476A
:1010D0000800002001218140080300D00120704752
:1010E000002000F091FD08B1FFF7EAFE08A10320FF
:1010F00000F030FD00F0ACFE00F0E2FE00F0D2FEA9
:10110000AFF3028000F084FC0028FBD1F8E7000078
:101110004150503A494E464F3A534141444320488A
:10112000414C2073696D706C65206578616D706CE1
:10113000652E0D0A0000000000F01F020121914001
:101140004009800000F1E020C0F880117047490795
:10115000090E002806DA00F00F0202F1E02282F800
:10116000141D03E000F1E02282F8001400F01F02D9
:10117000012191404009800000F1E020C0F8801278
:10118000C0F800117047000B40B270470121B1EB6D
:10119000507F01D101207047002070472DE9F047B2
:1011A0000427144E814600244FF001080020FFF769
:1011B00092FE08FA04F5354203D02046FFF77EFF81
:1011C00058B10020FFF789FE27B104F10104AE43B6
:1011D000E4B2EBD13846BDE8F087074908FA04F0DD
:1011E00000274A681043486089F800403846FFF7F6
:1011F00074FEEFE7FFFF0F00080000202DE9F0412B
:1012000014460D00074612D08CB10026FFF762FF8E
:1012100078B13846FFF752FF68B1084800EBC700C5
:10122000C0F81055C0F814453046BDE8F0810E20D6
:10123000FBE70726F8E70826F6E7000000F0014084
:1012400070B5044601260025A640FFF743FF18B1FC
:101250002046FFF733FF18B102480660284670BDEC
:101260000825FBE704F501400448017809B1852011
:101270007047012101700020704700000800002025
:101280002DE9F041254C064612200D46C4F808030E
:10129000234890F82920022A18D001464FF480787C
:1012A00091F82B10012A13D00222C4F8042301273D
:1012B00080F82970466005810022C26021B3C58292
:1012C00090F82A10304600F0B1FC25E0122002E030
:1012D000C2682AB10220C4F804031120BDE8F081DD
:1012E000C660858261B94746384600F0E5FC0028B3
:1012F000FAD0384600F0E8FC2946304600F096FC6B
:101300000220C4F8040307E02946304600F08EFCB2
:10131000404600F0D9FC27600020DFE70070004065
:101320003C00002070B50F4A05460C4692F8290093
:1013300008B1112070BD02EB4501087E18B912F802
:101340002A0F401C1070E0790876207A48762146F2
:10135000284600F073FC227AE179284600F0A2FCCE
:10136000002070BD3C0000202DE9F0411C4C0546DA
:1013700094F8280010B10820BDE8F08109B115B13A
:1013800002E00720F8E7174D44F8101B16492878AB
:101390000860091D68780860E878E07601272776FC
:1013A00000206076A0762060104E20776FF000401D
:1013B000C6F808034FF4827000F086FCA978072075
:1013C000FFF7C5FE0220C6F80403E07E10B101203D
:1013D000C6F804030448F03807600020CCE700009A
:1013E0003C00002031220000F075004000700040F9
:1013F000044890F82B0008B1002000E004200249C6
:10140000084470473C0000200070004030B54FF4A5
:10141000803405688C4013B1C5F8044301E0C5F879
:101420000843006800EB8100C0F8402530BD000093
:10143000016801220A600079034A00EB400002EBD8
:1014400080000221017270476C000020F0B4046833
:10145000049E40F20115D4F800728D40AF43C4F8E9
:1014600000720468D4F800521D43C4F80052334699
:10147000F0BCFFF7CBBF0000F8B504460D4600797D
:10148000204900EB400001EB8006307A08B10820CB
:10149000F8BD3AB1326068687060002003464FF4CE
:1014A000A07709E00720F8BD226807EB80015350C0
:1014B0005158401CC0B2009161798142F4D8206833
:1014C000E978000B40B2FFF742FE20686978D0F857
:1014D000042561F30102C0F804252068A978D0F83A
:1014E000082561F30102C0F8082520682978D0F8A2
:1014F000102561F30302C0F810250120307200208E
:10150000F8BD00006C0000202DE9F041054600798F
:10151000164F904607EB40140E46E07E10B10820AF
:10152000BDE8F081707F20772846FFF7EBFC5FEA8B
:10153000080060603169216003D0317F2846FFF7E1
:1015400081FD287907EB4010007F0028286801D032
:10155000082100E00421C0F800150020E075207685
:10156000A0750121E176A076DAE70000780000207E
:101570002DE9F047054600793F4E904606EB4014B2
:101580000F46207F18B10846FFF700FE30B128460D
:1015900000F074F820B11120BDE8F0871020FBE7BF
:1015A00084F81680A7600027A78228794FF00108E9
:1015B00006EB40143E46207F0028286825D04FF4D3
:1015C0009079494600F0A0FB4FF4AC7A5146286868
:1015D00000F09AFB2868A17DA268C0F84425C0F8F5
:1015E00048152868C0F808806068F0B9494628683E
:1015F00000F085FB80465146286800F080FB58EAE1
:101600000001F3D058BBA7750FE04FF48E7A514616
:1016100000F069FB2868C0F808802146286800F0BF
:10162000CDFC61684FF4807089B13046B4E7514613
:10163000286800F053FB10B9A08A4845F7D1A08A6A
:10164000484505D02146286800F0B8FC00E08146F6
:10165000A08AA17D8842EAD3A08A484501D10F26FD
:10166000D1E75146286800F039FB0028F9D02868F6
:10167000C0F80C80C7E7000078000020007904491A
:1016800001EB4010807D002800D001207047000051
:101690007800002070B5044600791149002601EB5E
:1016A000401520682A7FC0F80065686888B12079F5
:1016B00001EB4010007F0028206801D0094901E0BB
:1016C00008498C39C0F808132068FFF75CFDFFF764
:1016D00033FD204600F01EFBEE766E6070BD00000C
:1016E000780000201003020070B541EA4201DDE9F4
:1016F00004564FF0A04441EA830141EA052104EB7E
:10170000800041EA0641C0F8001770BD1CB50021F9
:1017100000910B4601220191FFF7E6FF1CBD1CB5AD
:1017200000220B46009211460192FFF7DDFF1CBD1F
:101730001CB5002100910B46012201911146FFF7D3
:10174000D3FF1CBD00487047BD17000030B5184CD2
:10175000054689B0207828B16078854202D1002002
:1017600009B030BD202213496846FEF769FE00200B
:101770008DF81400062000900820019005200390A9
:10178000072002904FF0EB7006900948001DFFF70C
:1017900081FF0DB1002200E0074A05486946001D9F
:1017A000FFF7B2FE0028DBD1012020706570D6E77C
:1017B0001400002038220000F91F00002DE9F04F2E
:1017C000C1B00D004FF0000140914D984B991C465F
:1017D000174601EB000B01D00A2000E000208046F4
:1017E00000F0B4FB00287CD16E46BCB9409840AAFA
:1017F0003118284600F0C8FB002872D03846FEF7A2
:1018000031FEC22800D9C220054640982A463044FD
:101810003946FEF715FE4098284440904FF0200AC4
:10182000409901EB080231320DEB01050DEB020688
:10183000002002E005F801AB401C4045FAD3002728
:101840005C4508D305F801AB05F801AB05F801AB21
:1018500006F801AB2DE04B98844202D24A98005D15
:1018600002E0211A4C98405C2B4681460246012139
:10187000880022FA00F000F00F00092801D9373063
:1018800000E03030C1F1010C491E03F80C00EFD22A
:101890009D1C05F801ABFEF7CFFD016811F80900AA
:1018A00010F03E0F01D0484600E02E2006F8010B54
:1018B000641C7F1C102FC3D30D2030700A20707061
:1018C00085F800A04099684641444331409100F0BA
:1018D00043FB30B100F03AFB18B9002040905C4562
:1018E0009ED341B02046BDE8F08F2DE9F043C7B04C
:1018F00000251C46904689464E9F459500F026FBE4
:1019000000287AD1459805AE311845AA484600F01E
:101910003BFB002835D0072F27D2DFE807F0041261
:101920001B35424F5D004046FEF79CFD054645983D
:101930002918FF2919D830442A464146FEF780FD70
:1019400013E045982368C0F5807130444246FFF7A4
:1019500021F809E06068009045982368C0F580711F
:1019600030444246FFF716F80546294645A8FFF7DA
:1019700025FB459978B3B1F5807F3ED805A800F0E6
:10198000EBFA47B0BDE8F083D4E90101CDE90001ED
:1019900045982368C0F5807130444246FEF7FAFF4F
:1019A000E2E7201D07C88DE8070045982368C0F5C9
:1019B000807130444246FEF7EDFFD5E7201D0FC889
:1019C0008DE80F0045982368C0F580713044424689
:1019D000FEF7E0FFC8E710E004F1080001AD0FC812
:1019E00085E80F006068009045982368C0F5807115
:1019F00030444246FEF7CEFFB6E70020C1E70000C4
:101A000000487047EB1800000120FFF79FBE000060
:101A10002DE9F04F87B0FFF70BFB18B1002007B09E
:101A2000BDE8F08F454ED6E9014704EA070006EB12
:101A30008000A146641CC5680CE000BFC5F3891096
:101A400000EB9550044404EA070006EB8000A14631
:101A5000C568641CA807F1D005F003004FF0000B27
:101A6000022805D0AA0A01A8C5F38313002153E078
:101A700004EA070006EB800004F1010A0AEA070401
:101A8000C268381B80004FEA9558001DC5F38913C2
:101A9000804521D929490C3138B106EB840400F086
:101AA000FF0CA8EB00000C3404E00C46002108F009
:101AB000FF0C0846C0B2CDE90210CDE9004CD6F8C3
:101AC0001444C5F3C2005946A047404511D108F15E
:101AD00003080AEB98042AE0002106EB84000C308E
:101AE0000090CDE901810391C5F3C200D6F81444FA
:101AF000EAE760F38F1509EA070006EB8000C5608E
:101B000016E000BF04EA070C06EB8C0C491CDCF85D
:101B10000CC040F804CB641C9942F3D3C5F3C20057
:101B20000093D6F8105401AB5946A84700B1746031
:101B3000FFF77EFA80F0010071E7000098010020B5
:101B4000034AFF23936000231360536000F054B8EE
:101B5000980100202DE9F8430F4F884604460025E0
:101B600069462846BE68FFF733FA002812D00B48B2
:101B70000021406861F38200009964F3C50001EA26
:101B8000060265F3891007EB820268F39F20491C67
:101B9000D0600091BDE8F883980100205822000031
:101BA0002DE9F843124D88460446012791466946BF
:101BB0003846AE68FFF70CFA002817D00D48002110
:101BC000806861F38200009964F3C50001EA0602AF
:101BD00067F3891005EB820268F39F20491CD060EF
:101BE0000091314005EB8101C1F80C90BDE8F8830C
:101BF0009801002058220000024A02F5826203C2C6
:101C0000704700009801002070B506460020FFF7DD
:101C10009DFD040008D1FFF795FD0546FFF7F0FE96
:101C200032462946FFF78CFF204670BD024A1060FD
:101C3000101D0160704700002C76004010B50A7836
:101C40004B78302402F0030204EA03131A438B7822
:101C50004FF4E06404EA03231A43CB784FF4805432
:101C600004EA03331A430B794FF4E02404EA0343F4
:101C70001A434B794FF4801404EA03531A438B79C7
:101C8000240104EA03631A43030105481844C0F819
:101C90001825CA79097AC0F81415C0F8102510BDA6
:101CA00000700040030103481844C0F81425C0F830
:101CB000101570470070004002494058002800D0BD
:101CC0000120704700700040034908B50844002215
:101CD00002600068009008BD007000404058002875
:101CE00000D00120704708B50022425040580090B3
:101CF00008BDD0F80403084000D0012070474058C8
:101D0000002800D00120704708B5002242504058FA
:101D1000009008BD70B5034600791B4901EB4010E7
:101D20001968027F4FF0FF30002AD1F80C25D1F856
:101D30001465D1F80855D1F8104504D0C1F80C0548
:101D4000C1F8140503E0C1F81405C1F80C051968C1
:101D5000C1F80805C1F81005501C02D01046FFF765
:101D6000D5FC701C02D03046FFF7D0FC601C02D0BE
:101D70002046FFF7CBFC681C04D02846BDE8704025
:101D8000FFF7C4BC70BD00007800002070B50546A8
:101D9000C87D0C4600284FF4847128460AD0FFF70E
:101DA000A2FFD5F81805627EE1688854607E401C69
:101DB000607670BDFFF797FFD5F8180570BD1FB5A9
:101DC00001238DF800308DF808100192D0E900123F
:101DD000684690471FBD000070B505460078002892
:101DE0001AD105216868FFF74BFA08B1FFF768F8C8
:101DF0000A4E0BA103207268FFF7D2FE0024686828
:101E00000FA130F914200320FFF7CAFE641C052C33
:101E1000F5DB7068401C706070BD000000000020A1
:101E20004150503A494E464F3A4144432065766509
:101E30006E74206E756D6265723A2025640D0A001D
:101E40004150503A494E464F3A25640D0A00000071
:101E50000EB5114A07CA8DE8070010490020FFF7A8
:101E600083FA08B1FFF72CF869460020FFF75AFA09
:101E700008B1FFF725F805210948FFF701FA08B175
:101E8000FFF71EF8064805210A30FFF7F9F9002888
:101E900001D0FFF715F80EBD28220000D91D000063
:101EA00028000020054810B50078FFF7C9F9002880
:101EB00003D0BDE81040FFF703B810BD00000020BC
:101EC0003EB5FFF7D1F908B1FEF7FAFF1B491C4AEE
:101ED000D1E90201CDE9010103208DF8060001A935
:101EE0001648FFF7C9FA08B1FEF7EAFF134C20685D
:101EF000D0F81005134A0123C2400020014600908B
:101F00002046FFF7A3FA2046FFF792FA246804F56B
:101F1000A074FFF76DFA05460B48FFF73FF908B1CB
:101F2000FEF7CEFF08482A4621460078FFF766F9FB
:101F3000002801D0FEF7C4FF3EBD000018220000BB
:101F4000851F000000A86100000000200148FFF785
:101F500095BB00001800002070B50D460A460146EA
:101F600001240648FEF76CFAEAB204490448FFF778
:101F7000FFFA00B10024204670BD00009800002048
:101F8000180000207047000010B5144602004FF002
:101F900001000CD00846136806A24FF48071FEF7CA
:101FA000F9FC01462046BDE81040FFF707B80021C4
:101FB000216010BD5B253038645D000070B50C46B3
:101FC00005464FF48E71FFF78EFEA18AA068415C32
:101FD000A08A401CA082C5F81C1570BD1FB5002248
:101FE0008DF800208DF80810816801918275D0E984
:101FF0000012684690471FBD0078012801D10149B1
:1020000088707047140000202DE9FF470C460546F4
:102010004FF40071FFF76DFE01274FF401780026A1
:1020200018B34FF4927949462846FFF757FEE0B1BE
:1020300049462846FFF757FEC5F80883A07E00B939
:102040006F6002208DF80000D5F88004C5F8800488
:102050000390E07D8DF80800E0680190E675267633
:10206000D4E900126846904727E004212846FFF78C
:1020700040FE10B34FF484712846FFF72FFEE0B105
:1020800021462846FFF782FEE07D617E884214D11A
:10209000207E38B1617EE268E0752069E0602676D6
:1020A000667607E0A07E00B96F60C5F80883E67524
:1020B000617EE2682046FFF782FE4FF48E7841464B
:1020C0002846FFF70BFE88B1A08AA17D884204D282
:1020D00021462846FFF772FF08E041462846FFF7F1
:1020E00002FEA17D11B12046FFF778FF4FF4A278E0
:1020F00041462846FFF7F2FD002812D04146284607
:10210000FFF7F1FDA07E00B12F60E07D002808D030
:10211000E675617EE26804B02046BDE8F047FFF74F
:102120004EBEBDE8FF872DE9FF410C464FF4927784
:1021300005463946FFF7E3FD0026C0B1394628467B
:10214000FFF7E2FD02208DF80000D5F88004C5F805
:1021500080040390D5F83C058DF80800E0680190F4
:10216000E6752676D4E900126846904724E04FF4DD
:10217000887739462846FFF7C2FDE8B13946284638
:10218000FFF7C2FDD5F83C05C1B2E07D884213D10E
:10219000207E60B1E268D5F8000220F02000C5F88A
:1021A0000002207EE0752069E060267601E0E67599
:1021B000E2682046FFF703FE4FF4A277394628462F
:1021C000FFF79DFD68B139462846FFF79DFDE07D8C
:1021D00038B1E675D5F83C05E268C1B22046FFF794
:1021E000EEFD4FF4907631462846FFF788FD002833
:1021F0000FD031462846FFF787FDA07D002808D084
:10220000D5F84C0504B0C1B22046BDE8F041FFF757
:10221000E5BEBDE8FF810000008000400004000032
:1022200000000007000000000000000002000001A4
:102230000001000700000000FFFFFFFFFFFFFFFF9E
:10224000FFFFFFFFFFFFFFFF000000000000000096
:102250000000D60107010000290000000100000075
:10226000010000000100000001000000010000006A
:10227000010000000100000002000000004040409A
:102280004040404040404141414141404040404049
:1022900040404040404040404040404040050202F5
:1022A00002020202020202020202020202202020B4
:1022B0002020202020202002020202020202909010
:1022C000909090901010101010101010101010100E
:1022D0001010101010101010020202020202888862
:1022E000888888880808080808080808080808086E
:1022F0000808080808080808020202024000000056
:102300007D2200004F766572666C6F770D0A0000C3
:10231000302300000000002028000000BC0900005D
:10232000582300002800002088250000CC09000068
:10233000000000000000000000000000000000009D
:10234000000000000000000000200040000000002D
:08235000042300000090D003FB
:0400000500000401F2
:00000001FF
