:020000040000FA
:1000000038270020150400001D0400001F04000014
:10001000210400002304000025040000000000006B
:1000200000000000000000000000000027040000A5
:1000300029040000000000002B0400002D04000033
:10004000E90500002F0400002D0900002F04000026
:100050002F0400002F0400002F0400002F040000D4
:100060002F04000005090000190900002F040000FA
:100070002F0400002F0400002F0400002F040000B4
:100080002F040000410600002F0400005B05000063
:10009000650600002F0400002F0400002F0400005C
:1000A0002F0400002F0400002F0400002F04000084
:1000B0002F0400002F0400000000000000000000DA
:1000C0002F0400002F0400002F0400002F04000064
:1000D0002F0400002F0400002F0400000000000087
:1000E0000000000000000000000000000000000010
:1000F0000000000000000000000000000000000000
:1001000000000000000000000000000000000000EF
:1001100000000000000000000000000000000000DF
:10040000DFF80CD000F078F8004800471118000021
:10041000382700200648804706480047FEE7FEE7E9
:10042000FEE7FEE7FEE7FEE7FEE7FEE7FEE7FEE7A4
:100430006906000001040000004870471C2F0000FE
:1004400040EA01039B0703D009E008C9121F08C056
:10045000042AFAD203E011F8013B00F8013B521ED6
:10046000F9D27047D2B201E000F8012B491EFBD24D
:1004700070470022F6E710B513460A4604461946AF
:10048000FFF7F0FF204610BD421C10F8011B0029A9
:10049000FBD1801A70472DE9F05F05460020924697
:1004A0009B4688460646814640241BE02846414636
:1004B0004746224600F041F853465A46C01A914139
:1004C00010D311461846224600F028F82D1A67EB83
:1004D00001084F4622460120002100F01FF817EBCB
:1004E00000094E41201EA4F10104DFDC48463146DC
:1004F0002A464346BDE8F09F064C074D06E0E068FB
:1005000040F0010394E8070098471034AC42F6D35A
:10051000FFF77AFF2C2F00004C2F0000202A04DB6D
:10052000203A00FA02F1002070479140C2F1200306
:1005300020FA03F3194390407047202A04DB203A45
:1005400021FA02F00021704721FA02F3D040C2F1F3
:100550002002914008431946704710B50121080256
:1005600000F01CFE02214FF4827000F017FE0421FF
:100570004FF4847000F012FEBDE8104008214FF4E3
:10058000867000F00BBE00F01F020121914040096F
:10059000800000F1E020C0F88012704700F01F02D8
:1005A000012191404009800000F1E020C0F80011D5
:1005B000704700F01F02012191404009800000F1C6
:1005C000E020C0F8001270474907090E002806DA3B
:1005D00000F00F0000F1E02080F8141D704700F1DA
:1005E000E02080F8001470472DE9F0414FF4807747
:1005F000384601F06DF90124104EA50748B1384680
:1006000001F06DF90120C5F808037470002000F0B6
:10061000AFFD4FF48277384601F05AF900280BD02D
:10062000384601F05CF90220C5F80803B470BDE853
:10063000F041012000F09CBDBDE8F0813C010020AC
:1006400007480021C0F84011C0F84411C0F8481113
:10065000C0F84C11C0F80011C0F8041102F03CBA07
:100660000010014002F0D4B9F0B598480023021DF3
:1006700001780125101D4FF08056062907D1147806
:10068000240704D10478C4F30314032C02D00629F0
:1006900004D00FE08F4F8E4C7C670EE01478240757
:1006A00008D10478C4F30314032C06D0042C04D01E
:1006B000052C02D0062907D00EE0D6F84442864F1A
:1006C000C4F342343C6002E01478240704D1047877
:1006D000C4F30314032C02D0062906D011E07F4C8A
:1006E000276827F0807727600EE01478240708D168
:1006F0000478C4F30314032C06D0042C04D0052C76
:1007000002D006290AD011E04FF08044C4F80C3121
:10071000C4F81031704C241F236002E014782407C1
:1007200004D10478C4F30314032C02D0062905D0A5
:100730000CE0694F032464373C600AE01478240716
:1007400004D10478C4F30314032C02D006290DD07D
:1007500014E0634F05243C60614C78342560604CA4
:10076000083423603F243F1D3C6002E014782407D6
:1007700004D10478C4F30314052C02D0062957D001
:1007800068E058490968584A11605649091D0968C6
:10079000121D1160534908310968121D1160514939
:1007A0000C310968121D11604E4910310968121D83
:1007B00011604C4914310968121D11604949183102
:1007C0000968494A2032116046491C310968121DE6
:1007D0001160444920310968121D116041492431DA
:1007E0000968121D11603F4928310968121D116006
:1007F0003C492C310968121D11603A4930310968B1
:10080000394A40321160374934310968121D11608C
:10081000344938310968121D116032493C31096888
:10082000121D11602F4940310968121D116002E04C
:10083000117809070ED10078C0F30310032803D004
:10084000042801D0052805D1D6F85802274900F020
:100850004F00086021487438016841F4700101605C
:10086000BFF34F8FBFF36F8F4FF01021D1F800020D
:10087000002803DBD1F80402002822DA1C4A1560A4
:100880001C480468002CFCD01524C1F800420568FF
:10089000002DFCD0C1F8044201680029FCD013608F
:1008A00001680029FCD0BFF34F8F0C48F038016875
:1008B000114A01F4E06111430160BFF34F8F00BFA3
:1008C000FDE70F490D480860F0BD0000E00F00F0A3
:1008D0000DF0ADBA00C007403C050040FCED00E063
:1008E000105600400404001020C50040E40E0040F3
:1008F00004E5014000E401400400FA050090D00343
:10090000B000002004220249024800F091BE00001D
:10091000500100200090004004220249024800F0EB
:1009200087BE00005C01002000A000400448017F59
:1009300004480029024901D002F0DFB902F04EB9A3
:1009400068010020002000400FB41CB50A46521E6A
:10095000CDE9000207A9054B6A46069800F018F891
:10096000009A002111701CBC5DF814FBF30D00000F
:1009700002E008C8121F08C1002AFAD17047704768
:10098000002001E001C1121F002AFBD170470000C6
:100990002DE9FF4F8DB00F460546002606E02528BD
:1009A0000BD0DDE90F1290476D1C761C28780028CB
:1009B000F5D111B03046BDE8F08F0024A246A14623
:1009C0000122EC4900E0044315F8013F203B02FA04
:1009D00003F00842F7D128782A2810D06FF02F02B0
:1009E0002878A0F13001092914D80AEB8A0102EB1A
:1009F000410144F0020400EB010A6D1CF0E701CF55
:100A00005FEA000A03D544F40054CAF1000A44F036
:100A100002046D1C28782E2817D115F8010F44F018
:100A200004042A280ED06FF02F022878A0F130019C
:100A300009290AD809EB890102EB410100EB010900
:100A40006D1CF2E757F8049B6D1C28786C280FD0BA
:100A500006DC4C2817D068280DD06A2814D104E091
:100A6000742810D07A280FD10DE044F400140AE065
:100A700044F4801401E044F440146978814202D1C6
:100A800004F580146D1C6D1C2A786E2A1FD00CDCB6
:100A9000632A31D004DC002A8BD0582A11D1A3E07C
:100AA000642A68D0692A0CD165E0732A2ED004DC50
:100AB0006F2A73D0702A04D19BE0752A6FD0782AF0
:100AC0006ED01046DDE90F129047761C50E1C4F35A
:100AD0000250022806D0032809D0042801CF09D0EB
:100AE000066045E101CFF117C0E9006140E101CFA7
:100AF00006803DE106703BE117F8040B8DF800001D
:100B000000208DF80100EB46012003E057F804BBFC
:100B10004FF0FF3061074FF0000102D40DE008F103
:100B20000101884649450FDA8045F8DB1BF80810BB
:100B30000029F4D108E008F1010188468142FADB7E
:100B40001BF808100029F6D1DDE90F23AAEB0800F5
:100B50008146214600F036F9304400EB080604E0F7
:100B6000DDE90F121BF8010B9047B8F10108F7D22D
:100B700021464846F7E00A21C4F302534FF0000B28
:100B80000891022B04D001CFC117032B09D00AE032
:100B9000FF1D27F00707F7E8020108E032E01FE039
:100BA00020E000B2C117042B01D140B2C117031ECF
:100BB00071F1000307DA4FF0000CD0EB0C006CEB86
:100BC00001012D2302E0230504D52B238DF82430C9
:100BD000012303E0E30701D02023F7E7984658E01C
:100BE0000A2110E010210EE010204FF0000B0890B9
:100BF0000CE010214FF0000B44F004044FF0080902
:100C0000089103E008214FF0000B0891C4F3025350
:100C1000022B04D001CF0021032B06D006E0FF1DDC
:100C200027F00707F7E8020103E080B2042B00D1A8
:100C3000C0B24FF0000823072BD5702A07D0DDF88B
:100C400020C08CF0100C5CEA0B0C05D00EE04023A9
:100C50008DF82430012308E050EA010306D0302348
:100C60008DF824308DF8252002239846DDF820C029
:100C70008CF0080C5CEA0B0C0BD150EA010301D19B
:100C8000630706D530238DF824304FF00108A9F111
:100C90000109582A04D038A20B9208AA0A920BE044
:100CA0003AA2F9E75B46089AFFF7F5FB0B9B9B5CC2
:100CB0000A9A521E0A92137050EA0102F2D10A985F
:100CC000ADEB000000F1200B600702D524F4803466
:100CD00001E04FF00109D94502DDA9EB0B0000E06E
:100CE000002000EB0B0141440890AAEB010AE0034D
:100CF00006D4DDE90F232146504600F063F8064490
:100D00004FF0000908E009A911F80900DDE90F1208
:100D1000904709F10109761CC145F4DBE0030CD5CD
:100D2000DDE90F232146504600F04CF8064404E06C
:100D3000DDE90F1230209047761C0899481E089074
:100D40000029F5DC08E00A980A990078491C0A9104
:100D5000DDE90F129047761CBBF10001ABF1010BEE
:100D6000F1DC21465046DDE90F2300F019F8064476
:100D70006D1C1BE60928010030313233343536371B
:100D800038396162636465660000000030313233D7
:100D90003435363738394142434445460000000077
:100DA0002DE9F041044600251E461746880404D468
:100DB00005E039462020B0476D1C641EF9D5284651
:100DC000BDE8F0812DE9F041044600251E4690461D
:100DD000C80301D5302700E02027880404D505E0AA
:100DE00041463846B0476D1C641EF9D52846BDE81B
:100DF000F0814A68002A06D00A68531C0B60107004
:100E00004868401E486070470DA1012001F070FC49
:100E100001F0C8FB01F0CAFB0028FBD10CA10320A4
:100E200001F066FCBFF34F8F10480168104A01F4CF
:100E3000E06111430160BFF34F8F00BFFDE7000089
:100E40003A4552524F523A466174616C0D0A0000A5
:100E50003A494E464F3A486974207765616B20687D
:100E6000616E646C65720D0A000000000CED00E01C
:100E70000400FA050EB500210091CDE901106A4683
:100E800044F20100FFF7C0FF0EBD0000074B5B6896
:100E900023B12AB120B10068037C1BB10820704740
:100EA0000720704741744261002070478000002095
:100EB0002DE9F047074698461446894690074FF0BB
:100EC000000526D12CB301F023FD134E06F11000CE
:100ED000C6F80C800570457080F80290446075601B
:100EE000357075701420FFF74EFB07211420FFF7B3
:100EF0006BFB1420FFF752FB084807600721112005
:100F0000FFF762FB0548001F0068B0600020BDE8E5
:100F1000F0870720FBE70000700000200815014063
:100F20002DE9F843DFF87090D9F804305BB350B383
:100F3000052902D20720BDE8F88343691BB3437C2F
:100F4000012B22D000270446002588461646284655
:100F500000F026F8684601F049FFC0B10121017098
:100F60000E4944600968C0E90218C0E904769DF89A
:100F7000000089F80100002000F014F81420FFF7A9
:100F800018FB2846D7E70820D5E70F46DBE70425FE
:100F9000002000F007F8F4E780000020041501406D
:100FA00000F002B800F008B872B602480168491CA7
:100FB000016070479000002003490868401E0860E7
:100FC00000D162B670470000900000202DE9F0418A
:100FD000064608680C46411C4FF0A0474FF001053B
:100FE00006D005FA00F1C7F80815206801F06EF97F
:100FF0006068411C02D0002101F05FF9307920497E
:1010000001EB4010A169007F00283068C0F824156A
:1010100025D0607D227D31681043C1F86C05D4E98C
:1010200000123068C0F80C15C0F8142524E0A06840
:10103000411C02D0002101F040F9E068411C05D0BC
:101040008540C7F80855E06801F040F9D4E902127C
:101050003068C0F80825C0F81015BDE8F081607D43
:10106000217D32680843C2F86C05D4E9001230686B
:10107000C0F81425C0F80C15207D0128D7D0ECE766
:1010800068010020002901DA00207047026811443D
:10109000016001207047000070B5461C0D46012418
:1010A0000020FFF77DFF114A10682860D2E9001088
:1010B0009568081A2B1A701C5B1C98420FD963B1F3
:1010C0000B480C4B294000681B6802EB810163F35D
:1010D0009F20C8601068401C1060002401E088193F
:1010E00010600020FFF75EFF204670BD2003002047
:1010F000742E0000AC000020034803C8814201D1D7
:101100000120704700207047200300200348017F22
:10111000B1FA81F1C1F11F01417670470002002050
:1011200070B5491C114AC9B202EB410332F81150A3
:1011300033F8022C5C88AE1833198E1E72434E1E93
:1011400005FB062204FB01218289807B521E401E82
:101150005143584301EB5001B1FBF0F0401C84B205
:1011600028210248FFF785F9204670BDD8010020EC
:1011700070B5084C050009D010342168002907D04B
:1011800008682060496828468847F6E70834F4E78D
:1011900070BD00003C0100207047000010B50446FF
:1011A00008482258002A0CD0D0F80403084208D07E
:1011B000204600F09DFB044920464968BDE81040E8
:1011C000084710BD00300140600000202DE9F05FAD
:1011D00026484168F1B3DFF898B00E688146DBF825
:1011E000004087688078E11B21F07F45ED1CB0B995
:1011F000DFF880804FF48030C8F84403C8F8040357
:101200001120FFF7C0F91120FFF7C8F94FF0010ACC
:10121000C8F800A02F2000F029FC89F802A0B542F0
:1012200000D23546124BE8193C3320F07F4018605D
:10123000DBF800105A46091B21F07F41001B20F00B
:101240007F40C91C81420FD9106818602F2000F020
:101250000DFC00E004E0BDE8F05F1120FFF7A9B944
:10126000BDE8F05F01F054BBBDE8F09F70000020C6
:10127000041501400010014038B50E4C617E04EBAE
:1012800041010881ADF80000607E8DF80200207FEA
:10129000627E012191408843207700D120766168E9
:1012A00068468847207F002803D0FFF72FFF00F013
:1012B000A9FD38BD0002002010B5B0F5A07F0FD108
:1012C00008480068D0F8440584B2064800F0E2FE01
:1012D000044800F05DFE2046BDE81040FFF7CCBF9B
:1012E00010BD0000382E00002DE9FE43434D8178EB
:1012F00001262A7F06FA01F31A427CD005EB410150
:101300000088888100F078FD002874D13C48A5F160
:1013100010074FF0000844685FE0E07BC0B3019421
:10132000D4F804C0002000BF05EB40018A8937F8DB
:101330001010A1F10F039A4202DB0F318A4201D94A
:10134000002012E0401CC0B20828EDD344E000BFEA
:101350009CF80710BCF8042005EB410189899142F3
:1013600001D9012004E0DCF800C0BCF1000FEFD18E
:10137000217C71B10028A07B1CD001282CD92046EB
:1013800000F0CEF8ADF8080004208DF8000020E051
:1013900022E008B3A07B012808D9204600F0C0F85D
:1013A000ADF8080002208DF8000001E08DF8008003
:1013B00026740EE0012808D9204600F0B1F8ADF8F7
:1013C000080003208DF8000001E08DF8006084F82B
:1013D00010802968684688472468002C9DD10748FA
:1013E00028212030FFF745F8044910220C31A1F1E3
:1013F0001C00FFF725F8BDE8FE830000B8010020BF
:101400009400002003480079022801D100F0FABCC2
:1014100070470000B8010020704700000E4910B569
:101420000A784C780023A24212D0521CD2B20A7021
:10143000022A00D10B70084A0B78183252F8232088
:1014400002608868104420F07F408860012010BD51
:101450000360002010BD0000700000202DE9F04363
:101460000346002002462D4E02244FF00109596820
:1014700051E0CD798F79D3F808C006EB450504EB30
:101480008707AD893CF80780A84501D92CF807509B
:101490008F79D3F808C03CF82780A84501D22CF8F2
:1014A00027508D799F6804EB850837F825C037F8F9
:1014B0000870BC4523D9ACEB070C1FFA8CFCBCF1BF
:1014C000000F1CD091F8078006EB4808B8F80C8094
:1014D000A8EB07074FF47A7807FB08F7B7FBFCF790
:1014E000DFF838C0BFB20CF1200C0CEB4505974279
:1014F0006F8008D98D793A4609FA05F00AE04FF075
:101500000000BDE8F08305D13A468F7909FA07F566
:1015100045EA000009680029ABD1F2E7B8010020D4
:101520002DE9F0478146FFF799FF02004FF6FF7063
:101530003CD0514232EA010108D00026044631462F
:101540004FF001081A4F99F80E5021E0B2FA82F0DC
:10155000C0F11F0080B223E008FA01FC1CEA020F70
:1015600014D007EB410C37F81130BCF804C05CFA1A
:1015700083F3DBB221B1A5F1010C8C4500D05B08EF
:10158000462B03D9B34201D91E460846491CC9B2AD
:101590008D42E1D80749A04201D1088800E00880C7
:1015A000C1B24846BDE8F047FFF7BABDBDE8F087D5
:1015B000D80100209400002070B50E460446007942
:1015C00018494FF4A27501EB4010017F2068A1B1CA
:1015D0004FF4887101F00EF94FF49071206801F01A
:1015E00009F94FF49271206801F004F92946206846
:1015F00001F000F90C49206809E04FF48E7101F008
:10160000E8F82946206801F0E4F808492068C0F8A5
:101610000413206800F026FC3146BDE8704000F05D
:10162000C8BA000068010020100302008000020018
:101630002DE9F84300251646884604462F4614E057
:101640004FF4A07000EB85004FF480312258A94080
:101650004AB1D4F804230A4205D0275021580091FA
:10166000D8E9002190476D1CEDB2B542E8D3BDE842
:10167000F88300000121814003484068014201D005
:101680000120704700207047680000200121814040
:10169000080300D0012070470268134602E08A4226
:1016A00004D01268002AFAD10B6001607047000074
:1016B0002DE9F043264CA4F110092278D9F80480D2
:1016C00099F80350404694F801C0D9F8086031E019
:1016D00002EB42036168521C01EBC301A378D2B252
:1016E000934200D100220B78022B02D0032B21D190
:1016F0001DE003464F68194603E0B94203D00B468C
:10170000C969B9B1F9E7A9B18B4205D1C06918B966
:10171000104E0125B56000260F68C969D96149B12D
:101720000B683B440B6005E00174C06900E00021D8
:101730000028F9D19445CBD1C9E9010689F80350B5
:10174000404502D00120BDE8F0830020FBE7000007
:1017500080000020001001402DE9F0412A4F04468E
:10176000002607F11005D7F804803EE002D020469D
:10177000E4691DE02878696800EB4002401CC0B2B3
:1017800001EBC2012870AA78904200D12E700A782D
:101790004868012A2BD1027C4ABB8A684260CA6829
:1017A00082600A69C26049698161F97801B1466065
:1017B0004368BA68DFF854C0991A21F07F41614547
:1017C00002D28268114406E0D11A826821F07F417A
:1017D0008A4202D9511A016000E006604660012188
:1017E00086600174C66101F059F9002CBED12878D9
:1017F00069788842BED17968414502D00120BDE8B0
:10180000F0810020FBE7000070000020FFFF7F0058
:10181000002000F0C7FF08B1FFF72CFB1CA103203C
:1018200000F066FF0023264A05211846FFF740FB1B
:1018300008B1FFF71FFB00F05FF910B1FFF71AFBCB
:1018400002E0002000F07AF940F602011D4800F0A5
:10185000E9F808B1FFF70EFB1B48811C48611831FD
:101860001A484861A1F1180000F04CF808B1FFF7E0
:1018700001FB15481A3000F045F808B1FFF7FAFAF5
:10188000AFF3038000F092FE0028FBD1F8E70000E0
:101890004150503A494E464F3A4361706163697412
:1018A0006976652073656E73696E67206C69627214
:1018B000617279206578616D706C652E0D0A00008B
:1018C000B4000020891900000A000020D12900007E
:1018D00000F180400068002800D00120704708B562
:1018E00000F18040002101600068009008BD000008
:1018F000034908B50844002202600068009008BD52
:1019000000300140044900E011460A68002AFBD17A
:10191000086000F003B80000980000202DE9F041B5
:10192000174C05460026207F38B916480022A168CA
:101930004068FFF7F5FA00281FD10122EA73022759
:101940004FF6FF7E686811E08379A96807EB83038F
:1019500021F803E090F807C0237F02FA0CF10B4254
:1019600003D10E430B43F6B2237700680028EBD176
:101970002771304600F0E0F90020BDE8F08100005A
:10198000B8010020282E0000017805291ED2DFE8CA
:1019900001F021032121100040680F49884219D12C
:1019A00040690188491C8AB202800CA1032000F022
:1019B000C5BE094A4168183291420BD10089A0F591
:1019C0007F42FF3A06D04A69022110470DA102204A
:1019D00000F08EBE704700000C0000204150503ACD
:1019E000494E464F3A427574746F6E20746F75633A
:1019F00068656420253033642074696D65732E0D2D
:101A00000A0000004150503A5741524E494E473A61
:101A1000556E6B6E6F776E206576656E742E0D0A4F
:101A20000000000010B50C4C0D4AA1600B4920606D
:101A30000020486001210B48FFF728FA002809D14F
:101A400008480949001F00F085F9002802D101204B
:101A50002071002010BD0000B8010020940000207B
:101A6000051400002C2E0000E912000000283ED0D2
:101A70001F49204A096800BF00BF00BF00BF00BF68
:101A800000BF00BF00BF91422FD000BF00BF00BF0A
:101A900000BF00BF00BF00BF00BF00BF00BF00BF4E
:101AA00000BF00BF00BF00BF00BF00BF00BF00BF3E
:101AB00000BF00BF00BF00BF00BF00BF00BF00BF2E
:101AC00000BF00BF00BF00BF00BF00BF00BF00BF1E
:101AD00000BF00BF00BF00BF00BF00BF00BF00BF0E
:101AE00000BF00BF00BF00BF00BF401EC3D1704792
:101AF000B00000200024F40070B50E4C00252078C2
:101B000008B1852513E00021A16061602161E160D9
:101B10004FF0E020D0F80001012610F0010F03D1B2
:101B20000721002000F045F803480660267028468B
:101B300070BD00003C0100201805004070B5154D37
:101B40000446A87838B114B16168012088470020A4
:101B5000FFF726FA15E00020FFF722FA24B10D481E
:101B600021461030FFF798FDE86850B94FF48270B5
:101B7000FFF7B5FE02204107C1F804030649012022
:101B80000860E868401CE860BDE870400020FFF78E
:101B900009BA00003C0100200800004000F01F02CC
:101BA000012191404009800000F1E020C0F880113F
:101BB00070474907090E002806DA00F00F0202F10B
:101BC000E02282F8141D03E000F1E02282F8001404
:101BD00000F01F02012191404009800000F1E02047
:101BE000C0F88012C0F80011704700002DE9F843DA
:101BF000354D04460E46287810B10820BDE8F8831C
:101C000004B9324CDFF8C880012708F104000760EE
:101C1000304902200860C001FFF76AFE4FF482706D
:101C2000FFF766FE4FF48470FFF762FE4FF4867094
:101C3000FFF75EFE274920780831086020780728E2
:101C400002D1091D60780860B4F80300ADF8000007
:101C50009DF800009DF801104FF47C5200F03F0009
:101C600002EA012108431B49303108601948A17874
:101C70003430026842EA01210160617902680A4356
:101C800002601449A079383100F001000860E07961
:101C9000091D00F003000860D8F8001221F01C01B3
:101CA000C8F800120F21C8F808135EB109496E6028
:101CB000091D207A0860617A1320FFF77AFF2F70E0
:101CC00000209BE7072099E7600000201C2E000001
:101CD000003001400035014030B50B490A680B4C1B
:101CE0000123C2F340022360094C2578022D00D164
:101CF000237000230B60044B1B1D1860002A01D0C9
:101D00000220086030BD0000003501400430014071
:101D100060000020064AC2F80403D2F8000208431B
:101D2000C2F80002012010600249022008707047CA
:101D30000030014060000020054901220A7602229D
:101D40000A708A7E02438A76002008767047000077
:101D500000020020FEB5C8B1C1B1214E214D05F1F0
:101D60001800716007C88DE807004FF08050D0F868
:101D700024031D49C0F30420086003248DF80740A4
:101D80001A496846FFF732FF80B901E00720FEBD1F
:101D9000D5E90412CDE9011200208DF805001148A3
:101DA000134A01A9083000F02DF908B12046FEBD04
:101DB00001258DF805500F4A01A90A4800F022F9C3
:101DC0000028F3D140F201131422002105480095A8
:101DD00000F002F900F050FD0028E8D13570FEBD9A
:101DE00000020020302E0000403501409911000013
:101DF00019140000B91200000148007E704700006D
:101E00000002002070B5154CA07EE0B1207F0125B6
:101E100040B9207E08B1112070BD2576A07E2077C4
:101E2000FFF774F9607F00280D480ED000F036F9F6
:101E30000B48083000F032F9607EFFF74DFF0021BB
:101E40000846FFF767FF002070BD00F0B7F80448B0
:101E5000083000F0B3F86577EEE7000000020020DC
:101E6000302E0000000B40B270470121B1EB507FD3
:101E700001D1012070470020704700002DE9F04794
:101E80000427144E814600244FF001080020FFF77C
:101E900087F808FA04F5354203D02046FFF7EAFB3D
:101EA00058B10020FFF77EF827B104F10104AE43DA
:101EB000E4B2EBD13846BDE8F087074908FA04F0F0
:101EC00000274A681043486089F800403846FFF709
:101ED00069F8EFE7FFFF0F00680000202DE9F041EF
:101EE00014460D00074612D08CB10026FFF7CEFB3A
:101EF00078B13846FFF7BEFB68B1084800EBC70071
:101F0000C0F81055C0F814453046BDE8F0810E20E9
:101F1000FBE70726F8E70826F6E7000000F0014097
:101F200070B5044601260025A640FFF7AFFB18B1A7
:101F30002046FFF79FFB18B102480660284670BD97
:101F40000825FBE704F5014070B50D460646002460
:101F5000FFF79CFB50B13046FFF78CFB40B10549C1
:101F600001EB8600C0F81059204670BD0724FBE73E
:101F70000824F9E700F001400448017809B1852000
:101F800070470121017000207047000068000020A8
:101F900000680121C160704730B54FF48034056896
:101FA0008C4013B1C5F8044301E0C5F8084300684C
:101FB00000EB8100C0F8402530BD0000016801221F
:101FC0000A600079034A00EB400002EB8000022126
:101FD0000172704750010020F0B40468049E40F282
:101FE0000115D4F800728D40AF43C4F80072046844
:101FF000D4F800521D43C4F800523346F0BCFFF73A
:10200000CBBF0000F8B504460D460079204900EB2F
:10201000400001EB8006307A08B10820F8BD3AB1E3
:10202000326068687060002003464FF4A07709E0D2
:102030000720F8BD226807EB800153505158401C1F
:10204000C0B2009161798142F4D82068E978000B30
:1020500040B2FFF7AEFD20686978D0F8042561F33F
:102060000102C0F804252068A978D0F8082561F39A
:102070000102C0F8082520682978D0F8102561F3FE
:102080000302C0F81025012030720020F8BD0000C6
:102090005001002000680121416070470068012163
:1020A000016070472DE9F04105460079164F9046D2
:1020B00007EB40140E46E07E10B10820BDE8F08129
:1020C000707F20772846FEF781FF5FEA0800606096
:1020D0003169216003D0317F2846FFF76DFA2879F6
:1020E00007EB4010007F0028286801D0082100E09D
:1020F0000421C0F800150020E0752076A0750121AC
:10210000E176A076DAE70000680100202DE9F047CB
:10211000054600793F4E904606EB40140F46207F5F
:1021200018B10846FFF7A1FE30B1284600F074F858
:1021300020B11120BDE8F0871020FBE784F816805D
:10214000A7600027A78228794FF0010806EB40140A
:102150003E46207F0028286825D04FF490794946D4
:1021600000F048FB4FF4AC7A5146286800F042FB7F
:102170002868A17DA268C0F84425C0F848152868E1
:10218000C0F808806068F0B94946286800F02DFB67
:1021900080465146286800F028FB58EA0001F3D039
:1021A00058BBA7750FE04FF48E7A514600F011FB33
:1021B0002868C0F808802146286800F0E9FC6168BA
:1021C0004FF4807089B13046B4E75146286800F07A
:1021D000FBFA10B9A08A4845F7D1A08A484505D036
:1021E0002146286800F0D4FC00E08146A08AA17D49
:1021F0008842EAD3A08A484501D10F26D1E751464B
:10220000286800F0E1FA0028F9D02868C0F80C80AE
:10221000C7E70000680100200079044901EB401085
:10222000807D002800D00120704700006801002058
:1022300070B5044600791149002601EB401520686D
:102240002A7FC0F80065686888B1207901EB4010EA
:10225000007F0028206801D0094901E008498C3935
:10226000C0F808132068FFF7FDFDFFF797FC204634
:1022700000F0C6FAEE766E6070BD000068010020C6
:102280001003020070B541EA4201DDE904564FF047
:10229000A04441EA830141EA052104EB800041EAC0
:1022A0000641C0F8001770BD1CB5002100910B4617
:1022B00001220191FFF7E6FF1CBD1CB500220B4671
:1022C000009211460192FFF7DDFF1CBD1CB50021F5
:1022D00000910B46012201911146FFF7D3FF1CBD6F
:1022E000004870475923000030B5184C054689B0A6
:1022F000207828B16078854202D1002009B030BD35
:10230000202213496846FEF79BF800208DF8140040
:1023100006200090082001900520039007200290DD
:102320004FF0EB7006900948001DFFF781FF0DB1DB
:10233000002200E0074A05486946001DFFF7B2FE8B
:102340000028DBD1012020706570D6E7A0000020B6
:10235000542E0000CD2B00002DE9F04FC1B00D0030
:102360004FF0000140914D984B991C46174601EBE8
:10237000000B01D00A2000E00020804600F00CFB9A
:1023800000287CD16E46BCB9409840AA3118284636
:1023900000F0E4FB002872D03846FEF775F8C2283A
:1023A00000D9C220054640982A4630443946FEF7F7
:1023B00047F84098284440904FF0200A409901EB9C
:1023C000080231320DEB01050DEB0206002002E0A0
:1023D00005F801AB401C4045FAD300275C4508D303
:1023E00005F801AB05F801AB05F801AB06F801AB48
:1023F0002DE04B98844202D24A98005D02E0211AF7
:102400004C98405C2B46814602460121880022FA06
:1024100000F000F00F00092801D9373000E030301B
:10242000C1F1010C491E03F80C00EFD29D1C05F808
:1024300001ABFEF701F8016811F8090010F03E0F3A
:1024400001D0484600E02E2006F8010B641C7F1CDA
:10245000102FC3D30D2030700A20707085F800A0B3
:102460004099684641444331409100F09BFA30B1B5
:1024700000F092FA18B9002040905C459ED341B01C
:102480002046BDE8F08F2DE9F043C7B000251C467B
:10249000904689464E9F459500F07EFA00287AD1F5
:1024A000459805AE311845AA484600F057FB00286C
:1024B00035D0072F27D2DFE807F004121B35424F33
:1024C0005D004046FDF7E0FF054645982918FF29C5
:1024D00019D830442A464146FDF7B2FF13E045982B
:1024E0002368C0F5807130444246FEF72DFA09E0BA
:1024F0006068009045982368C0F58071304442467A
:10250000FEF722FA0546294645A8FEF7BBFD459988
:1025100078B3B1F5807F3ED805A800F043FA47B004
:10252000BDE8F083D4E90101CDE9000145982368B5
:10253000C0F5807130444246FEF706FAE2E7201DFE
:1025400007C88DE8070045982368C0F580713044BE
:102550004246FEF7F9F9D5E7201D0FC88DE80F00B8
:1025600045982368C0F5807130444246FEF7ECF987
:10257000C8E710E004F1080001AD0FC885E80F00BE
:102580006068009045982368C0F5807130444246E9
:10259000FEF7DAF9B6E70020C1E70000004870470F
:1025A000872400000120FFF79FBE00002DE9F04FB7
:1025B00087B0FEF7A1FD18B1002007B0BDE8F08F8D
:1025C000454ED6E9014704EA070006EB8000A14624
:1025D000641CC5680CE000BFC5F3891000EB955082
:1025E000044404EA070006EB8000A146C568641CA9
:1025F000A807F1D005F003004FF0000B022805D02A
:10260000AA0A01A8C5F38313002153E004EA0700D6
:1026100006EB800004F1010A0AEA0704C268381BCD
:1026200080004FEA9558001DC5F38913804521D9D4
:1026300029490C3138B106EB840400F0FF0CA8EBFB
:1026400000000C3404E00C46002108F0FF0C0846A2
:10265000C0B2CDE90210CDE9004CD6F81444C5F360
:10266000C2005946A047404511D108F103080AEBC2
:1026700098042AE0002106EB84000C300090CDE99C
:1026800001810391C5F3C200D6F81444EAE760F370
:102690008F1509EA070006EB8000C56016E000BF51
:1026A00004EA070C06EB8C0C491CDCF80CC040F863
:1026B00004CB641C9942F3D3C5F3C2000093D6F84F
:1026C000105401AB5946A84700B17460FEF714FDE1
:1026D00080F0010071E7000020030020034AFF237F
:1026E000936000231360536000F054B8200300206F
:1026F0002DE9F8430F4F88460446002569462846D1
:10270000BE68FEF7C9FC002812D00B4800214068C3
:1027100061F38200009964F3C50001EA060265F3E3
:10272000891007EB820268F39F20491CD06000915A
:10273000BDE8F88320030020742E00002DE9F84343
:10274000124D884604460127914669463846AE68D0
:10275000FEF7A2FC002817D00D480021806861F325
:102760008200009964F3C50001EA060267F389104C
:1027700005EB820268F39F20491CD0600091314034
:1027800005EB8101C1F80C90BDE8F883200300201F
:10279000742E0000024A02F5826203C270470000F4
:1027A0002003002070B506460020FFF79DFD0400C1
:1027B00008D1FFF795FD0546FFF7F0FE32462946A2
:1027C000FFF78CFF204670BD4058002800D0012044
:1027D000704708B5002242504058009008BDD0F81C
:1027E0000403084000D0012070474058002800D062
:1027F0000120704708B5002242504058009008BDA3
:1028000070B5034600791B4901EB40101968027F3F
:102810004FF0FF30002AD1F80C25D1F81465D1F81B
:102820000855D1F8104504D0C1F80C05C1F81405BD
:1028300003E0C1F81405C1F80C051968C1F80805D2
:10284000C1F81005501C02D01046FFF72DFD701C7A
:1028500002D03046FFF728FD601C02D02046FFF76B
:1028600023FD681C04D02846BDE87040FFF71CBD5E
:1028700070BD00006801002070B5FFF77DFB08B156
:10288000852834D11E4C00256019FFF7F7FA70BB7C
:102890006D1CEDB2032DF7D31A4E1B492078326818
:1028A0000832FFF71BFB10BB06F1080531682A68E8
:1028B000607801F5A0714432FFF710FBB8B91349F5
:1028C0006078FFF741FB90B90F4932680C39A07866
:1028D0000C32FFF703FB50B92968A0780C31FFF7E1
:1028E00033FB20B90025605DFFF71AFB08B1032018
:1028F00070BD6D1CEDB2032DF5D3002070BD00003E
:102900009C000020302E00000C31014004300140BA
:1029100070B5012670044FF0E0210025C1F8800158
:10292000084C4010C4F84803C4F8080366602F2020
:10293000FFF79CF8A660044C2F20A560FFF796F8DF
:10294000A57070BD001001407000002070B50546F4
:10295000C87D0C4600284FF4847128460AD0FFF742
:1029600038FFD5F81805627EE1688854607E401C07
:10297000607670BDFFF72DFFD5F8180570BD1FB547
:1029800001238DF800308DF808100192D0E9001273
:10299000684690471FBD00000148FFF73DBC00009E
:1029A000A400002070B50D460A46014601240648E1
:1029B000FDF746FDEAB204490448FFF7A7FB00B162
:1029C0000024204670BD000020020020A40000204A
:1029D00070B5064D04462888A04205D0224604A1C1
:1029E0000320FFF7ABFE2C8070BD00000800002024
:1029F0004150503A494E464F3A536C6964657220D3
:102A000076616C75653A20253033642E0D0A00001E
:102A10002DE9F84F204C00256846D4E901B6FEF7B1
:102A2000FDFC8046FEF744FE0746A946B8F1000FBC
:102A300025D00023009ACC46606819E0076801465B
:102A4000974202D9BA1A026014E0C1F800C0D1F866
:102A50000C80D21BC8693B448A46B8F1000F07D0EE
:102A6000F71827F07F47C1E90178CAF81C500D46D6
:102A70000028E3D160602846FEF76EFE04E0284699
:102A8000FEF76AFE00B917B15846FEF79FFB84F8BF
:102A90000390BDE8F88F0000700000200D4B10B5CA
:102AA000596831B102680C68A24204D8A21A0A60BF
:102AB000C161586010BD0B4603E00B46C969121B8B
:102AC00021B10C689442F8D3A41A0C600260C16171
:102AD000D86110BD700000202DE9F0411D4D6C68DB
:102AE000002C35D01C4800270068A968B846401A59
:102AF00020F07F462068B04215D82246361A074497
:102B0000E469107C68B182F81080EB6833B1D2E9D7
:102B10000501984728B1FEF7ADF902E0D2E90510AA
:102B20008847002CE6D129786878814206D1401C7C
:102B3000C0B26870022801D185F801800548697823
:102B4000183040F82170BDE8F0411420FDF731BD88
:102B5000BDE8F081700000200415014010B5144656
:102B600002004FF001000CD00846136806A24FF493
:102B70008071FDF7E9FE01462046BDE81040FEF7F2
:102B800081BA0021216010BD5B253038645D0000F2
:102B900070B50C4605464FF48E71FFF71AFEA18AF8
:102BA000A068415CA08A401CA082C5F81C1570BDBD
:102BB0001FB500228DF800208DF808108168019162
:102BC0008275D0E90012684690471FBD0078012841
:102BD00001D1014988707047A00000202DE9FF470E
:102BE0000C4605464FF40071FFF7F9FD01274FF43D
:102BF0000178002618B34FF4927949462846FFF72A
:102C0000E3FDE0B149462846FFF7E3FDC5F8088338
:102C1000A07E00B96F6002208DF80000D5F8800416
:102C2000C5F880040390E07D8DF80800E06801900D
:102C3000E6752676D4E900126846904727E004211D
:102C40002846FFF7CCFD10B34FF484712846FFF7F8
:102C5000BBFDE0B121462846FFF778FEE07D617EAE
:102C6000884214D1207E38B1617EE268E075206927
:102C7000E0602676667607E0A07E00B96F60C5F852
:102C80000883E675617EE2682046FFF778FE4FF420
:102C90008E7841462846FFF797FD88B1A08AA17D2E
:102CA000884204D221462846FFF772FF08E04146D9
:102CB0002846FFF78EFDA17D11B12046FFF778FF72
:102CC0004FF4A27841462846FFF77EFD002812D037
:102CD00041462846FFF77DFDA07E00B12F60E07DD4
:102CE000002808D0E675617EE26804B02046BDE8A1
:102CF000F047FFF744BEBDE8FF872DE9FF410C46D2
:102D00004FF4927705463946FFF76FFD0026C0B1B4
:102D100039462846FFF76EFD02208DF80000D5F8F1
:102D20008004C5F880040390D5F83C058DF80800B0
:102D3000E0680190E6752676D4E90012684690476F
:102D400024E04FF4887739462846FFF74EFDE8B176
:102D500039462846FFF74EFDD5F83C05C1B2E07D67
:102D6000884213D1207E60B1E268D5F8000220F0DD
:102D70002000C5F80002207EE0752069E06026761C
:102D800001E0E675E2682046FFF7F9FD4FF4A2770F
:102D900039462846FFF729FD68B139462846FFF72E
:102DA00029FDE07D38B1E675D5F83C05E268C1B291
:102DB0002046FFF7E4FD4FF4907631462846FFF7B2
:102DC00014FD00280FD031462846FFF713FDA07DE3
:102DD000002808D0D5F84C0504B0C1B22046BDE8A3
:102DE000F041FFF7E5BEBDE8FF8100000A4A10B5DB
:102DF00053789478591CC9B28C4200D100211478C0
:102E00008C4201D1002010BD0170506803EB4301DA
:102E100000EBC10010BD0000800000200100001187
:102E200034020000000700001E000000880100209E
:102E3000009000400004000000A0004001040000D9
:102E40000000000700000000010000113402000033
:102E500000070000FFFFFFFFFFFFFFFFFFFFFFFF77
:102E6000FFFFFFFF00000000000000000000D6018F
:102E7000070100002900000001000000010000001F
:102E8000010000000100000001000000010000003E
:102E9000010000000200000000404040404040406F
:102EA000404041414141414040404040404040401D
:102EB00040404040404040404005020202020202C1
:102EC0000202020202020202022020202020202010
:102ED0002020200202020202020290909090909024
:102EE00010101010101010101010101010101010E2
:102EF0001010101002020202020288888888888856
:102F00000808080808080808080808080808080841
:102F1000080808080202020240000000992E000082
:102F20004F766572666C6F770D0A00004C2F0000BB
:102F300000000020B4000000700900000030000014
:102F4000B40000208426000080090000000000007A
:102F5000B004000700000000000000000000002096
:102F60005C000020010001000000000000000000E3
:102F7000000000003C0000202C0100203200040072
:102F8000000000000000000044000020E8030004EE
:102F90004C000020E803010154000020E803020275
:102FA00000000000E803030400000000000000002F
:102FB0000000000000000000000000000000000011
:102FC0000000000000000000000000000000000001
:102FD00000000000000000000000000000000000F1
:102FE00000000000000000000000000000000000E1
:102FF0000020004000000000202F00000090D003BF
:0400000500000401F2
:00000001FF
