:020000040000FA
:10000000B8250020150400001D0400001F04000096
:10001000210400002304000025040000000000006B
:1000200000000000000000000000000027040000A5
:1000300029040000000000002B0400002D04000033
:100040002F0400002F040000F50900002F04000019
:100050002F0400002F040000390500002F040000C9
:100060002F0400002F0400002F0400002F040000C4
:100070002F0400002F0400002F0400002F040000B4
:100080002F0400002F0400009D0600002F04000034
:100090002F0400002F0400002F0400002F04000094
:1000A0002F0400002F0400002F0400002F04000084
:1000B0002F0400002F0400000000000000000000DA
:1000C0002F0400002F0400002F0400002F04000064
:1000D0002F0400002F0400002F0400000000000087
:1000E0000000000000000000000000000000000010
:1000F0000000000000000000000000000000000000
:1001000000000000000000000000000000000000EF
:1001100000000000000000000000000000000000DF
:10040000DFF80CD000F066F800480047F112000059
:10041000B82500200648804706480047FEE7FEE76B
:10042000FEE7FEE7FEE7FEE7FEE7FEE7FEE7FEE7A4
:1004300059070000010400000048704754250000DF
:1004400040EA01039B0703D009E008C9121F08C056
:10045000042AFAD203E011F8013B00F8013B521ED6
:10046000F9D27047421C10F8011B0029FBD1801AF9
:1004700070472DE9F05F0546002092469B4688466E
:100480000646814640241BE0284641464746224610
:1004900000F041F853465A46C01A914110D3114614
:1004A0001846224600F028F82D1A67EB01084F463F
:1004B00022460120002100F01FF817EB00094E41F1
:1004C000201EA4F10104DFDC484631462A4643469B
:1004D000BDE8F09F064C074D06E0E06840F00103E0
:1004E00094E8070098471034AC42F6D3FFF78CFF2E
:1004F0006425000084250000202A04DB203A00FA4D
:1005000002F1002070479140C2F1200320FA03F36A
:10051000194390407047202A04DB203A21FA02F068
:100520000021704721FA02F3D040C2F1200291402D
:1005300008431946704700002DE9F04700268AB0AD
:10054000DFF85091B0464FF4807501243746059688
:10055000284601F095FA38B1D9F80403204203D0B7
:10056000284601F083FA26432D1D64007F1CADB29E
:10057000082FEDD34FF4BE74204601F081FA48B144
:10058000204601F073FA46F0004605AA012100203A
:1005900001F058FA404D16F0FF0F15D00127002446
:1005A00037420DD009EB8401D1F81005D1F81015B0
:1005B000C0F3042055F82420C1F3014102B1904753
:1005C0007F00641C082CEBD3002E3DDA4FF0FF3087
:1005D0004FF00109CDF82080069095F8446000277F
:1005E00070B226F0C004401C2ED006A9204600F0B0
:1005F000D5FE002828D04FEA9618204600F092FD3C
:1006000055F820601EB1B8F1030F03D00CE0B8F12B
:10061000030F19D108A8E10804F00702435C09FAA6
:1006200002FC43EA0C0343544FF0A04000EB84006B
:10063000D0F8000705A9C0F3014A204600F0AEFE3D
:1006400028B1BAF1020F05D00AB0BDE8F087BAF1BF
:10065000030FF9D1B8F1030F07D1BAF1020F17D088
:100660000221204601F0DCF9012716B1414620465F
:10067000B047002FE8D06A460121002001F0E2F9DE
:10068000059900988842DFD0059008980690A4E765
:100690000321E6E700600040380000202DE9F84320
:1006A0002A48DFF8A4804FF480720168284E0025A4
:1006B00089B1D8F8041311F0010F0CD0056000685F
:1006C0000090244862F30F040068726860F31744D6
:1006D0003946204690471D484FF48271001D02683C
:1006E000BAB1D8F8042312F0020F12D005600068E6
:1006F0000090184861F30F040C30006860F31F4449
:1007000014483C300068726860F30F073946204691
:1007100090470E484FF48472083041460368002B1E
:1007200010D0D1F8041311F0040F0BD0056000684D
:100730000090204662F30F00726801B03946BDE8B0
:10074000F0431047BDE8F88300200140002101403C
:10075000180000200C250140F0B598480023021D28
:1007600001780125101D4FF08056062907D1147815
:10077000240704D10478C4F30314032C02D00629FF
:1007800004D00FE08F4F8E4C7C670EE01478240766
:1007900008D10478C4F30314032C06D0042C04D02D
:1007A000052C02D0062907D00EE0D6F84442864F29
:1007B000C4F342343C6002E01478240704D1047886
:1007C000C4F30314032C02D0062906D011E07F4C99
:1007D000276827F0807727600EE01478240708D177
:1007E0000478C4F30314032C06D0042C04D0052C85
:1007F00002D006290AD011E04FF08044C4F80C3131
:10080000C4F81031704C241F236002E014782407D0
:1008100004D10478C4F30314032C02D0062905D0B4
:100820000CE0694F032464373C600AE01478240725
:1008300004D10478C4F30314032C02D006290DD08C
:1008400014E0634F05243C60614C78342560604CB3
:10085000083423603F243F1D3C6002E014782407E5
:1008600004D10478C4F30314052C02D0062957D010
:1008700068E058490968584A11605649091D0968D5
:10088000121D1160534908310968121D1160514948
:100890000C310968121D11604E4910310968121D92
:1008A00011604C4914310968121D11604949183111
:1008B0000968494A2032116046491C310968121DF5
:1008C0001160444920310968121D116041492431E9
:1008D0000968121D11603F4928310968121D116015
:1008E0003C492C310968121D11603A4930310968C0
:1008F000394A40321160374934310968121D11609C
:10090000344938310968121D116032493C31096897
:10091000121D11602F4940310968121D116002E05B
:10092000117809070ED10078C0F30310032803D013
:10093000042801D0052805D1D6F85802274900F02F
:100940004F00086021487438016841F4700101606B
:10095000BFF34F8FBFF36F8F4FF01021D1F800021C
:10096000002803DBD1F80402002822DA1C4A1560B3
:100970001C480468002CFCD01524C1F8004205680E
:10098000002DFCD0C1F8044201680029FCD013609E
:1009900001680029FCD0BFF34F8F0C48F038016884
:1009A000114A01F4E06111430160BFF34F8F00BFB2
:1009B000FDE70F490D480860F0BD0000E00F00F0B2
:1009C0000DF0ADBA00C007403C050040FCED00E072
:1009D000105600400404001020C50040E40E004002
:1009E00004E5014000E401400400FA050090D00352
:1009F000340000200448017F04480029024901D046
:100A000001F0B5BC01F024BC8000002000200040B3
:100A10000FB41CB50A46521ECDE9000207A9054BCA
:100A20006A46069800F018F8009A002111701CBC64
:100A30005DF814FBBB0E000002E008C8121F08C1DD
:100A4000002AFAD170477047002001E001C1121F4F
:100A5000002AFBD1704700002DE9FF4F8DB00F46F3
:100A60000546002606E025280BD0DDE90F12904749
:100A70006D1C761C28780028F5D111B03046BDE8F1
:100A8000F08F0024A246A1460122EC4900E0044375
:100A900015F8013F203B02FA03F00842F7D128780D
:100AA0002A2810D06FF02F022878A0F130010929F0
:100AB00014D80AEB8A0102EB410144F0020400EB76
:100AC000010A6D1CF0E701CF5FEA000A03D544F488
:100AD0000054CAF1000A44F002046D1C28782E2844
:100AE00017D115F8010F44F004042A280ED06FF036
:100AF0002F022878A0F1300109290AD809EB8901D1
:100B000002EB410100EB01096D1CF2E757F8049B71
:100B10006D1C28786C280FD006DC4C2817D068286C
:100B20000DD06A2814D104E0742810D07A280FD18F
:100B30000DE044F400140AE044F4801401E044F4AD
:100B400040146978814202D104F580146D1C6D1C3B
:100B50002A786E2A1FD00CDC632A31D004DC002AEC
:100B60008BD0582A11D1A3E0642A68D0692A0CD10D
:100B700065E0732A2ED004DC6F2A73D0702A04D16A
:100B80009BE0752A6FD0782A6ED01046DDE90F12EF
:100B90009047761C50E1C4F30250022806D0032887
:100BA00009D0042801CF09D0066045E101CFF11733
:100BB000C0E9006140E101CF06803DE106703BE104
:100BC00017F8040B8DF8000000208DF80100EB46AB
:100BD000012003E057F804BB4FF0FF3061074FF0EE
:100BE000000102D40DE008F10101884649450FDA01
:100BF0008045F8DB1BF808100029F4D108E008F163
:100C0000010188468142FADB1BF808100029F6D161
:100C1000DDE90F23AAEB08008146214600F036F9F2
:100C2000304400EB080604E0DDE90F121BF8010B6D
:100C30009047B8F10108F7D221464846F7E00A216B
:100C4000C4F302534FF0000B0891022B04D001CFE4
:100C5000C117032B09D00AE0FF1D27F00707F7E8AB
:100C6000020108E032E01FE020E000B2C117042BCF
:100C700001D140B2C117031E71F1000307DA4FF032
:100C8000000CD0EB0C006CEB01012D2302E02305DE
:100C900004D52B238DF82430012303E0E30701D092
:100CA0002023F7E7984658E00A2110E010210EE0D3
:100CB00010204FF0000B08900CE010214FF0000BBB
:100CC00044F004044FF00809089103E008214FF0B4
:100CD000000B0891C4F30253022B04D001CF002172
:100CE000032B06D006E0FF1D27F00707F7E80201F7
:100CF00003E080B2042B00D1C0B24FF000082307FC
:100D00002BD5702A07D0DDF820C08CF0100C5CEADF
:100D10000B0C05D00EE040238DF82430012308E0B1
:100D200050EA010306D030238DF824308DF82520B9
:100D300002239846DDF820C08CF0080C5CEA0B0C0E
:100D40000BD150EA010301D1630706D530238DF89A
:100D500024304FF00108A9F10109582A04D038A223
:100D60000B9208AA0A920BE03AA2F9E75B46089AAE
:100D7000FFF77FFB0B9B9B5C0A9A521E0A92137033
:100D800050EA0102F2D10A98ADEB000000F1200B0D
:100D9000600702D524F4803401E04FF00109D94501
:100DA00002DDA9EB0B0000E0002000EB0B01414449
:100DB0000890AAEB010AE00306D4DDE90F232146DF
:100DC000504600F063F806444FF0000908E009A916
:100DD00011F80900DDE90F12904709F10109761CAD
:100DE000C145F4DBE0030CD5DDE90F232146504675
:100DF00000F04CF8064404E0DDE90F123020904783
:100E0000761C0899481E08900029F5DC08E00A982D
:100E10000A990078491C0A91DDE90F129047761C67
:100E2000BBF10001ABF1010BF1DC21465046DDE9DD
:100E30000F2300F019F806446D1C1BE60928010079
:100E40003031323334353637383961626364656640
:100E50000000000030313233343536373839414202
:100E600043444546000000002DE9F04104460025BA
:100E70001E461746880404D405E039462020B047B2
:100E80006D1C641EF9D52846BDE8F0812DE9F041BE
:100E9000044600251E469046C80301D5302700E0D1
:100EA0002027880404D505E041463846B0476D1C2C
:100EB000641EF9D52846BDE8F0814A68002A06D0AC
:100EC0000A68531C0B6010704868401E48607047E9
:100ED0000DA1012000F0E4FF00F03CFF00F03EFF18
:100EE0000028FBD10CA1032000F0DAFFBFF34F8FE5
:100EF00010480168104A01F4E06111430160BFF33A
:100F00004F8F00BFFDE700003A4552524F523A461C
:100F10006174616C0D0A00003A494E464F3A4869C7
:100F200074207765616B2068616E646C65720D0A70
:100F3000000000000CED00E00400FA050EB50021F1
:100F40000091CDE901106A4644F20100FFF7C0FFAD
:100F50000EBD00F003B800F009B8000072B60248F8
:100F60000168491C0160704720000020034908689F
:100F7000401E086000D162B67047000020000020CB
:100F80002DE9F041064608680C46411C4FF0A04789
:100F90004FF0010506D005FA00F1C7F808152068E2
:100FA00000F034FD6068411C02D0002100F025FDF6
:100FB0003079204901EB4010A169007F002830689A
:100FC000C0F8241525D0607D227D31681043C1F81A
:100FD0006C05D4E900123068C0F80C15C0F814256F
:100FE00024E0A068411C02D0002100F006FDE0686A
:100FF000411C05D08540C7F80855E06800F006FDA3
:10100000D4E902123068C0F80825C0F81015BDE810
:10101000F081607D217D32680843C2F86C05D4E917
:1010200000123068C0F81425C0F80C15207D012886
:10103000D7D0ECE780000020002901DA00207047BB
:1010400002681144016001207047000070B5461C21
:101050000D4601240020FFF77CFF114A106828602C
:10106000D2E900109568081A2B1A701C5B1C984274
:101070000FD963B10B480C4B294000681B6802EB89
:10108000810163F39F20C8601068401C1060002439
:1010900001E0881910600020FFF75DFF204670BD59
:1010A000A0010020AC24000030000020034803C849
:1010B000814201D10120704700207047A00100202B
:1010C00005494FF0FF32082841F8202002D3084498
:1010D00080F83C207047000038000020F0B54FF049
:1010E000FF3512B10023082601E0082309260C4C25
:1010F00005E000BF54F823707F1C04D05B1CB34292
:10110000F8D32846F0BD26185DB286F8245044F87E
:101110002310002AF5D1E11881F83C00F1E7000026
:10112000380000200249084490F92400704700006C
:101130003800002070B5124D041E03DD687828B118
:10114000641E03E002DA687800B1641C686838B194
:101150006A680CA1012000F0C9FE0020FFF7EEFE36
:10116000A868A04208D0AB68224616A1012000F072
:10117000E9FE0020FFF7E2FE0020687070BD00006D
:10118000000000204150503A4552524F523A6D5F94
:1011900061636364626C726561642077617320656A
:1011A0007870656374656420746F2068617665206B
:1011B00076616C7565203020627574206973202516
:1011C000750D0A004150503A4552524F523A6D5FE8
:1011D000616363726561642073686F756C6420621B
:1011E00065202564206275742069732025640D0ACA
:1011F0000000000010B51E4C6068002806DD607815
:1012000020B16068401E60601A4813E060680028E2
:1012100007DA607828B16068401C60601548001DDE
:1012200008E0A06850B1607840B1A068401EA0609E
:10123000104808302178405C207001E00020607088
:101240002078C0074FF01E0002D000F023FA01E022
:1012500000F0BCF9207880074FF01F0003D5BDE8EF
:10126000104000F017BABDE8104000F0AFB9000020
:101270000C0000206024000070B50E460446007982
:1012800018494FF4A27501EB4010017F2068A1B10D
:101290004FF4887100F0BAFE4FF49071206800F0AE
:1012A000B5FE4FF49271206800F0B0FE2946206828
:1012B00000F0ACFE0C49206809E04FF48E7100F09C
:1012C00094FE2946206800F090FE08492068C0F886
:1012D0000413206800F091F83146BDE8704000F03A
:1012E00070B800008000002010030200800002009F
:1012F00002240125002000F061FE08B1FFF71EFE68
:101300001A49002000F0F6F908B1FFF717FE184857
:101310004FF00A080068C0B200F0E2FE15A10320F9
:1013200000F0BEFD1B4E4FF0000900BF05FB04F7A7
:10133000384600F0FFFE00F0CDF900E020BF307825
:101340000028FBD014A1132000F0AAFD86F800901D
:101350003846FFF7EFFE641C4445E7D901246D428F
:1013600000F0FCFC0028FBD1E0E70000C1200000F9
:10137000042501404150503A494E464F3A514445A8
:10138000432074657374696E672073746172746549
:10139000640D0A00000000202A000000C20800F0CE
:1013A00007030120895C98400840704700F01F0245
:1013B000012191404009800000F1E020C0F8801137
:1013C00070474907090E002806DA00F00F0202F103
:1013D000E02282F8141D03E000F1E02282F80014FC
:1013E00000F01F02012191404009800000F1E0203F
:1013F000C0F88012C0F800117047000B40B270476F
:101400002DE9F0418846054600F006FE234E0028EF
:1014100028461AD0FFF786FE304490F83C00800939
:10142000032802D001280ED007E04FF0A040D0F8EA
:101430001005E84010F0010F05D003212846BDE853
:10144000F04100F0EDBA0221F8E700F0F1FD0028CC
:1014500022D02846FFF766FE04464FF4807000EB6A
:1014600084000F4F81B207EB8400D0F8102542F0C2
:101470000102C0F81025084600F0F8FAB8F1000F94
:101480000AD02846FFF74EFE56F82000002803D069
:101490000120A040C7F80403BDE8F0813800002017
:1014A000006000402DE9FC41DFF8A480044608EB11
:1014B0000400002790F924001346C0170E46401C74
:1014C00001D0082741E0F27819462046FFF706FED2
:1014D0000546401C38D0B07850B14FF0A04000EB2A
:1014E0008400D0F8001721F00201C0F8001707E0CF
:1014F00000217378204600910A46019100F046FAD7
:10150000F078C0B11348317800EB8500D0F8102591
:10151000114B1A40C0F810254FF4F8524FF44033E5
:1015200002EA042203EA01410A43D0F810150A43F3
:10153000C0F8102509E008EB0500327810F83C1FD0
:1015400041EA8211017000E004273846BDE8FC81C1
:101550003800002000600040FFE0FCFF70B5144D33
:1015600095F8450008B1082070BD0020411E2A18DA
:10157000401CC0B282F824102028F8D30024204652
:10158000FFF79EFD641CE4B2092CF8D30721062066
:10159000FFF717FF4FF4BE7000F068FA05494FF0EF
:1015A0000040C1F80403012085F84500002070BD0B
:1015B0003800002000600040034890F845000028F3
:1015C00000D0012070470000380000204FF0A042FA
:1015D00001218140C2F80C15704700002DE9FC4143
:1015E000044629480F462044002590F92410491C40
:1015F00001D0082541E0B978002651B3012200212D
:101600002046FFF76BFD411C21D083001F483A782C
:1016100018447978D0F81035DFF874C003EA0C0369
:10162000C0F81035D0F810354FF4F85C0CEA042CF3
:1016300043EA0C034FF4403C0CEA02424FF4801C96
:101640000CEA01510A431343C0F8103504E00425A5
:1016500013E0FE2180F824107A780120A0404FF09A
:10166000A041012A0CD0C1F80C05012220460096A9
:1016700000231146019600F089F92846BDE8FC8157
:10168000C1F80805F1E700003800002000600040C4
:10169000FFE0ECFF4FF0A04201218140C2F80815A5
:1016A00070470121B1EB507F01D10120704700202C
:1016B00070470000044901200860044A00211160BD
:1016C00003490870704700000420014000250140D4
:1016D00018000020044901200860044908600449FA
:1016E00002200870704700000025014000200140E2
:1016F0001800002070B5294D0446287808B108204C
:1017000070BD04B9264C79B36960264960780860D9
:101710000021E06800F067F90021606800F063F9DB
:101720000021A06800F05FF91E4BD4E901211833B5
:10173000E0681A601A1D1160191F086019492069B4
:10174000383108601749207D091F08601649D1F813
:10175000000240F00100C1F800021248627D203012
:10176000012622B1066004E0FFE7072070BD0022D9
:10177000026022780420082A03D00A480830026058
:101780000620A27D0AB140F00100C1F80403E17D0A
:101790001220FFF716FE2E70002070BD18000020EA
:1017A0007424000008250140002001402DE9F0418B
:1017B00005460079164F904607EB40140E46E07E32
:1017C00010B10820BDE8F081707F20772846FFF730
:1017D000D7FB5FEA080060603169216003D0317F88
:1017E0002846FFF749FD287907EB4010007F0028C5
:1017F000286801D0082100E00421C0F8001500206D
:10180000E0752076A0750121E176A076DAE7000088
:10181000800000202DE9F047054600793F4E9046B4
:1018200006EB40140F46207F18B10846FFF739FF3A
:1018300030B1284600F074F820B11120BDE8F087DF
:101840001020FBE784F81680A7600027A78228797C
:101850004FF0010806EB40143E46207F0028286820
:1018600025D04FF49079494600F0D0FB4FF4AC7A84
:101870005146286800F0CAFB2868A17DA268C0F81C
:101880004425C0F848152868C0F808806068F0B999
:101890004946286800F0B5FB80465146286800F0AC
:1018A000B0FB58EA0001F3D058BBA7750FE04FF426
:1018B0008E7A514600F099FB2868C0F808802146CE
:1018C000286800F09FFC61684FF4807089B1304651
:1018D000B4E75146286800F083FB10B9A08A484558
:1018E000F7D1A08A484505D02146286800F08AFC37
:1018F00000E08146A08AA17D8842EAD3A08A4845BB
:1019000001D10F26D1E75146286800F069FB002875
:10191000F9D02868C0F80C80C7E7000080000020DC
:101920000079044901EB4010807D002800D001209F
:10193000704700008000002070B50446007911490E
:10194000002601EB401520682A7FC0F80065686812
:1019500088B1207901EB4010007F0028206801D079
:10196000094901E008498C39C0F808132068FFF7DD
:1019700044FDFFF71BFD204600F066FBEE766E602F
:1019800070BD0000800000201003020070B541EA25
:101990004201DDE904564FF0A04441EA830141EAE7
:1019A000052104EB800041EA0641C0F8001770BD34
:1019B00070B541EA4201DDE904564FF0A04441EA26
:1019C000830141EA052104EB800041EA0641C0F8A9
:1019D000001770BD1CB5002100910B46012201913A
:1019E000FFF7E6FF1CBD4FF0A042002302EB800092
:1019F00043EA8101C0F8001770471CB500220B466E
:101A0000009211460192FFF7D3FF1CBD1CB50021C7
:101A100000910B46012201911146FFF7C9FF1CBD41
:101A20004FF0A04202EB8000D0F8002722F44032B1
:101A3000C0F80027D0F8002742EA0141C0F800179B
:101A40007047000018B5084B6C4601441B680093B2
:101A500006E000BF54F82030D3F81035401C08C20F
:101A60008142F7D818BD000070240000034908B572
:101A70000844002101600068009008BD006000403B
:101A800002494058012800D0002070470060004003
:101A900000487047091B000030B5184C054689B056
:101AA000207828B16078854202D1002009B030BD8D
:101AB000202213496846FEF7C3FC00208DF814006D
:101AC0000620009008200190052003900720029036
:101AD0004FF0EB7006900948001DFFF72DFF0DB188
:101AE000002200E0074A05486946001DFFF75EFE38
:101AF0000028DBD1012020706570D6E7240000208B
:101B00008C240000412200002DE9F04FC1B00D00EF
:101B10004FF0000140914D984B991C46174601EB40
:101B2000000B01D00A2000E00020804600F034FBCA
:101B300000287CD16E46BCB9409840AA311828468E
:101B400000F046FB002872D03846FEF78BFCC22816
:101B500000D9C220054640982A4630443946FEF74F
:101B60006FFC4098284440904FF0200A409901EBC8
:101B7000080231320DEB01050DEB0206002002E0F8
:101B800005F801AB401C4045FAD300275C4508D35B
:101B900005F801AB05F801AB05F801AB06F801ABA0
:101BA0002DE04B98844202D24A98005D02E0211A4F
:101BB0004C98405C2B46814602460121880022FA5F
:101BC00000F000F00F00092801D9373000E0303074
:101BD000C1F1010C491E03F80C00EFD29D1C05F861
:101BE00001ABFEF729FC016811F8090010F03E0F67
:101BF00001D0484600E02E2006F8010B641C7F1C33
:101C0000102FC3D30D2030700A20707085F800A00B
:101C10004099684641444331409100F0C3FA30B1E5
:101C200000F0BAFA18B9002040905C459ED341B04C
:101C30002046BDE8F08F2DE9F043C7B000251C46D3
:101C4000904689464E9F459500F0A6FA00287AD125
:101C5000459805AE311845AA484600F0B9FA002863
:101C600035D0072F27D2DFE807F004121B35424F8B
:101C70005D004046FEF7F6FB054645982918FF290A
:101C800019D830442A464146FEF7DAFB13E045985E
:101C90002368C0F5807130444246FEF7B9FE09E082
:101CA0006068009045982368C0F5807130444246D2
:101CB000FEF7AEFE0546294645A8FFF7BDF9459952
:101CC00078B3B1F5807F3ED805A800F06BFA47B035
:101CD000BDE8F083D4E90101CDE90001459823680E
:101CE000C0F5807130444246FEF792FEE2E7201DC7
:101CF00007C88DE8070045982368C0F58071304417
:101D00004246FEF785FED5E7201D0FC88DE80F007F
:101D100045982368C0F5807130444246FEF778FE4E
:101D2000C8E710E004F1080001AD0FC885E80F0016
:101D30006068009045982368C0F580713044424641
:101D4000FEF766FEB6E70020C1E7000000487047D6
:101D5000371C00000120FFF79FBE00002DE9F04F67
:101D600087B0FFF7A3F918B1002007B0BDE8F08FE6
:101D7000454ED6E9014704EA070006EB8000A1467C
:101D8000641CC5680CE000BFC5F3891000EB9550DA
:101D9000044404EA070006EB8000A146C568641C01
:101DA000A807F1D005F003004FF0000B022805D082
:101DB000AA0A01A8C5F38313002153E004EA07002F
:101DC00006EB800004F1010A0AEA0704C268381B26
:101DD00080004FEA9558001DC5F38913804521D92D
:101DE00029490C3138B106EB840400F0FF0CA8EB54
:101DF00000000C3404E00C46002108F0FF0C0846FB
:101E0000C0B2CDE90210CDE9004CD6F81444C5F3B8
:101E1000C2005946A047404511D108F103080AEB1A
:101E200098042AE0002106EB84000C300090CDE9F4
:101E300001810391C5F3C200D6F81444EAE760F3C8
:101E40008F1509EA070006EB8000C56016E000BFA9
:101E500004EA070C06EB8C0C491CDCF80CC040F8BB
:101E600004CB641C9942F3D3C5F3C2000093D6F8A7
:101E7000105401AB5946A84700B17460FFF716F93A
:101E800080F0010071E70000A0010020034AFF2359
:101E9000936000231360536000F088B8A001002015
:101EA0002DE9F8430F4F8846044600256946284629
:101EB000BE68FFF7CBF8002812D00B48002140681D
:101EC00061F38200009964F3C50001EA060265F33C
:101ED000891007EB820268F39F20491CD0600091B3
:101EE000BDE8F883A0010020AC2400002DE9F843F0
:101EF000124D884604460127914669463846AE6829
:101F0000FFF7A4F8002817D00D480021806861F37E
:101F10008200009964F3C50001EA060267F38910A4
:101F200005EB820268F39F20491CD060009131408C
:101F300005EB8101C1F80C90BDE8F883A0010020F9
:101F4000AC2400002DE9F84F164C884606460227BF
:101F50009A46914669463846A568FFF777F8002803
:101F60001ED01148C168002060F38201009866F31A
:101F7000C50100EA050267F3891104EB820268F3E8
:101F80009F21401CD16000EA050204EB8202401C44
:101F9000C2F80C900090284004EB8000C0F80CA020
:101FA000BDE8F88FA0010020AC240000024A02F531
:101FB000826203C270470000A001002070B506468F
:101FC0000020FFF769FD040008D1FFF761FD054619
:101FD000FFF7BCFE32462946FFF758FF204670BD8A
:101FE0004058002800D00120704708B50022425018
:101FF0004058009008BDD0F80403084000D00120EC
:1020000070474058002800D00120704708B50022D2
:1020100042504058009008BD0449084490F92400FB
:10202000082801DB0120704700207047380000209D
:102030000449084490F92400082801D2012070477F
:10204000002070473800002070B5034600791B4916
:1020500001EB40101968027F4FF0FF30002AD1F8E1
:102060000C25D1F81465D1F80855D1F8104504D0E5
:10207000C1F80C05C1F8140503E0C1F81405C1F856
:102080000C051968C1F80805C1F81005501C02D0EC
:102090001046FFF79FFC701C02D03046FFF79AFCF9
:1020A000601C02D02046FFF795FC681C04D028462F
:1020B000BDE87040FFF78EBC70BD000080000020BE
:1020C00082B2B2F5827F08D18AB204494A60001414
:1020D000886001200870FFF7EDBA7047000000200B
:1020E0001CB504461148C0680090002001900320F0
:1020F0008DF80100FFF760FA08B9FFF72FFA14B95D
:1021000002208DF800000A4A69461D20FFF7CAF92F
:1021100001211D20FFF774F901A91F20FFF75EFAC6
:1021200001A91E20FFF75AFA1CBD00006024000020
:10213000F5110000002100F001B80000024A5060D3
:1021400091600120507070470C00002070B505466A
:10215000C87D0C4600284FF4847128460AD0FFF74A
:1021600044FFD5F81805627EE1688854607E401C03
:10217000607670BDFFF739FFD5F8180570BD1FB543
:1021800001238DF800308DF808100192D0E900127B
:10219000684690471FBD00000148FFF7C1BB000023
:1021A0002800002070B50D460A4601460124064865
:1021B000FEF746F9EAB204490448FFF72BFB00B1E9
:1021C0000024204670BD0000A00000202800002050
:1021D00010B5144602004FF001000CD008461368F9
:1021E00006A24FF48071FEF713FC01462046BDE8BD
:1021F0001040FEF721BF0021216010BD5B25303863
:10220000645D000070B50C4605464FF48E71FFF713
:10221000ECFEA18AA068415CA08A401CA082C5F89F
:102220001C1570BD1FB500228DF800208DF8081018
:10223000816801918275D0E90012684690471FBD00
:102240000078012801D101498870704724000020DE
:102250002DE9FF470C4605464FF40071FFF7CBFE12
:1022600001274FF40178002618B34FF492794946BC
:102270002846FFF7B5FEE0B149462846FFF7B5FE10
:10228000C5F80883A07E00B96F6002208DF80000B9
:10229000D5F88004C5F880040390E07D8DF808002F
:1022A000E0680190E6752676D4E90012684690470A
:1022B00027E004212846FFF79EFE10B34FF48471F7
:1022C0002846FFF78DFEE0B121462846FFF73EFF86
:1022D000E07D617E884214D1207E38B1617EE26863
:1022E000E0752069E0602676667607E0A07E00B99A
:1022F0006F60C5F80883E675617EE2682046FFF7E7
:102300003EFF4FF48E7841462846FFF769FE88B1BC
:10231000A08AA17D884204D221462846FFF772FF99
:1023200008E041462846FFF760FEA17D11B1204636
:10233000FFF778FF4FF4A27841462846FFF750FE9A
:10234000002812D041462846FFF74FFEA07E00B17C
:102350002F60E07D002808D0E675617EE26804B059
:102360002046BDE8F047FFF70ABFBDE8FF872DE92B
:10237000FF410C464FF4927705463946FFF741FE80
:102380000026C0B139462846FFF740FE02208DF8EE
:102390000000D5F88004C5F880040390D5F83C050A
:1023A0008DF80800E0680190E6752676D4E9001201
:1023B0006846904724E04FF4887739462846FFF76F
:1023C00020FEE8B139462846FFF720FED5F83C0547
:1023D000C1B2E07D884213D1207E60B1E268D5F8B9
:1023E000000220F02000C5F80002207EE075206980
:1023F000E060267601E0E675E2682046FFF7BFFE62
:102400004FF4A27739462846FFF7FBFD68B13946FD
:102410002846FFF7FBFDE07D38B1E675D5F83C05B1
:10242000E268C1B22046FFF7AAFE4FF4907631462B
:102430002846FFF7E6FD00280FD031462846FFF773
:10244000E5FDA07D002808D0D5F84C0504B0C1B248
:102450002046BDE8F041FFF7E5BEBDE8FF81000082
:102460000103000202000301030201000200000157
:1024700000000050000700000300000004000000FE
:102480001C0000003200000001000007FFFFFFFFFA
:10249000FFFFFFFFFFFFFFFFFFFFFFFF0000000048
:1024A000000000000000D601070100002900000024
:1024B0000100000001000000010000000100000018
:1024C0000100000001000000010000000200000007
:1024D0000040404040404040404041414141414037
:1024E00040404040404040404040404040404040EC
:1024F000400502020202020202020202020202027B
:10250000022020202020202020202002020202027F
:1025100002029090909090901010101010101010D7
:1025200010101010101010101010101002020202E3
:102530000202888888888888080808080808080827
:102540000808080808080808080808080202020223
:1025500040000000D12400004F766572666C6F77F2
:102560000D0A000084250000000000203800000053
:10257000380A0000BC25000038000020802500003B
:10258000480A0000000100000000000000000000F8
:10259000000000000000000000000000000000003B
:1025A00000000000000000000000000000200040CB
:0C25B00000000000582500000090D0033F
:0400000500000401F2
:00000001FF
