:020000040000FA
:10000000C8250020150400001D0400001F04000086
:10001000210400002304000025040000000000006B
:1000200000000000000000000000000027040000A5
:1000300029040000000000002B0400002D04000033
:100040002F0400002F040000D50800002F0400003A
:100050002F0400002F040000390500002F040000C9
:100060002F0400002F0400002F0400002F040000C4
:100070002F0400002F0400002F0400002F040000B4
:100080002F0400002F040000F10600002F040000E0
:100090002F0400002F0400002F0400002F04000094
:1000A0002F0400002F0400002F0400002F04000084
:1000B0002F0400002F0400000000000000000000DA
:1000C0002F0400002F0400002F0400002F04000064
:1000D0002F0400002F0400002F0400002F04000054
:1000E0002F0400002F0400002F0400002F04000044
:1000F000000000002F0400000000000000000000CD
:1001000000000000000000000000000000000000EF
:1001100000000000000000000000000000000000DF
:1001200000000000000000000000000000000000CF
:1001300000000000000000000000000000000000BF
:10040000DFF80CD000F066F800480047C11100008A
:10041000C82500200648804706480047FEE7FEE75B
:10042000FEE7FEE7FEE7FEE7FEE7FEE7FEE7FEE7A4
:10043000AD0700000104000000487047D024000010
:1004400040EA01039B0703D009E008C9121F08C056
:10045000042AFAD203E011F8013B00F8013B521ED6
:10046000F9D27047421C10F8011B0029FBD1801AF9
:1004700070472DE9F05F0546002092469B4688466E
:100480000646814640241BE0284641464746224610
:1004900000F041F853465A46C01A914110D3114614
:1004A0001846224600F028F82D1A67EB01084F463F
:1004B00022460120002100F01FF817EB00094E41F1
:1004C000201EA4F10104DFDC484631462A4643469B
:1004D000BDE8F09F064C074D06E0E06840F00103E0
:1004E00094E8070098471034AC42F6D3FFF78CFF2E
:1004F000E024000000250000202A04DB203A00FA56
:1005000002F1002070479140C2F1200320FA03F36A
:10051000194390407047202A04DB203A21FA02F068
:100520000021704721FA02F3D040C2F1200291402D
:1005300008431946704700002DE9F04F00258DB0A3
:10054000DFF8A481A94605954FF4807601242F4653
:100550000695304601F050FA38B1D8F8040320422D
:1005600003D0304601F03EFA2543361D64007F1C5F
:10057000B6B2082FEDD34FF4BE74204601F03CFA1A
:1005800048B1204601F02EFA45F0004505AA0221A7
:10059000002001F011FA554E15F0FF0F15D001277C
:1005A00000242F420DD008EB8401D1F81005D1F8BA
:1005B0001015C0F3062056F82420C1F3014102B102
:1005C00090477F00641C082CEBD3002D4DDA0020EF
:1005D000CDF82490411E4FF0010A0DF1140B07AD28
:1005E000CDF8289045F82010401C0228FAD300BF0F
:1005F00096F854704FF0000878B227F0C004401C01
:1006000033D007A9204600F031FE00282DD04FEA54
:100610009719204600F0EEFC56F820701FB1B9F192
:10062000030F03D00CE0B9F1030F1ED109A8E108B4
:1006300004F00702435C0AFA02FC43EA0C03435449
:1006400002A8029401F07CF9029900EB8100D0F835
:10065000000705A9C0F301400290204600F006FE05
:100660000028029804D0022804D00DB0BDE8F08F15
:100670000328FAD1B9F1030F08D1029802282CD02F
:100680000221204601F039F94FF0010817B149461F
:100690002046B847B8F1000FE7D001AA0221002098
:1006A00001F08AF900205A460DF1040152F8204069
:1006B00051F82030A34212D0002009AB51F820405D
:1006C00042F8204053F8204045F82040401C0228C2
:1006D000F4D3B8F1000F8BD1C7E70321D1E7401C59
:1006E0000228E3D3C1E7000000600040380000208A
:1006F0002DE9F8432A48DFF8A4804FF4807201689E
:10070000284E002589B1D8F8041311F0010F0CD040
:10071000056000680090244862F30F040068726866
:1007200060F317443946204690471D484FF48271C4
:10073000001D0268BAB1D8F8042312F0020F12D0DB
:10074000056000680090184861F30F040C300068E1
:1007500060F31F4414483C300068726860F30F0770
:100760003946204690470E484FF48472083041467F
:100770000368002B10D0D1F8041311F0040F0BD034
:10078000056000680090204662F30F00726801B0B7
:100790003946BDE8F0431047BDE8F883002001402A
:1007A00000210140180000200C25014030B54FF019
:1007B00080500021D0F830210124082A02D1D0F83D
:1007C000343113B1082A09D00BE04FF08042C2F84F
:1007D0000C11C2F81011334A116005E0D0F8343121
:1007E00013B1082A04D006E0304B2F4A1A6005E006
:1007F000D0F8343113B1082A04D006E02C4BFB2288
:100800001A6005E0D0F8343113B1082A08D00EE0A0
:1008100090F858322748026863F30302026002E04E
:10082000D0F8340118B9244A4FF4007010602348FE
:10083000026842F470020260BFF34F8FBFF36F8F04
:100840004FF01022D2F80002002803DBD2F8040295
:10085000002822DA1A4B1C601A480468002CFCD0CD
:100860001224C2F800420568002DFCD0C2F80442F0
:100870000268002AFCD0196001680029FCD0BFF38F
:100880004F8F0E487C3801680F4A01F4E061114334
:100890000160BFF34F8F00BFFDE70D490B480860B3
:1008A00030BD000038050040488103008C560040F0
:1008B00018F50040E40E00404096024088ED00E04C
:1008C00004E5014000E401400400FA050090D00373
:1008D000340000200448017F04480029024901D067
:1008E00001F001BD01F070BC90000020002000402C
:1008F0000FB41CB50A46521ECDE9000207A9054BEC
:100900006A46069800F018F8009A002111701CBC85
:100910005DF814FB9B0D000002E008C8121F08C11F
:10092000002AFAD170477047002001E001C1121F70
:10093000002AFBD1704700002DE9FF4F8DB00F4614
:100940000546002606E025280BD0DDE90F1290476A
:100950006D1C761C28780028F5D111B03046BDE812
:10096000F08F0024A246A1460122EC4900E0044396
:1009700015F8013F203B02FA03F00842F7D128782E
:100980002A2810D06FF02F022878A0F13001092911
:1009900014D80AEB8A0102EB410144F0020400EB97
:1009A000010A6D1CF0E701CF5FEA000A03D544F4A9
:1009B0000054CAF1000A44F002046D1C28782E2865
:1009C00017D115F8010F44F004042A280ED06FF057
:1009D0002F022878A0F1300109290AD809EB8901F2
:1009E00002EB410100EB01096D1CF2E757F8049B93
:1009F0006D1C28786C280FD006DC4C2817D068288E
:100A00000DD06A2814D104E0742810D07A280FD1B0
:100A10000DE044F400140AE044F4801401E044F4CE
:100A200040146978814202D104F580146D1C6D1C5C
:100A30002A786E2A1FD00CDC632A31D004DC002A0D
:100A40008BD0582A11D1A3E0642A68D0692A0CD12E
:100A500065E0732A2ED004DC6F2A73D0702A04D18B
:100A60009BE0752A6FD0782A6ED01046DDE90F1210
:100A70009047761C50E1C4F30250022806D00328A8
:100A800009D0042801CF09D0066045E101CFF11754
:100A9000C0E9006140E101CF06803DE106703BE125
:100AA00017F8040B8DF8000000208DF80100EB46CC
:100AB000012003E057F804BB4FF0FF3061074FF00F
:100AC000000102D40DE008F10101884649450FDA22
:100AD0008045F8DB1BF808100029F4D108E008F184
:100AE000010188468142FADB1BF808100029F6D183
:100AF000DDE90F23AAEB08008146214600F036F914
:100B0000304400EB080604E0DDE90F121BF8010B8E
:100B10009047B8F10108F7D221464846F7E00A218C
:100B2000C4F302534FF0000B0891022B04D001CF05
:100B3000C117032B09D00AE0FF1D27F00707F7E8CC
:100B4000020108E032E01FE020E000B2C117042BF0
:100B500001D140B2C117031E71F1000307DA4FF053
:100B6000000CD0EB0C006CEB01012D2302E02305FF
:100B700004D52B238DF82430012303E0E30701D0B3
:100B80002023F7E7984658E00A2110E010210EE0F4
:100B900010204FF0000B08900CE010214FF0000BDC
:100BA00044F004044FF00809089103E008214FF0D5
:100BB000000B0891C4F30253022B04D001CF002193
:100BC000032B06D006E0FF1D27F00707F7E8020118
:100BD00003E080B2042B00D1C0B24FF0000823071D
:100BE0002BD5702A07D0DDF820C08CF0100C5CEA01
:100BF0000B0C05D00EE040238DF82430012308E0D3
:100C000050EA010306D030238DF824308DF82520DA
:100C100002239846DDF820C08CF0080C5CEA0B0C2F
:100C20000BD150EA010301D1630706D530238DF8BB
:100C300024304FF00108A9F10109582A04D038A244
:100C40000B9208AA0A920BE03AA2F9E75B46089ACF
:100C5000FFF70FFC0B9B9B5C0A9A521E0A921370C3
:100C600050EA0102F2D10A98ADEB000000F1200B2E
:100C7000600702D524F4803401E04FF00109D94522
:100C800002DDA9EB0B0000E0002000EB0B0141446A
:100C90000890AAEB010AE00306D4DDE90F23214600
:100CA000504600F063F806444FF0000908E009A937
:100CB00011F80900DDE90F12904709F10109761CCE
:100CC000C145F4DBE0030CD5DDE90F232146504696
:100CD00000F04CF8064404E0DDE90F1230209047A4
:100CE000761C0899481E08900029F5DC08E00A984F
:100CF0000A990078491C0A91DDE90F129047761C89
:100D0000BBF10001ABF1010BF1DC21465046DDE9FE
:100D10000F2300F019F806446D1C1BE6092801009A
:100D20003031323334353637383961626364656661
:100D30000000000030313233343536373839414223
:100D400043444546000000002DE9F04104460025DB
:100D50001E461746880404D405E039462020B047D3
:100D60006D1C641EF9D52846BDE8F0812DE9F041DF
:100D7000044600251E469046C80301D5302700E0F2
:100D80002027880404D505E041463846B0476D1C4D
:100D9000641EF9D52846BDE8F0814A68002A06D0CD
:100DA0000A68531C0B6010704868401E486070470A
:100DB0000DA1012001F030F800F088FF00F08AFF5B
:100DC0000028FBD10CA1032001F026F8BFF34F8FC0
:100DD00010480168104A01F4E06111430160BFF35B
:100DE0004F8F00BFFDE700003A4552524F523A463E
:100DF0006174616C0D0A00003A494E464F3A4869E9
:100E000074207765616B2068616E646C65720D0A91
:100E1000000000000CED00E00400FA050EB5002112
:100E20000091CDE901106A4644F20100FFF7C0FFCE
:100E30000EBD00F003B800F009B8000072B6024819
:100E40000168491C016070472000002003490868C0
:100E5000401E086000D162B67047000020000020EC
:100E600070B5054608680C46411C04D000F099FD99
:100E7000206800F038FD6068411C02D0002100F0BD
:100E800029FD28791F4901EB40102968007F0028BF
:100E9000A069C1F8240523D0607D227D2968104314
:100EA000C1F86C05D4E900122868C0F80C15C0F828
:100EB000142522E0A068411C02D0002100F00AFDA8
:100EC000E068411C04D000F06CFDE06800F00BFD10
:100ED000D4E902122868C0F80825C0F8101570BDC2
:100EE000607D217D2A680843C2F86C05D4E90012B0
:100EF0002868C0F81425C0F80C15207D0128D9D029
:100F000070BD000090000020002901DA0020704729
:100F100002681144016001207047000070B5461C52
:100F20000D4601240020FFF784FF114A1068286055
:100F3000D2E900109568081A2B1A701C5B1C9842A5
:100F40000FD963B10B480C4B294000681B6802EBBA
:100F5000810163F39F20C8601068401C106000246A
:100F600001E0881910600020FFF765FF204670BD82
:100F7000B00100202824000030000020034803C8EE
:100F8000814201D10120704700207047B00100204C
:100F900005494FF0FF32082841F8202002D30844C9
:100FA00080F84C207047000038000020F0B54FF06A
:100FB000FF3512B10023082601E0082309260C4C56
:100FC00005E000BF54F823707F1C04D05B1CB342C3
:100FD000F8D32846F0BD26185DB286F8245044F8B0
:100FE0002310002AF5D1E11881F84C00F1E7000048
:100FF000380000200249084490F92400704700009E
:101000003800002070B5124D041E03DD687828B149
:10101000641E03E002DA687800B1641C686838B1C5
:101020006A680CA1012000F01DFF0020FFF7F6FE0A
:10103000A868A04208D0AB68224616A1012000F0A3
:101040003DFF0020FFF7EAFE0020687070BD000041
:10105000000000204150503A4552524F523A6D5FC5
:1010600061636364626C726561642077617320659B
:101070007870656374656420746F2068617665209C
:1010800076616C7565203020627574206973202547
:10109000750D0A004150503A4552524F523A6D5F19
:1010A000616363726561642073686F756C6420624C
:1010B00065202564206275742069732025640D0AFB
:1010C0000000000010B51E4C6068002806DD607846
:1010D00020B16068401E60601A4813E06068002814
:1010E00007DA607828B16068401C60601548001D10
:1010F00008E0A06850B1607840B1A068401EA060D0
:10110000104808302178405C207001E000206070B9
:101110002078C0074FF01E0002D000F017FA01E05F
:1011200000F0BAF9207880074FF01F0003D5BDE822
:10113000104000F00BBABDE8104000F0ADB900005F
:101140000C000020D823000070B50E46044600793C
:1011500018494FF4A27501EB4010017F2068A1B13E
:101160004FF4887100F00EFF4FF49071206800F08A
:1011700009FF4FF49271206800F004FF29462068AF
:1011800000F000FF0C49206809E04FF48E7100F078
:10119000E8FE2946206800F0E4FE08492068C0F80F
:1011A0000413206800F091F83146BDE8704000F06B
:1011B00070B80000900000201003020080000200C0
:1011C00002240125002000F0B5FE08B1FFF726FE3D
:1011D0001A49002000F0E4F908B1FFF71FFE184893
:1011E0004FF00A080068C0B200F036FF15A10320D6
:1011F00000F012FE1B4E4FF0000900BF05FB04F784
:10120000384600F053FF00F0BBF900E020BF307813
:101210000028FBD014A1132000F0FEFD86F80090FA
:101220003846FFF7EFFE641C4445E7D901246D42C0
:1012300000F050FD0028FBD1E0E70000392000005D
:10124000042501404150503A494E464F3A514445D9
:10125000432074657374696E67207374617274657A
:10126000640D0A00000000202A000000C20800F0FF
:1012700007030120895C98400840704700F01F0276
:10128000012191404009800000F1E020C0F8801168
:1012900070474907090E002806DA00F00F0202F134
:1012A000E02282F8141D03E000F1E02282F800142D
:1012B00000F01F02012191404009800000F1E02070
:1012C000C0F88012C0F800117047000B40B27047A0
:1012D0002DE9F0410E46804600F05AFE204D0028D0
:1012E000404616D0FFF786FE284490F84C0080094F
:1012F000032802D001280AD003E0404600F03CFB5E
:1013000028B103214046BDE8F04100F0F6BA0221C1
:10131000F8E700F049FE002820D04046FFF76AFEBB
:101320000446104F4FF4807007EB840100EB8400FB
:10133000D1F8102580B242F00102C1F8102500F06A
:1013400051FB002E0AD04046FFF754FE55F820000E
:10135000002803D00120A040C7F80403BDE8F081B5
:1013600038000020006000402DE9FC41DFF8AC802F
:10137000044608EB0400002790F924001346C01728
:101380000E46401C01D0082744E0F278194620465A
:10139000FFF70CFE0546401C3BD0B07868B16846AC
:1013A000009400F0CDFA009900EB8100D0F800170E
:1013B00021F00201C0F8001707E0002173782046F1
:1013C00000910A46019100F037FAF078C0B1144854
:1013D000317800EB8500D0F81025124B1A40C0F888
:1013E00010254FF4FE424FF4403302EA042203EA90
:1013F00001410A43D0F810150A43C0F8102509E04E
:1014000008EB0500327810F84C1F41EA8211017098
:1014100000E004273846BDE8FC81000038000020C9
:1014200000600040FF80FCFF70B5144D95F855003A
:1014300008B1082070BD0020411E2A18401CC0B20F
:1014400082F824103028F8D300242046FFF7A0FDAE
:10145000641CE4B2092CF8D307210620FFF719FF1A
:101460004FF4BE7000F0BEFA05494FF00040C1F8DD
:101470000403012085F85500002070BD38000020CD
:1014800000600040034890F85500002800D001207B
:10149000704700003800002000F047BA2DE9FC41F9
:1014A000044627480D462044002690F92410491C84
:1014B00001D008263EE0A978002751B3012200217F
:1014C0002046FFF773FD411C21D083001D482A7878
:1014D00018446978D0F81035DFF86CC003EA0C03C3
:1014E000C0F81035D0F810354FF4FE4C0CEA042C3F
:1014F00043EA0C034FF4403C0CEA02424FF4801CD8
:101500000CEA01510A431343C0F8103504E00426E5
:1015100010E0FE2180F824106878012820460CD0C5
:1015200000F003FA0122204600970023114601979C
:1015300000F082F93046BDE8FC8100F028FAF1E7BE
:101540003800002000600040FF80ECFF00F01FBA70
:101550000121B1EB507F01D101207047002070477D
:10156000044901200860044A002111600349087001
:1015700070470000042001400025014018000020B1
:1015800004490120086004490860044902200870E9
:101590007047000000250140002001401800002095
:1015A00070B5294D0446287808B1082070BD04B9EB
:1015B000264C79B369602649607808600021E068AC
:1015C00000F076F90021606800F072F90021A0684F
:1015D00000F06EF91E4BD4E901211833E0681A605F
:1015E0001A1D1160191F08601949206938310860F7
:1015F0001749207D091F08601649D1F8000240F004
:101600000100C1F800021248627D2030012622B19B
:10161000066004E0FFE7072070BD00220260227828
:101620000420082A03D00A48083002600620A27D60
:101630000AB140F00100C1F80403E17D1220FFF778
:1016400028FE2E70002070BD18000020F02300003E
:1016500008250140002001402DE9F04105460079B0
:10166000164F904607EB40140E46E07E10B108205E
:10167000BDE8F081707F20772846FFF7F1FB5FEA35
:10168000080060603169216003D0317F2846FFF790
:101690005BFD287907EB4010007F0028286801D007
:1016A000082100E00421C0F800150020E075207634
:1016B000A0750121E176A076DAE700009000002015
:1016C0002DE9F047054600793F4E904606EB401461
:1016D0000F46207F18B10846FFF73AFF30B1284681
:1016E00000F074F820B11120BDE8F0871020FBE76E
:1016F00084F81680A7600027A78228794FF0010898
:1017000006EB40143E46207F0028286825D04FF481
:101710009079494600F036FC4FF4AC7A514628687F
:1017200000F030FC2868A17DA268C0F84425C0F80C
:1017300048152868C0F808806068F0B949462868EC
:1017400000F01BFC80465146286800F016FC58EA61
:101750000001F3D058BBA7750FE04FF48E7A5146C5
:1017600000F0FFFB2868C0F808802146286800F0D8
:1017700005FD61684FF4807089B13046B4E7514689
:10178000286800F0E9FB10B9A08A4845F7D1A08A83
:10179000484505D02146286800F0F0FC00E081466D
:1017A000A08AA17D8842EAD3A08A484501D10F26AC
:1017B000D1E75146286800F0CFFB0028F9D028680F
:1017C000C0F80C80C7E700009000002000790449B1
:1017D00001EB4010807D002800D001207047000000
:1017E0009000002070B5044600791149002601EBF5
:1017F000401520682A7FC0F80065686888B12079A4
:1018000001EB4010007F0028206801D0094901E069
:1018100008498C39C0F808132068FFF756FDFFF718
:101820002DFD204600F0CCFBEE766E6070BD000012
:1018300090000020100302002DE9FF411C46DDE965
:101840000A7815460E46684600F07AF846EA4501E1
:1018500041EA840141EA072242EA0841009A00EB8A
:101860008200C0F80017BDE8FF812DE9FF411C464A
:10187000DDE90A7815460E46684600F06FF846EA3C
:10188000450141EA840141EA072242EA0841009AFF
:1018900000EB8200C0F80017BDE8FF811CB50021F5
:1018A00000910B4601220191FFF7DFFF1CBD0000F4
:1018B000202802D24FF0A04202E0054A00F01F00AB
:1018C000002302EB800043EA8101C0F80017704753
:1018D000000300501CB500220B46009211460192F5
:1018E000FFF7C3FF1CBD1CB5002100910B46012270
:1018F00001911146FFF7B9FF1CBD13B50C466846B0
:1019000000F01EF8009900EB8101D1F8002722F4C5
:101910004032C1F80027009900EB8100D0F8001791
:1019200041EA0441C0F800171CBD01B5684600F04B
:1019300007F8009A01219140C0F80C1508BD00007D
:101940000168202902D24FF0A040704701F01F012A
:101950000160014870470000000300500168202921
:1019600002D24FF0A040704701F01F010160014812
:10197000704700000003005001B56846FFF7E0FF24
:10198000D0F810050099C84000F0010008BD01B56D
:101990006846FFF7D5FF009A01219140C0F808156D
:1019A00008BD01B56846FFF7D9FF009A01219140B3
:1019B000C0F8081508BD00001CB5094C0144D4E965
:1019C0000034CDE900346C4606E000BF54F8203006
:1019D000D3F81035401C08C28142F7D81CBD000066
:1019E000E8230000034908B50844002101600068AD
:1019F000009008BD0060004002494058012800D016
:101A0000002070470060004000487047811A0000C5
:101A100030B5184C054689B0207828B160788542E9
:101A200002D1002009B030BD202213496846FEF7DC
:101A300007FD00208DF8140006200090082001907A
:101A400005200390072002904FF0EB7006900948A4
:101A5000001DFFF7C7FE0DB1002200E0074A054850
:101A60006946001DFFF7F8FD0028DBD1012020703A
:101A70006570D6E72400002008240000B92100008A
:101A80002DE9F04FC1B00D004FF0000140914D988D
:101A90004B991C46174601EB000B01D00A2000E0D1
:101AA0000020804600F034FB00287CD16E46BCB993
:101AB000409840AA3118284600F046FB002872D012
:101AC0003846FEF7CFFCC22800D9C2200546409810
:101AD0002A4630443946FEF7B3FC409828444090EB
:101AE0004FF0200A409901EB080231320DEB01055D
:101AF0000DEB0206002002E005F801AB401C40455A
:101B0000FAD300275C4508D305F801AB05F801AB13
:101B100005F801AB06F801AB2DE04B98844202D2E8
:101B20004A98005D02E0211A4C98405C2B468146A1
:101B300002460121880022FA00F000F00F00092877
:101B400001D9373000E03030C1F1010C491E03F8F3
:101B50000C00EFD29D1C05F801ABFEF76DFC01688F
:101B600011F8090010F03E0F01D0484600E02E2089
:101B700006F8010B641C7F1C102FC3D30D2030709E
:101B80000A20707085F800A04099684641444331AE
:101B9000409100F0C3FA30B100F0BAFA18B9002051
:101BA00040905C459ED341B02046BDE8F08F2DE9C2
:101BB000F043C7B000251C46904689464E9F459588
:101BC00000F0A6FA00287AD1459805AE311845AA4A
:101BD000484600F0B9FA002835D0072F27D2DFE8B1
:101BE00007F004121B35424F5D004046FEF73AFCF9
:101BF000054645982918FF2919D830442A464146F8
:101C0000FEF71EFC13E045982368C0F58071304450
:101C10004246FEF76DFE09E0606800904598236833
:101C2000C0F5807130444246FEF762FE0546294603
:101C300045A8FFF769F9459978B3B1F5807F3ED89B
:101C400005A800F06BFA47B0BDE8F083D4E90101C4
:101C5000CDE9000145982368C0F5807130444246C3
:101C6000FEF746FEE2E7201D07C88DE8070045980D
:101C70002368C0F5807130444246FEF739FED5E74F
:101C8000201D0FC88DE80F0045982368C0F58071AE
:101C900030444246FEF72CFEC8E710E004F108008D
:101CA00001AD0FC885E80F00606800904598236873
:101CB000C0F5807130444246FEF71AFEB6E70020B8
:101CC000C1E7000000487047AF1B00000120FFF78C
:101CD0009FBE00002DE9F04F87B0FFF74FF918B114
:101CE000002007B0BDE8F08F454ED6E9014704EA71
:101CF000070006EB8000A146641CC5680CE000BF2D
:101D0000C5F3891000EB9550044404EA070006EB84
:101D10008000A146C568641CA807F1D005F0030047
:101D20004FF0000B022805D0AA0A01A8C5F38313BF
:101D3000002153E004EA070006EB800004F1010AE9
:101D40000AEA0704C268381B80004FEA9558001D54
:101D5000C5F38913804521D929490C3138B106EBE7
:101D6000840400F0FF0CA8EB00000C3404E00C46E7
:101D7000002108F0FF0C0846C0B2CDE90210CDE901
:101D8000004CD6F81444C5F3C2005946A04740455C
:101D900011D108F103080AEB98042AE0002106EBB0
:101DA00084000C300090CDE901810391C5F3C2009D
:101DB000D6F81444EAE760F38F1509EA070006EB4A
:101DC0008000C56016E000BF04EA070C06EB8C0C2F
:101DD000491CDCF80CC040F804CB641C9942F3D3D6
:101DE000C5F3C2000093D6F8105401AB5946A8477A
:101DF00000B17460FFF7C2F880F0010071E70000E5
:101E0000B0010020034AFF23936000231360536056
:101E100000F088B8B00100202DE9F8430F4F884644
:101E20000446002569462846BE68FFF777F8002873
:101E300012D00B480021406861F38200009964F3DE
:101E4000C50001EA060265F3891007EB820268F318
:101E50009F20491CD0600091BDE8F883B0010020AC
:101E6000282400002DE9F843124D88460446012736
:101E7000914669463846AE68FFF750F8002817D0FB
:101E80000D480021806861F38200009964F3C50069
:101E900001EA060267F3891005EB820268F39F20CE
:101EA000491CD0600091314005EB8101C1F80C90D4
:101EB000BDE8F883B0010020282400002DE9F84F88
:101EC000164C8846064602279A4691466946384689
:101ED000A568FFF723F800281ED01148C16800202C
:101EE00060F38201009866F3C50100EA050267F31A
:101EF000891104EB820268F39F21401CD16000EA43
:101F0000050204EB8202401CC2F80C9000902840AD
:101F100004EB8000C0F80CA0BDE8F88FB0010020F1
:101F200028240000024A02F5826203C270470000C2
:101F3000B001002070B506460020FFF769FD0400DF
:101F400008D1FFF761FD0546FFF7BCFE3246294682
:101F5000FFF758FF204670BD4058002800D00120F0
:101F6000704708B5002242504058009008BDD0F894
:101F70000403084000D0012070474058002800D0DA
:101F80000120704708B5002242504058009008BD1B
:101F90000449084490F92400082801DB0120704717
:101FA00000207047380000200449084490F92400BC
:101FB000082801D201207047002070473800002017
:101FC00070B5034600791B4901EB40101968027F88
:101FD0004FF0FF30002AD1F80C25D1F81465D1F864
:101FE0000855D1F8104504D0C1F80C05C1F8140506
:101FF00003E0C1F81405C1F80C051968C1F808051B
:10200000C1F81005501C02D01046FFF747FC701CA9
:1020100002D03046FFF742FC601C02D02046FFF79A
:102020003DFC681C04D02846BDE87040FFF736BC74
:1020300070BD00009000002082B2B2F5827F08D10E
:102040008AB204494A600014886001200870FFF7D2
:1020500087BA7047000000201CB504461148C068CC
:1020600000900020019003208DF80100FFF70AFA8C
:1020700008B9FFF7D9F914B902208DF800000A4A0F
:1020800069461D20FFF770F901211D20FFF720F997
:1020900001A91F20FFF702FA01A91E20FFF7FEF990
:1020A0001CBD0000D8230000C5100000002100F076
:1020B00001B80000024A50609160012050707047E2
:1020C0000C00002070B50546C87D0C4600284FF472
:1020D000847128460AD0FFF744FFD5F81805627EC0
:1020E000E1688854607E401C607670BDFFF739FF60
:1020F000D5F8180570BD1FB501238DF800308DF897
:1021000008100192D0E90012684690471FBD0000F8
:102110000148FFF75BBB00002800002070B50D46AA
:102120000A46014601240648FEF78AF9EAB2044944
:102130000448FFF7C5FA00B10024204670BD000036
:10214000B00000202800002010B5144602004FF017
:1021500001000CD00846136806A24FF48071FEF708
:10216000C7FB01462046BDE81040FEF7CDBE00216A
:10217000216010BD5B253038645D000070B50C46F1
:1021800005464FF48E71FFF7ECFEA18AA068415C12
:10219000A08A401CA082C5F81C1570BD1FB5002286
:1021A0008DF800208DF80810816801918275D0E9C2
:1021B0000012684690471FBD0078012801D10149EF
:1021C00088707047240000202DE9FF470C46054623
:1021D0004FF40071FFF7CBFE01274FF40178002682
:1021E00018B34FF4927949462846FFF7B5FEE0B19F
:1021F00049462846FFF7B5FEC5F80883A07E00B91A
:102200006F6002208DF80000D5F88004C5F88004C6
:102210000390E07D8DF80800E0680190E675267671
:10222000D4E900126846904727E004212846FFF7CA
:102230009EFE10B34FF484712846FFF78DFEE0B187
:1022400021462846FFF73EFFE07D617E884214D19B
:10225000207E38B1617EE268E0752069E060267614
:10226000667607E0A07E00B96F60C5F80883E67562
:10227000617EE2682046FFF73EFF4FF48E784146CC
:102280002846FFF769FE88B1A08AA17D884204D262
:1022900021462846FFF772FF08E041462846FFF72F
:1022A00060FEA17D11B12046FFF778FF4FF4A278C0
:1022B00041462846FFF750FE002812D041462846E6
:1022C000FFF74FFEA07E00B12F60E07D002808D010
:1022D000E675617EE26804B02046BDE8F047FFF78E
:1022E0000ABFBDE8FF872DE9FF410C464FF4927706
:1022F00005463946FFF741FE0026C0B1394628465B
:10230000FFF740FE02208DF80000D5F88004C5F8E4
:1023100080040390D5F83C058DF80800E068019032
:10232000E6752676D4E900126846904724E04FF41B
:10233000887739462846FFF720FEE8B13946284617
:10234000FFF720FED5F83C05C1B2E07D884213D1ED
:10235000207E60B1E268D5F8000220F02000C5F8C8
:102360000002207EE0752069E060267601E0E675D7
:10237000E2682046FFF7BFFE4FF4A27739462846B1
:10238000FFF7FBFD68B139462846FFF7FBFDE07D0E
:1023900038B1E675D5F83C05E268C1B22046FFF7D2
:1023A000AAFE4FF4907631462846FFF7E6FD002856
:1023B0000FD031462846FFF7E5FDA07D002808D064
:1023C000D5F84C0504B0C1B22046BDE8F041FFF796
:1023D000E5BEBDE8FF810000010300020200030129
:1023E0000302010002000001000000500003005041
:1023F0000007000003000000040000001C000000B3
:102400003200000001000007FFFFFFFFFFFFFFFF9A
:10241000FFFFFFFFFFFFFFFF0000000000000000C4
:102420000000D601070100002900000001000000A3
:102430000100000001000000010000000100000098
:1024400001000000010000000200000000404040C8
:102450004040404040404141414141404040404077
:102460004040404040404040404040404005020223
:1024700002020202020202020202020202202020E2
:10248000202020202020200202020202020290903E
:10249000909090901010101010101010101010103C
:1024A0001010101010101010020202020202888890
:1024B000888888880808080808080808080808089C
:1024C0000808080808080808020202024000000084
:1024D0004D2400004F766572666C6F770D0A000020
:1024E000002500000000002038000000180900004E
:1024F0003825000038000020902500002809000041
:1025000000010000000000000000000000000000CA
:1025100000000000000000000000000000000000BB
:10252000000000000000000000200040000000004B
:08253000D42400000090D00348
:0400000500000401F2
:00000001FF
