:020000040003F7
:10C00000C0330020B5C30300CFC30300D1C3030076
:10C010000000000000000000000000000000000020
:10C02000000000000000000000000000D3C3030077
:10C030000000000000000000D5C30300D7C30300C8
:10C04000D9C30300D9C303005BC50300D9C30300F0
:10C05000D9C3030000000000A9D00300D9C3030026
:10C06000D9C30300D9C30300D9C30300D9C3030054
:10C07000D9C30300D9C30300D9C30300D9C3030044
:10C08000D9C303000BD70300D9C30300D9C30300EE
:10C0900021D70300D9C303006FF10300D9C3030004
:10C0A000D9C30300D9C30300000000000000000052
:10C0B0000000000000000000000000000000000080
:10C0C0000348854603F0A2F800480047E9C1030091
:10C0D000C0330020056885F3088846680A4AEFF3F4
:10C0E00005839A42304602D1084CA6463047074C99
:10C0F000064D0646064FF0B4034C034D024E024F68
:10C10000F0B404480047000000000000FFFFFFFFFC
:10C1100000000021F9FFFFFF401E00BF00BF00BF6D
:10C1200000BF00BF00BF00BF00BF00BF00BF00BF17
:10C1300000BFF1D170470000401E00BF00BF00BF2C
:10C1400000BF00BF00BF00BF00BF00BF00BF00BFF7
:10C1500000BFF1D1704700000A4610B5014684487F
:10C1600000F076FF10BD10B500F0ACFC10BD10B5AE
:10C17000804C86B01ECC03946C460EC4002807D0B9
:10C18000684618DF002803D00022114600F060FF47
:10C190000F20800313DF002803D00022114600F097
:10C1A00057FF754B50227549082002F0B3FF002855
:10C1B00003D00022114600F04BFF00206946049096
:10C1C000087404A860DF002803D00022114600F0A4
:10C1D0003FFF6B4802F0C3FF002803D00022114646
:10C1E00000F036FF06B010BD08B56648C169B12938
:10C1F0004FD000246449032008600127634DFE05E9
:10C20000AE6063480F2140698903884204D0002250
:10C210001146104600F01CFF0120000700690121B3
:10C220008902884204D000221146104600F010FF17
:10C2300058480090584B05220321002001F097FA3E
:10C24000002803D00022114600F002FF4E49534857
:10C250000C39086001F099FD01F0DCFD00281CD0CC
:10C26000EE6001F0E6FD002803D00022114600F048
:10C27000EFFE20467840FFF77AFF00F053F801F018
:10C28000FEFD002803D00022114600F0E1FEAE6062
:10C2900009E001240021C161ACE720467840FFF7A6
:10C2A00066FF00F03FF82869000DC007C00F04D0FA
:10C2B000002020433A4C07D101E00120F9E7A068B3
:10C2C00001F0B2FC002809D1EE6001F06FFD0028FA
:10C2D00003D00022114600F0BBFEAE60A06801F062
:10C2E000A3FC002806D001F095FD002802D1A0682B
:10C2F00001F068FDBFF34F8F2B492A48C860BFF398
:10C300004F8FFEE71CB501910090284A082168462E
:10C3100001F004F81CBD10B50021254A084600F0C4
:10C32000FDFF10BD154A10B550321421082000F051
:10C33000E1FF002803D00022114600F089FE10BD65
:10C3400010B50446082904D000221146104600F01A
:10C350007FFE21686068884710BD10B5002904D0B1
:10C3600000221146104600F073FE02F095FE10BD4B
:10C37000EFBEADDE68F2030017C3030058230020B0
:10C3800067C10300000500405C0700500005005035
:10C390000010001005C30300182100200C0003004A
:10C3A000003000000400FA0500ED00E041C3030086
:10C3B0005BC303000321094802680A43026008487E
:10C3C00002680A4302600748804707480047FEE7C3
:10C3D000FEE7FEE7FEE7FEE7FEE70000240500407B
:10C3E00054050040F5C30300C1C00300234922489F
:10C3F0000860704710B500F01DF8002805D02149ED
:10C400001F484860C813204988612048018CC9B280
:10C4100001290ED1818C09070BD1018D0906090F65
:10C42000042906D1808D0006000F02D11849012091
:10C43000886010BD1548018CC9B2012917D1818CC3
:10C44000090714D1018D09060A0F03D1828D120646
:10C45000120F0ED0090F012903D1828D1206120F7F
:10C4600007D0032903D1808D0006000F01D00020E2
:10C4700070470120704700000024F40000200020D5
:10C48000DFFF07C000050040006C0040C00F00F057
:10C49000000600401CB5D0490120C860CF49487053
:10C4A00003206A461070C968684688471CBD70B58D
:10C4B00002240122CA4DC84EC849030002F0B8FE4A
:10C4C00005040C2619200B004878012818D00228F2
:10C4D00001D10320487070BD4878002802D003289D
:10C4E000F9D104E00420286032604A7070BD4C70BD
:10C4F00070BD4878012806D0022804D00328F7D15F
:10C5000000F05FF970BDFFF7C5FF70BD48780128E6
:10C51000FBD14878022800D0B2608878E861E6E76D
:10C52000F8B50546AD4E0C460846B16828400842AD
:10C5300008D06946F07800F0B7FE00280CD10098CA
:10C5400005408443B068044201D0012002E0054266
:10C5500002D00020FFF7ABFFF8BDFEB5A14CA068EC
:10C560009E4DA14E002700280ED0706840070BD5C5
:10C57000A7609B4880690422C0B2A88069460A70FF
:10C580000871E96868468847E069002806D0706845
:10C59000000603D5E7610320FFF789FF606A0028E2
:10C5A0000ED0706880050BD567628D4980390868A8
:10C5B000086002216A4611700190E9686846884760
:10C5C000FEBDFFB581B00446844E00200A9F707006
:10C5D000401EF260B0806078012529468140834882
:10C5E00081606078032182008148121811602178EF
:10C5F0000C2289000818026079486178C1602178AE
:10C600004161A1684162764861794030002900D0DB
:10C610000E21C1622379022B09D070490A78511C7E
:10C62000012B3B88C9B24FD0002B60D061E0A278CB
:10C63000032193006E4A9A181160A1782A468A4015
:10C640006A494A6000226649D2430A61A2788A6038
:10C65000C16A2943C162E07829468140820064486A
:10C66000B160644910180160E0782946814038883B
:10C67000002804D0FF280FD2072005B0F0BD57488E
:10C680005D4B0A46C01C00F090FD0028F5D1F07803
:10C690000002FF30388001E0000AF0706946F0784F
:10C6A00000F002FE0028E8D1F07800F0A1FD00289B
:10C6B000E3D1E07885400098054201D1012000E0F7
:10C6C0000020FFF7F4FE27E0002B01D13A80317003
:10C6D000434904220A60434B00229A60DA61C26A2D
:10C6E0002A43C262E0780861A078886010E03A804E
:10C6F00031703B4904220A603A4B00229A60DA61A9
:10C70000C26A52085200C2620020C04388600861B9
:10C71000314885600560757000213348C9438160E8
:10C72000A12189004160354904200860344B0499F7
:10C730001A68FF2424048907090EA24309040A4346
:10C740001A6030490860002097E710B52349044675
:10C750008B882D4A0020934201D1052010BD237003
:10C760008A8010BD014610B51C4800244278012A79
:10C7700001D0042403E081700220FFF798FE2046D8
:10C7800010BD0020704715494978002900D00121CB
:10C7900001700020704710B5FF2804D20420FFF775
:10C7A00086FE002010BD0D4C000AE178884201D0C1
:10C7B000072010BD0420FFF77AFEE07800F058FD56
:10C7C00010BD06490020487003490122CA604A6032
:10C7D000034908607047000000200040042000204A
:10C7E00000250040002100400023004000050050CB
:10C7F000000700500C00030021C5030080E200E0A8
:10C8000000E400E000E100E0FFFF000001490160FA
:10C810007047000000FC030010B5FFF75BFC10BD83
:10C8200031B5054C04E0401E00902046FFF774FC33
:10C8300000980028F7D138BDE703000018225043C4
:10C84000FE4A0021801801718160416101228161ED
:10C850000261C1607047FFB581B0F94C049B039A37
:10C86000054666781A4303200092002E03D1002A61
:10C870000ED0012262706778039A01263607920073
:10C880003B0002F0D5FC072707162940526127001C
:10C890000222EFE77069326992B25043326933691C
:10C8A0001204920C9BB2594321DF002812D10221BD
:10C8B0000FE0084620DF00280CD10399002901D0A1
:10C8C000032106E00499002916D12978042946D0CD
:10C8D00017E0617005B0F0BD7069326992B25043E3
:10C8E000326993B24B4301461846039A21DF002870
:10C8F000F0D10499002901D00421EAE7297804291C
:10C9000020D00521E5E773693069366980B2434379
:10C9100068681B189B18B6B24E4330188018194629
:10C92000049A21DF0028E9D0D4E7306980B2484377
:10C93000696880188A08696921DF0028CAD10099CE
:10C9400000290CD00621C4E77069316989B24843D7
:10C95000316989B202F020FC20DF0028BAD107211A
:10C96000B7E7F8B5B54918230A780F205A43541889
:10C97000B34922796669241DCF68022A1BD001259C
:10C980002D07042A2AD0052A5BD1286981B23046B6
:10C9900002F002FC0146A36828699A1980B2484354
:10C9A000101A820860681818861928694B1C80B212
:10C9B0005843801B34E0B80262686169121A091892
:10C9C000A3683018181801239B029A4202D29208D9
:10C9D00021DF31E0FF22013221DF2DE0E2689749BB
:10C9E00014205043F4314018001D0BC8B04203D14D
:10C9F00060685943814218D0022A16D0286981B252
:10CA0000304602F0C9FB0146286980B24843301A1B
:10CA1000820828694B1C80B2584363689B19C01A6E
:10CA200083082046FFF717FF06E0286981B23046E9
:10CA300002F0B2FBC01920DF002802D17F49012299
:10CA40008A70F8BDF8B57D4C069E65780A2D1DD01C
:10CA500027787D19EDB20A2D01D30A3DEDB21827D2
:10CA60007D432D192871AA6103C9EE60AB6069612D
:10CA70002861A1780020002904D1FFF772FF112856
:10CA800000D100206178491C6170F8BD0420F8BD18
:10CA900038B50246694818230178594308180369D4
:10CAA0000179022B0AD014246343644CF434E45813
:10CAB0008368009383691030A04738BD604B103302
:10CAC0001C68F5E7F8B55D4B9978012914D100256C
:10CAD0005B499D704A78082A05D002280FD00328A8
:10CAE0000AD10D2006E0022807D00D7000F09DFA53
:10CAF000002801D0FFF7CCFFF8BD4D70F6E74F4896
:10CB0000182403784E496343CC681818641CCC6021
:10CB10000379001D022B05D14668A102B14201D361
:10CB2000012700E00027052B01D1072A03D00021AF
:10CB3000042B02D003E00121FAE7072A03D00026E4
:10CB4000042B02D007E00126FAE74068A3028342E3
:10CB500001D3002A1AD00020314301433943C5D004
:10CB6000374E28467570FFF793FF344C2078FFF757
:10CB700065FEF5606078401E60702078401CC0B291
:10CB800020700A28B2D30A382070AFE70120E3E70B
:10CB900070B500252A4C2948E56065700570457020
:10CBA00085702E463046FFF749FE761C0A2EF9D3D3
:10CBB000012212076560516928461269491E92B226
:10CBC0005143E560A1601D49F4310D608D600D6138
:10CBD000CD601B4910310D6088800121217060708B
:10CBE00070BDF8B5164A044610780E46002830D0BD
:10CBF000002C30D0002E2ED0206800282BD0012011
:10CC000000076768016989B28F4228D8102F26D3A0
:10CC1000A168002923D09568794343694A190069BE
:10CC200080B243439A421AD801200007006980B2BB
:10CC3000814212D901200007006903E0F824002096
:10CC40001420002080B2394602F0A6FA002906D14D
:10CC500003E00820F8BD0E20F8BDB80701D007207A
:10CC6000F8BDF949486801281CD00F4621C6142197
:10CC7000F64A41438E187560236853506168B1606D
:10CC8000A168F160A2686168002351430122120784
:10CC90005B1C14699BB2A4B28C4205D21469A4B285
:10CCA000091B02E00420F8BD00211469A4B2651933
:10CCB0001469A4B28C42EBD9BD60401C336178602A
:10CCC0000020F8BD30B5E04B1B78002B07D00028C2
:10CCD00007D0002A05D00468002C12D103E00820F8
:10CCE00030BD0E2030BDD94B1D68002D09D04568E0
:10CCF000986841436918DD68454358682818884298
:10CD000001D8072030BD14600020516030BDF8B557
:10CD10000446CD481E46007815460F46002807D029
:10CD2000002F07D0002C05D02068002817D103E081
:10CD30000820F8BD0E20F8BDC448016800290ED0B7
:10CD4000C268816840684A4310186268904206D9F8
:10CD5000002D04D0A94202D3A819884201D9072086
:10CD6000F8BD384600F05BF9002811D0304600F0DD
:10CD700056F900280CD0606800F051F9002807D05F
:10CD80002B463A46214602200096FFF75BFEF8BD8F
:10CD90001020F8BDF8B50446AB481E46007815468D
:10CDA0000F46002807D0002F07D0002C05D02068A0
:10CDB000002817D103E00820F8BD0E20F8BDA348D5
:10CDC000016800290ED0C268816840684A43101883
:10CDD0006268904206D9002D04D0A94202D3A81956
:10CDE000884201D90720F8BD384600F018F900281C
:10CDF00011D0304600F013F900280CD0606800F024
:10CE00000EF9002807D02B463A4621460520009609
:10CE1000FFF718FEF8BD1020F8BDFFB58A4881B0B5
:10CE200000781F4616460D46002808D0002D08D071
:10CE30000198002805D02868002817D103E00820B1
:10CE400048E50E2046E5814C206800280ED0E168B8
:10CE5000A0686268414389186A68914206D9002E29
:10CE600004D0B04202D3F119814201D9072031E543
:10CE7000019800F0D4F800281BD0384600F0CFF815
:10CE8000002816D0686800F0CAF8002811D0686839
:10CE90003246C119019802F095F9009628681421CC
:10CEA00048432458002203212846019BA047002024
:10CEB00010E510200EE5F8B5054663480F460078EA
:10CEC000002805D0002D05D02868002821D103E0D6
:10CED0000820F8BD0E20F8BD5C4C00262068002814
:10CEE00017D0A168E06848436168411868688142CA
:10CEF0000FD900F094F800280DD02968142251436E
:10CF0000091968684A688968801A02F045F9002999
:10CF100003D00720F8BD1020F8BD3B46002229466B
:10CF200004200096FFF78EFDF8BD474909780029D7
:10CF300007D0002807D04549F4394978016000201E
:10CF40007047082070470E2070473F4A1278002A29
:10CF50000DD000280DD000290BD00268002A08D07F
:10CF6000394A10321368002B05D00420704708207E
:10CF700070470E20704702230B600068106000208D
:10CF80007047F8B5044630481E46007817460D46EF
:10CF9000002807D0002D07D0002C05D020680228DB
:10CFA0001BD103E00820F8BD0E20F8BD2648103044
:10CFB0000068002811D0084600F031F800280ED093
:10CFC000304600F02CF8002809D03B462A4621467E
:10CFD00002200096FFF736FDF8BD0720F8BD1020AF
:10CFE000F8BD08B5184A1278002A05D0002805D0E7
:10CFF0000268022A11D103E0082008BD0E2008BDF6
:10D00000114A10321268002A07D00B46002201464E
:10D0100004200092FFF716FD08BD072008BD800719
:10D0200001D00020704701207047084910B5F4393D
:10D0300049780020002906D0FFF793FC002802D091
:10D04000112800D1002010BD14200020EC25002064
:10D05000BFF34F8F03490248C860BFF34F8FFEE70D
:10D060000400FA0500ED00E0F0B5002201230326DC
:10D0700036041F469740394212D0C5683D4203D15D
:10D08000012464043D4301E03446BD43C560914D35
:10D0900097007D192F68B7432F602F6827432F60B3
:10D0A000521C202AE5D3F0BDF8B58B4805698B49A1
:10D0B0000020C863074632E014213A464A434168DB
:10D0C000806854180121B940014226D0E068C64367
:10D0D00020686E40064031462046FFF7C5FF7E4877
:10D0E000006968400CD00543E0682168C04368408F
:10D0F0000840014600902046FFF7B6FF009806431F
:10D100003046A168A84301402A466068324010407A
:10D1100002460A4301D0226990477F1CFFB2704843
:10D1200041788F42C8D3F8BDF0B56D4A00215368ED
:10D13000142250430124674D03273F041E58224602
:10D140008A40164206D08A0052191668BE431660FD
:10D1500016681660491C2029F0D3F0BD10B50029CF
:10D1600003D08A070024002A01D0072010BD5C4AA2
:10D170000B4651601070142154704143184694605E
:10D1800002F039F800205749C043886056484021D2
:10D190000160564A1068FF231B0498430B04184390
:10D1A000106053480160002010BDF8B54C4F844614
:10D1B0007D68002D07D0002B07D078783C78A042FE
:10D1C00005D30420F8BD0820F8BD0720F8BD0E46A1
:10D1D0001424164344432E5164192361A2606160F4
:10D1E00061460870411C7970FFF79EFF0020F8BD72
:10D1F000F0B53B4A5168002904D05378984203D3D4
:10D200000720F0BD0820F0BD344B0025DD63324B14
:10D210001C699768002F02D1324EDB05736001262E
:10D2200086403E439660142250434218D560002247
:10D2300001230D5893401D4215D01C4202D00325F6
:10D240002D0405E001256D044618F7681F43F760BB
:10D25000204B9600F3181E6803273F04BE431E6050
:10D260001E682E431E60521C202AE1D30020F0BD10
:10D2700070B51B4C05466068002804D06078854274
:10D2800003D3072070BD082070BD2846FFF74CFF70
:10D290000121A068A9408843A06003D10120114961
:10D2A000C0078860002070BD0D4B5A68002A04D06A
:10D2B0005B78984203D307207047082070471423F7
:10D2C00058438018044A12690068024000200A602E
:10D2D000704700000007005000050050406100400A
:10D2E0002C2000200063004080E200E004E400E025
:10D2F00000E100E030B5CB0008339DB29307002475
:10D30000002B01D0072030BD574B9A605219DA60CC
:10D310005C701C7058809980002030BDF7B5524C6D
:10D3200082B060880F4681426ED80020694608703E
:10D330004F494E4E4868C005C00D18D0103840B255
:10D34000002807DA0207120F083A920892005118D3
:10D35000C96904E08108474A89008918096880077B
:10D36000C00EC1400806850F012D01D10AE0042539
:10D3700068462EDF02280BD0002803D00022114679
:10D38000FFF766FE6178A088814203D2491C02E063
:10D3900072B6F7E700212278C9B2914207D06678C9
:10D3A0006178814201DA491C00E000216170012DA1
:10D3B0000BD062B6684600782FDF022805D000281F
:10D3C00003D000221146FFF743FE2848864219D0B9
:10D3D000A068F50004994151029900290CD0002F52
:10D3E0000AD060883A464643E068301801F0EAFE09
:10D3F000A0682818878002E000212818818000207A
:10D4000005B0F0BD0420FBE70920F9E70EB504E004
:10D4100068468188029A0098904702AA01A9684646
:10D4200000F003F80028F3D00EBD70B50E4B0524B4
:10D430005D781E78B54215D01D781C789E88B44260
:10D4400001DA641C00E000241C705C88DE686C4318
:10D45000A41904609B68E800C418A4880C801858BC
:10D4600000241060204670BD38200020FFFF00001F
:10D4700000ED00E000E400E08307FF22DB0E9A40AD
:10D480008907090E994000280BDA0007000F0838B9
:10D490008308FB489B001818C36993430B43C3617F
:10D4A00070478308F7489B001B181868904308438F
:10D4B0001860704770B50124F34960040860F349AF
:10D4C00040108860F14940398860F14D6C602F2030
:10D4D000FEF732FEAC60EF4D00242F206C61FEF7AA
:10D4E0002BFE2C7170BDF0B5EA4F2421BC6841437E
:10D4F0000D1939694A1C09D024224A4316196B6850
:10D500007268934204D8D21A726029623861F0BD01
:10D510000A4602E00A46396A9B1B4E1C0BD02426A1
:10D520004E4337197E689E42F4D324264E43361963
:10D530007768FF1A77606B60296224214A431119CA
:10D540000862F0BD70B5D34C2269A5681346114638
:10D5500006E0814207D00A46242671434919096A28
:10D560004E1CF6D170BD002EFCD08A420CD1242076
:10D5700043435819006A2061401C05D1C44B012067
:10D58000986000236361607124204143481924237B
:10D5900041685A43006A52191062421CE2D02422A8
:10D5A0005043401942685118416070BDF8B5B94CFC
:10D5B0002569681C35D0B848002640686169401A62
:10D5C00007023F0A19E024204543A0682A18506842
:10D5D000B84214D8A3693F1A8619156A002B09D0DE
:10D5E000D16990699847002807D000221146FFF7BB
:10D5F0002FFD02E09169D0698847681CE3D1A178CA
:10D60000E078814206D1401CC0B2E070022801D10E
:10D610000020E0709F490006800D1C310E5000F084
:10D62000E7F9F8BDF8B504469A480027016900916A
:10D6300046785CE09748F100C2688D1851E0601CA4
:10D6400007D0944A24209268604321468018046AD7
:10D6500024E02878182141436A68401CC0B252185F
:10D660002870A978884200D12F708A4B51682420F5
:10D670009B684843C0181378012B34D1037D002BDD
:10D6800031D193688360D368C360136903615269C1
:10D69000C261804A5279002A00D087607D4B82683F
:10D6A0005B6996469C46D31A1A027C4B120A9A4230
:10D6B00002D2C368D21808E0724663469A1A120270
:10D6C000C368120A934202D99A1A426000E0476086
:10D6D00087600122C7600275921E02620846FFF74A
:10D6E00002FF601CABD1287869788842A7D1304608
:10D6F000761EF6B200289DD16648016900988142E5
:10D7000001D00120F8BD0020F8BD65490020086067
:10D7100048608860C860624940390860486045E7F1
:10D72000FEB50020C0435B4D0290686901906846D9
:10D730002E6900F062F9074600F07CF90446002FDC
:10D7400008D002AA0199009800F0BCF90298FFF7EE
:10D7500069FF06E00298FFF765FF002801D1002C61
:10D7600002D0304600F0D7F900206871FEBDFFB549
:10D770009807002481B01E4615460F4600280BD19D
:10D78000002E09D0FFF796FE42490A9888610F7073
:10D79000324600208E6008E0072005B0F0BD24234B
:10D7A0004343D4549B181C75401CB842F7DB24201B
:10D7B0004743BB19032048700F461846CB601946F3
:10D7C0001830002218232E465E43D3005B181C70CD
:10D7D0005C709D7058603018521C032AF5DB0020E5
:10D7E000C0433861BC70FC7001242E4824050460DD
:10D7F00003211420FFF740FE234880380460264CA4
:10D800000198A06003211120FFF736FE606878615F
:10D810000020C2E770B51F4CA568002D06D0002A75
:10D8200006D0002804D00023247809E0082070BD29
:10D83000072070BD24265E43AE5D002E04D05B1C25
:10D84000A342F7DB042070BD242401265C432E553F
:10D8500064196170A2610360002070BD08494868C6
:10D86000C005C00D2ED0103840B200281CDA0207C7
:10D87000120F083A920892005118C96919E0000085
:10D8800000ED00E000E400E080E100E04013014032
:10D89000001001404820002000150140FFFF7F00DC
:10D8A0004011014080E200E08108C74A89008918E0
:10D8B00009688007C00EC1400806800F012803D008
:10D8C000032803D0022070470020704701207047D2
:10D8D000FEB50446BD48174682680D46002A0CD0A6
:10D8E00001788C4201D2052D01D20720FEBD2146D0
:10D8F00024235943535C012B01D00820FEBD881816
:10D90000407801281DD00026FFF7A8FFC000AF49CE
:10D910000190C9684018694600F043F9002812D008
:10D9200001210170AA49446049680830E2C0A74952
:10D930000198C96841180098487000F059F8002013
:10D94000FEBD2E46E0E70420FEBDF8B59F4D04461F
:10D95000A868002809D029788C4201D30720F8BD97
:10D9600024216143405C012801D00820F8BDFFF765
:10D9700075FFC600E8686946301800F012F9002803
:10D980000AD0022101704460E8683118009848709C
:10D9900000F02EF80020F8BD0420F8BD38B58B4CFF
:10D9A000A068002815D0FFF759FFC500E068694658
:10D9B000281800F0F6F800280DD003210170091F87
:10D9C0004160E06829180098487000F011F80020C4
:10D9D00038BD082038BD042038BD7D494968016044
:10D9E00000207047401A0002000A106000207047B3
:10D9F0000120784900050860704710B5734900237D
:10DA00008A78CC78A24212D0521CD2B28A70022AF2
:10DA100000D18B708A786D4B92001C339A5802604B
:10DA2000486910180002000A4861012010BD036017
:10DA3000002010BDF8B5654801690091457833E0D4
:10DA40006248E900C0680E1834782AE01820604364
:10DA50007168641C0818B178E4B2A14200D10024B6
:10DA60000178022902D003291BD113E0574A4068EC
:10DA70002421926841438F18397D002911D0FFF786
:10DA800061FD002038750CE024277843C01802752A
:10DA9000006A03E04D4900228B680869471CF3D1F6
:10DAA00008617078A042D1D128466D1EEDB20028E1
:10DAB000C6D1464801690098814201D00120F8BDD5
:10DAC0000020F8BDF7B5414C0025A76823691EE08A
:10DAD00024215943C9194E68864202D9301A486038
:10DAE00017E0801B751900264E600E750E699C4666
:10DAF0000B6AB646002E0AD0019E76193602360A07
:10DB00008E607646CE6016680E6261461160591CC2
:10DB1000DED12361FEBDF8B52C4801694A1C3DD019
:10DB200024225143826889184E6829494C68476904
:10DB30000079E11B0D022D0AED1C002815D10120F2
:10DB4000254A00045060244A403A50602149400070
:10DB500080310860214908602149012008602F2098
:10DB6000FEF7EAFA194901200871B54200D235469C
:10DB7000E81900021649000A403108601449496852
:10DB8000001B091B0902090A0002000AC91C814284
:10DB900003D901200F4940040860F8BDFFF78AFC53
:10DBA000F8BD42788378521C934200D1002203785A
:10DBB000934201D1002070470A60416840781822E2
:10DBC000504308187047000000E400E0482000209F
:10DBD0000015014000E200E04013014000E100E0D8
:10DBE0000010014010B5BE480378012B02D1022974
:10DBF00000D10170100003D000221146FFF728FA6F
:10DC000010BD10B5B64C40DF002803D000221146ED
:10DC1000FFF71EFAFFF7FAFB2078022803D003284B
:10DC200001D00428EFD110BD38B50068401C19D0D0
:10DC300000246846FEF7EAFD00980178012910D11A
:10DC4000418800290AD081680320000380680022EF
:10DC500000F050F900994988814201D1012400E087
:10DC60000024204638BD10B504469D481C21001DE7
:10DC7000FFF721F9002803D000221146FFF7E8F949
:10DC8000974800231C222146001DFFF740F800287A
:10DC900003D000221146FFF7DBF910BD0FB4F8B531
:10DCA0006846FEF7B3FD6846027E418B01238C4C2B
:10DCB000FF258C48002A1AD0012A1ED0032A32D010
:10DCC0000021022A3ED0052A4ED0042A56D0062A28
:10DCD00009D100F0A8FD002803D000221146FFF76B
:10DCE000B7F904202070F8BC08BC04B01847418084
:10DCF000099981600370057110E04180089A0799C5
:10DD00008918099A89188160A52101700571079900
:10DD1000C1600899426101610A998161237071486B
:10DD2000FFF7A1FFDFE700990A7802704A88428076
:10DD300089688160AA2101710799C1600899016110
:10DD400009990BE0009A1678A52E09D0067056881E
:10DD50004680926882600571C16001614161DDE7C2
:10DD6000418081600570F6E700F05DFD002803D07A
:10DD700000221146FFF76CF90320B3E74180816070
:10DD80000570009909790171C9E70EB556480090F0
:10DD90001C20019001200290FEF7FAFE002804D119
:10DDA0004F496846091DFEF71CFF0EBD10B500F077
:10DDB000CDF9002805D100F009FD0446FFF721FF49
:10DDC000204610BD70B511DF002803D00022114697
:10DDD000FFF73EF9454900200A68444B0121803392
:10DDE0000C468440144204D0C506ED0E0C46AC40EF
:10DDF0001C60401C2028F3D303242403A06813DFF5
:10DE0000002803D000221146FFF722F9A068FEF790
:10DE100003FD70BD08B56846FEF7F8FC0098017870
:10DE2000A52904D00079AA2801D0002008BD01202E
:10DE300008BD10B500F084FB002803D100F060FBA2
:10DE400000281BD06420FEF7EBFC00F0FFFA00284E
:10DE500003D000221146FFF7FBF800F071FB002809
:10DE600003D000221146FFF7F3F800F029FB04006D
:10DE700003D000221146FFF7EBF8204610BD00B595
:10DE800087B014221A4901A801F09CF90598009066
:10DE900001A80FC8FFF702FFFFF7B3FE002007B08D
:10DEA00000BD10B50E4988B0044600231C22091D90
:10DEB0006846FEF7B2FF68460078207068464088E2
:10DEC00060800298A0606846007920710398E06045
:10DED00004982061059860610698A06108B010BDA3
:10DEE0006C20002000260020E5DB030000E100E0BC
:10DEF00078F2030010B50446002A02D010880022F0
:10DF000010E00A48FBE7030A00020343A05C584004
:10DF100003061B0F43401803584083B21806C00C79
:10DF20005840521C8A42EED310BD0000FFFF000093
:10DF300070B5F74C1E4660781546022902D00429B8
:10DF400016D108E0052813D1A369002B10D0324662
:10DF5000294604200BE002280AD1EE484068804799
:10DF600003206070A369002B02D0324629469847EF
:10DF7000280003D000221146FFF76AF870BD00B5F3
:10DF8000E34987B0012008700520694608710598AB
:10DF9000009001A80FC8FFF781FE07B000BD10B5C3
:10DFA000DB4C2078002801D0082010BD2069FFF745
:10DFB000CCFC002803D000221146FFF749F80F21BE
:10DFC000002289042069FFF783FC040003D00022AB
:10DFD0001146FFF73DF8204610BDCD4910B5CC489D
:10DFE0002431416102214170C1682430FEF7F9FFFC
:10DFF000002803D000221146FFF72AF810BDC449BB
:10E0000010B5C3481C314161022141700320000357
:10E0100080680F218903081A012140088902411AEA
:10E02000BB481C30FEF7DDFF002803D0002211465C
:10E03000FFF70EF810BD704700B587B01422B6493F
:10E0400001A801F0BFF80598009001A80FC8FFF7DC
:10E0500025FEA2E7AF49002050394A680321090391
:10E0600089688A4208D9511A880A80028905890D6F
:10E0700002D0012189024018704700B587B0012104
:10E0800068460171A24881886846C1800320000368
:10E09000806805909F4850384168029181680391DB
:10E0A000C0680490059800900A46049B0299019864
:10E0B000FFF7F4FD002070E730B5964C9448503CD3
:10E0C00087B02430E168FEF78CFF002803D00022DF
:10E0D0001146FEF7BDFF8E48E2681C304168002300
:10E0E0000830FEF74EFF050012D1142101A801F0FF
:10E0F00082F8002168460171854881886846C180A0
:10E10000E06804900598009001A80FC8FFF7C6FDCD
:10E11000284607B030BD00B587B0032168460171BD
:10E120007B4881886846C1807A48503841680291AE
:10E1300081680391C0680490059800900A46049B8A
:10E1400002990198FFF7AAFD002026E73EB5724A22
:10E150006B46143207CA07C36D4D0024AC702946C4
:10E16000AC8024316846FEF7F0FE002801D06C70C8
:10E170003EBD03206649000380682431486024398D
:10E180000A46526ACA610F218903091A49084018D0
:10E190005F49624A1C3148605D4800211030FFF73A
:10E1A00039FB002803D000221146FEF751FF0F2152
:10E1B000002289042869FFF78BFB002803D0002286
:10E1C0001146FEF745FF0120AC60687000203EBD9F
:10E1D0004F498861704770B542684E48146853686B
:10E1E00091685038D26804604360C26081600078F2
:10E1F000440701D5840705D19C0703D18C0701D1C1
:10E20000940701D0062070BD5B189A18404D0F236B
:10E210009B02EA60994216D841493E4CC3070BD095
:10E220008868EF218902081A90420CD33D4820608B
:10E230003D4860603D4811E089680F239B03591AEF
:10E240004908914201D20C2070BD394921603949F9
:10E250006160800701D5384800E03848A0606878E0
:10E26000012802D00826304670BDFFF798FE060050
:10E27000FAD12168E8688847F5E770B5050004D051
:10E28000287A800703D0102070BD0E2070BD204C6E
:10E290006078032803D0042801D0052801D0082085
:10E2A00070BD6868E1688600A0688019884204D95A
:10E2B0000020C043A0600C2070BDFFF770FE002856
:10E2C000FAD1A9683246A3686069FEF75AFE0028B1
:10E2D000F2D1A1688919A160E2689142ECD00920CD
:10E2E00070BD10B50A4C0820A168002900D010BDEF
:10E2F00061780429FBD10748A178403800F066F91D
:10E30000002802D00021A17010BD0521617010BD50
:10E31000782000206C2600208CF203007FDF0300B1
:10E3200000300000DBDF030039E003007BE0030086
:10E33000FFDF030037E0030017E10300B9E003004B
:10E34000F8B5A04C07466078032804D0042804D010
:10E3500008252846F8BD04206070A068002801D078
:10E360000820F8BDFFF71BFE0500FAD1786886008B
:10E37000A0788119402901D90920F8BD924AB968CD
:10E380001018324600F01EFFA0788019A070E0E758
:10E3900010B58C4C6078052813D106206070E168B8
:10E3A000A06888420DD1FFF7FAFD002808D1606906
:10E3B000E168406800F044F9002801D1072161704C
:10E3C00010BD082010BD10B57E484178072901D046
:10E3D000082010BD0069FFF7B8FA002803D000221A
:10E3E0001146FEF735FE784840308068804710BD02
:10E3F00000B587B00620694608710598009001A80D
:10E400000FC8FFF74BFCC8E5F8B51C4617460D468C
:10E41000064600F0C1F8002817D00120000385420D
:10E4200007D92346291B301B1A46FFF7EDFF0028AA
:10E430000BD13A462946304600F0B9F8002804D1FD
:10E440003A462946304600F0A7F8F8BDF0B589B045
:10E450006846FFF726FD039800282AD0012109030A
:10E46000069A4018904226D9501A45081046039A39
:10E470000C468718024668001618001907900320FA
:10E4800000038068039988420DD26119084604226E
:10E4900000F08DF800280CD121460422084600F037
:10E4A00086F8002805D1BA1B2B4630460799FFF79E
:10E4B000ABFF09B0F0BD039A069800F078F8F8E7D2
:10E4C00000B58BB004A8FFF7ECFC089800280DD02D
:10E4D000079800280CD007990A984018019000214D
:10E4E0000898009180080290684618DF0BB000BDC4
:10E4F0000320000380680F218903091A4908ECE70B
:10E5000000B58BB004A8FFF7CCFC08980028EDD02C
:10E510000F210798890300280CD0079A0A980191C7
:10E5200080180290032208980092800803906846A1
:10E5300018DFDBE70320000380680A1A5208EEE7C1
:10E5400030B58FB06846FFF7ACFC0398002814D0B4
:10E5500001210903069A4018904214D9501A430821
:10E560001046039A5C0082180019611803242403E2
:10E57000A468039DAC4202D20E200FB030BD121A27
:10E58000FFF742FFF9E703200BAB07C303988008AE
:10E590000E900BA818DFF0E71FB503230190900839
:10E5A000039000930291684618DF04B010BD1FB5B8
:10E5B000012301909008039000930291684618DFB0
:10E5C000F3E70000782000202C26002070B50025FD
:10E5D0000C290ED304464318008941000919581A22
:10E5E0000A38C2B21E48022A027002D30A318B4294
:10E5F00001D2092070BD1B4800F0E4FD1A491B48F8
:10E600000A88824202D02388934217D149888142E6
:10E6100002D06088884211D1144A0323521E2089F7
:10E620001B03A8420AD9690009194989914203D0FC
:10E630009E896D1CB142F4D1002070BD0B2070BDCD
:10E6400010B50022FFF756FC064A517812780902ED
:10E650001143884201D00B2010BD002010BD0000E6
:10E66000A42000207826002080100010FFFF00006A
:10E670000C225043714A0021115080188160416082
:10E68000704710B5042819D20C216C4A41438B18ED
:10E6900051589C6800290FD0114620310A7C521E27
:10E6A0000A74FFF7E5FF201F00F0DCFC002803D010
:10E6B00000221146FEF7CCFC002010BD072010BD43
:10E6C00010B5080003D000221146FEF7C1FC10BDB2
:10E6D00070B55A4D2E4620362FE0002421460C20DE
:10E6E000414348190268002A24D0695801290ED0F4
:10E6F000032907D0042902D0052912D121E0FFF710
:10E70000BCFD0EE081684160FFF765FD03E0FFF7A7
:10E7100017FEFFF7E6FD002803D000221146FEF7A2
:10E7200097FCE0B2FFF7ADFF002803D000221146AE
:10E73000FEF78EFC641C042CD0D3307C0028CCD196
:10E7400070BDFFF725FEFFF73EFE70BD3EB501A987
:10E75000684600F068FC002813D1009802AC0378EA
:10E76000002B0ED035492031087C032809D0334ACC
:10E7700000200C2545435559002D0CD0401C042881
:10E78000F7D3009800F06EFC002803D00022114659
:10E79000FEF75EFC3EBD20700C2460431350087CE5
:10E7A000401C08746846808881086846007A491EC3
:10E7B0006043801841600099214A091D8160002151
:10E7C0000846FEF7ABFD0028DBD13EBD1B4810B567
:10E7D0000021203001740C46E0B2FFF749FF641CB1
:10E7E000042CF9D31748FFF7F3FC1449012014391E
:10E7F000FEF7B4FC002803D000221146FEF728FCE7
:10E8000000F06CFB002803D000221146FEF720FC2C
:10E810000D4800F03BFB002803D000221146FEF714
:10E8200017FC002010BD10B50024E0B2FFF729FF4F
:10E83000641C042CF9D300F07DFB10BD9826002049
:10E84000D1E60300C1E603004DE70300594800216B
:10E8500001705A48584A02608160C1600161022219
:10E86000416142608161084670470020704700287E
:10E8700005D050490A78002A03D0042070470E20A2
:10E88000704701220A704C4920390160002070470E
:10E89000484900200870704710B500291FD0002299
:10E8A0000A60464A5368002B1DD04B24E400A04266
:10E8B00017D85B1E5360D0689723401CD060106946
:10E8C0009B0014684343E3180B6001210C469369D5
:10E8D00084402343814393610020116110BD0E20C9
:10E8E00010BD0C2010BD042010BDF0B5334B844684
:10E8F000996800292BD05A691020511AC907C90FED
:10E9000096461D680A4601279726B6004E43AE1963
:10E91000664506D13D469C698D406C4000209C6157
:10E9200004E00E463946B1438E45EDD13D469C6923
:10E930008D43394691400C420AD19968002907D08D
:10E94000491E996059682A46491C5960F1E704201C
:10E95000F0BD1A4A012113691268994397239B005D
:10E9600059431B1FC91850500020704770B500282C
:10E970001CD000291AD0114AD368002B18D05B1E76
:10E98000D360936897265B1C93605369B6001D465D
:10E9900014687343E61806604B20C000181820580E
:10E9A00008600120A8435061002070BD0E2070BD9A
:10E9B000042070BDA5200020EC260020A42B002000
:10E9C00010B5884CA1692069405CFDF7CBFE00289A
:10E9D00002D1A169491CA16110BD10B5C020FDF78D
:10E9E000C1FE002805D17F498A69002A01D17E4AEB
:10E9F0008A6010BD10B57B4CA1692069405CC028BD
:10EA000003D0DB2803D0042010BDDC2000E0DD2093
:10EA1000FDF7A8FE0028F7D1A169491CA161724940
:10EA2000A16010BD10B5DB20FDF79CFE002802D1CF
:10EA30006C4A6E49916010BD70B56B4D6C4E694C5F
:10EA400010E0A1692069415CC02903D0A169405C44
:10EA5000DB2803D1A068A84200D1A660A068804747
:10EA6000042813D0A06961698842EAD36148A06094
:10EA7000FFF7B3FF002809D101202070E368002BC5
:10EA800004D05D48A26900682169984770BD30B420
:10EA9000544B5A6A002A09D0DC68002C06D00020AA
:10EAA000D9695862D861A44630BC604730BC704711
:10EAB000C02808D04B49DB2806D0CB694A6A985455
:10EAC000521C4A627047E2E74C484860704710B5F4
:10EAD000444CC02808D021464A6ACB69511CDC2826
:10EAE00005D0DD2806D104E0FFF7D1FF04E0C02007
:10EAF00000E0DB20985461624148606010BDC0288E
:10EB000002D138493E484860704770B505460078E4
:10EB1000344C032804D12078022812D1FFF78CFF4F
:10EB2000287804280DD1E169002903D0626A206A9F
:10EB3000824207D3E368002B03D02F48626AC06883
:10EB4000984770BD61682879884770BD2549C860BD
:10EB5000002070471FB5234C2078002802D00020E9
:10EB600004B010BD244A01AB183207CA07C31D48C0
:10EB70000323801C0090234A002101A8FDF721FDFA
:10EB80000028EDD101212170EAE710B515480021D8
:10EB900001704088FDF7FFFD10BD10B5002807D0BB
:10EBA000104A1378012B05D0022B0FD0082010BD7E
:10EBB000102010BD0023936151611061022010707C
:10EBC0000C489060FFF738FF002010BD042010BDF6
:10EBD000044A1162D061002050620B48506000204E
:10EBE00070470000A8200020C1E90300F5E90300F8
:10EBF00025EA0300DBE90300ACF20300CFEA0300DF
:10EC0000B1EA03000BEB0300FFEA030010B5F8487C
:10EC1000F74C007DE41CC000207000206070A070E4
:10EC2000204600F024FAE07004212046FFF7B5FFEB
:10EC300010BDF3B581B04B26029FF600EC4C0546A3
:10EC4000042F65D92878410662D5010660D5697818
:10EC50000A07120F0E2A5BD14118AA78E87810181B
:10EC600008180006000E53D100222846B91EFFF7EF
:10EC700041F9E9191E394A7F0B7F11021943884275
:10EC800046D12878012741076069490FC2B28A42FC
:10EC900031D1401C4007400F6061FFF7B7FF67703C
:10ECA0000298FFF756FE002803D000221146FEF717
:10ECB000CFF9CF4930461031FFF7EEFD00280AD0DA
:10ECC000042804D0002211461046FEF7C1F9C848B6
:10ECD00005212C3001E031462069FFF779FF00283B
:10ECE00003D000221146FEF7B3F9E168002901D0F4
:10ECF00000208847FEBD31462069FFF769FF0028E4
:10ED000003D000221146FEF7A3F9FFF77FFFFEBDF7
:10ED100031462069FFF75CFF0028F8D00022114639
:10ED2000FEF796F9FEBD70B5B14C257821464B6AC9
:10ED3000002D12D00A46116AD269012D1ED0022D73
:10ED40001BD1002828D0022834D0032815D1207EDA
:10ED5000401C4007400FA06138E000280DD1184644
:10ED6000FEF7F3FD002803D000221146FEF770F9EC
:10ED7000A168002901D0A078884770BD0128FCD186
:10ED80001046891DFFF709FF002803D00022114615
:10ED9000FEF75EF902201AE000200246A0629549C3
:10EDA0001846FEF795FD0028E7D000221146FEF731
:10EDB0004FF970BDA06A052806D0401CA06210461D
:10EDC000891DFFF7EAFE70BD0120A070002000F051
:10EDD00057F970BD37B568460078002808D001287B
:10EDE00002D002284BD14FE00120FFF79CFF3EBD2F
:10EDF00002997F4C0198042921D341780807000F1C
:10EE000006D00E281BD102990198FFF712FF3EBDD4
:10EE1000019803788278C078591810180818C0B281
:10EE2000002200280BD19806410F207E401C40078D
:10EE3000400F884203D1A2700320FFF774FF4B25D7
:10EE40002069ED00002801D0294614E068492846D1
:10EE50001031FFF721FD002808D0042804D000223B
:10EE600011461046FEF7F4F8052102E02946206914
:10EE700001E05F482C30FFF7ABFE0028C7D000222E
:10EE80001146FEF7E5F83EBD0521F2E710B5044650
:10EE90005748C4605848FFF759FE002803D00022A5
:10EEA0001146FEF7D5F8002C01D0002010BD0E2031
:10EEB00010BD10B504464E4884604F48FFF746FE2B
:10EEC000002803D000221146FEF7C2F8002C01D022
:10EED000002010BD0E2010BD022024E770B5444C68
:10EEE0000020E0612062A0626070207001206061FB
:10EEF000A061A07001462046404A2430FEF78AFCFB
:10EF0000002810D1FFF7A2FC00280DD1FFF722FE48
:10EF1000002809D14B252146ED0010312846FFF786
:10EF2000BBFC002801D0032070BD29462069FFF7F3
:10EF30004FFE70BD10B52E4C0020A060E060FFF7C2
:10EF400094FC002803D000221146FEF781F8FFF759
:10EF50001CFE002803D000221146FEF779F8606AF3
:10EF6000FEF7F3FC042804D1002211461046FEF7F8
:10EF70006FF8002010BD10B50446FFF778FC00289C
:10EF800002D12168091D216010BD10B5FFF780FC7A
:10EF900010BD10B5164CE069001FE061217DCA006C
:10EFA000217E0A43C0210A430270218C0A010E32DD
:10EFB0004270120A827000F05AF80146E06900229D
:10EFC000C170216A091DFEF795FF0246216AE069BA
:10EFD00043181A71120A5A71891DFFF7DEFD0400E9
:10EFE00002D0042C10D10BE0022000F049F80BE015
:10EFF000D0200020DF4F0000D5ED0300D9EE030044
:10F00000012000F03DF80024204610BD002808D063
:10F010001D4A1378002B01D0042070471162D06183
:10F02000B7E70E20704738B50D46040017D0002D05
:10F0300015D00020144900904A78002A0DD048705D
:10F0400069462046FFF792FC02460098801F009018
:10F0500028802068001D206002E0042200E00E22CB
:10F06000104638BD10B5001FFFF73FFC10BD0178FA
:10F070004278807851184018C043401CC0B2704795
:10F080000149087000204EE6D020002010B5084647
:10F090001146FDF761F810BDF8B53D4C2078002809
:10F0A00037D02069002807D00026E068002805D066
:10F0B0000025002E04D013E00126F6E70125F8E72D
:10F0C000684651DF052806D0002806D000221146E8
:10F0D000FDF7BEFF04E0012602E0216900988847A1
:10F0E000002D12D1608869460880A06861DF05287C
:10F0F00006D0002806D000221146FDF7A9FF04E043
:10F10000012502E0E168A0688847002ED8D0002DD4
:10F11000CFD0F8BD70B5002901D08C0701D00720F1
:10F1200070BD1B4C0125A16062801A49636010DF2D
:10F130000028F5D12570162026DF70BD11DF0028CC
:10F1400001D0012100E00021114A11707047002810
:10F1500003D00F49C860002070470E207047002878
:10F1600003D00B490861002070470E20704710B58E
:10F1700007484068002807D08047002803D00022B5
:10F180001146FDF765FF10BDFFF786FF10BD0000BB
:10F19000042100208DF0030030B50B46014600200D
:10F1A0002022012409E00D46D5409D4205D31D468D
:10F1B0009540491B2546954040191546521E002D85
:10F1C000F1DC30BD03460B439B0703D009E008C9BF
:10F1D000121F08C0042AFAD203E00B780370401C07
:10F1E000491C521EF9D27047D2B201E00270401C95
:10F1F000491EFBD270470022F6E710B513460A46B7
:10F2000004461946FFF7F0FF204610BD064C0125C5
:10F21000064E05E0E36807CC2B430C3C98471034BE
:10F22000B442F7D3FCF750FFD0F20300F0F2030032
:10F2300030B47446641E2578641CAB4200D21D466F
:10F24000635D5B00E31830BC184702E008C8121F7A
:10F2500008C1002AFAD170477047002001E001C1BF
:10F26000121F002AFBD170470200000000000000BE
:10F27000000000000000000002000000000000008C
:10F28000000000000000000000000000040000007A
:10F29000000000000000000000000000000000006E
:10F2A00031DF03000000000000000000010000004A
:10F2B000000000000000000002000000000000004C
:10F2C000000000000B09080A0100000000509D002A
:10F2D000F0F2030000200020180100004AF20300B1
:10F2E00008F4030018210020A81200005AF20300BD
:10F2F0000024F40001000000FFFF000000000000F7
:10F3000000000000000000000000000000000000FD
:10F3100000000000000000000000000000000000ED
:10F3200000000000000000000000000000000000DD
:10F3300000000000000000000000000000000000CD
:10F3400000000000000000000000000000000000BD
:10F3500000000000000000000000000000000000AD
:10F36000000000000000000000000000000000009D
:10F37000000000000000000000000000000000008D
:10F38000000000000000000000000000000000007D
:10F39000000000000000000000000000FFEA030081
:10F3A000C1E90300000000000000000000000000B0
:10F3B000000000000000000000000000000000004D
:10F3C000000000000000000000000000000000003D
:10F3D000000000000000000000000000000000002D
:10F3E000000000000000000000000000000000001D
:10F3F000000000000000000000000000000000000D
:08F40000000000000000000004
:020000041000EA
:0410140000C0030015
:040000050003C0C173
:00000001FF
