:020000040000FA
:1000000078090020F50000000F0100001101000038
:1000100000000000000000000000000000000000E0
:1000200000000000000000000000000013010000BC
:100030000000000000000000150100001701000092
:10004000190100001901000025020000190100003B
:100050001901000000000000190100001901000052
:10006000F501000005020000150200001901000062
:100070001901000019010000190100001901000018
:100080001901000019010000190100001901000008
:1000900019010000190100001901000019010000F8
:1000A000190100001901000000000000000000001C
:1000B0000000000000000000000000000000000040
:1000C0000348854600F05AF800480047D90600006A
:1000D00078090020401E00BF00BF00BF00BF00BF66
:1000E00000BF00BF00BF00BF00BF00BF00BFF1D115
:1000F000704700000321094802680A43026008486B
:1001000002680A4302600748804707480047FEE745
:10011000FEE7FEE7FEE7FEE7FEE7000024050040FD
:1001200054050040A1010000C100000003460B433C
:100130009B0703D009E008C9121F08C0042AFAD29D
:1001400003E00B780370401C491C521EF9D2704723
:1001500030B50B46014600202022012409E00D465F
:10016000D5409D4205D31D469540491B25469540E7
:1001700040191546521E002DF1DC30BD064C0125FC
:10018000064E05E0E36807CC2B430C3C984710343F
:10019000B442F7D3FFF798FFE80F00000810000003
:1001A00010B500F06DFA002805D00E490C484860E3
:1001B000C8130D4988610D48018CC9B201290ED1BF
:1001C000818C09070BD1018D0906090F042906D17D
:1001D000808D0006000F02D105490120886010BD06
:1001E000DFFF07C000050040006C0040C00F00F0BA
:1001F0000006004010B50021014800F03DFC10BD94
:100200000080004010B50121014800F035FC10BD10
:100210000090004010B50221014800F02DFC10BDF7
:1002200000A00040F0B53C4D012185B049022846B0
:1002300000F078FD01270026384C002823D0FF214C
:100240002531284600F069FD00281CD0FF2025300C
:100250002E508120324980008860607D002800D1C6
:100260006F600221684601702E490868086003909B
:10027000E17C68460172E0680190E67406CC68464D
:10028000083C90471DE00421284600F04BFD002863
:1002900017D0FF210931284600F03FFD002810D07B
:1002A00000F0AAFDE07C217D88420AD1607D002813
:1002B00000D16F6081201A4980008860207D00F0A5
:1002C000B1FDFF211D31284600F027FD00280DD08B
:1002D000A07C218A884202D900F0C4FD06E0FF21FB
:1002E0001D316E50002801D000F0D2FDFF214531B4
:1002F000284600F012FD00280CD0FF2045302E507B
:10030000607D002800D02F60E07C002802D0207D96
:1003100000F088FD05B0F0BD002000405C01002029
:1003200000230040802400400FB410B503A9044B03
:10033000044A029800F018F810BC08BC04B0184732
:100340004B0600001C00002002E008C8121F08C174
:10035000002AFAD170477047002001E001C1121F46
:10036000002AFBD170470000FFB58DB00446002580
:1003700006E025280AD0109A0F999047641C6D1C3E
:1003800020780028F5D1284611B0F0BD00270121C2
:10039000484A009700E00743641C23780846203B46
:1003A00098401042F7D120782E2817D10420074317
:1003B0006078641C2A280CD10E98641C02C8009135
:1003C0000E900BE000990A22514330394018641C0A
:1003D00000902078014630390929F3D92078002887
:1003E000D1D0642808D0692806D075281ED0109A6C
:1003F0000F9990476D1C5BE00A200E99019001C98E
:100400000E91002802DA40422D2102E0390504D580
:100410002B216A461172012103E0F90704D0202143
:10042000F7E70BAE0B910DE00021FAE70A200E99D9
:10043000019001C90E91F7E70199FFF789FE30316C
:10044000761E31700028F7D103A8801B2030019060
:10045000780701D5009801E00120009001998842B9
:1004600001DD401A00E000200027009006E002A80D
:10047000109AC05D0F9990476D1C7F1C0B988742A6
:10048000F5DB04E0109A30200F9990476D1C00991D
:10049000481E00900029F5DC05E03078109A761CA3
:1004A0000F9990476D1C0199481E01900029F4DCBA
:1004B000641C65E709280100BFF34F8F0449034816
:1004C000C860BFF34F8F00BFFDE700000400FA05CE
:1004D00000ED00E010B58268C368934203D000F0DD
:1004E000A1F8002010BD052010BD002906D0002A6B
:1004F00002D0531E134203D0092070470E207047CC
:100500000160838000218160C1600846704710B59A
:100510008268C3689A1A83889A4203D800F08CF8DC
:10052000002010BD042010BD70B50446224888B0DC
:100530001E460D0042601CD0A888296882B21F4860
:10054000FFF7D3FF002815D1A889A96882B21B48FC
:100550001030FFF7CAFF00280CD120221849684646
:10056000FFF7E4FDA06806902079002804D001215F
:1005700003E0072008B070BD0021684601750677CA
:100580006079002800D00E2069464875E078029016
:10059000A07803902078019060780090094968461F
:1005A00000F092FA0028E5D100F040FB024801215A
:1005B000801C00F0E1FADDE70400002024010020A7
:1005C000900F0000C90E000010B504460648012136
:1005D0004470401C00F036FB112803D1214603482B
:1005E000FFF795FF10BD000004000020340100203B
:1005F0000003000F01D00020704701207047000069
:1006000072B602480168491C01607047180000205A
:1006100003490868401E086000D162B670470000B8
:1006200018000020826883881A4003689A5C0A7068
:100630008168491C81607047C26883881A400368DA
:100640009954C168491CC160704710B50446C0B2D6
:10065000FFF7BAFF204610BD0121814003484068E2
:10066000014201D001207047002070470C0000209B
:10067000014610B501208840FFF7BAFF10BD000009
:100680001048018CC9B2012917D1818C090714D1F6
:10069000018D09060A0F03D1828D1206120F0ED0AA
:1006A000090F012903D1828D1206120F07D00329E9
:1006B00003D1808D0006000F01D00020704701207B
:1006C00070470000C00F00F0012181400804000CB9
:1006D00000D001207047000088B0354A002135481D
:1006E00000F07CF9002803D000221146FFF7E4FE59
:1006F00030482F4A0021083000F070F9002803D05C
:1007000000221146FFF7D8FE00242A4801232A4A76
:1007100021460830009400F046F92648244A00217A
:10072000103000F05BF9002803D000221146FFF7DB
:10073000C3FE20480123214A00211030009400F01C
:1007400032F900F0F7FA1B4A01AB183207CA07C3A7
:100750001B48012411C31B48069020020790032365
:10076000194A04A901A8FFF7DFFE002803D00022E0
:100770001146FFF7A1FE154884630E4800F006F904
:100780000C48083000F002F90A48103000F0FEF87A
:100790000021084800F0D6F801460DA0FFF7C4FD7F
:1007A000044800F017F9642000F01CF8F0E700009E
:1007B000610E00006C0F0000FFFF0000FF7F0000D3
:1007C0000000002024000020B10E00004000004086
:1007D00043757272656E7420636F75743A20256478
:1007E0000A0D000031B5054C04E0401E0090204683
:1007F000FFF770FC00980028F7D138BDE703000030
:100800008207D30EFF229A408907090E10B599403E
:1008100000280BDA03071B0F083B9C080C4BA400B5
:10082000E318DC6994430C43DC6107E08408094B5E
:10083000A400E418236893430B432360C106C90E48
:1008400001208840044908600449086010BD000088
:1008500000ED00E000E400E080E200E000E100E004
:10086000F1B50427114E0024FFF7CAFE0125A5406B
:10087000354204D02046FFF7EFFE00280AD0FFF7EC
:10088000C7FE002F04D0641CAE43E4B2002EEBD1AF
:100890003846F8BD064901204A68A0401043486028
:1008A000009800270470FFF7B3FEF1E7FFFF000098
:1008B0000C00002070B514460D00064611D0002C27
:1008C0000FD0FFF701FF00280DD03046FFF7C4FE20
:1008D00000280AD00648F10008180561446100208C
:1008E00070BD0E2070BD072070BD082070BD0000D7
:1008F00000F5014010B50446FFF7BAFE00280FD0FE
:100900002046FFF7E1FE002804D02046FFF7A4FEB2
:10091000002807D001200449A0404860002010BDF5
:10092000072010BD082010BD00F5014004480178E3
:10093000002901D0852070470121017000207047F7
:100940000C000020890010B50A4640320368D2B27C
:1009500001249C501522006892018918405810BD4E
:1009600070B5012424048C40032605683602AD19B5
:10097000002B01D06C6000E0AC60006889000818B2
:10098000052109024018026470BD000001680122BF
:100990000A604079014A0221115470471400002076
:1009A000006840187047F0B5FF25023504688D4097
:1009B000FF34FF340234059E2768AF432760046884
:1009C000FF34FF34023425681D4325603346FFF7AA
:1009D000C7FFF0BD0068012181607047F8B504468B
:1009E0004079224F0D46395C1646002901D0082077
:1009F000F8BD002D02D11E49C00045180420E97839
:100A00002056FFF7FDFE61791A4A89006868505048
:100A1000002E29D06079114680000C390E50052037
:100A20002168000209186A784B68D2075B085B00EE
:100A3000D20F13434B602268A97812189368890774
:100A40009B089B00890F0B43936021682A78081844
:100A50000169120709090901120F11430161617946
:100A6000012078540020F8BD0720F8BD14000020B4
:100A7000B00F000050010020F8B500250E460446D6
:100A80002F46A800FF30413080B22158002910D0F5
:100A900001210904A94003221202A21852680A4245
:100AA00007D02750B2000549044B89580C3B9A588F
:100AB00090476D1C042DE4D3F8BD000050010020C8
:100AC0000068401870470000F3B50446244881B020
:100AD000807D002801D00820FEBD002C00D1214CD3
:100AE000206800F010F92078012739461E4E814019
:100AF000B1600021606800F0FDF81C4DA0696862DB
:100B0000607D217D0843E86603CCE8606961207B55
:100B1000083C01280ED10021A06800F0EBF8E06845
:100B200000F0F1F8207B39468140B160E168A068AF
:100B3000A96028610A4E029870602169316000281E
:100B400006D00C4A217F0A4850600220FFF758FE69
:100B5000042028600020F074B074B7757075FEBD75
:100B60005C010020C80F0000000500500025004077
:100B70008000020000230040F8B5294DEA7C002ADD
:100B800001D01120F8BDE974E86000202875687D67
:100B9000002801D100F056F96868224C002805D0E1
:100BA00081202149800048600020F8BDFF212531C7
:100BB000204600F0B2F80546FF210931204600F03A
:100BC000ACF80746FF214531204600F0A6F806465E
:100BD000394631432943E9D02846304306D100F055
:100BE0000BF90F48C17C007D8142DFD8FF214531E0
:100BF00000206050FF21253160500949002DC87444
:100C000001D00320F8BD002E01D00F20F8BD497D92
:100C10000120002901D02060C6E76060C4E7000021
:100C20005C010020002000400023004010B5044C6F
:100C3000607D002803D100F005F90120607510BD2A
:100C40005C010020F8B5204C0026A27C002A01D0CF
:100C50001120F8BDA174A060002020821B4DFF2749
:100C60001D37E8510120A86000F0FCF861680029F8
:100C700011D024E0FF2701372946144800F04DF831
:100C8000002802D1208AB842F6D1208AB84203D087
:100C900000F0E8F800E03D46A07C218A8842E9D8CF
:100CA000218AC81FF9380CD0084F2946384600F071
:100CB00034F80028F9D00120F8600020A0743046F4
:100CC000F8BD0F26F9E700005C010020002000407D
:100CD00030B552000A439900039C0A432102049D47
:100CE0000A4329040A43024980004018026030BDCB
:100CF000000700501CB500220B46009211460192DD
:100D0000FFF7E6FF1CBD1CB5002100910B46012238
:100D100001911146FFF7DCFF1CBD4058002800D0B0
:100D2000012070470322120280184068084000D05A
:100D30000120704770B5FFF7F9FD002803D00022AD
:100D40001146FFF7B9FB2A48FFF78AFD002803D0B8
:100D500000221146FFF7B0FB04212648FFF7B0FE42
:100D60000446FF252348413529460830FFF718FE81
:100D700022461F4C0146641E6078FFF79BFD002849
:100D800003D000221146FFF797FB1948401CFFF7DC
:100D900067FD002803D000221146FFF78DFB0021DC
:100DA0001448FFF78DFE0646124829461030FFF71B
:100DB000F7FD01463246A078FFF77CFD002803D0FE
:100DC00000221146FFF778FB6078FFF793FD0028BB
:100DD00003D000221146FFF76FFBA078FFF78AFDD2
:100DE000002803D000221146FFF766FB70BD00000B
:100DF000010000206C0F0000FF210748093100228C
:100E00004250064881690648037DC268D154017D7D
:100E1000491C01757047000000200040002500407B
:100E20005C0100201FB5012269460A70087204485F
:100E3000C16801910021C17406C8684690471FBD72
:100E40005C010020FF220548253200218150FF224D
:100E500009328150012101607047000000200040EC
:100E600070470000FF2107481D310022425006480C
:100E7000028A8168895C028A521C02820348C1612D
:100E800070470000002000405C0100200025004069
:100E90001FB500216A4611701072044882680192E1
:100EA000817406C8684690471FBD00005C010020A1
:100EB00010B50178022901D0012904D1002240682F
:100EC0001146FFF7F9FA10BD7CB50178254D0129CF
:100ED0000AD002292FD000292CD129462248FFF719
:100EE000F9FA00282ED031E0406801781E48103809
:100EF000FFF70DFB1C4C103C002805D001216A4671
:100F000011700190684608E0A068E168081A01289D
:100F100005D1002069460870684669688847A0685E
:100F2000E168081AA188884204D80E480121801C73
:100F3000FFF722FE7CBD02216A461170C068019055
:100F400068460CE001210748FFF77CFE06488168EF
:100F5000C0688842EED10320694608706846696817
:100F600088477CBD04000020340100200080004040
:100F700008000000009000400901000000A00040AF
:100F80000A0200000B09080A0100000000509D0041
:100F9000090000000B0000000A000000080000002B
:100FA000000000000000000000509D000300000051
:100FB000000103030000000009000003000000001E
:100FC0000900000300000000090000000B00000001
:100FD0000A000000080000000000000000000000FF
:100FE00000509D00030000000810000000000020D9
:100FF00024000000480300002C1000002400002002
:101000005409000058030000000000000000000028
:1010100000000000000000000000000000000000D0
:0C10200000000000000000000024F400AC
:04000005000000C136
:00000001FF
