:020000040000FA
:1000000080250020150400001D0400001F040000CE
:10001000210400002304000025040000000000006B
:1000200000000000000000000000000027040000A5
:1000300029040000000000002B0400002D04000033
:100040002F0400002F0400009D0600002F04000074
:100050002F0400002F0400002F0400002F040000D4
:100060006106000075060000890600002F040000EC
:100070002F0400002F0400002F0400002F040000B4
:100080002F0400002F0400002F0400002F040000A4
:100090002F0400002F0400002F0400002F04000094
:1000A0002F0400002F0400002F0400002F04000084
:1000B0002F0400002F0400000000000000000000DA
:1000C0002F0400002F0400002F0400002F04000064
:1000D0002F0400002F0400002F0400002F04000054
:1000E0002F0400002F0400002F0400002F04000044
:1000F000000000002F0400000000000000000000CD
:1001000000000000000000000000000000000000EF
:1001100000000000000000000000000000000000DF
:1001200000000000000000000000000000000000CF
:1001300000000000000000000000000000000000BF
:10040000DFF80CD000F066F800480047390E000015
:10041000802500200648804706480047FEE7FEE7A3
:10042000FEE7FEE7FEE7FEE7FEE7FEE7FEE7FEE7A4
:10043000390500000104000000487047E01E00007C
:1004400040EA01039B0703D009E008C9121F08C056
:10045000042AFAD203E011F8013B00F8013B521ED6
:10046000F9D27047421C10F8011B0029FBD1801AF9
:1004700070472DE9F05F0546002092469B4688466E
:100480000646814640241BE0284641464746224610
:1004900000F041F853465A46C01A914110D3114614
:1004A0001846224600F028F82D1A67EB01084F463F
:1004B00022460120002100F01FF817EB00094E41F1
:1004C000201EA4F10104DFDC484631462A4643469B
:1004D000BDE8F09F064C074D06E0E06840F00103E0
:1004E00094E8070098471034AC42F6D3FFF78CFF2E
:1004F000F01E0000101F0000202A04DB203A00FA42
:1005000002F1002070479140C2F1200320FA03F36A
:10051000194390407047202A04DB203A21FA02F068
:100520000021704721FA02F3D040C2F1200291402D
:10053000084319467047000030B54FF08050002145
:10054000D0F830210124082A02D1D0F8343113B177
:10055000082A09D00BE04FF08042C2F80C11C2F813
:100560001011334A116005E0D0F8343113B1082A74
:1005700004D006E0304B2F4A1A6005E0D0F8343141
:1005800013B1082A04D006E02C4BFB221A6005E0C8
:10059000D0F8343113B1082A08D00EE090F8583260
:1005A0002748026863F30302026002E0D0F83401D6
:1005B00018B9244A4FF4007010602348026842F4CE
:1005C00070020260BFF34F8FBFF36F8F4FF01022A6
:1005D000D2F80002002803DBD2F80402002822DA55
:1005E0001A4B1C601A480468002CFCD01224C2F874
:1005F00000420568002DFCD0C2F804420268002ABF
:10060000FCD0196001680029FCD0BFF34F8F0E4861
:100610007C3801680F4A01F4E06111430160BFF3C7
:100620004F8F00BFFDE70D490B48086030BD00004B
:1006300038050040488103008C56004018F5004002
:10064000E40E00404096024088ED00E004E50140E1
:1006500000E401400400FA050090D00320000020CF
:1006600004220249024800F0B3BB0000240000202D
:100670000080004004220249024800F0A9BB0000AB
:10068000300000200090004004220249024800F09F
:100690009FBB00003C00002000A000400448017FF8
:1006A00004480029024901D001F025BB01F094BAA9
:1006B00048000020002000400FB41CB50A46521E1E
:1006C000CDE9000207A9054B6A46069800F018F824
:1006D000009A002111701CBC5DF814FB630B000034
:1006E00002E008C8121F08C1002AFAD170477047FB
:1006F000002001E001C1121F002AFBD17047000059
:100700002DE9FF4F8DB00F460546002606E025284F
:100710000BD0DDE90F1290476D1C761C287800285D
:10072000F5D111B03046BDE8F08F0024A246A146B5
:100730000122EC4900E0044315F8013F203B02FA96
:1007400003F00842F7D128782A2810D06FF02F0242
:100750002878A0F13001092914D80AEB8A0102EBAC
:10076000410144F0020400EB010A6D1CF0E701CFE7
:100770005FEA000A03D544F40054CAF1000A44F0C9
:1007800002046D1C28782E2817D115F8010F44F0AB
:1007900004042A280ED06FF02F022878A0F130012F
:1007A00009290AD809EB890102EB410100EB010993
:1007B0006D1CF2E757F8049B6D1C28786C280FD04D
:1007C00006DC4C2817D068280DD06A2814D104E024
:1007D000742810D07A280FD10DE044F400140AE0F8
:1007E00044F4801401E044F440146978814202D159
:1007F00004F580146D1C6D1C2A786E2A1FD00CDC49
:10080000632A31D004DC002A8BD0582A11D1A3E00E
:10081000642A68D0692A0CD165E0732A2ED004DCE2
:100820006F2A73D0702A04D19BE0752A6FD0782A82
:100830006ED01046DDE90F129047761C50E1C4F3EC
:100840000250022806D0032809D0042801CF09D07D
:10085000066045E101CFF117C0E9006140E101CF39
:1008600006803DE106703BE117F8040B8DF80000AF
:1008700000208DF80100EB46012003E057F804BB8F
:100880004FF0FF3061074FF0000102D40DE008F196
:100890000101884649450FDA8045F8DB1BF808104E
:1008A0000029F4D108E008F1010188468142FADB11
:1008B0001BF808100029F6D1DDE90F23AAEB080088
:1008C0008146214600F036F9304400EB080604E08A
:1008D000DDE90F121BF8010B9047B8F10108F7D2C0
:1008E00021464846F7E00A21C4F302534FF0000BBB
:1008F0000891022B04D001CFC117032B09D00AE0C5
:10090000FF1D27F00707F7E8020108E032E01FE0CB
:1009100020E000B2C117042B01D140B2C117031E61
:1009200071F1000307DA4FF0000CD0EB0C006CEB18
:1009300001012D2302E0230504D52B238DF824305B
:10094000012303E0E30701D02023F7E7984658E0AE
:100950000A2110E010210EE010204FF0000B08904B
:100960000CE010214FF0000B44F004044FF0080994
:10097000089103E008214FF0000B0891C4F30253E3
:10098000022B04D001CF0021032B06D006E0FF1D6F
:1009900027F00707F7E8020103E080B2042B00D13B
:1009A000C0B24FF0000823072BD5702A07D0DDF81E
:1009B00020C08CF0100C5CEA0B0C05D00EE040233C
:1009C0008DF82430012308E050EA010306D03023DB
:1009D0008DF824308DF8252002239846DDF820C0BC
:1009E0008CF0080C5CEA0B0C0BD150EA010301D12E
:1009F000630706D530238DF824304FF00108A9F1A4
:100A00000109582A04D038A20B9208AA0A920BE0D6
:100A10003AA2F9E75B46089AFFF72BFD0B9B9B5C1C
:100A20000A9A521E0A92137050EA0102F2D10A98F1
:100A3000ADEB000000F1200B600702D524F48034F8
:100A400001E04FF00109D94502DDA9EB0B0000E000
:100A5000002000EB0B0141440890AAEB010AE003DF
:100A600006D4DDE90F232146504600F063F8064422
:100A70004FF0000908E009A911F80900DDE90F129B
:100A8000904709F10109761CC145F4DBE0030CD560
:100A9000DDE90F232146504600F04CF8064404E0FF
:100AA000DDE90F1230209047761C0899481E089007
:100AB0000029F5DC08E00A980A990078491C0A9197
:100AC000DDE90F129047761CBBF10001ABF1010B81
:100AD000F1DC21465046DDE90F2300F019F8064409
:100AE0006D1C1BE6092801003031323334353637AE
:100AF000383961626364656600000000303132336A
:100B00003435363738394142434445460000000009
:100B10002DE9F041044600251E461746880404D4FA
:100B200005E039462020B0476D1C641EF9D52846E3
:100B3000BDE8F0812DE9F041044600251E469046AF
:100B4000C80301D5302700E02027880404D505E03C
:100B500041463846B0476D1C641EF9D52846BDE8AD
:100B6000F0814A68002A06D00A68531C0B60107096
:100B70004868401E486070470DA1012000F0A2FEA9
:100B800000F0FAFD00F0FCFD0028FBD10CA10320D1
:100B900000F098FEBFF34F8F10480168104A01F42F
:100BA000E06111430160BFF34F8F00BFFDE700001C
:100BB0003A4552524F523A466174616C0D0A000038
:100BC0003A494E464F3A486974207765616B206810
:100BD000616E646C65720D0A000000000CED00E0AF
:100BE0000400FA050EB500210091CDE901106A4616
:100BF00044F20100FFF7C0FF0EBD00F003B800F0A3
:100C000009B8000072B602480168491C01607047CB
:100C10000C00002003490868401E086000D162B63D
:100C2000704700000C00002070B5054608680C46AF
:100C3000411C04D000F034FC206800F018FC60680F
:100C4000411C02D0002100F009FC28791F4901EB6A
:100C500040102968007F0028A069C1F8240523D02E
:100C6000607D227D29681043C1F86C05D4E900122B
:100C70002868C0F80C15C0F8142522E0A068411CB3
:100C800002D0002100F0EAFBE068411C04D000F033
:100C900007FCE06800F0EBFBD4E902122868C0F81A
:100CA0000825C0F8101570BD607D217D2A680843B5
:100CB000C2F86C05D4E900122868C0F81425C0F801
:100CC0000C15207D0128D9D070BD000048000020FF
:100CD000002901DA002070470268114401600120F8
:100CE0007047000070B5461C0D4601240020FFF738
:100CF00084FF114A10682860D2E900109568081A2C
:100D00002B1A701C5B1C98420FD963B10B480C4B1B
:100D1000294000681B6802EB810163F39F20C860D3
:100D20001068401C1060002401E088191060002049
:100D3000FFF765FF204670BD68010020381E0000E7
:100D40001C000020034803C8814201D101207047E4
:100D5000002070476801002070B50E4604460079F7
:100D600018494FF4A27501EB4010017F2068A1B132
:100D70004FF4887100F028FE4FF49071206800F065
:100D800023FE4FF49271206800F01EFE2946206871
:100D900000F01AFE0C49206809E04FF48E7100F053
:100DA00002FE2946206800F0FEFD08492068C0F8D0
:100DB0000413206800F033F93146BDE8704000F0BC
:100DC00012B9000048000020100302008000020059
:100DD0002DE9F84300251646884604462F4614E0C0
:100DE0004FF4A07000EB85004FF480312258A940E9
:100DF0004AB1D4F804230A4205D027502158009163
:100E0000D8E9002190476D1CEDB2B542E8D3BDE8AA
:100E1000F88300000121814003484068014201D06D
:100E2000012070470020704704000020012181400C
:100E3000080300D0012070470EB5374C0125374A12
:100E4000D4E90601CDE900018DF80150694620463C
:100E500000F0AAF908B1FFF7C5FED4E90801CDE911
:100E600001012D4809268DF804602C4A01A908309B
:100E700000F09AF908B1FFF7B5FE002726480123D4
:100E80004FF6FF7239460830009700F073F9D4E945
:100E90000A01CDE9010120488DF804601F4A01A92B
:100EA000103000F081F908B1FFF79CFE1A480123C9
:100EB00047F6FF7200211030009700F05BF900F058
:100EC000C5FD002000F058FD08B1FFF78BFE4FF084
:100ED00080408567104800F03FF90F48083000F067
:100EE0003BF90D48103000F037F90D4C00210A484D
:100EF00000F012F902460BA1032000F009FD06489C
:100F000000F04DF9204600F01DF800BF00F038FC5D
:100F10000028FBD1EAE70000E81D0000551B000097
:100F2000A08601004150503A494E464F3A437572EF
:100F300072656E7420636F756E743A2025640D0AB5
:100F40000000000000283ED01F49204A096800BF69
:100F500000BF00BF00BF00BF00BF00BF00BF914285
:100F60002FD000BF00BF00BF00BF00BF00BF00BF49
:100F700000BF00BF00BF00BF00BF00BF00BF00BF79
:100F800000BF00BF00BF00BF00BF00BF00BF00BF69
:100F900000BF00BF00BF00BF00BF00BF00BF00BF59
:100FA00000BF00BF00BF00BF00BF00BF00BF00BF49
:100FB00000BF00BF00BF00BF00BF00BF00BF00BF39
:100FC00000BF401EC3D17047200000200024F40061
:100FD00000F01F02012191404009800000F1E02053
:100FE000C0F8801170474907090E002806DA00F0A2
:100FF0000F0202F1E02282F8141D03E000F1E0226A
:1010000082F8001400F01F02012191404009800085
:1010100000F1E020C0F88012C0F800117047000B0A
:1010200040B270470121B1EB507F01D101207047E0
:10103000002070472DE9F0470427144E8146002414
:101040004FF001080020FFF7D8FD08FA04F53542FB
:1010500003D02046FFF7DEFE58B10020FFF7CFFD9A
:1010600027B104F10104AE43E4B2EBD13846BDE848
:10107000F087074908FA04F000274A6810434860DF
:1010800089F800403846FFF7BAFDEFE7FFFF0F0091
:10109000040000202DE9F04114460D00074612D04F
:1010A0008CB10026FFF7C2FE78B13846FFF7B2FEDA
:1010B00068B1084800EBC700C0F81055C0F81445E7
:1010C0003046BDE8F0810E20FBE70726F8E708264A
:1010D000F6E7000000F0014070B504460126002547
:1010E000A640FFF7A3FE18B12046FFF793FE18B104
:1010F00002480660284670BD0825FBE704F501405C
:101100000448017809B18520704701210170002051
:10111000704700000400002010B5402202EB81025D
:101120000368D2B201249C5000684FF4A86202EB1D
:101130008101405810BD30B54FF4803405688C40B3
:1011400013B1C5F8044301E0C5F80843006800EB9B
:101150008100C0F8402530BD016801220A60007995
:10116000034A00EB400002EB80000221017270474D
:1011700024000020F0B40468049E40F20115D4F865
:1011800000728D40AF43C4F800720468D4F8005276
:101190001D43C4F800523346F0BCFFF7CCBF0068D3
:1011A0000121816070470000F8B504460D460079C2
:1011B000204900EB400001EB8006307A08B108209E
:1011C000F8BD3AB1326068687060002003464FF4A1
:1011D000A07709E00720F8BD226807EB8001535093
:1011E0005158401CC0B2009161798142F4D8206806
:1011F000E978000B40B2FFF7F6FE20686978D0F876
:10120000042561F30102C0F804252068A978D0F80C
:10121000082561F30102C0F8082520682978D0F874
:10122000102561F30302C0F8102501203072002060
:10123000F8BD0000240000202DE9F04105460079AA
:10124000164F904607EB40140E46E07E10B1082082
:10125000BDE8F081707F20772846FFF7E5FC5FEA64
:10126000080060603169216003D0317F2846FFF7B4
:1012700073FD287907EB4010007F0028286801D013
:10128000082100E00421C0F800150020E075207658
:10129000A0750121E176A076DAE700004800002081
:1012A0002DE9F047054600793F4E904606EB401485
:1012B0000F46207F18B10846FFF7B4FE30B128462C
:1012C00000F074F820B11120BDE8F0871020FBE792
:1012D00084F81680A7600027A78228794FF00108BC
:1012E00006EB40143E46207F0028286825D04FF4A6
:1012F0009079494600F068FB4FF4AC7A5146286873
:1013000000F062FB2868A17DA268C0F84425C0F8FF
:1013100048152868C0F808806068F0B94946286810
:1013200000F04DFB80465146286800F048FB58EA23
:101330000001F3D058BBA7750FE04FF48E7A5146E9
:1013400000F031FB2868C0F808802146286800F0CA
:101350001DFC61684FF4807089B13046B4E7514696
:10136000286800F01BFB10B9A08A4845F7D1A08A75
:10137000484505D02146286800F008FC00E0814679
:10138000A08AA17D8842EAD3A08A484501D10F26D0
:10139000D1E75146286800F001FB0028F9D0286801
:1013A000C0F80C80C7E7000048000020007904491D
:1013B00001EB4010807D002800D001207047000024
:1013C0004800002070B5044600791149002601EB61
:1013D000401520682A7FC0F80065686888B12079C8
:1013E00001EB4010007F0028206801D0094901E08E
:1013F00008498C39C0F808132068FFF710FEFFF782
:10140000E7FD204600F0E6FAEE766E6070BD000063
:1014100048000020100302002DE9FF411C46DDE9D1
:101420000A7815460E46684600F02CF846EA450153
:1014300041EA840141EA072242EA0841009A00EBAE
:101440008200C0F80017BDE8FF811CB500210091A3
:101450000B4601220191FFF7DFFF1CBD1CB50022E6
:101460000B46009211460192FFF7D6FF1CBD1CB53A
:10147000002100910B46012201911146FFF7CCFF9C
:101480001CBD00000168202902D24FF0A040704727
:1014900001F01F0101600148704700000003005087
:1014A00001B56846FFF7EEFF009A01219140C0F8B0
:1014B000081508BD004870472D15000030B5184CC0
:1014C000054689B0207828B16078854202D1002095
:1014D00009B030BD202213496846FEF7B1FF002055
:1014E0008DF814000620009008200190052003903C
:1014F000072002904FF0EB7006900948001DFFF79F
:1015000061FF0DB1002200E0074A05486946001D51
:10151000FFF792FE0028DBD1012020706570D6E72E
:1015200010000020181E0000C91B00002DE9F04F1C
:10153000C1B00D004FF0000140914D984B991C46F1
:10154000174601EB000B01D00A2000E00020804686
:1015500000F0E4FA00287CD16E46BCB9409840AA5D
:101560003118284600F0F8FA002872D03846FEF705
:1015700079FFC22800D9C220054640982A46304447
:101580003946FEF75DFF4098284440904FF0200A0E
:10159000409901EB080231320DEB01050DEB02061B
:1015A000002002E005F801AB401C4045FAD30027BB
:1015B0005C4508D305F801AB05F801AB05F801ABB4
:1015C00006F801AB2DE04B98844202D24A98005DA8
:1015D00002E0211A4C98405C2B46814602460121CC
:1015E000880022FA00F000F00F00092801D93730F6
:1015F00000E03030C1F1010C491E03F80C00EFD2BD
:101600009D1C05F801ABFEF717FF016811F80900F2
:1016100010F03E0F01D0484600E02E2006F8010BE6
:10162000641C7F1C102FC3D30D2030700A207070F3
:1016300085F800A04099684641444331409100F04C
:1016400073FA30B100F06AFA18B9002040905C4596
:101650009ED341B02046BDE8F08F2DE9F043C7B0DE
:1016600000251C46904689464E9F459500F056FA47
:1016700000287AD1459805AE311845AA484600F0B1
:101680006BFA002835D0072F27D2DFE807F00412C5
:101690001B35424F5D004046FEF7E4FE0546459887
:1016A0002918FF2919D830442A464146FEF7C8FEBA
:1016B00013E045982368C0F5807130444246FEF738
:1016C000FBFF09E06068009045982368C0F58071D1
:1016D00030444246FEF7F0FF0546294645A8FFF78D
:1016E000F7FA459978B3B1F5807F3ED805A800F0A8
:1016F0001BFA47B0BDE8F083D4E90101CDE9000150
:1017000045982368C0F5807130444246FEF7D4FF07
:10171000E2E7201D07C88DE8070045982368C0F55B
:10172000807130444246FEF7C7FFD5E7201D0FC841
:101730008DE80F0045982368C0F58071304442461B
:10174000FEF7BAFFC8E710E004F1080001AD0FC8CA
:1017500085E80F006068009045982368C0F58071A7
:1017600030444246FEF7A8FFB6E70020C1E700007C
:10177000004870475B1600000120FFF79FBE000085
:101780002DE9F04F87B0FFF7DDFA18B1002007B060
:10179000BDE8F08F454ED6E9014704EA070006EBA5
:1017A0008000A146641CC5680CE000BFC5F3891029
:1017B00000EB9550044404EA070006EB8000A146C4
:1017C000C568641CA807F1D005F003004FF0000BBA
:1017D000022805D0AA0A01A8C5F38313002153E00B
:1017E00004EA070006EB800004F1010A0AEA070494
:1017F000C268381B80004FEA9558001DC5F3891355
:10180000804521D929490C3138B106EB840400F018
:10181000FF0CA8EB00000C3404E00C46002108F09B
:10182000FF0C0846C0B2CDE90210CDE9004CD6F855
:101830001444C5F3C2005946A047404511D108F1F0
:1018400003080AEB98042AE0002106EB84000C3020
:101850000090CDE901810391C5F3C200D6F814448C
:10186000EAE760F38F1509EA070006EB8000C56020
:1018700016E000BF04EA070C06EB8C0C491CDCF8F0
:101880000CC040F804CB641C9942F3D3C5F3C200EA
:101890000093D6F8105401AB5946A84700B17460C4
:1018A000FFF750FA80F0010071E7000068010020A6
:1018B000034AFF23936000231360536000F054B881
:1018C000680100202DE9F8430F4F884604460025A3
:1018D00069462846BE68FFF705FA002812D00B4873
:1018E0000021406861F38200009964F3C50001EAB9
:1018F000060265F3891007EB820268F39F20491CFA
:10190000D0600091BDE8F88368010020381E000017
:101910002DE9F843124D8846044601279146694651
:101920003846AE68FFF7DEF9002817D00D480021D1
:10193000806861F38200009964F3C50001EA060241
:1019400067F3891005EB820268F39F20491CD06081
:101950000091314005EB8101C1F80C90BDE8F8839E
:1019600068010020381E0000024A02F5826203C2AC
:10197000704700006801002070B506460020FFF7A0
:101980009DFD040008D1FFF795FD0546FFF7F0FE29
:1019900032462946FFF78CFF204670BD405800288C
:1019A00000D00120704708B50022425040580090F6
:1019B00008BDD0F80403084000D00120704740580B
:1019C000002800D00120704708B50022425040583E
:1019D000009008BD70B5034600791B4901EB40102B
:1019E0001968027F4FF0FF30002AD1F80C25D1F89A
:1019F0001465D1F80855D1F8104504D0C1F80C058C
:101A0000C1F8140503E0C1F81405C1F80C05196804
:101A1000C1F80805C1F81005501C02D01046FFF7A8
:101A200014FD701C02D03046FFF70FFD601C02D081
:101A30002046FFF70AFD681C04D02846BDE8704028
:101A4000FFF703BD70BD00004800002070B5FFF730
:101A500057FB08B1FFF7C6F81B48FFF7EBFA08B1D0
:101A6000FFF7C0F8194D184C05F108002A68016805
:101A7000207801F5A071121DFFF70CFB08B1FFF7EC
:101A8000B1F81148401CFFF7D5FA08B1FFF7AAF8E2
:101A90000E482A6810300168607801F5A071FFF7E0
:101AA000F9FA08B1FFF79EF82078FFF715FB08B1A7
:101AB000FFF798F86078FFF70FFB002803D0BDE828
:101AC0007040FFF78FB870BD00000020E81D0000D7
:101AD00070B50546C87D0C4600284FF48471284631
:101AE0000AD0FFF760FFD5F81805627EE1688854D8
:101AF000607E401C607670BDFFF755FFD5F8180575
:101B000070BD1FB501238DF800308DF808100192CB
:101B1000D0E90012684690471FBD00000148FFF75A
:101B200045BC00001400002070B50D460A46014671
:101B300001240648FEF784FCEAB204490448FFF792
:101B4000AFFB00B10024204670BD000068000020FB
:101B5000140000207047000010B5144602004FF03A
:101B600001000CD00846136806A24FF48071FEF7FE
:101B7000A3FD01462046BDE81040FFF7A9B80021AB
:101B8000216010BD5B253038645D000070B50C46E7
:101B900005464FF48E71FFF706FFA18AA068415CED
:101BA000A08A401CA082C5F81C1570BD1FB500227C
:101BB0008DF800208DF80810816801918275D0E9B8
:101BC0000012684690471FBD0078012801D10149E5
:101BD00088707047100000202DE9FF470C4605462D
:101BE0004FF40071FFF7E5FE01274FF4017800265E
:101BF00018B34FF4927949462846FFF7CFFEE0B17B
:101C000049462846FFF7CFFEC5F80883A07E00B9F5
:101C10006F6002208DF80000D5F88004C5F88004BC
:101C20000390E07D8DF80800E0680190E675267667
:101C3000D4E900126846904727E004212846FFF7C0
:101C4000B8FE10B34FF484712846FFF7A7FEE0B149
:101C500021462846FFF73CFFE07D617E884214D193
:101C6000207E38B1617EE268E0752069E06026760A
:101C7000667607E0A07E00B96F60C5F80883E67558
:101C8000617EE2682046FFF73CFF4FF48E784146C4
:101C90002846FFF783FE88B1A08AA17D884204D23E
:101CA00021462846FFF772FF08E041462846FFF725
:101CB0007AFEA17D11B12046FFF778FF4FF4A2789C
:101CC00041462846FFF76AFE002812D041462846C2
:101CD000FFF769FEA07E00B12F60E07D002808D0EC
:101CE000E675617EE26804B02046BDE8F047FFF784
:101CF00008BFBDE8FF872DE9FF410C464FF49277FE
:101D000005463946FFF75BFE0026C0B13946284636
:101D1000FFF75AFE02208DF80000D5F88004C5F8C0
:101D200080040390D5F83C058DF80800E068019028
:101D3000E6752676D4E900126846904724E04FF411
:101D4000887739462846FFF73AFEE8B139462846F3
:101D5000FFF73AFED5F83C05C1B2E07D884213D1C9
:101D6000207E60B1E268D5F8000220F02000C5F8BE
:101D70000002207EE0752069E060267601E0E675CD
:101D8000E2682046FFF7BDFE4FF4A27739462846A9
:101D9000FFF715FE68B139462846FFF715FEE07DCE
:101DA00038B1E675D5F83C05E268C1B22046FFF7C8
:101DB000A8FE4FF4907631462846FFF700FE002833
:101DC0000FD031462846FFF7FFFDA07D002808D040
:101DD000D5F84C0504B0C1B22046BDE8F041FFF78C
:101DE000E5BEBDE8FF810000008000400004000067
:101DF000009000400104000000A000400204000028
:101E000000000007000000000000000700000000C4
:101E10000000000700000000FFFFFFFFFFFFFFFFC3
:101E2000FFFFFFFFFFFFFFFF0000000000000000BA
:101E30000000D60107010000290000000100000099
:101E4000010000000100000001000000010000008E
:101E500001000000010000000200000000404040BE
:101E6000404040404040414141414140404040406D
:101E70004040404040404040404040404005020219
:101E800002020202020202020202020202202020D8
:101E90002020202020202002020202020202909034
:101EA0009090909010101010101010101010101032
:101EB0001010101010101010020202020202888886
:101EC0008888888808080808080808080808080892
:101ED000080808080808080802020202400000007A
:101EE0005D1E00004F766572666C6F770D0A00000C
:101EF000101F00000000002024000000E006000089
:101F0000341F0000240000205C250000F0060000C3
:101F100000000000000000000000000000000000C1
:101F2000000000000020004000000000E41E00004F
:041F30000090D0034A
:0400000500000401F2
:00000001FF
