:020000040000FA
:1000000050250020150400001D0400001F040000FE
:10001000210400002304000025040000000000006B
:1000200000000000000000000000000027040000A5
:1000300029040000000000002B0400002D04000033
:100040002F0400002F040000610600002F040000B0
:100050002F0400002F0400002F0400002F040000D4
:100060002F0400002F0400002F0400002F040000C4
:100070002F0400002F0400002F0400002F040000B4
:100080002F0400002F0400002F0400002F040000A4
:100090002F0400002F0400002F0400002F04000094
:1000A0002F0400002F0400002F0400002F04000084
:1000B0002F0400002F0400000000000000000000DA
:1000C0002F0400002F0400002F0400002F04000064
:1000D0002F0400002F0400002F0400002F04000054
:1000E0002F0400002F0400002F0400002F04000044
:1000F000000000002F0400000000000000000000CD
:1001000000000000000000000000000000000000EF
:1001100000000000000000000000000000000000DF
:1001200000000000000000000000000000000000CF
:1001300000000000000000000000000000000000BF
:10040000DFF80CD000F066F800480047950D0000BA
:10041000502500200648804706480047FEE7FEE7D3
:10042000FEE7FEE7FEE7FEE7FEE7FEE7FEE7FEE7A4
:10043000390500000104000000487047AC1D0000B1
:1004400040EA01039B0703D009E008C9121F08C056
:10045000042AFAD203E011F8013B00F8013B521ED6
:10046000F9D27047421C10F8011B0029FBD1801AF9
:1004700070472DE9F05F0546002092469B4688466E
:100480000646814640241BE0284641464746224610
:1004900000F041F853465A46C01A914110D3114614
:1004A0001846224600F028F82D1A67EB01084F463F
:1004B00022460120002100F01FF817EB00094E41F1
:1004C000201EA4F10104DFDC484631462A4643469B
:1004D000BDE8F09F064C074D06E0E06840F00103E0
:1004E00094E8070098471034AC42F6D3FFF78CFF2E
:1004F000BC1D0000DC1D0000202A04DB203A00FAAD
:1005000002F1002070479140C2F1200320FA03F36A
:10051000194390407047202A04DB203A21FA02F068
:100520000021704721FA02F3D040C2F1200291402D
:10053000084319467047000030B54FF08050002145
:10054000D0F830210124082A02D1D0F8343113B177
:10055000082A09D00BE04FF08042C2F80C11C2F813
:100560001011334A116005E0D0F8343113B1082A74
:1005700004D006E0304B2F4A1A6005E0D0F8343141
:1005800013B1082A04D006E02C4BFB221A6005E0C8
:10059000D0F8343113B1082A08D00EE090F8583260
:1005A0002748026863F30302026002E0D0F83401D6
:1005B00018B9244A4FF4007010602348026842F4CE
:1005C00070020260BFF34F8FBFF36F8F4FF01022A6
:1005D000D2F80002002803DBD2F80402002822DA55
:1005E0001A4B1C601A480468002CFCD01224C2F874
:1005F00000420568002DFCD0C2F804420268002ABF
:10060000FCD0196001680029FCD0BFF34F8F0E4861
:100610007C3801680F4A01F4E06111430160BFF3C7
:100620004F8F00BFFDE70D490B48086030BD00004B
:1006300038050040488103008C56004018F5004002
:10064000E40E00404096024088ED00E004E50140E1
:1006500000E401400400FA050090D00314000020DB
:100660000448017F04480029024901D001F0C1BAC1
:1006700001F030BA18000020002000400FB41CB573
:100680000A46521ECDE9000207A9054B6A460698A4
:1006900000F018F8009A002111701CBC5DF814FBE2
:1006A000270B000002E008C8121F08C1002AFAD177
:1006B00070477047002001E001C1121F002AFBD1E2
:1006C000704700002DE9FF4F8DB00F46054600260C
:1006D00006E025280BD0DDE90F1290476D1C761C33
:1006E00028780028F5D111B03046BDE8F08F0024FD
:1006F000A246A1460122EC4900E0044315F8013F5F
:10070000203B02FA03F00842F7D128782A2810D0BB
:100710006FF02F022878A0F13001092914D80AEBD4
:100720008A0102EB410144F0020400EB010A6D1C56
:10073000F0E701CF5FEA000A03D544F40054CAF1A0
:10074000000A44F002046D1C28782E2817D115F8F1
:10075000010F44F004042A280ED06FF02F022878ED
:10076000A0F1300109290AD809EB890102EB410106
:1007700000EB01096D1CF2E757F8049B6D1C28780B
:100780006C280FD006DC4C2817D068280DD06A28BA
:1007900014D104E0742810D07A280FD10DE044F46D
:1007A00000140AE044F4801401E044F44014697831
:1007B000814202D104F580146D1C6D1C2A786E2ACA
:1007C0001FD00CDC632A31D004DC002A8BD0582ADD
:1007D00011D1A3E0642A68D0692A0CD165E0732A9C
:1007E0002ED004DC6F2A73D0702A04D19BE0752AC6
:1007F0006FD0782A6ED01046DDE90F129047761C34
:1008000050E1C4F30250022806D0032809D004287E
:1008100001CF09D0066045E101CFF117C0E90061C1
:1008200040E101CF06803DE106703BE117F8040B83
:100830008DF8000000208DF80100EB46012003E058
:1008400057F804BB4FF0FF3061074FF0000102D4AE
:100850000DE008F10101884649450FDA8045F8DBD3
:100860001BF808100029F4D108E008F101018846BE
:100870008142FADB1BF808100029F6D1DDE90F23CD
:10088000AAEB08008146214600F036F9304400EB1F
:10089000080604E0DDE90F121BF8010B9047B8F1E0
:1008A0000108F7D221464846F7E00A21C4F3025373
:1008B0004FF0000B0891022B04D001CFC117032B7E
:1008C00009D00AE0FF1D27F00707F7E8020108E05A
:1008D00032E01FE020E000B2C117042B01D140B28A
:1008E000C117031E71F1000307DA4FF0000CD0EBC3
:1008F0000C006CEB01012D2302E0230504D52B2312
:100900008DF82430012303E0E30701D02023F7E72B
:10091000984658E00A2110E010210EE010204FF018
:10092000000B08900CE010214FF0000B44F0040481
:100930004FF00809089103E008214FF0000B0891DF
:10094000C4F30253022B04D001CF0021032B06D0A5
:1009500006E0FF1D27F00707F7E8020103E080B279
:10096000042B00D1C0B24FF0000823072BD5702A0A
:1009700007D0DDF820C08CF0100C5CEA0B0C05D021
:100980000EE040238DF82430012308E050EA0103F3
:1009900006D030238DF824308DF825200223984688
:1009A000DDF820C08CF0080C5CEA0B0C0BD150EA8F
:1009B000010301D1630706D530238DF824304FF0B1
:1009C0000108A9F10109582A04D038A20B9208AAFB
:1009D0000A920BE03AA2F9E75B46089AFFF749FD55
:1009E0000B9B9B5C0A9A521E0A92137050EA0102FA
:1009F000F2D10A98ADEB000000F1200B600702D5A0
:100A000024F4803401E04FF00109D94502DDA9EB5F
:100A10000B0000E0002000EB0B0141440890AAEB22
:100A2000010AE00306D4DDE90F232146504600F019
:100A300063F806444FF0000908E009A911F809001D
:100A4000DDE90F12904709F10109761CC145F4DB7D
:100A5000E0030CD5DDE90F232146504600F04CF8A9
:100A6000064404E0DDE90F1230209047761C089917
:100A7000481E08900029F5DC08E00A980A990078D9
:100A8000491C0A91DDE90F129047761CBBF1000169
:100A9000ABF1010BF1DC21465046DDE90F2300F0FC
:100AA00019F806446D1C1BE6092801003031323369
:100AB000343536373839616263646566000000009A
:100AC0003031323334353637383941424344454684
:100AD000000000002DE9F041044600251E4617469F
:100AE000880404D405E039462020B0476D1C641EFC
:100AF000F9D52846BDE8F0812DE9F04104460025EE
:100B00001E469046C80301D5302700E02027880400
:100B100004D505E041463846B0476D1C641EF9D542
:100B20002846BDE8F0814A68002A06D00A68531CAE
:100B30000B6010704868401E486070470DA101208E
:100B400000F070FE00F0C8FD00F0CAFD0028FBD1E7
:100B50000CA1032000F066FEBFF34F8F1048016820
:100B6000104A01F4E06111430160BFF34F8F00BFF1
:100B7000FDE700003A4552524F523A466174616CAB
:100B80000D0A00003A494E464F3A4869742077658D
:100B9000616B2068616E646C65720D0A0000000074
:100BA0000CED00E00400FA050EB500210091CDE93E
:100BB00001106A4644F20100FFF7C0FF0EBD00F0CD
:100BC00003B800F009B8000072B602480168491C79
:100BD000016070470000002003490868401E08605B
:100BE00000D162B6704700000000002070B50546D5
:100BF00008680C46411C04D000F0E8FB206800F0B7
:100C0000CCFB6068411C02D0002100F0BDFB2879BC
:100C10001F4901EB40102968007F0028A069C1F836
:100C2000240523D0607D227D29681043C1F86C051E
:100C3000D4E900122868C0F80C15C0F8142522E089
:100C4000A068411C02D0002100F09EFBE068411C1E
:100C500004D000F0BBFBE06800F09FFBD4E9021277
:100C60002868C0F80825C0F8101570BD607D217D8A
:100C70002A680843C2F86C05D4E900122868C0F855
:100C80001425C0F80C15207D0128D9D070BD0000B6
:100C900018000020002901DA002070470268114482
:100CA000016001207047000070B5461C0D4601240C
:100CB0000020FFF784FF114A10682860D2E9001075
:100CC0009568081A2B1A701C5B1C98420FD963B1E7
:100CD0000B480C4B294000681B6802EB810163F351
:100CE0009F20C8601068401C1060002401E0881933
:100CF00010600020FFF765FF204670BD380100201E
:100D0000041D000010000020034803C8814201D1E7
:100D100001207047002070473801002070B50E4652
:100D20000446007918494FF4A27501EB4010017F89
:100D30002068A1B14FF4887100F0F8FD4FF4907174
:100D4000206800F0F3FD4FF49271206800F0EEFD92
:100D50002946206800F0EAFD0C49206809E04FF4BC
:100D60008E7100F0D2FD2946206800F0CEFD0849C2
:100D70002068C0F80413206800F0E5F83146BDE8AB
:100D8000704000F0C4B800001800002010030200FA
:100D900080000200002000F0A1FD08B1FFF704FF71
:100DA0002DA1032000F03EFD4FF080500024066985
:100DB0004069DFF8C490401EDFF8C08006FB00FBEE
:100DC000A24602205D464946C9F800004046026836
:100DD000002AFCD0284B1B1DC3F800B00268002A73
:100DE000FCD0C1F800A001680029FCD0002724A194
:100DF000032000F017FD00BF00F072FC0028FBD1BB
:100E000000F062FD0246944217D004460120494694
:100E1000C9F8000040460368002BFCD02C60036832
:100E2000002BFCD0C1F800A001680029FCD01EA155
:100E300003202D1D7F1C00F01BFD15F8042C24A1A0
:100E4000032000F015FD00BF00F04AFC0028FBD194
:100E5000B742CCD3B5E700004150503A494E464F17
:100E60003A466C6173687772697465206578616D64
:100E7000706C650D0A00000004E5014000E40140CB
:100E80004150503A494E464F3A456E746572206360
:100E900068617220746F20777269746520746F20A6
:100EA000666C6173680D0A004150503A494E464FD6
:100EB0003A272563272077617320777269747465F8
:100EC0006E20746F20666C6173680D0A000000006C
:100ED0004150503A494E464F3A27256327207761C3
:100EE0007320726561642066726F6D20666C617339
:100EF000680D0A0D0A00000000F01F020121914058
:100F00004009800000F1E020C0F8801170474907D7
:100F1000090E002806DA00F00F0202F1E02282F842
:100F2000141D03E000F1E02282F8001400F01F021B
:100F3000012191404009800000F1E020C0F88012BA
:100F4000C0F800117047000B40B270470121B1EBAF
:100F5000507F01D101207047002070472DE9F041FA
:100F600005460079164F904607EB40140E46E07E8A
:100F700010B10820BDE8F081707F20772846FFF788
:100F800035FE5FEA080060603169216003D0317F7F
:100F90002846FFF7C3FE287907EB4010007F0028A2
:100FA000286801D0082100E00421C0F800150020C5
:100FB000E0752076A0750121E176A076DAE70000E1
:100FC000180000202DE9F04105460079284E904692
:100FD00006EB40140F46207F18B10846FFF7B6FF16
:100FE00080B1626800234FF404704FF4017172B154
:100FF0002A7906EB4212127F002A2A6805D0C2F82D
:10100000080304E01020BDE8F081C2F80813E27D77
:10101000B2B1227E7AB162685AB12A7906EB4212E5
:10102000127F1AB12968C1F8040302E02868C0F8E9
:1010300004131120E7E72761012384F8188005E0F5
:1010400084F817800020E760607620762879424691
:1010500006EB40103946007F0028284603D0BDE843
:10106000F04100F05BB8BDE8F04100F003B80000CB
:10107000180000202DE9F05F04460079264901EBB5
:101080004015A87E184302D1204600F0B6FC6868DF
:101090000028206806D04FF40171C0F80413002026
:1010A000BDE8F09F4FF4A276314600F02EFCB14629
:1010B0004FF4927A4FF4847B5146206800F020FC74
:1010C00006465946206800F01BFC804649462068C9
:1010D00000F016FC074648EA07003043ECD056EA19
:1010E000070007D12946206800F062FCE87D697E90
:1010F0008842E1D80020E8750EB10320D0E70FB197
:101100000F20CDE7A97E01200029216801D00860C9
:10111000C5E74860C3E70000180000202DE9F05F34
:10112000894604464FF488759A4690460026006822
:10113000294600F0FBFB4FF4A2773946206800F007
:10114000F5FB2068C0F83495C0F838852068BAF1FE
:10115000000F14D0D0F8001241F02001C0F80012A6
:101160002179DFF8648008EB4110406850B12068B5
:101170004FF40471C0F804133046BDE8F09F01211C
:101180000160EDE7AA46B9464FF4927B51462068CC
:1011900000F0C7FB07464946206800F0C2FB054641
:1011A0005946206800F0BDFB014647EA05000843A8
:1011B000ECD02379002208EB4310C27501B103265D
:1011C000002DD9D00F26D7E7180000202DE9F047D1
:1011D000054600793F4E904606EB40140F46207FAF
:1011E00018B10846FFF7B2FE30B1284600F074F897
:1011F00020B11120BDE8F0871020FBE784F81680AD
:10120000A7600027A78228794FF0010806EB401459
:101210003E46207F0028286825D04FF49079494623
:1012200000F084FB4FF4AC7A5146286800F07EFB56
:101230002868A17DA268C0F84425C0F84815286830
:10124000C0F808806068F0B94946286800F069FB7A
:1012500080465146286800F064FB58EA0001F3D04C
:1012600058BBA7750FE04FF48E7A514600F04DFB46
:101270002868C0F808802146286800F005FC6168ED
:101280004FF4807089B13046B4E75146286800F0C9
:1012900037FB10B9A08A4845F7D1A08A484505D048
:1012A0002146286800F0F0FB00E08146A08AA17D7D
:1012B0008842EAD3A08A484501D10F26D1E751469A
:1012C000286800F01DFB0028F9D02868C0F80C80C1
:1012D000C7E70000180000200079044901EB401026
:1012E000807D002800D001207047000018000020F9
:1012F00070B5044600791149002601EB40152068BD
:101300002A7FC0F80065686888B1207901EB401039
:10131000007F0028206801D0094901E008498C3984
:10132000C0F808132068FFF70EFEFFF7E5FD204622
:1013300000F002FBEE766E6070BD00001800002029
:10134000100302002DE9FF411C46DDE90A7815462D
:101350000E46684600F02CF846EA450141EA840151
:1013600041EA072242EA0841009A00EB8200C0F8F5
:101370000017BDE8FF811CB5002100910B4601223A
:101380000191FFF7DFFF1CBD1CB500220B46009248
:1013900011460192FFF7D6FF1CBD1CB5002100913C
:1013A0000B46012201911146FFF7CCFF1CBD000046
:1013B0000168202902D24FF0A040704701F01F01C0
:1013C00001600148704700000003005001B5684605
:1013D000FFF7EEFF009A01219140C0F8081508BD03
:1013E00038B50B4C607828B101226946201DFFF703
:1013F000E9FD0AE00020A070054801226946001DB1
:10140000FFF7E0FDA0780028FCD09DF8000038BD73
:1014100004000020004870478D14000030B5184CBF
:10142000054689B0207828B16078854202D1002035
:1014300009B030BD202213496846FFF701F80020AB
:101440008DF81400062000900820019005200390DC
:10145000072002904FF0EB7006900948001DFFF73F
:1014600047FF0DB1002200E0074A05486946001D0C
:10147000FFF774FD0028DBD1012020706570D6E7EE
:1014800004000020E41C0000C51A00002DE9F04F04
:10149000C1B00D004FF0000140914D984B991C4692
:1014A000174601EB000B01D00A2000E00020804627
:1014B00000F0B4FA00287CD16E46BCB9409840AA2E
:1014C0003118284600F0C6FA002872D03846FEF7D8
:1014D000C9FFC22800D9C220054640982A46304498
:1014E0003946FEF7ADFF4098284440904FF0200A5F
:1014F000409901EB080231320DEB01050DEB0206BC
:10150000002002E005F801AB401C4045FAD300275B
:101510005C4508D305F801AB05F801AB05F801AB54
:1015200006F801AB2DE04B98844202D24A98005D48
:1015300002E0211A4C98405C2B468146024601216C
:10154000880022FA00F000F00F00092801D9373096
:1015500000E03030C1F1010C491E03F80C00EFD25D
:101560009D1C05F801ABFEF767FF016811F8090043
:1015700010F03E0F01D0484600E02E2006F8010B87
:10158000641C7F1C102FC3D30D2030700A20707094
:1015900085F800A04099684641444331409100F0ED
:1015A00043FA30B100F03AFA18B9002040905C4597
:1015B0009ED341B02046BDE8F08F2DE9F043C7B07F
:1015C00000251C46904689464E9F459500F026FA18
:1015D00000287AD1459805AE311845AA484600F052
:1015E00039FA002835D0072F27D2DFE807F0041298
:1015F0001B35424F5D004046FEF734FF05464598D7
:101600002918FF2919D830442A464146FEF718FF09
:1016100013E045982368C0F5807130444246FFF7D7
:101620002DF809E06068009045982368C0F5807146
:1016300030444246FFF722F80546294645A8FFF701
:1016400029FB459978B3B1F5807F3ED805A800F015
:10165000EBF947B0BDE8F083D4E90101CDE9000121
:1016600045982368C0F5807130444246FFF706F87C
:10167000E2E7201D07C88DE8070045982368C0F5FC
:10168000807130444246FEF7F9FFD5E7201D0FC8B0
:101690008DE80F0045982368C0F5807130444246BC
:1016A000FEF7ECFFC8E710E004F1080001AD0FC839
:1016B00085E80F006068009045982368C0F5807148
:1016C00030444246FEF7DAFFB6E70020C1E70000EB
:1016D00000487047BB1500000120FFF79FBE0000C7
:1016E0002DE9F04F87B0FFF70FFB18B1002007B0CE
:1016F000BDE8F08F454ED6E9014704EA070006EB46
:101700008000A146641CC5680CE000BFC5F38910C9
:1017100000EB9550044404EA070006EB8000A14664
:10172000C568641CA807F1D005F003004FF0000B5A
:10173000022805D0AA0A01A8C5F38313002153E0AB
:1017400004EA070006EB800004F1010A0AEA070434
:10175000C268381B80004FEA9558001DC5F38913F5
:10176000804521D929490C3138B106EB840400F0B9
:10177000FF0CA8EB00000C3404E00C46002108F03C
:10178000FF0C0846C0B2CDE90210CDE9004CD6F8F6
:101790001444C5F3C2005946A047404511D108F191
:1017A00003080AEB98042AE0002106EB84000C30C1
:1017B0000090CDE901810391C5F3C200D6F814442D
:1017C000EAE760F38F1509EA070006EB8000C560C1
:1017D00016E000BF04EA070C06EB8C0C491CDCF891
:1017E0000CC040F804CB641C9942F3D3C5F3C2008B
:1017F0000093D6F8105401AB5946A84700B1746065
:10180000FFF782FA80F0010071E700003801002044
:10181000034AFF23936000231360536000F056B81F
:10182000380100202DE9F8430F4F88460446002573
:1018300069462846BE68FFF737FA002812D00B48E1
:101840000021406861F38200009964F3C50001EA59
:10185000060265F3891007EB820268F39F20491C9A
:10186000D0600091BDE8F88338010020041D00001D
:101870002DE9F843124D88460446012791466946F2
:101880003846AE68FFF710FA002817D00D4800213F
:10189000806861F38200009964F3C50001EA0602E2
:1018A00067F3891005EB820268F39F20491CD06022
:1018B0000091314005EB8101C1F80C90BDE8F8833F
:1018C00038010020041D0000FFF78ABD024A02F51E
:1018D000826203C2704700003801002070B50646DE
:1018E0000020FFF79BFD040008D1FFF793FD05469C
:1018F000FFF7EEFE32462946FFF78AFF204670BD0D
:101900004058002800D00120704708B500224250FE
:101910004058009008BDD0F80403084000D00120D2
:1019200070474058002800D00120704708B50022B9
:1019300042504058009008BD70B5034600791B49DD
:1019400001EB40101968027F4FF0FF30002AD1F8F8
:101950000C25D1F81465D1F80855D1F8104504D0FC
:10196000C1F80C05C1F8140503E0C1F81405C1F86D
:101970000C051968C1F80805C1F81005501C02D003
:101980001046FFF7F8FC701C02D03046FFF7F3FC5E
:10199000601C02D02046FFF7EEFC681C04D02846ED
:1019A000BDE87040FFF7E7BC70BD000018000020E4
:1019B00070B50546C87D0C4600284FF48471284652
:1019C0000AD0FFF7A2FFD5F81805627EE1688854B7
:1019D000607E401C607670BDFFF797FFD5F8180554
:1019E00070BD1FB501238DF800308DF808100192ED
:1019F000D0E90012684690471FBD10B50446006844
:101A00004FF49271FFF781FF4FF484712068FFF764
:101A10007CFF20680121016010BD00000148FFF734
:101A20005BBC00000800002070B50D460A46014668
:101A300001240648FEF704FDEAB204490448FFF712
:101A4000C5FB00B10024204670BD00003800002016
:101A50000800002010B5144602004FF001000CD021
:101A60000846136806A24FF48071FEF707FE014690
:101A70002046BDE81040FFF70DB90021216010BDE0
:101A80005B253038645D000070B50C4605464FF4A8
:101A90008E71FFF73AFFA18AA068415CA08A401CC2
:101AA000A082C5F81C1570BD1FB500228DF800205E
:101AB0008DF80810816801918275D0E9001268469E
:101AC00090471FBD0078012801D1014988707047F7
:101AD000040000202DE9FF470C4605464FF4007135
:101AE000FFF719FF01274FF40178002618B34FF4D0
:101AF000927949462846FFF703FFE0B14946284658
:101B0000FFF703FFC5F80883A07E00B96F600220CD
:101B10008DF80000D5F88004C5F880040390E07DBE
:101B20008DF80800E0680190E6752676D4E9001289
:101B30006846904727E004212846FFF7ECFE10B3E3
:101B40004FF484712846FFF7DBFEE0B121462846BA
:101B5000FFF72EFFE07D617E884214D1207E38B1F0
:101B6000617EE268E0752069E0602676667607E0CF
:101B7000A07E00B96F60C5F80883E675617EE268F3
:101B80002046FFF72EFF4FF48E7841462846FFF798
:101B9000B7FE88B1A08AA17D884204D2214628469A
:101BA000FFF772FF08E041462846FFF7AEFEA17D31
:101BB00011B12046FFF778FF4FF4A278414628463E
:101BC000FFF79EFE002812D041462846FFF79DFEF3
:101BD000A07E00B12F60E07D002808D0E675617E10
:101BE000E26804B02046BDE8F047FFF7FABEBDE862
:101BF000FF872DE9FF410C464FF4927705463946A1
:101C0000FFF78FFE0026C0B139462846FFF78EFE4B
:101C100002208DF80000D5F88004C5F880040390F8
:101C2000D5F83C058DF80800E0680190E675267649
:101C3000D4E900126846904724E04FF4887739468B
:101C40002846FFF76EFEE8B139462846FFF76EFEDC
:101C5000D5F83C05C1B2E07D884213D1207E60B149
:101C6000E268D5F8000220F02000C5F80002207ECE
:101C7000E0752069E060267601E0E675E2682046BE
:101C8000FFF7AFFE4FF4A27739462846FFF749FE2B
:101C900068B139462846FFF749FEE07D38B1E67560
:101CA000D5F83C05E268C1B22046FFF79AFE4FF432
:101CB000907631462846FFF734FE00280FD0314693
:101CC0002846FFF733FEA07D002808D0D5F84C0544
:101CD00004B0C1B22046BDE8F041FFF7E5BEBDE863
:101CE000FF810000FFFFFFFFFFFFFFFFFFFFFFFF80
:101CF000FFFFFFFF00000000000000000000D60111
:101D000007010000290000000100000001000000A0
:101D100001000000010000000100000001000000BF
:101D200001000000020000000040404040404040F0
:101D3000404041414141414040404040404040409E
:101D40004040404040404040400502020202020242
:101D50000202020202020202022020202020202091
:101D600020202002020202020202909090909090A5
:101D70001010101010101010101010101010101063
:101D800010101010020202020202888888888888D7
:101D900008080808080808080808080808080808C3
:101DA000080808080202020240000000291D000085
:101DB0004F766572666C6F770D0A0000DC1D0000BF
:101DC0000000002018000000A4060000F41D000020
:101DD0001800002038250000B406000000000000B4
:101DE000000000000020004000000000B01D0000C6
:041DF0000090D0038C
:0400000500000401F2
:00000001FF
