:020000040001F9
:10900000E03900204D95010055950100579501006C
:10901000599501005B9501005D950100000000007D
:109020000000000000000000000000005F9501004B
:109030006195010000000000639501006595010045
:10904000E198010067950100319C010067950100DE
:109050006795010000000000099701006795010075
:10906000679501006795010067950100679501000C
:1090700067950100679501006795010067950100FC
:109080006795010039990100679501006795010016
:109090005D990100679501006199010067950100E4
:1090A00067950100679501000000000000000000C6
:1090B00067950100679501000000000000000000B6
:1090C00000000000000000000000000000000000A0
:1090D0000000000000000000000000000000000090
:1090E0000000000000000000000000000000000080
:1090F0000000000000000000000000000000000070
:10910000000000000000000000000000000000005F
:10911000000000000000000000000000000000004F
:10912000000000000000000000000000000000003F
:10913000000000000000000000000000000000002F
:10914000000000000000000000000000000000001F
:10915000000000000000000000000000000000000F
:1091600000000000000000000000000000000000FF
:1091700000000000000000000000000000000000EF
:1091800000000000000000000000000000000000DF
:1091900000000000000000000000000000000000CF
:1091A00000000000000000000000000000000000BF
:1091B00000000000000000000000000000000000AF
:1091C000000000000000000000000000000000009F
:1091D000000000000000000000000000000000008F
:1091E000000000000000000000000000000000007F
:1091F000000000000000000000000000000000006F
:10920000DFF80CD000F042FA00480047B9D701005F
:10921000E039002030B4044654E8000F0D4644E81D
:109220000053002BF8D1156030BC704730B40446B1
:1092300054E8000F40EA010544E80053002BF7D141
:10924000156030BC704730B4044654E8000F00EAA3
:10925000010544E80053002BF7D1156030BC70477E
:1092600030B4044654E8000F80EA010544E8005396
:10927000002BF7D1156030BC704730B4044654E879
:10928000000F00EB010544E80053002BF7D11560F7
:1092900030BC704730B4044654E8000FA0EB010521
:1092A00044E80053002BF7D1156030BC7047000034
:1092B00030B450E8012F93B2C48923448489A34277
:1092C00028BF1B1B0489A34202BFBFF32F8F0020BE
:1092D00007E0C3EA020340E80134002CE9D14FF073
:1092E00001000A6030BC704750E8012FC2EA024218
:1092F00040E801210029F7D1704730B450E8022F2F
:109300001FFAA2F3C488A34202BFBFF32F8F00202D
:109310000DE0C48923448489A34228BF1B1BC2EAF1
:10932000034340E80234002CE8D14FF001000A600A
:1093300030BC704750E8022FC2EA224240E80221C6
:109340000029F7D17047034653E8022FD988B2EBC2
:10935000324F4FF0000017BF92B241EA014142EA9A
:10936000014104E05A68B2EB324F08BF012043E8E4
:109370000212002AE8D1704730B4044654E8000FC6
:109380000D4644E80053002BF8D1156030BC7047FF
:1093900030B4044654E8000F40EA010544E80053A5
:1093A000002BF7D1156030BC704730B4044654E848
:1093B000000F00EA010544E80053002BF7D11560C7
:1093C00030BC704730B4044654E8000F80EA010511
:1093D00044E80053002BF7D1156030BC704730B41F
:1093E000044654E8000F00EB010544E80053002B4D
:1093F000F7D1156030BC704730B4044654E8000F14
:10940000A0EB010544E80053002BF7D1156030BCF8
:109410007047000030B4044654E8000F0D4644E89D
:109420000053002BF8D1156030BC704730B40446AF
:1094300054E8000F40EA010544E80053002BF7D13F
:10944000156030BC704730B4044654E8000F00EAA1
:10945000010544E80053002BF7D1156030BC70477C
:1094600030B4044654E8000F80EA010544E8005394
:10947000002BF7D1156030BC704730B4044654E877
:10948000000F00EB010544E80053002BF7D11560F5
:1094900030BC704730B4044654E8000FA0EB01051F
:1094A00044E80053002BF7D1156030BC7047000032
:1094B00030B4044654E8000F0D4644E80053002B36
:1094C000F8D1156030BC704730B4044654E8000F42
:1094D00040EA010544E80053002BF7D1156030BC89
:1094E000704730B4044654E8000F00EA010544E830
:1094F0000053002BF7D1156030BC704730B40446E0
:1095000054E8000F80EA010544E80053002BF7D12E
:10951000156030BC704730B4044654E8000F00EBCF
:10952000010544E80053002BF7D1156030BC7047AB
:1095300030B4044654E8000FA0EB010544E80053A2
:10954000002BF7D1156030BC7047000006488047FB
:1095500006480047FEE7FEE7FEE7FEE7FEE7FEE718
:10956000FEE7FEE7FEE7FEE76599010001920100D4
:109570002DE9F05F0546002092469B468846064648
:10958000814640241BE0284641464746224600F0DB
:109590006CF853465A46C01A914110D311461846EA
:1095A000224600F053F82D1A67EB01084F46224679
:1095B0000120002100F04AF817EB00094E41201E5F
:1095C000A4F10104DFDC484631462A464346BDE8A3
:1095D000F09F000000487047F42A020040EA0103AF
:1095E0009B0703D009E008C9121F08C0042AFAD259
:1095F00003E011F8013B00F8013B521EF9D270471D
:10960000D2B201E000F8012B491EFBD270470022C4
:10961000F6E710B513460A4604461946FFF7F0FF71
:10962000204610BD421C10F8011B0029FBD1801AF6
:10963000704730B504460020034600E05B1C9342AF
:1096400003D2E05CCD5C401BF8D030BD202A04DBA7
:10965000203A00FA02F1002070479140C2F1200345
:1096600020FA03F3194390407047202A04DB203A84
:1096700021FA02F00021704721FA02F3D040C2F132
:10968000200291400843194670470000064C074DE0
:1096900006E0E06840F0010394E8070098471034C2
:1096A000AC42F6D3FFF7B0FD7031020090310200FA
:1096B00070B58C1810F8015B15F0070301D110F894
:1096C000013B2A1106D110F8012B03E010F8016BC1
:1096D00001F8016B5B1EF9D12B0705D40023521E44
:1096E0000DD401F8013BFAE710F8013BCB1A921CAC
:1096F00003E013F8015B01F8015B521EF9D5A142AA
:10970000D8D3002070BD00002DE9F04700268CB0B2
:10971000DFF86091B0464FF4807501243746069615
:10972000284605F029F938B1D9F80403204203D0BE
:10973000284605F017F926432D1D64007F1CADB2A5
:10974000082FEDD34FF4BE74204605F015F948B14B
:10975000204605F007F946F0004606AA0121002040
:1097600005F0ECF8444D16F0FF0F15D0012700244A
:1097700037420DD009EB8401D1F81005D1F810154E
:10978000C0F3042055F82420C1F3014102B19047F1
:109790007F00641C082CEBD3002E67DA4FF0FF30FB
:1097A000CDE9088000263446281910F8507F90F93A
:1097B000000027F0C008401C44D009A9404604F02E
:1097C0000BFB58B34FEA9719404602F0D7F855F80B
:1097D00020701FB1B9F1030F03D00FE0B9F1030FEF
:1097E00030D108A84FEAD80208F00703815C4FF097
:1097F000010C0CFA03FC41EA0C0181544FF0A0412A
:1098000001EB8800D0F8000706A9C0F3014A4046E2
:1098100004F0E2FA18B1BAF1020F03D012E0BAF183
:10982000030F0FD1B9F1030F08D1BAF1020F1BD00A
:109830000221404605F066F8761CF6B217B149469B
:109840004046B847641C042CAED3002E0ED06A46A6
:109850000121002005F072F806990098884205D091
:109860000690089809909DE70321E2E70CB0BDE857
:10987000F0870000006000407429002000F01F0203
:10988000012191404009800000F1E020C0F88012E1
:10989000704700F01F02012191404009800000F153
:1098A000E020C0F80011704700F01F020121914034
:1098B0004009800000F1E020C0F80012704749071D
:1098C000090E002806DA00F00F0000F1E02080F811
:1098D000141D704700F1E02080F80014704700006C
:1098E0002DE9F0414FF48077384604F009FB01245C
:1098F000104EA50748B1384604F009FB0120C5F811
:1099000008037470002002F085F84FF4827738461F
:1099100004F0F6FA00280BD0384604F0F8FA0220DA
:10992000C5F80803B470BDE8F041012002F072B838
:10993000BDE8F0816029002007480021C0F84011EF
:10994000C0F84411C0F84811C0F84C11C0F800111B
:10995000C0F8041108F0DCB90010014008F026B985
:1099600005F0D4BCF0B5A1480127031D01783A07E2
:10997000181D06290BD11C78240708D10478C4F3DC
:109980000314032C06D0042C04D0052C02D0062985
:1099900007D011E0B2F82443954DC4F304242C60A1
:1099A00002E01C78240707D10478C4F30314032CC5
:1099B00002D1914D8F4C6C67D2F844428F4DC4F365
:1099C00042342C6006290CD11C78240709D1047874
:1099D000C4F30314032C04D1894C256825F0807549
:1099E00025604FF080440025C4F80C51C4F8105194
:1099F000824C241F2560062907D11C78240704D136
:109A00000478C4F30314032C02D0062908D01FE005
:109A1000DFF8E8C103240CF1640CCCF8004007E047
:109A20001C78240714D10478C4F30314032C0FD139
:109A3000DFF8D0C10524CCF80040724C78342760A0
:109A4000704C083425600CF1040C3F24CCF8004025
:109A50006D4C2468DFF8B4C1CCF800406A4C241D7A
:109A600024680CF1040CCCF80040674C08342468DE
:109A70000CF1040CCCF80040634C0C3424680CF15D
:109A8000040CCCF80040604C103424680CF1040C39
:109A9000CCF800405C4C143424680CF1040CCCF875
:109AA0000040594C18342468DFF860C10CF1200CD8
:109AB000CCF80040544C1C3424680CF1040CCCF855
:109AC0000040514C203424680CF1040CCCF80040C8
:109AD0004D4C243424680CF1040CCCF800404A4C62
:109AE000283424680CF1040CCCF80040464C2C348B
:109AF00024680CF1040CCCF80040434C303424684A
:109B0000DFF808C10CF1400CCCF800403E4C343476
:109B100024680CF1040CCCF800403B4C3834246829
:109B20000CF1040CCCF80040374C3C3424680CF1A8
:109B3000040CCCF80040344C403424680CF1040C84
:109B4000CCF80040DFF8C8C0FB24CCF80040062960
:109B500013D11C78240710D10478C4F30314032C08
:109B600003D0042C01D0052C07D1D2F85842DFF8DD
:109B7000A4C004F04F04CCF8004027480168C9078E
:109B800002D06FF0010101604FF01021D1F8000206
:109B9000002803DBD1F80402002822DA1F4A1760EC
:109BA0001F480368002BFCD01523C1F8003204685D
:109BB000002CFCD0C1F8043201680029FCD01560EB
:109BC00001680029FCD0BFF34F8F0D48F0380168C1
:109BD000144A01F4E06111430160BFF34F8F00BFED
:109BE000FDE7124910480860F0BD0000E00F00F0EA
:109BF000403501400DF0ADBA00C007403C050040C3
:109C0000FCED00E0105600400404001020C50040A8
:109C100018F50040E40E00400004004004E5014057
:109C200000E401400400FA050090D003B81F0020B2
:109C30000149024808F0F8B8CC2900200020004073
:109C400002E008C8121F08C1002AFAD17047704705
:109C5000002001E001C1121F002AFBD17047000063
:109C60000121202803DA81400548014003E0402813
:109C700002DA2038814009B1012070470020704786
:109C8000FC06FFBD082806D228B1012803D004280D
:109C900001D0012070470020704710B560B159B164
:109CA00002780B785208B2EB530F05D10622401C04
:109CB000491CFFF7BEFC08B1002010BD012010BDFB
:109CC000800701D00020704701207047C3688B4295
:109CD00006D811440069491E814201D8012070470D
:109CE0000020704710B501220221002001F04CFC39
:109CF00008B1072810D107220221012001F044FCFD
:109D000008B1072808D100210A22084601F03CFCCE
:109D100008B1072800D1002010BD000000B5A9B08F
:109D2000A0216846FFF773FC02208DF80000012097
:109D30008DF8020006218DF803108DF87C000021BB
:109D40008DF87D004FF44860ADF810100591249017
:109D50002821B420229125901E2108482391269085
:109D60006946074800F028FC08B100F0A1F901217C
:109D7000034800F01EFC29B000BD000049F40100BA
:109D8000EC20002010B550B10A480321008801EBF7
:109D9000004009A104F0B4FF06F012FE03E0032125
:109DA000094800F0F1FC002803D0BDE8104000F0A5
:109DB0007FB910BD30200020457261736520626F4D
:109DC0006E64732100000000EC20002070B58CB0A0
:109DD00015460E4600236C46C3F10F01415CE15469
:109DE0005B1C102BF8D30D2104F11000FFF70FFCC2
:109DF0000020C0F10F02315C2244401C1174032882
:109E0000F7D3684643DF0020C0F10F01214491F8E9
:109E100020102954401C0328F6D30CB070BD00F06C
:109E200047B900002DE9F0410F4800F0C5FD08B129
:109E300000F03EF90D4D0E4E01242C7030880327A2
:109E400007EB00400BA104F05BFF074800F0C1FDE9
:109E500008B100F02DF96C7030880DA107EB0040BF
:109E6000BDE8F04104F04CBF80200020681B0020BA
:109E7000302000204E657720416C65727420537449
:109E80006174653A20456E61626C65642E00000065
:109E9000556E7265616420416C6572742053746103
:109EA00074653A20456E61626C65642E00000000A6
:109EB000022001F05BBA000070B5174E174C032565
:109EC0007078022801D001280ED1FF21144800F03B
:109ED000E5FE18B1082801D000F0EAF8208811A1A9
:109EE00005EB004004F00CFF3078022801D0012877
:109EF00010D1FF210A4800F0F9FD18B1082801D05F
:109F000000F0D6F8208816A105EB0040BDE87040AF
:109F100004F0F6BE70BD0000681B00203020002059
:109F2000802000204E6F7469667920746865205522
:109F30006E7265616420416C657274206368617241
:109F40006163746572697374696320666F722061FE
:109F50006C6C2063617465676F726965732E0000B5
:109F60004E6F7469667920746865204E657720416C
:109F70006C65727420636861726163746572697381
:109F800074696320666F7220616C6C206361746514
:109F9000676F726965732E000149097900F03EBF51
:109FA000CC1E002070B50024064D06E06868012133
:109FB00010F8340004F050F8641C28788442F5D37B
:109FC000002070BDF41E0020F8B515460C4606466C
:109FD000052A01D20720F8BD04F024F918B904F0CD
:109FE000F3F80028F7D1104900204E600C70C1E949
:109FF00002500E4D08610DE006EBC4006968009147
:10A0000081788DF801100078094A694604F076F8E5
:10A010000028E0D1641EE4B2EED2BDE8F840054A63
:10A020000021024800F050B8F41E00202828020049
:10A03000F5C9010019BD010004F01AFF04F074FD18
:10A040000028FBD1104C0121208801EB00400FA11A
:10A0500004F056FE10480068C00700D000BE2088FB
:10A06000022101EB00400DA104F04AFEBFF34F8F27
:10A070000948E43801680D4A01F4E06111430160C8
:10A08000BFF34F8F00BFFDE73020002046617461B1
:10A090006C206572726F7200F0ED00E0537973749A
:10A0A000656D207265736574000000000400FA0598
:10A0B0000EB500210091CDE901106A4644F201007D
:10A0C000FFF7BAFF0EBD0000074B9B7823B12AB102
:10A0D00020B10068037C1BB108207047072070473F
:10A0E0004174426100207047082A002070B506F0D4
:10A0F0004FFF104800240B21047044700E4D8170F6
:10A1000014206C602C706C70FFF7B8FB07211420D2
:10A11000FFF7D5FB1420FFF7BCFB084804600721BC
:10A120001120FFF7CCFB0548001F0068A860002045
:10A1300070BD0000082A0020081F002008150140FB
:10A140002DE9FC47DFF8789099F8023073B368B3D3
:10A15000052902D20720BDE8FC87436933B3437C5D
:10A16000012B25D0002704460025884616468DF889
:10A170000050684600F038F801A807F0EBFFC8B1BE
:10A18000012101700F4944600968C0E90218C0E963
:10A1900004769DF8040089F801009DF8000000F0A5
:10A1A00047F81420FFF780FB2846D4E70820D2E7C1
:10A1B0000F46D8E704259DF8000000F039F8F3E7D2
:10A1C000082A0020041501400649897839B130B1C8
:10A1D000416921B100210174022107F075BD0820F9
:10A1E00070470000082A002030B5EFF3108172B6E6
:10A1F0000D4A9468012324B10370002900D162B68E
:10A2000030BD93604FF0E023D3F88051074C2540D8
:10A210001560C3F88041D3F8844154605A17C3F8DD
:10A22000842100220270E8E7142B0020FC06FFBD09
:10A230000B498A68002A11D000280FD1EFF3108053
:10A2400072B60B684FF0E022C2F800314B68C2F8DA
:10A25000043100228A60002800D162B670470000F5
:10A26000142B00202DE9F041064608680C46411CDD
:10A270004FF0A0474FF0010506D005FA00F1C7F8EE
:10A280000815206804F023FB6068411C02D00021FF
:10A2900004F014FB3168A069C1F82405607D217DBC
:10A2A00032680843C2F86C05D4E900123068C0F87F
:10A2B0000C15C0F81425207D012815D1A068411C7B
:10A2C00002D0002104F0FAFAE068411C05D0854074
:10A2D000C7F80855E06804F0FAFAD4E902123068C9
:10A2E000C0F80825C0F81015BDE8F0812DE9F04749
:10A2F000074600888EB0804600F040FD0646404686
:10A3000002F0B2FE824604462E4800252A46017815
:10A31000404600F099FD002E50D07879400734D5A2
:10A3200001254FF6FF7603AB2A460721504605F07C
:10A33000BBFC010004D0404607F0BAF800252BE032
:10A34000B1463146049802F0E3FD064648450FD079
:10A3500004460146404602F071FE4046FFF71CFEEF
:10A3600030B9404607F076F84046FFF715FE48B191
:10A3700022460721504605F02DFD010003D040463E
:10A3800007F096F800254E4506D0404605F090FEB1
:10A3900010B1504602F054FE02208DF81800ADF8BE
:10A3A0001A807879400701D5012000E002208DF85D
:10A3B00020008DF8215006A801F0C6FE0EB0BDE8C1
:10A3C000F0870000CC1E00202DE9FC4700251788EF
:10A3D0000646158090F82D001446894630B13A465D
:10A3E0002146484600F0D2FD050009D1B0784FF073
:10A3F0000C0A18B32088C846001DB84202D950463E
:10A40000BDE8FC87684679DF0028F9D12088032160
:10A4100008F8001020881921401C80B2208008F81C
:10A4200000102088401C80B2208000EB0801BDF89D
:10A43000000007F075FD218808442080F078022292
:10A44000C8B1218896F9033001F1030C4846BC4598
:10A45000D5D8425421884FF0010C491C89B2218083
:10A4600000F801C02188491C89B2218009F8013017
:10A470002088401C20807068B8B1218890F9003095
:10A4800001F1030C4846BC45B9D8425421880A2240
:10A49000491C89B2218042542188491C89B22180FB
:10A4A00009F801302088401C2080308950B1CDE966
:10A4B00000474B460622022106F1080007F062FE23
:10A4C00005009DD1308A50B1CDE900474B460722A7
:10A4D000032106F1100007F055FE050090D1308BE6
:10A4E00050B1CDE900474B461522142106F1180062
:10A4F00007F048FE050083D1306A30B13B46224662
:10A50000494601F0F1FA0500DBD1706A30B13B46F3
:10A510002246494603F03EFA0500D2D196F82C00B7
:10A5200038B13B4622464946304607F051F805000F
:10A53000C7D1307838B13B4622464946304603F011
:10A54000B1FA0500BDD128465AE7F0B50C4693B0E4
:10A550001F210726ADF80010ADF80410002750B1F8
:10A56000C17849070DD56A4602A9FFF72DFF0028DB
:10A5700008D102AD02E00025ADF800706CB1E078C2
:10A5800010B1304613B0F0BD01AA0AA92046FFF76A
:10A590001BFF0028F6D10AAA02E00022ADF80470E1
:10A5A000BDF80400C3B2BDF80000C1B2284672DF96
:10A5B000E8E780F82410704770B50D00044653D0CA
:10A5C000F4B3012020700026E670202205F1780106
:10A5D000201DFFF703F884F82460D5F89800C4F82C
:10A5E000CC00D5F89C00C4F8D0004FF6FF70A4F85A
:10A5F000C800C4F82560A4F8296084F82B6004F131
:10A6000030003C210646FFF702F8287884F8300035
:10A61000A87884F83200E87884F83300687884F801
:10A620003100D5E90401C4E91001D5E90201C4E90A
:10A630000E01D5E90601C4E9120195F82D0000E0EC
:10A6400012E084F85D00686AD8B104F1780104F181
:10A650006C0061676065696A09880180686A616D7C
:10A6600080888880002008E00E2070BD696A22186A
:10A670008968095C82F87810401C616D8988814284
:10A68000F4D8A86AE8B104F1A400C4F8A0000C381A
:10A69000A065A96A89888180A86AA16D0088088060
:10A6A000002006E0A96A22188968095C82F8A410D3
:10A6B000401CA16D89888142F4D895F82C0084F85B
:10A6C0005C00286A48B104F1C4002065296A498801
:10A6D0004180286A216D00880880686800B1606345
:10A6E00005F13C013046BDE87040FFF72EBF10B5C4
:10A6F0000288102A1AD0112A1FD01B2A1CD1007AD6
:10A700000C46002818D1E0780521401CB0FBF1F27E
:10A7100001FB1201204600F037F800280CD0D4F8D5
:10A72000D010002908D0BDE810400847C27B012A9C
:10A7300002D18088A1F8C80010BD0C46002184F821
:10A74000D4108088B4F8C8108842F5D12079002848
:10A75000F2D10121DEE710B50C46022801D0032812
:10A7600011D1607800280ED000206070E17820467A
:10A7700000F00AF8002806D0D4F8D010002902D042
:10A78000BDE81040084710BD2DE9FF47044600789A
:10A790000F4638B1E770002003F088FF012628B18A
:10A7A0006670D2E0082004B0BDE8F0870025C4F848
:10A7B0002550A4F8295084F82B50A07910B1E078E6
:10A7C000012806D0E07970B1E078012801D0022894
:10A7D00009D1D4F8CC1021B184F82C600820884726
:10A7E00001E084F82C5004F1260100200A5C0AB133
:10A7F000304603E0401C0628F8D300204FF0020842
:10A800004FF0030A4FF00409012F06D0022F09D0A0
:10A81000032F0CD0042F12D10DE0A17911B108B192
:10A8200030460DE0E17911B108B1404608E0207AE8
:10A8300008B1504604E0607A08B1484600E0284676
:10A84000E070D4F8CC1041B1032801D0042804D121
:10A85000607910B194F8D400A8B184F8D55000956F
:10A860000295019503958DF800508DF80850E17818
:10A8700004F1250004F13002052958D2DFE801F087
:10A88000670A131F3B0084F8D65084F8D560072070
:10A890008847E4E7A67001908DF80060ADF80C5091
:10A8A000ADF80A5043E084F8028001908DF8006012
:10A8B000208AADF80C00A089ADF80A0037E0A08A24
:10A8C000ADF80A00208BADF80C00607980B194F8E7
:10A8D000D40068B994F8D60050B18DF8088084F897
:10A8E000339000211046FFF730FE00BB05211AE02F
:10A8F00084F802A01BE0A08BADF80A00208CADF814
:10A900000C00607988B194F8D40070B994F8D6003E
:10A9100058B18DF8088084F8339000211046FFF775
:10A9200014FE20B90621A17001E084F80290E078BD
:10A9300030B194F82410684673DF00287FF433AFF9
:10A94000D4F8CC1009B1A078884700202BE7A57077
:10A95000F6E7000070B5104C104D236803EB83023E
:10A960005B1C03F00703236005EB8202838C538199
:10A970000223D381141D14610024948101241472D4
:10A980000C7814714978517100891080937007F028
:10A99000F9F9002070BD0000EC1E0020C028002046
:10A9A000B0F844100089002200F094BFB0F85410B1
:10A9B0000089002200F08EBF0389A3F57F41FF3993
:10A9C00005D0B0F844100122184600F083BF0820DB
:10A9D00070470389A3F57F41FF3905D0B0F85410C3
:10A9E0000122184600F076BF0820704770B50E4669
:10A9F000040015462CD0104602F092FC50B326817C
:10AA000025B305F1080104F11C0000F0BFFF05F1BA
:10AA1000120104F1260000F0B9FF05F11C0104F158
:10AA2000300000F0B3FF05F1260104F13A0000F018
:10AA3000ADFF4420298E015305F1360104F14A008F
:10AA400000F0A4FFB5F84000A4F85400002070BD49
:10AA50000E2070BD072070BD70B50D46040041D0BA
:10AA6000EDB32868D8B35C212046FEF7D0FD1E4820
:10AA70000021016041604FF6FF702081286820604E
:10AA800068686060A868E060E86820610120A075DF
:10AA900041F61101A18284F83C0042F6462161870B
:10AAA000A077891EA18384F84C00491CA4F84A10A1
:10AAB00084F82800891CE18484F83200491C21862E
:10AAC00084F8480042F60211A4F8461084F85800B1
:10AAD000A4F8561004F11400BDE8704000E001E055
:10AAE00000F0CAB90E2070BDC028002008B50422AD
:10AAF0008DF800208DF801106946FFF72BFF08BD87
:10AB00000A4B10B51A680A4C02EB8201521C02F083
:10AB1000070204EB81011A60C28D8A8000890880D7
:10AB20000120887007F02EF9002010BDEC1E0020D7
:10AB3000C028002010B50A46014610460A8894B085
:10AB4000112A3ED0362A0DD0382A06D0392A2CD1E7
:10AB500014B0BDE8104001F0EFB914B0BDE81040EA
:10AB600007F010B904228DF80020CA890A31D2B149
:10AB70000A88C38D9A4205D190F828208DF80620C6
:10AB8000C28C07E0038F9A420DD190F832208DF8E5
:10AB90000620028EADF80420CA88ADF80820898806
:10ABA000012904D009E007F0EDF814B010BD9DF8BC
:10ABB000091021F003018DF80910016868468847E3
:10ABC000F1E70446008989888842EED14FF6FF708C
:10ABD0002081462104F11400FEF719FD02208DF8B2
:10ABE0000000216868468847DFE7F0B595B00C465D
:10ABF000074650216846FEF70AFD6088ADF802005E
:10AC000001208DF80000207870BBA088A0F5C0510D
:10AC100011393AD1A079012837D100252BE005EB75
:10AC2000C50004EB400636F80E0FA0F52850443856
:10AC300005281ED2DFE800F003060F2E190031466A
:10AC400004A814E031460DF13E0000F09FFE70892B
:10AC5000ADF848000DE031460DF12E0000F096FEF3
:10AC60007089ADF8380004E00FE0314609A800F023
:10AC70008DFE6D1CEDB2207AA842D0D802A802F059
:10AC80004FFB10B100208DF80000396868468847F6
:10AC900015B0F0BD31460DF11A00E8E708B5052200
:10ACA0008DF800208DF801106946FFF753FE08BDAE
:10ACB0000A4B10B51A680A4C02EB8201521C02F0D2
:10ACC000070204EB81011A60028F8A8000890880E4
:10ACD0000120887007F056F8002010BDEC1E0020FF
:10ACE000C028002070B5040012D001461C22144870
:10ACF000FEF774FC1248134D0560206850B17ADFEE
:10AD0000002806D12068016829604068686005E075
:10AD10000E2070BD0B487BDF0028FAD108484FF6A3
:10AD2000FF711438084A20F8041B054934390160C2
:10AD30000021FFF7C9F90028EBD0032070BD000007
:10AD400078220020781E0020D520020002494A6C9B
:10AD5000091D06F00FBA00009422002002460248A6
:10AD6000016D001D06F0F3B994220020024602484E
:10AD7000416D001D06F0EBB99422002070B5084E1D
:10AD8000054600242A46301D716C06F0E0F928B112
:10AD90002A46301DF16C06F0DAF90124204670BD18
:10ADA0009422002070B50A4E054600242A46301D24
:10ADB000716C06F0CCF940B12A46301DB16C06F03A
:10ADC000C6F908B1022400E00124204670BD00004D
:10ADD0009422002010B50024204607F0AFF928B1D6
:10ADE000641CE4B2182CF7D3182010BD03480122CC
:10ADF000A240016811430160204610BD942200204A
:10AE000010B5044607F09AF9002803D0024800EB79
:10AE10008400806D10BD00009422002070B50546AE
:10AE20000C46084607F08AF9002809D005482A464A
:10AE300000EB8401001D896DBDE8704006F087B904
:10AE400070BD00009422002070B5064615460C46E1
:10AE5000084607F073F900280AD006482B4600EB95
:10AE600084013246BDE87040001D583106F0A7B994
:10AE700070BD00009422002070B540B10C4D2978BF
:10AE800039B1044606F05EF828B1002070BD0E20EE
:10AE900070BD082070BDE868062807D20549226801
:10AEA00001EB8001401C0A60E860EEE7042070BD01
:10AEB000801E00204C23002040B1054900220123C0
:10AEC000CA600B70C1E90102104670470E2070473E
:10AED000801E002070B504002DD000292BD0204802
:10AEE0000078002827D020880D46112815D030285A
:10AEF00004D0322807D033281ED109E0211D28466E
:10AF000004F07EFC18E0211D284604F03BFB13E012
:10AF1000211D284604F0C0FB0EE0A088B5F8CA1237
:10AF2000884209D1002085F8C70285F8C8024FF68B
:10AF3000FF70A5F8CA0270BD95F8C8020028FAD0C3
:10AF400020883028F7D34F28F5D8A088B5F8CA1242
:10AF50008842F0D12846BDE8704000F073BF000081
:10AF6000801E002048B1084A137843B1D26832B13C
:10AF700090F8C7222AB1112070470E207047082090
:10AF8000704700F05FBF0000801E00207CB50546C2
:10AF900008880C460930904201D90C207CBD6846D7
:10AFA0006DDF0028FAD121880820685420881B21F1
:10AFB000401C80B2208029542088401C80B2208010
:10AFC0002844DDF801100160BDF80510818020885B
:10AFD000801D80B220809DF80010490800D001211A
:10AFE00029542088401C208000207CBD38B5028870
:10AFF000254D0446212A36D00EDC24484FF00301AB
:10B00000102A008801EB00400ED0112A34D1BDE88F
:10B0100038401FA103F074BE3B2A2ED0562A2BD1F4
:10B020008088132176DF18E01DA103F069FE072058
:10B0300000F0CCFA08B1FFF73BF81348A18869800B
:10B04000001DFFF78FFF08B1FFF732F81748002205
:10B050004FF440410068FFF773F800280CD0BDE8BA
:10B060003840FFF725B800200090A08869468FDFA0
:10B07000002801D0FFF71CF838BD4FF6FF7068803C
:10B08000A088132176DFE8E7681B0020302000202D
:10B09000446973636F6E6E65637465642E000000AF
:10B0A000436F6E6E65637465642E00006026020057
:10B0B00010B51A4C0188606810290ED011292BD1C7
:10B0C000401E606028D1FEF70DFE002824D02168C4
:10B0D000002921D0BDE810400847D0B90021012245
:10B0E000084600F051FA08B107280FD107220221C3
:10B0F000012000F049FA08B1072807D104220221F3
:10B10000002000F041FA20B1072802D0216801B1E7
:10B1100088476068401C606010BD0000701E002001
:10B120002DE9F04701883B4E40F2F3194FF6FF75C9
:10B1300010291BD011293ED0122954D0502946D1B4
:10B14000C188F289841D914241D1618902293ED191
:10B150008688304602F036F8050038D004F10C003D
:10B1600000F0EAF8A8B3294630464EE0C17B878854
:10B17000044601292BD1A846284602F023F80500F1
:10B1800017D02F8000202872234843464A46016882
:10B19000C5F80A104068C5F80E0004F1100105F169
:10B1A0000A0002F075F86872F08900280FD129466C
:10B1B0002AE0042013E0808802F004F8040006D09E
:10B1C0006068FFF701F808B106F056F92580BDE880
:10B1D000F087FFE76868FEF7F7FF0028F7D0BDE8C3
:10B1E000F04706F049B987880646384601F0EAFF7D
:10B1F0000400ECD02B464A4606F1080104F10A008F
:10B2000002F046F8607221463846BDE8F04700F08B
:10B21000B1BC000078220020781E00202DE9F04704
:10B220000546038839480122A4B000F1480A102BD2
:10B2300009D0112B48D01A2B64D1297AB2EB111FF7
:10B2400047D2012346E0D0E911218A430446011D7B
:10B2500012A805F08FFF442212A901A8FEF7BEF93B
:10B26000DFF8A8900026374609F144090DF10408DB
:10B270000AE000BF08EB46001D2283884946201DD6
:10B28000009705F029FF761C0198B042F2D8606C57
:10B29000AD88C04305F042FFA0F57F41FF390DD0D6
:10B2A00004EB4000012385802A465146201D05F00D
:10B2B00086FF01232A464946201D1EE024B00420B3
:10B2C000BDE8F047FEF7F4BE0023AA885146001DF2
:10B2D00013E000230D490446AA885031001D05F0F3
:10B2E0006EFF287A0221B1EB101F01D2012300E08A
:10B2F00000230649AA885431201D24B0BDE8F04738
:10B3000005F05DBF24B0BDE8F08700009422002066
:10B3100010B504460748007800280AD0204601F0FE
:10B320007DFD204606F0ACF92046BDE8104001F056
:10B330003BBA10BDBC1E0020007800F00100704731
:10B340000149085C70470000682602000649095C54
:10B350004FF0A040D0F81005C84010F0010000D018
:10B36000012080F0010070476826020007490B5C4D
:10B370004FF0A041D1F804250120984020EA0203B3
:10B38000C1F808351040C1F80C057047642602006A
:10B390000249085C012103F0C6BA000064260200DD
:10B3A0000249085C002103F0BEBA000064260200D6
:10B3B0000649095C4FF0A040D0F80405C84010F0E1
:10B3C000010000D0012080F00100704764260200D7
:10B3D0007CB50024084E25460122305D00950023EF
:10B3E0001146019503F02BFA641C042CF4D3BDE83C
:10B3F0007C4000F003B800006426020010B5002471
:10B400002046FFF7C5FF641C042CF9D310BD10B50E
:10B4100000242046FFF7C4FF641C042CF9D310BDA0
:10B4200010B50246064B4FF0FF3000215C5C9442A1
:10B4300001D1084610BD491C0429F7D310BD0000F6
:10B440006826020070B50C4E0C004FF0000530600D
:10B450000BD0012000F06AF808B1022004E00020BF
:10B4600000F064F800B10B202070706810B9FEF78E
:10B4700039FC0546284670BD701E002010B500201E
:10B4800000F0D6F908B1062806D1012000F0D0F965
:10B4900008B1062800D1002010BD00002DE9F047BA
:10B4A0000D468146FFF7BCFF0446042836D2DFF87C
:10B4B00074801B481C4EA8F10C0725B3012D0ED03B
:10B4C000022D2BD104EB440030444578002D25D0CB
:10B4D000B968002922D02846BDE8F047084704EBA8
:10B4E0004401755C0E44717849B10E4A4FF4004135
:10B4F000093A8068FEF724FE08B987F80390B1780E
:10B5000008F80410E2E78068FEF75EFE04EB4401F1
:10B51000314418F804008D78A842D7D0BDE8F087F0
:10B520006C2602006C1E002018220020FFF70EBFC0
:10B5300013494FF6FF720E28098918D005DC04283C
:10B540000BD00A281BD106F087B80F2813D010287B
:10B5500015D1914213D0FEF7AFBC0A4813214088A1
:10B5600076DF08280BD0002809D0FEF7A1BD914254
:10B5700005D002F0E5BA914201D006F0E7BC704771
:10B5800080200020681B002070B50023042810D202
:10B590000D4D00EB4004012A02D101290CD00022FC
:10B5A000094E00EB4000304461B1012906D0022968
:10B5B00006D00723184670BD0E30C2B22A55F9E7EF
:10B5C0004270F7E78270F5E718220020044A01462E
:10B5D00000201279D20702D0084600F04DB870471B
:10B5E000601E002070B506461E480024C0E90161B7
:10B5F000B00720D50025012211462846FFF7C4FFD9
:10B600006D1C0446042D02D2002CF4D013E094B932
:10B6100040F2666204211448FEF7D6FC04000AD109
:10B62000FEF7C0FC040006D10F48104A0021001F9D
:10B63000FEF74AFD0446F00701D0FFF7C9FE74B9D2
:10B6400009480B4A00210C38FEF73EFD040006D1E4
:10B650000548084A01210838FEF736FD0446204611
:10B6600070BD0000601E002078260200CDB80100E9
:10B6700099D30100B19E01002DE9F05F6A4C0546A7
:10B6800000266078B34618B184F801B001F06CFE72
:10B69000664F4FF47A694FF4C87A4FF00108182DBD
:10B6A00062D2DFE805F0AC0C0C31404D62676B7480
:10B6B0006B74BE7D7D7D7D7DACAFB2B5BEBE00201E
:10B6C000FFF776FE00284FF0000008D0FFF760FE7D
:10B6D000022D02D14FF4E16008E0484606E0FFF792
:10B6E0005FFE022D01D1C82000E05046410CC0038E
:10B6F0004FF4FA72801841F10001257052000023C6
:10B70000FDF736FF01462AE00020FFF751FE002832
:10B710004FF0000004D0FFF73BFE4FF44870E5E720
:10B72000FFF73EFEDFE70020FFF742FE00284FF064
:10B73000000002D0FFF72CFECFE7FFF731FED4E781
:10B740000020FFF735FE00284FF0000002D0FFF781
:10B750001FFE01E0FFF724FE257041F69A1100223A
:10B760003868FEF7EDFC064646E00020FFF7FEFDD8
:10B77000257008E0002051E025703DE084F801804C
:10B780000120FFF7F3FD002240F6CD41E8E784F801
:10B7900001800120FFF7EAFD00224FF48041DFE73E
:10B7A0007868FEF711FD0646D5F1110000D02EB1E4
:10B7B0000220FFF7EDFD84F802B01DE0012816D944
:10B7C00080B2C8214843C117C90341EA5041C003B0
:10B7D0004FF4FA72801841F1000152000023FDF786
:10B7E000C7FE014600227868FEF7AAFC0646022042
:10B7F000FFF7D6FD84F802803046BDE8F09F01F0E7
:10B80000B3FDB9E701F0B0FDB4E701F0ADFD04E030
:10B8100001F0AAFD0020FFF7C3FD0120FFF7C0FDE6
:10B82000AAE7FFF7F4FDA7E7601E00206C260200E0
:10B8300010B5FFF785FD032103F053F8002010BD7C
:10B84000F8B5861C00208DF800000C4601276846DC
:10B85000FEF7CAFC0F4801682160D0E90012891A7E
:10B8600082680446511AB51C07E000BF01F05AFF78
:10B87000D4E90001401AA168091A491C8D42F5D883
:10B880002068304420609DF80000FEF7D1FC384667
:10B89000F8BD0000C02D002030B482680468531C3D
:10B8A0008360A154D0E901128A4202D330BC02F075
:10B8B000D4BD30BC70470000034803C8814201D1A9
:10B8C0000120704700207047C02D00200078022121
:10B8D000FFF7E4BD70B50E4D0E4E2C6804EB8403EB
:10B8E000641C04F0070406EB83032C6059810221D9
:10B8F000D9811C1D1C6100249C8101241C721A71B9
:10B90000120A5A711880997006F03CFA002070BD36
:10B91000EC1E0020C028002005494FF0FF32082807
:10B9200041F8202002D3084480F8482070470000E6
:10B9300074290020F0B54FF0FF3512B1002308261E
:10B9400001E008230C260C4C05E000BF54F82370DE
:10B950007F1C04D05B1CB342F8D32846F0BD2618E8
:10B960005DB286F8305044F82310002AF5D1E11872
:10B9700081F84800F1E700007429002002490844DA
:10B9800090F9300070470000742900200A680260B6
:10B990004A68426009890181704708B5024690F8FB
:10B9A000C6020B4600EB8001C1EB801002EB4000A9
:10B9B00092F8C52242B1521ED2B202EBC20100EB94
:10B9C0004102518A491C00E0C188ADF8001000898D
:10B9D000ADF802006946184696DF08BD70B504460A
:10B9E0004FF6FF750A462846AC4208D14FF48074E2
:10B9F0002146104604F0AEFEA04209D070BDFF2CD7
:10BA0000FCD82146104604F098FE08B1204670BDCF
:10BA1000284670BD70B5084C050009D01034216867
:10BA2000002907D008682060496828468847F6E75B
:10BA30000834F4E770BD0000602900202DE9F05FB4
:10BA400026484168F1B3DFF898B00E688146DBF80C
:10BA5000004087688078E11B21F07F45ED1CB0B97C
:10BA6000DFF880804FF48030C8F84403C8F804033E
:10BA70001120FDF703FF1120FDF70BFF4FF0010A26
:10BA8000C8F800A02F2002F04BFA89F802A0B542B6
:10BA900000D23546124BE8193C3320F07F40186045
:10BAA000DBF800105A46091B21F07F41001B20F0F3
:10BAB0007F40C91C81420FD9106818602F2002F006
:10BAC0002FFA00E004E0BDE8F05F1120FDF7ECBEC6
:10BAD000BDE8F05F05F05CBABDE8F09F081F0020EC
:10BAE00004150140001001402DE9F0411788064679
:10BAF000B81D14460D46984202D90C20BDE8F081CD
:10BB00003188072206290AD34FF4486C4FF6FF7399
:10BB1000614501D9994202D17088062801D21046A8
:10BB2000ECE7604501D99842F9D1994203D0984297
:10BB300001D08142F3D80520E85520881221401C0D
:10BB400080B2208029542088401C80B22080411976
:10BB5000308806F0E5F92188084480B22080411938
:10BB6000708806F0DDF92188084420800020C5E7B0
:10BB7000FEF79EBA38B54A7A0F4B62B100220A72BC
:10BB80005969002906D001228DF80020ADF8020085
:10BB90006846884738BD0A7A62B19B684C6802469D
:10BBA00019462046FEF7CCFA0028F3D0BDE838400D
:10BBB00005F062BC5B68F1E778220020F0B585B043
:10BBC00016460F4604461D4614220B496846FDF7EB
:10BBD00005FD0A488DF80870ADF80240ADF80A601E
:10BBE0008DF80C50017800222046FFF72DF96846A9
:10BBF00000F0AAFA05B0F0BDF8270200CC1E002024
:10BC000001460148FEF7F1BF802000207FB50C46B9
:10BC100010B1012004B070BD2079002638B141F682
:10BC20001D5501281BD0022826D00F20F2E7022044
:10BC3000207102960396E0680190694601A805F01C
:10BC4000E7F850B102988188E18000882081BDF832
:10BC50000010029805F05AF9DCE70A20DAE70A4BEF
:10BC60006A460021A01D05F08FF838B10649183941
:10BC70008E61CE610A28CDD12846CBE70248818863
:10BC8000019805F043F9F5E7341F00202DE9F8434A
:10BC9000054690F8C6020F4600EB8001C1EB80100C
:10BCA00005EB400695F8C542914604EBC40006EB4F
:10BCB00040013279601C0A31904226D16B46002245
:10BCC000284601F007FB18B310E0401EA04201D146
:10BCD000002004E004EBC40006EB40001C3080466A
:10BCE00002466B46284601F0F5FA30B10020387064
:10BCF0006946484697DFBDE8F88395F8C502414696
:10BD0000401C641C85F8C502E4B23079A042DCD83E
:10BD1000012038700020EEE72DE9F04100260125D2
:10BD2000144C22E06068226900EBC607387805FAF7
:10BD300000F1114217D08A43226102F03BFA024619
:10BD40003878E36805FA00F1194002FA00F39942E5
:10BD500009D17978012901D0012100E00021514069
:10BD60007A6802B19047761CF6B220788642D9D321
:10BD7000BDE8F081F41E00202DE9F047894690F8D7
:10BD8000C612904601EB8102C2EB811100EB410724
:10BD9000384605F0D7F806002FD0194CA0680628C1
:10BDA0002BD2184D762205EBC0103946A0F8028040
:10BDB000001DFDF713FC0027B9F1000F04D0A068A7
:10BDC00005EBC010077004E0A168022005EBC1116B
:10BDD0000870A06805EBC011401CCE67A060E16848
:10BDE00088420AD1002604E005EBC610C16F8847DF
:10BDF000761CE0688642F7D3A760BDE8F0870000B4
:10BE0000801E00206423002070B50E4690F8C612F4
:10BE1000154601EB8102C2EB8111A0B000EB41009D
:10BE200005F090F8040009D07C2205496846FDF72A
:10BE3000D5FBADF8025068460196A04720B070BD12
:10BE40009826020070B50E4604464FF43371FDF794
:10BE5000DEFB11480025A4F8CA62856084F8C95247
:10BE60000E4884F8C65284F8C55200682060224605
:10BE70000121304694DF0121112806D0002809D184
:10BE800084F8C71284F8C85203E084F8C71284F813
:10BE9000C812002070BD0000801E00204C2300202E
:10BEA0000E4910B50A784C780023A24212D0521CD9
:10BEB000D2B20A70022A00D10B70084A0B780C32F9
:10BEC00052F8232002608868104420F07F40886088
:10BED000012010BD0360002010BD0000081F0020DD
:10BEE00013460A460021FFF769BE00002DE9F8431A
:10BEF000104D0F4680461E4691466946286801F05F
:10BF0000E0FE040014D01C21FDF781FB012020710C
:10BF1000C4F81490380BC4F80080C4E90260694684
:10BF2000286801F0EFFE04F0CBFE0020BDE8F883A6
:10BF30000420FBE75828020010B594B00446032003
:10BF40008DF80000C8890A3102282BD30A88B4F87A
:10BF50004230801E9A4205D194F83C208DF806208C
:10BF6000628F09E0B4F852309A421BD194F84C2009
:10BF70008DF80620B4F84A20ADF804208A798DF8AF
:10BF80000820CA798DF80920E268824200D2104662
:10BF90000390206904900831039AFDF71FFB216884
:10BFA0006846884714B010BD10B503780022072BEF
:10BFB00006D2DFE803F005040610202930000A70DD
:10BFC00010BD01230B7003898B818388CB81C068EE
:10BFD00088600A7410BD02220A7002898A818288F0
:10BFE000CA81C2688A60807D062802D00020087459
:10BFF00010BD0120FBE703220A70C2888A810289F2
:10C00000CA81C068886010BD04230B70C088888115
:10C01000CA818A6010BD0520087010BD70B5064D3C
:10C020000646002455F8241009B130468847641CA0
:10C03000042CF7D370BD00002C2B002030B5044633
:10C04000006885B00D46806800281CD01421684621
:10C05000FDF7DDFA0195A0680490207910B1012860
:10C060000DD104E001208DF80000206904E00220D9
:10C070008DF80000E068000302906069039020687A
:10C0800081686846884705B030BD70B586B01546F2
:10C090000C00064619D0112C17D0082C15D01421ED
:10C0A0006846FDF7B4FAADF80260304600F0DCFFF8
:10C0B000ADF804000D2C0AD0862C1CD007208DF87A
:10C0C00000000294684600F04DF806B070BD0320F1
:10C0D0008DF8000025B12878C00701D0012000E0CC
:10C0E00002208DF8080000208DF80C0041F20110AC
:10C0F000ADF80A00E6E706208DF80000E2E7000050
:10C1000010B50446408800F0AFFFA08002480168E7
:10C110002046BDE810400847981E00202DE9F04158
:10C1200007460024064E074D05E000BF56F82410D0
:10C1300038468847641CE8788442F7DBBDE8F08124
:10C1400074280020BC1E002010B50446408800F072
:10C150008BFFA080024801682046BDE810400847D8
:10C16000CC27020001490968084700002028020086
:10C1700070B586B0044614216846FDF748FAA089D8
:10C180000026A0F54040ADF8040020782D4D06288B
:10C1900035D2DFE800F0340303032E4EA08900F00F
:10C1A000C9F9012130B9E08943F6FE72A0F540409B
:10C1B000904224D8A07B8DF808002078032810D066
:10C1C0005FF000008DF80900A0680390606850B12E
:10C1D00009208DF8000060680490684603F042FE74
:10C1E0000DE00120EEE708208DF800008DF810101A
:10C1F000F3E7A08900F09EF908B1E08938B16878CA
:10C20000002802D06E7003F05DFF06B070BD60685C
:10C2100038B10B208DF800006E70AE7003F052FF45
:10C22000DBE70A208DF80000BDF8040003F0DAFF18
:10C23000F2E713208DF800004FF6FF70ADF8040010
:10C24000CBE70000A81E002038B504460E48007851
:10C25000A8B1A4F57F40FF380FD0684604F06AFC0F
:10C2600078B10521017001210171C480684604F094
:10C270006FFC04F015FD002038BD042038BD0220FD
:10C2800038BD082038BD00003C1F00200C4808B510
:10C29000007888B1684604F04DFC78B10621017041
:10C2A000684604F055FC0748017809B10121017383
:10C2B00004F0F6FC002008BD022008BD082008BDDF
:10C2C0003C1F0020F02B0020F0B589B014216846F7
:10C2D000FDF79DF92D4C207818B16846FFF79EFEBA
:10C2E00052E0201D012105AAFCF7A0FFC8BB4FF0BA
:10C2F000102040694FF080510969421C02D101EBC6
:10C3000041000001224900220861A0F54050C860A8
:10C3100020491F4802F0C1F9002820D11F481C23E2
:10C320008C221D49006801F0B9FC03F04FFB0500A9
:10C3300014D0022D12D000270126062D12D006A8F7
:10C3400004F0F8FB88B106700C2D18D2DFE805F078
:10C35000170F170F17161716171113110B2009B007
:10C36000F0BD11E026706760B7E70820F7E70771B6
:10C3700005E0032100E00221017100E0067106A83A
:10C3800004F0E6FB04F08CFC0020E8E73C1F0020F2
:10C39000BC1F0020682802003C2B0020302802002F
:10C3A00038B5040014D0694604F032FDA0B1BDF8E0
:10C3B000000000EB8001094800EB8100C16849B131
:10C3C000A17A39B1C168491EC1600020A07238BD90
:10C3D000052038BD062038BD0A2038BDC82B0020F6
:10C3E0001FB501A9684604F0CFFC04B010BD07B525
:10C3F00013460A466946002004F0C6FC0EBD07B588
:10C4000013460A460021684604F0BEFC0EBD20B16A
:10C4100019B10068086000207047052070470000CF
:10C420007CB50D46040019D0C5B1694604F0F0FC96
:10C43000B0B1BDF800000B4900EB800001EB8000BB
:10C44000012101AA0C306668FCF717FF2E606068B6
:10C450000C3068600120A07200207CBD05207CBDEE
:10C460000A207CBDC82B002018B10323002205F050
:10C47000CFBF052070470223002205F0C9BF12B1CB
:10C48000022305F0C5BF052070470000094908B523
:10C490000A69042A0BD0084A096942F821000548B4
:10C4A000012110306A46FCF7E8FE002008BD0C2090
:10C4B00008BD00001C1F00202C2B002038B50446AE
:10C4C00009480D46007858B164B16946284606F01F
:10C4D00099F8002803D1BDF800102180658038BD8F
:10C4E000022038BD052038BD3C1F002010B5044691
:10C4F0000E48007898B1A4B12188022913D80C4ABB
:10C5000001EB810002EB800260885289C31C9342D8
:10C5100009D806F06BF800202080608010BD022052
:10C5200010BD052010BD042010BD00003C1F0020E0
:10C53000C82B002043F6FE71A0F54040884201D888
:10C54000012070470020704710B504460078182875
:10C5500002D1FEF73FFC207010BD10B504460078F4
:10C56000182802D1FEF736FC207010BD70B51346B6
:10C57000002206461546862902D0112902D002E083
:10C58000012200E001250D4C73B1A179FEF75CFC9E
:10C590002A4661793046FEF757FC0022A1783046E2
:10C5A000FEF752FC002203E0A178FEF74DFC2A467C
:10C5B00061783046BDE87040FEF746BCD41E0020CE
:10C5C000406804F0CDBA000070B508B1012070BD1C
:10C5D000194C0025207B08B1257301E000F0A0F87C
:10C5E0002078082826D2DFE800F02504080C102562
:10C5F0001420BDE8704000F021B8BDE8704000F0A4
:10C600007DB8BDE8704000F05FB8BDE8704000F054
:10C610003BB86088084900EB8000283901EB8000B6
:10C620004068BDE8704003F0B1B96560BDE8704096
:10C6300003F0BAB90F2070BDF02B00201149F0B4FF
:10C640008A1C00200346A1F128050C18A67A4EB1D9
:10C65000A37200EB800405EB8404E66816B9247C21
:10C66000012C0AD0401C80B20228EED30B704B8004
:10C670004B60F0BC41F61D5070471080F0BC00F0DC
:10C680003DB80000F02B00200C48418801EB8102EE
:10C69000A0F1280101EB8201CA6852B105210170A5
:10C6A000074802218180016800230122054801F02A
:10C6B000CDBF042202704968F6E70000F02B00208D
:10C6C000441F0020BC1F002038B50A490848032435
:10C6D0000B684268898803EB810153880470DB1C76
:10C6E00000201B0400909B0B034802F075F838BD36
:10C6F000F02B0020441F0020BC1F0020074910B56C
:10C700004888091D04F0D4FB18B1BDE81040FFF7BC
:10C71000DBBFBDE81040FFF7B7BF0000F02B0020E3
:10C72000F0B51F481F490125067802248B88A0F127
:10C730002802082E19D2DFE806F00418181B222F51
:10C740002F170189491C01810021418080F80C10BC
:10C7500001EB810312F8233043B100234418491C34
:10C7600089B2A3720229F3D30570F0BD0123F5E766
:10C7700042685288D21C1A448A800470F0BD4688F0
:10C780000D6806EB860602EB860256680E60556061
:10C7900013818C80062100E007210170F0BD0000AC
:10C7A000F02B0020441F002030B501888588224CE2
:10C7B00085B0502924D0522902D0542932D103E027
:10C7C000284600F059FF2DE014221C496846FCF76A
:10C7D00005FFADF80250284600F046FCADF8040015
:10C7E00000F034F9002261792846FEF72DFB002283
:10C7F00021792846FEF728FB6846FFF781FC11E007
:10C80000017B01290ED1817A01290BD10089A0F584
:10C810002451023906D10121284600F061FFA07899
:10C8200003F078FDE07803F075FD207905B0BDE8F0
:10C83000304003F06FBD0000901E00205027020022
:10C8400010B50446007800280FD1608800F014FF6E
:10C85000608800F0A3F9002807D00449608801220D
:10C860000979BDE81040FEF7EFBA10BD901E002018
:10C8700010B5124C00202070FEF7ACFAA070FEF745
:10C88000A9FAE070FEF7A6FA2071FEF7A3FA60712C
:10C89000A17818290FD0E17818290CD0217918290E
:10C8A00009D0182807D00121601C03F03FFF0120A8
:10C8B0002070002010BD032010BD0000901E00203D
:10C8C0002DE9F04192B000F0D9F86846FEF73EFA43
:10C8D00000246E460D4D4FF6FF780DE006EB440741
:10C8E000B88800F0C1FB404504D1B88801222979FD
:10C8F000FEF7AAFA641CA4B20098A042EED82879E8
:10C9000003F008FD12B0BDE8F0810000901E002089
:10C910007CB5044600781C4D08282FD1607A38BBBE
:10C92000207A4FF6FF7601280DD0072802D008287C
:10C9300024D11EE0A08800F0D5FAB0421ED001211B
:10C9400000F0CEFE1AE0A0886A46012103F082F9C9
:10C9500070B90198007858B1A08800F0C3FAB042CD
:10C960000CD001222979FEF76FFA287903F0D2FC66
:10C9700004E005480021401C03F013FFA878BDE83F
:10C980007C4003F0C7BC0000901E002010B5044698
:10C990000A4841782046FEF741FA68B1084800216C
:10C9A00001EB410200EB82025288A24201D1C8B2DF
:10C9B00010BD491C1429F3D3FF2010BDA21E002076
:10C9C0006426002070B5094D094E002404EB440094
:10C9D00005EB800071784088FEF720FA20B1641CD6
:10C9E000142CF3D3FF2070BDE0B270BD642600208C
:10C9F000A21E00202DE9F041124E07460125BD4040
:10CA00003068FDF7E1FB00280DD10F4C206928426A
:10CA100007D1384601F0CEFB0028E06805D0284356
:10CA200004E0A8432061BDE8F081A843E0602069EC
:10CA300028432061A1683068BDE8F0410022FDF77D
:10CA40007FBB000028280200F41E00201CB5054A08
:10CA5000D2E90212CDE900120022694603F01FF963
:10CA60001CBD00006827020003484FF6FF7181805B
:10CA700001210170002070479C1E002010B54FF668
:10CA8000FF7003F09FF803498880BDE8104004F070
:10CA900037BD00009C1E00202DE9FC41804600F0BF
:10CAA000E3FA002403250127A0F57F412646FF393C
:10CAB00008D06A46082103F0CDF818B90198841D02
:10CAC0008688056832462B4621464046A9DF042861
:10CAD00004D0082804D00B2808D002E0112000E080
:10CAE0000020002F00D10B20BDE8FC810027A80703
:10CAF00001D50125E6E73443F5D000242646032579
:10CB0000E0E72DE9FC41804600F0AEFA0646A0F5CC
:10CB10007F40FF380ED001252A466D1C0027ADB29C
:10CB20006B460821304603F0BFF8040006D0072CFE
:10CB300025D025E043F20200BDE8FC8101990323E2
:10CB40000A1D0B604046891DAADF040004D00C2C8E
:10CB500009D0052C09D009E032460821104603F01F
:10CB600039F904460CE0012700E000240821304692
:10CB700003F01CF900B10324002FCDD100E00C24F8
:10CB80002046D9E704488088A0F57F41FF3901D0CD
:10CB900004F0B6BC704700009C1E00200EB502A930
:10CBA000019100F061FA6A46012103F053F808B1DF
:10CBB00000200EBD019800780EBD00002DE9F04167
:10CBC00007464FF6FF760A48ABDF10B10320BDE8F9
:10CBD000F081074C43F20305A41E324661883846B3
:10CBE000A7DFA842F3D16088401C6080F5E7000011
:10CBF0009E1E00202DE9F0478188DFF8BC90054695
:10CC000002272C4E0324A1F52852A9F53470453A89
:10CC10002CD0521E4BD180460078012847D10D20E0
:10CC2000FEF7D4FC08B1FDF743FA88F800703088AD
:10CC300022A104EB004002F063F8297A308859F809
:10CC4000212004EB004023A102F05EF830886A7ACC
:10CC500004EB004027A102F057F830882A6904EB62
:10CC600000402CA1BDE8F04702F04EB88046407865
:10CC700001281CD10E20FEF7A9FC08B1FDF718FA17
:10CC800088F8017030882BA104EB004002F038F8DE
:10CC9000297A308859F8212004EB00400DA102F0D8
:10CCA00033F830886A7A04EB004028A1DAE7BDE85F
:10CCB000F087000030200020381E00204E657720CD
:10CCC000416C6572742073746174653A204F6E2EE6
:10CCD00000000000202043617465676F72793A207C
:10CCE0002020202020202020202020202020202044
:10CCF0002573000020204E756D626572206F6620DE
:10CD00006E657720616C657274733A202020202054
:10CD10002564000020205465787420537472696E75
:10CD20006720496E666F726D6174696F6E3A20207C
:10CD300025730000556E7265616420416C657274E4
:10CD40002073746174653A204F6E2E0020204E755A
:10CD50006D626572206F6620756E72656164206118
:10CD60006C657274733A202025640000428800EBE1
:10CD700082020C328A4201D9022070478188A1F5D3
:10CD80007F42FF3A03D0008808B10020704701209D
:10CD90007047884204D20068401C01D001207047CF
:10CDA000002070473EB5027802230C46B3EB520FC9
:10CDB00017D1B0F80110ADF80010C1788DF802104D
:10CDC0008188ADF8041080798DF8060002AA01A9C7
:10CDD0002046FCF7FBFF032202A96846FCF729FC6A
:10CDE00008B100203EBD01203EBD000010B50C463C
:10CDF000FFF7CCFDFF280CD0074900EB400001EB0A
:10CE00008000416821600189A180807AA0710020A2
:10CE100010BD052010BD00006426002070B50188FB
:10CE200092B0102959D1011D34226846FCF7D6FB77
:10CE30009DF804004FF6FF76032134466D46B1EBB2
:10CE4000500F2AD003F07CF89DF8040040080ED063
:10CE500001280CD0022820D118E00F99281D11318B
:10CE6000FCF71BFF18B100BFBDF8344015E00EAA57
:10CE70000DA9072003F038F80028EED10DE00F9936
:10CE8000281D491CFFF78EFF0028EDD10EAA0DA921
:10CE9000072003F029F80028F1D1BDF80000291D72
:10CEA00000F0A6FEB44218D0BDF80000214600F004
:10CEB000C5F8BDF80000ADF836000020ADF83840E8
:10CEC000074E8DF834000DAD044600BF56F824100F
:10CED00028468847641C022CF8D312B070BD0000AD
:10CEE0007C270200094A002101EB410332F823307C
:10CEF000834205D101EB410002EB8000408870477E
:10CF0000491C1429F0D34FF6FF70704764260020A7
:10CF10003EB50C46054603F013F80BE0BDF80000E3
:10CF2000A04207D02846029900F02EF810B1BDF8B3
:10CF300000003EBD01AA6946072002F0D5FF002887
:10CF4000ECD14FF6FF703EBD10B50D4C18200D4AC8
:10CF5000607000204FF6FF7100EB400302EB83038B
:10CF6000401C59801428F7D3FDF734FF607018284F
:10CF700003D001202070002010BD032010BD000050
:10CF8000A21E0020642600202DE9F0410C46054633
:10CF900000F1110701F111061022491C401CFCF799
:10CFA00048FB48B9681C00F0CEF928B1601C00F0BD
:10CFB000CAF908B1012400E0002431463846FCF7E4
:10CFC0006CFE3B780222B2EB530F0CD00321B1EB85
:10CFD000530F08D03378B2EB530F04D0B1EB530F9B
:10CFE00001D0012100E00021084201D18C4302D090
:10CFF0000120BDE8F0810020FBE7018811B942184B
:10D0000092780AB101207047491C0829F7D3002003
:10D01000704710B50C460346FFF7EFFF00280AD013
:10D0200018882188884205D10822A11C981CFCF789
:10D0300000FB08B1002010BD012010BD03F026B98F
:10D0400070B50446FFF74EFF0546204602F005FE88
:10D050004FF6FF7104468D4203D014B9284603F001
:10D0600015F9204670BD000010B5FFF78FFCFF28B2
:10D0700005D0044900EB400031F8200010BD4FF608
:10D08000FF7010BD642600203EB5044602F058FF34
:10D090000EE0019920464631FFF7BBFF28B9019900
:10D0A00020462A31FFF7B5FF10B1BDF808003EBD9C
:10D0B0006A4602A9072002F017FF0028E9D14FF6BF
:10D0C000FF703EBD38B504460A4801216A46FCF7A8
:10D0D0005FF968B90848606002F02AF905491C2325
:10D0E0008C22087404488C39001F006800F0D6FDBB
:10D0F000002038BD9C2C00205C2802002DE9F04166
:10D100002D4F002518B17D600120BDE8F081087920
:10D11000012258B1294E01280CD0274C4FF00208AB
:10D120000834022821D0032842D128E00A7102F0F5
:10D130003BFC3BE05FF0000000EB800116F82110A3
:10D14000022908D0401C80B20228F5D33A707D60D5
:10D1500041F61D50D9E700EB800006F8205006EBA1
:10D160008000406802F012FC20E00D71A4F80480F9
:10D17000002301221248216801F068FA16E00D71BF
:10D18000206802F003FC0D4923682831498801EB2F
:10D19000810206EB8201D1F804C0C4F800C04B60E4
:10D1A000A3880B81A4F8048006F822500028ACD094
:10D1B0007D600E20A9E700003C1F0020C82B002046
:10D1C000BC1F00200146034802888A4200D000208C
:10D1D00070470000642200202DE9FC5F0E008346AA
:10D1E000DDE90C47C6F1000098469246814600D41E
:10D1F0000846012503E000BF90FBFAF06D1C504586
:10D20000FADAA84500D9454624B1002E01DB78079B
:10D2100000D5641EB80702D5B8F1000F0AD0F80790
:10D2200008D13CB1A54205D220215846641EFEF724
:10D2300033FBF6E7002E02DA4E462D2102E0780796
:10D2400003D52B215846FEF727FB07F003000228E1
:10D250000BD1B8F1000F08D13CB1A54205D2302165
:10D260005846641EFEF718FBF6E7CDE90047434633
:10D2700052463146584604F0D3FEBDE8FC9F0000FC
:10D280000248007A002800D0012070479C2C002022
:10D29000F0B58488A518944200D82246A41AC28802
:10D2A000D6189A4200D81346D21A4B880788BB4238
:10D2B0000CD34088834209D88888A04206D3A8426C
:10D2C00004D8C888904201D3B04201D90020F0BDF3
:10D2D0000120F0BD10B509892AB1D088491C8142CE
:10D2E00018D1002010BD90F8C62202EB8204C4EBD6
:10D2F000821200EB420212899142F2D0491C19803D
:10D3000090F8C61201EB8102C2EB811100EB4100E3
:10D31000008902E01980D088401E5880012010BD8D
:10D32000018A71B1418B61B1818C51B1C18D41B123
:10D33000C18F31B1018E21B1B0F8400008B1012098
:10D340007047002070470021425C0AB101207047FD
:10D35000491C1029F8D300207047800701D0002015
:10D3600070470120704700000A4810B5807860B10E
:10D37000002401E0022C06D02046FEF709F8641CC8
:10D38000042CF7D310BD0324F6E7BDE81040FEF7E8
:10D3900035B80000601E002003480179C90702D09B
:10D3A0000078FEF769B97047601E00200649012029
:10D3B000086006480168C1F300410029FAD1044918
:10D3C00000208870704700000C00004018040040E6
:10D3D00060290020172101804180002101714171E5
:10D3E000704700002DE9FE4F2A4D984691460F00E8
:10D3F000824601D000260DE0684600F025FC6A4612
:10D400000021504602F095FB2878009E10B99DF847
:10D41000090098B14A463146504604F083FA044662
:10D42000014600225046FFF7A1F8112C1AD008DC63
:10D4300074B3082C2CD00D2C09D129E00520BDE8AF
:10D44000FE8F862C1AD0A4F54050023820D0032538
:10D45000B8F1000F04D0324621465046FEF715FEC3
:10D460002846ECE73A4629795046FDF7EDFC4A4656
:10D47000E9785046FDF7E8FC0025E9E73A462979C6
:10D480005046FDF7E1FC4A46E9785046FDF7DCFCE2
:10D490002546DDE7D41E00202DE9F041204F0E4641
:10D4A000154604463978FDF7B9FC002835D02046EA
:10D4B00002F01AFB50B32046FFF7D6FD8046204607
:10D4C000B978FDF7ABFC08B1012700E00227204640
:10D4D00002F0EEFD0028404602D0FFF7B1FD0DE05E
:10D4E000A8F57F41FF3909D0072102F05FFC010058
:10D4F00004D0052902D0204603F0DAFF2B4632463D
:10D5000039462046BDE8F041FEF758BB2A46314671
:10D510002046BDE8F041FEF7E3BCBDE8F081000025
:10D52000CC1E00202DE9F04391B08146FDF768FC48
:10D53000002820D06846FDF709FC00246E4617E05D
:10D5400006EB44054946A888FDF768FC78B10B4F07
:10D55000A888F978FDF762FC8046A8883979FDF73C
:10D560005DFC0146A88801234246FFF73BFF641C8F
:10D570000098A042E4D811B0BDE8F083D41E00208A
:10D580002DE9F047394E002780463D46DFF8E09010
:10D59000D6F804A057E003D00446D0F81C8035E04C
:10D5A00099F8002002EB4201521CD2B289F8002007
:10D5B00009EBC10199F80230091D9A4201D189F89D
:10D5C000005048680A780446012A12D0022A02D084
:10D5D000032A3BD108E004F047FB00B10127257482
:10D5E00034E00574C06900E070680028F9D170600B
:10D5F0002CE0207C50BB88686060C868A060086927
:10D60000E0604869A061F07800B165606268B16867
:10D61000184B501A20F07F40984202D2A16808446B
:10D6200006E0881AA16820F07F40814202D9081ADA
:10D63000206000E0256065600120A5602074204620
:10D64000E56104F0F3FAB8F10000A4D199F80010F4
:10D6500099F801008142A3D117B97168514502D0F0
:10D660000120BDE8F0870020FBE70000081F002034
:10D67000082A0020FFFF7F0030B585B00546002452
:10D6800014216846FBF7C3FFA5F57F40ADF80250B3
:10D69000FF3815D02846FFF7FFF998B10B2815D0B1
:10D6A000112811D0A0F54051023903D00146284677
:10D6B00003F0EAFE09482246C1782846FDF7C4FB7C
:10D6C00005B030BD0E2002E00124F3E70F208DF8F5
:10D6D00000006846FEF714FDECE70000901E0020F5
:10D6E0000A4602498978FDF7AFBB0000901E002072
:10D6F000F8B5054600780C46002620420FD10020E0
:10D700008DF800006846FCF76FFD2878204202D1B2
:10D710002043287001269DF80000FCF789FD304663
:10D72000F8BD000070B588B0214800F0F6FA204836
:10D73000001F064600F0F1FA1E4DD5E9014105E053
:10D74000C0F3891202EB9050641C044404EA010007
:10D7500005EB8000C0688207F2D000200DF10802BE
:10D7600004EA010305EB8303641CDB6842F8203004
:10D77000401C0228F4D3029800F00300012808D0CE
:10D7800002280AD10298032101EB905004EB900487
:10D7900003E00298C0F3831004443046002101AA3C
:10D7A000FBF79FFE002800D06C6008B070BD000041
:10D7B000D8310020C02D002088B0002001F012FBDD
:10D7C00008B1FCF775FC01F0A1F9FCF78FFC08B17A
:10D7D000FCF76EFC564A00215648FCF775FC08B170
:10D7E000FCF766FC54490320FDF7FCFE08B1FCF78A
:10D7F0005FFC69460020FDF725FE08B1FCF758FCE8
:10D800009DF8000002287DD05FF0000501F048FD82
:10D8100008B1FCF74DFC002469460120009401F09A
:10D820000FFC08B1FCF744FC684601F087FC08B126
:10D83000FCF73EFC9DF8080040A120F00F00401CC2
:10D8400020F0F00010308DF80800132202A87CDFD1
:10D8500008B1FCF72DFC4FF4C87000940194ADF8AA
:10D8600000004100ADF80440ADF80600ADF802102C
:10D8700068467ADF08B1FCF71BFC0021344800F051
:10D88000B3FA08B1FCF714FCFCF748FA3148FDF78D
:10D8900013FB08B1FCF70CFC2D481221E830FBF714
:10D8A000B6FE2D4800901220029029486946E830C3
:10D8B00003902A48019026485C38FDF7CDF808B15E
:10D8C000FCF7F6FB1C216846FBF7A1FE4FF4203065
:10D8D000CDE900404FF470200290012003268DF81E
:10D8E00010008DF80C601E48ADF80E40CDE90540E3
:10D8F0006846FDF7F7F908B1FCF7DAFB02F0D4FC53
:10D90000184800E012E0008817A106EB004001F083
:10D91000F7F92846FCF736FA01F006F90028FBD1A2
:10D920003EDF0028F8D0FCF7C3FBF5E701256DE7E3
:10D93000F51302006026020031B501004E6F7264DB
:10D9400069635F416C6572745F4E6F7469662E0027
:10D95000DC20002001BC0100E5F401001F9E010055
:10D9600071BB010030200020416C657274204E6F45
:10D9700074696669636174696F6E20636C69656E52
:10D9800074206578616D706C652073746172746564
:10D99000642E000070B5144682880E460546208825
:10D9A000111D0144921C994201D8FE2A01D90C2074
:10D9B00070BD521C32542088FF21401C80B2208050
:10D9C00031542088401C80B220808119288804F0BE
:10D9D000A7FA2188084480B22080AA8842B1A968A9
:10D9E00041B13044FBF7FAFD2088A9880844208023
:10D9F000002070BD072070BD2DE9F047C7880446A0
:10DA0000181D16468946B0FBF7F1B0FBF7F207FB8D
:10DA100012009A193A44D21CB2FBF7F2DDF820A0AA
:10DA200001E02468491E0029FBD13D1A8846B54211
:10DA300016D818E0BAF1000F05D0211809EB08003C
:10DA40002A46091D04E0204409EB08012A46001D6E
:10DA5000FBF7C4FD00202468761BA844B74201D917
:10DA6000354600E03D46002EE4D1BDE8F0870000D9
:10DA700030B5024669B101F0E3F90021084C0BE032
:10DA800001EB410304EB830315685B88AB4202D1D1
:10DA90001160002030BD491C8142F1D3052030BD0A
:10DAA000D01F0020F8B50E4601781446054601291E
:10DAB00001D1687830B12088821C9A422DD8012982
:10DAC00002D006E00720F8BD69780144891C99421C
:10DAD00023D8181A801E87B2ADF800702188B01CB8
:10DAE000084469467DDF0028EDD12878022805D159
:10DAF000BDF80010B94201D809210AE00821012827
:10DB000005D16878B84202D8ADF8000001E0ADF860
:10DB10000070BDF80000FE2801D90C20F8BD228855
:10DB2000401CB0542088401C80B220803154208892
:10DB3000401C2080BDF80010084420800020F8BD63
:10DB400070B51A4801221A4D01780326022916D011
:10DB500001291ED002701748FCF72EFF04462888C2
:10DB6000154906EB004000BF01F0CAF8002C1BD09D
:10DB7000082C19D02046BDE87040FCF799BA027015
:10DB80001120FDF723FD044628880CA106EB004078
:10DB9000EAE7002101700748FCF702FF04462888E5
:10DBA0000CA106EB0040DFE770BD0000681B002001
:10DBB0003020002080200020749E01004E657720D8
:10DBC000416C6572742053746174653A204F6666C7
:10DBD0002E0000004E657720416C657274205374EE
:10DBE0006174653A2044697361626C65642E00005B
:10DBF00070B505460C004FF0FF0020D04FF6FF76C1
:10DC0000B5421CD00E48012241782846FDF71CF988
:10DC10002846FEF7BBFEFF2803D1FEF7D3FEFF2800
:10DC20000DD0084B00EB400203EB82014D8023F83E
:10DC3000226022684A60A2880A81A2798A7270BD35
:10DC4000A21E002064260020034A00219268C0E939
:10DC50000021816070470000D41E002070B54FF68F
:10DC6000FF750E46A84201D1002000E0401C84B29E
:10DC700008E02146304602F088FD08B1204670BD1C
:10DC8000641CA4B2FF2CF4D9284670BD10B5FBF774
:10DC90005AFB08B1002010BD112010BD10B531B1E4
:10DCA000B2FBF3F403FB14241CB1092010BD0E20B9
:10DCB00010BD01600021416081608281C3810846FE
:10DCC00010BD70B50C460546FBF7F2FA002802D0ED
:10DCD00021882868084470BD10B50A8849888A429E
:10DCE00003D1FBF727FB012010BD002010BD70B54C
:10DCF0000C460546FBF701FB002802D06188286826
:10DD0000084470BD10B50A8849888A4203D1FBF7E0
:10DD1000EBFA012010BD002010BD08B501216A46B4
:10DD2000FBF7D2FB009808BD08B56A46FBF7A5FAD9
:10DD3000009808BD38B5044600258DF800506846A7
:10DD4000FCF752FA21686268086890420ED9401EBA
:10DD500008600178238AE26801FB0325227A2168A2
:10DD6000101AC0B20A79824200D208719DF80000F0
:10DD7000FCF75EFA284638BD38B5054600208DF818
:10DD800000000C466846FCF72FFAE868298A201A3A
:10DD9000B0FBF1F12A681068431C136001709DF814
:10DDA0000000FCF745FA38BD10B530B1017A426881
:10DDB0000368891AC9B21A6006E00E2010BD036814
:10DDC0001A68541C1C601170491EC9B2F7D2006851
:10DDD00000210171084610BDC20800F007030120B0
:10DDE000895C98400840704710B560B1C160172148
:10DDF00020F8021B20F8021B1B2100F8021BFFF772
:10DE0000E9FA002010BD0E2010BD00002DE9FC41F4
:10DE100082880C46002A51D101880126354F002501
:10DE2000102906D0112925D03A2927D055294BD1C0
:10DE300046E0C07B04F1060E012802D12088AEF82E
:10DE40000000BEF80010BEF8020081423CD9104626
:10DE50009EDF020008D0112A09D03888264906EB37
:10DE6000004000F051FF2FE08EF805602CE08EF8A6
:10DE700004602CE0A01DFFF7ADFA25E023464089A1
:10DE800034F8061F814200D808466080172800D267
:10DE900017206080D86878B1607968B11749D1E9F6
:10DEA0000001CDE90001ADF802206088ADF8040062
:10DEB000DA6869461846904765712571BDE8FC81AE
:10DEC0000146204601F060FCA07A0028F6D02846E2
:10DED000E1889EDF02000AD0112AEFD0388802B014
:10DEE00006EB0040BDE8F041034900F00DBFA5720C
:10DEF000E672E3E7DC1F00207C2B0200842702008F
:10DF000000F180400068002800D00120704708B56B
:10DF100000F18040002101600068009008BD000011
:10DF200000283ED01F49204A096800BF00BF00BF3B
:10DF300000BF00BF00BF00BF00BF91422FD000BF95
:10DF400000BF00BF00BF00BF00BF00BF00BF00BFD9
:10DF500000BF00BF00BF00BF00BF00BF00BF00BFC9
:10DF600000BF00BF00BF00BF00BF00BF00BF00BFB9
:10DF700000BF00BF00BF00BF00BF00BF00BF00BFA9
:10DF800000BF00BF00BF00BF00BF00BF00BF00BF99
:10DF900000BF00BF00BF00BF00BF00BF00BF01380F
:10DFA000C3D17047B81F00200024F40070B50F4C97
:10DFB0000025207808B1852516E00021A160616068
:10DFC0002161E1604FF0E020D0F80001012610F05F
:10DFD000010F03D10721002000F022F801F0A8F979
:10DFE00008B9034806602670284670BD60290020E5
:10DFF0001805004008B500208DF800006846FCF7C1
:10E00000F3F80648C168491EC160C06808B9FFF747
:10E01000CDF99DF80000FCF70BF908BD6029002040
:10E020004907090E002806DA00F00F0202F1E0228B
:10E0300082F8141D03E000F1E02282F8001400F0E1
:10E040001F02012191404009800000F1E020C0F84A
:10E050008012C0F8001170472DE9F041884605464E
:10E0600002F0C4F9234E002828461AD0FDF786FC9A
:10E07000304490F848008009032802D001280ED0CF
:10E0800007E04FF0A040D0F81005E84010F0010F75
:10E0900005D003212846BDE8F04100F033BC022141
:10E0A000F8E702F0AFF9002822D02846FDF766FC19
:10E0B00004464FF4807000EB84000F4F81B207EBF1
:10E0C0008400D0F8102542F00102C0F8102508465F
:10E0D00000F048FCB8F1000F0AD02846FDF74EFCCE
:10E0E00056F82000002803D00120A040C7F8040300
:10E0F000BDE8F08174290020006000402DE9FC415A
:10E10000DFF8A480044608EB0400002790F93000F3
:10E110001346C0170E46401C01D0082741E0F27894
:10E1200019462046FDF706FC0546401C38D0B0785D
:10E1300050B14FF0A04000EB8400D0F8001721F060
:10E140000201C0F8001707E0002173782046009113
:10E150000A46019100F085FBF078C0B11348317890
:10E1600000EB8500D0F81025114B1A40C0F810259F
:10E170004FF4F8524FF4403302EA042203EA01411B
:10E180000A43D0F810150A43C0F8102509E008EB3F
:10E190000500327810F8481F41EA8211017000E052
:10E1A00004273846BDE8FC81742900200060004047
:10E1B000FFE0FCFF4FF0A041D1F81015C14011F075
:10E1C000010000D00120704770B5144D95F854003F
:10E1D00008B1082070BD0020411E2A18401CC0B2A2
:10E1E00082F830102028F8D300242046FDF794FB55
:10E1F000641CE4B20C2CF8D307210620FFF710FFB3
:10E200004FF4BE7000F0AEFB05494FF00040C1F87E
:10E210000403012085F85400002070BD74290020FB
:10E2200000600040034890F85400002800D001200E
:10E2300070470000742900200121B1EB507F01D10B
:10E2400001207047002070472DE9F04105460F4638
:10E2500000791F49C0EBC00001EB80041646E07E48
:10E2600010B10820BDE8F08139462846FBF7FAFFD7
:10E27000666038692060F6B13E7F4FF48871286887
:10E2800001F0DBF84FF49071286801F0D6F84FF4F4
:10E290009271286801F0D1F84FF4A271286801F05A
:10E2A000CCF828680B49C0F8041328683146000BE5
:10E2B00040B2FFF7B5FE28680821C0F8001500201D
:10E2C000E0752076A0750121E176A076CAE700000E
:10E2D000CC290020100302002DE9F0470446007904
:10E2E000254FC0EBC00007EB800590460E46084660
:10E2F000FFF7A2FF30B1204600F040F820B1112016
:10E30000BDE8F0871020FBE785F816804FF0000885
:10E31000AE60A5F8148020794FF49079C0EBC0006E
:10E3200007EB800546464946206801F086F84FF421
:10E33000AC773946206801F080F82068A97DAA688A
:10E34000C0F84425C0F8481520680121816068683C
:10E3500080B9CA46B9465146206801F069F80746B7
:10E360004946206801F064F80743F4D000B10F2655
:10E3700085F816803046C3E7CC290020007905498E
:10E38000C0EBC00001EB8000807D002800D00120A0
:10E3900070470000CC2900202DE9F04102460079A9
:10E3A0002549C0EBC00001EB800710684FF0000862
:10E3B000C0F80085786880B110682049C0F808135B
:10E3C00010680121000B40B200F01F039940400982
:10E3D000800000F1E020C0F880111068D0F80C3502
:10E3E000D0F81465D0F80855D0F810454FF0FF313B
:10E3F000C0F80C15C0F814151068C0F80815C0F85E
:10E400001015581C02D0184600F04FFA701C02D0AC
:10E41000304600F04AFA601C02D0204600F045FA6F
:10E42000681C02D0284600F040FA87F81B80C7F825
:10E430000480BDE8F0810000CC2900201003020018
:10E440000FB408B50399002904D004AA00926A46C3
:10E4500000F00FF801B05DF814FB10B582680446B7
:10E46000002A05D0D4E90403216898470020A06061
:10E4700010BD2DE9FC4791460C00804676D014F87B
:10E48000011B39B125290ED04046FDF705FA207849
:10E490000028F4D198F80C00002867D04046BDE869
:10E4A000FC47FFF7DABF0020012221782B291BD07F
:10E4B0002D2902D0302908D102E040F0010001E00E
:10E4C00040F00200641C002AEFD100252A290ED05A
:10E4D0002178A1F130020A2A11D205EB850201EB65
:10E4E0004205641C303DF1E740F00400EAE7D9F84A
:10E4F00000100B1DC9F800300968641C0D44217818
:10E5000000232E290BD114F8011FA1F130020A2A91
:10E5100005D203EB830201EB4203303BF3E76C29A6
:10E520000DD068290BD0692921D00BDC252918D002
:10E53000582931D063290ED0642915D117E014F879
:10E54000011FECE7702969D0732932D075291BD0DF
:10E55000782909D120E0D9F80000011DC9F8001080
:10E5600001784046FDF798F9641C90E76CE0D9F813
:10E5700000100A1DC9F800200968CDE900500A22E0
:10E580004046FEF729FEEFE7D9F800100A1DC9F84A
:10E59000002009680A2206E0D9F800100A1DC9F80F
:10E5A000002009681022CDE90050404603F038FDF4
:10E5B000DAE7D9F8001000270A1DC9F800200E6814
:10E5C000C00705D112E04046761C7F1CFDF764F9B8
:10E5D00031780029F7D104E0202140466D1EFDF777
:10E5E0005BF9BD42C0D9002DF6D1BDE74EB1304632
:10E5F000FBF718F8074604E0202140466D1EFDF7A2
:10E600004BF9BD4206D9002DF6D103E04046761CF9
:10E61000FDF742F931780029F8D1A5E7D9F80000D3
:10E62000011DC9F80010056830214046FDF734F996
:10E6300078214046FDF730F908200021CDE900019E
:10E64000034610222946B0E7BDE8FC872DE9F041DA
:10E650001F46154604000E4616D02068B8B1C5B155
:10E6600060680268501E304215D16A432046FBF7AD
:10E670002DFB80B120683B462A46D0F810C03146B9
:10E680002046BDE8F04160470E20BDE8F08108203B
:10E69000FBE70920F9E71020F7E720B119B1016085
:10E6A0000B68114618470E20704700002DE9F04115
:10E6B00028B1016819B1C969BDE8F04108470D4D9D
:10E6C0000D480024461B14270DE000BF04EB840016
:10E6D00005EB8000016829B1C969884710B10120A4
:10E6E000BDE8F081641CB6FBF7F0A042EED8002034
:10E6F000F6E70000BC1F0020D01F002004480121C5
:10E700004174007A08B10020704701207047000072
:10E710009C2C0020012801D0032808D104490022A4
:10E7200001284A7400D00020087402F06DBA7047C6
:10E730009C2C002070B5254C0246207A012837D049
:10E74000022841D122480023022A006802D0032A6D
:10E750002ED11BE0E360017911B1012928D10DE030
:10E76000D0E90565711B4FF48056B14200D33146A4
:10E77000294481614569A9420ED019E00169491C0B
:10E7800001614269914213D1237217E0E168491C8B
:10E79000E16008290CD9E3602372022A0ED00D2112
:10E7A000FDF74CFC0B480A49091D0068FFF794FA75
:10E7B000607C28B1BDE8704000F0C0BD0021EFE7EB
:10E7C000BDE8704002F020BA70BD00009C2C002013
:10E7D0004C1F0020582802002DE9F8431D46089FD1
:10E7E0001646884604000DD066B1206860B135B188
:10E7F00060684068B5FBF0F100FB115030B10920B2
:10E80000BDE8F8830E20FBE70820F9E74046FBF758
:10E8100057FA90B13046FBF753FA70B12A46414699
:10E820002046FBF753FA40B1009720682B4632464A
:10E83000C76841462046B847E2E71020E0E770B5D8
:10E8400041EA4201DDE904564FF0A04441EA830168
:10E8500041EA052104EB800041EA0641C0F80017B7
:10E8600070BD70B541EA4201DDE904564FF0A044A5
:10E8700041EA830141EA052104EB800041EA0641B7
:10E88000C0F8001770BD70B541EA4201DDE90456D9
:10E890004FF0A04441EA830141EA052104EB8000E6
:10E8A00041EA0641C0F8001770BD1CB50021009177
:10E8B0000B4601220191FFF7E6FF1CBD1CB50022AB
:10E8C0000B46009211460192FFF7DDFF1CBD1CB5FF
:10E8D000002100910B46012201911146FFF7D3FF61
:10E8E0001CBD4FF0A04202EB8000D0F8002722F4BC
:10E8F0004032C0F80027D0F8002742EA0141C0F8B2
:10E90000001770474FF0A04202EB8000D0F80027BC
:10E9100022F44032C0F80027D0F8002742EA014133
:10E92000C0F80017704701224FF0A043824011B198
:10E93000C3F808257047C3F80C25704718B5084B75
:10E940006C4601441B68009306E000BF54F8203079
:10E95000D3F81035401C08C28142F7D818BD00001A
:10E9600024280200034908B508440021016000681A
:10E97000009008BD0060004002494058012800D0C6
:10E98000002070470060004030B5124B0146002067
:10E99000D3F81044224609E0157A854205D1401C7F
:10E9A0000A28F7DB4FF0FF3030BD5268002AF3D160
:10E9B000421CF9D00872D3F810242AB152684A6078
:10E9C000D3F81024516030BD0022C3F810144A60FF
:10E9D00030BD0000C02D0020F0B595B01C46154696
:10E9E0000F4608461A9E00F0FBFA182109A8FAF70C
:10E9F0000EFE0E96CDE909540023082203A93846DD
:10EA000000F008FB059806900498ADF81C00002063
:10EA10008DF820000398082600F00300012802D09A
:10EA200002281DD03CE003983346850AC0F3C2009B
:10EA30008DF81E0003980FA9C0F380008DF81F0009
:10EA40000398C0F38314A200384600F0E3FA09A843
:10EA5000009006AB22460FA9284600F01DFA1FE0E1
:10EA60000398840DC0F3C2008DF81E000398C0F314
:10EA700080008DF81F00082C01D2254600E00825F3
:10EA800033462A460FA9384600F0C4FA2E44641BC8
:10EA900009AB06AA29460FA800F04EF9002CEAD1CE
:10EAA000384600F0A6FA15B0F0BD7047012003F01B
:10EAB00093B9000010B50448FFF76EFCBDE81040A4
:10EAC000002003F089B90000581F002008B5034A50
:10EAD00000924023024AFFF77FFF08BDD9140200CD
