:020000040001F9
:10900000783200204D9501005595010057950100DB
:10901000599501005B9501005D950100000000007D
:109020000000000000000000000000005F9501004B
:109030006195010000000000639501006595010045
:10904000E198010067950100319C010067950100DE
:109050006795010000000000099701006795010075
:10906000679501006795010067950100679501000C
:1090700067950100679501006795010067950100FC
:109080006795010039990100679501006795010016
:109090005D990100679501006199010067950100E4
:1090A00067950100679501000000000000000000C6
:1090B00067950100679501000000000000000000B6
:1090C00000000000000000000000000000000000A0
:1090D0000000000000000000000000000000000090
:1090E0000000000000000000000000000000000080
:1090F0000000000000000000000000000000000070
:10910000000000000000000000000000000000005F
:10911000000000000000000000000000000000004F
:10912000000000000000000000000000000000003F
:10913000000000000000000000000000000000002F
:10914000000000000000000000000000000000001F
:10915000000000000000000000000000000000000F
:1091600000000000000000000000000000000000FF
:1091700000000000000000000000000000000000EF
:1091800000000000000000000000000000000000DF
:1091900000000000000000000000000000000000CF
:1091A00000000000000000000000000000000000BF
:1091B00000000000000000000000000000000000AF
:1091C000000000000000000000000000000000009F
:1091D000000000000000000000000000000000008F
:1091E000000000000000000000000000000000007F
:1091F000000000000000000000000000000000006F
:10920000DFF80CD000F042FA00480047ADCC010076
:109210007832002030B4044654E8000F0D4644E88C
:109220000053002BF8D1156030BC704730B40446B1
:1092300054E8000F40EA010544E80053002BF7D141
:10924000156030BC704730B4044654E8000F00EAA3
:10925000010544E80053002BF7D1156030BC70477E
:1092600030B4044654E8000F80EA010544E8005396
:10927000002BF7D1156030BC704730B4044654E879
:10928000000F00EB010544E80053002BF7D11560F7
:1092900030BC704730B4044654E8000FA0EB010521
:1092A00044E80053002BF7D1156030BC7047000034
:1092B00030B450E8012F93B2C48923448489A34277
:1092C00028BF1B1B0489A34202BFBFF32F8F0020BE
:1092D00007E0C3EA020340E80134002CE9D14FF073
:1092E00001000A6030BC704750E8012FC2EA024218
:1092F00040E801210029F7D1704730B450E8022F2F
:109300001FFAA2F3C488A34202BFBFF32F8F00202D
:109310000DE0C48923448489A34228BF1B1BC2EAF1
:10932000034340E80234002CE8D14FF001000A600A
:1093300030BC704750E8022FC2EA224240E80221C6
:109340000029F7D17047034653E8022FD988B2EBC2
:10935000324F4FF0000017BF92B241EA014142EA9A
:10936000014104E05A68B2EB324F08BF012043E8E4
:109370000212002AE8D1704730B4044654E8000FC6
:109380000D4644E80053002BF8D1156030BC7047FF
:1093900030B4044654E8000F40EA010544E80053A5
:1093A000002BF7D1156030BC704730B4044654E848
:1093B000000F00EA010544E80053002BF7D11560C7
:1093C00030BC704730B4044654E8000F80EA010511
:1093D00044E80053002BF7D1156030BC704730B41F
:1093E000044654E8000F00EB010544E80053002B4D
:1093F000F7D1156030BC704730B4044654E8000F14
:10940000A0EB010544E80053002BF7D1156030BCF8
:109410007047000030B4044654E8000F0D4644E89D
:109420000053002BF8D1156030BC704730B40446AF
:1094300054E8000F40EA010544E80053002BF7D13F
:10944000156030BC704730B4044654E8000F00EAA1
:10945000010544E80053002BF7D1156030BC70477C
:1094600030B4044654E8000F80EA010544E8005394
:10947000002BF7D1156030BC704730B4044654E877
:10948000000F00EB010544E80053002BF7D11560F5
:1094900030BC704730B4044654E8000FA0EB01051F
:1094A00044E80053002BF7D1156030BC7047000032
:1094B00030B4044654E8000F0D4644E80053002B36
:1094C000F8D1156030BC704730B4044654E8000F42
:1094D00040EA010544E80053002BF7D1156030BC89
:1094E000704730B4044654E8000F00EA010544E830
:1094F0000053002BF7D1156030BC704730B40446E0
:1095000054E8000F80EA010544E80053002BF7D12E
:10951000156030BC704730B4044654E8000F00EBCF
:10952000010544E80053002BF7D1156030BC7047AB
:1095300030B4044654E8000FA0EB010544E80053A2
:10954000002BF7D1156030BC7047000006488047FB
:1095500006480047FEE7FEE7FEE7FEE7FEE7FEE718
:10956000FEE7FEE7FEE7FEE76599010001920100D4
:109570002DE9F05F0546002092469B468846064648
:10958000814640241BE0284641464746224600F0DB
:109590006CF853465A46C01A914110D311461846EA
:1095A000224600F053F82D1A67EB01084F46224679
:1095B0000120002100F04AF817EB00094E41201E5F
:1095C000A4F10104DFDC484631462A464346BDE8A3
:1095D000F09F000000487047A418020040EA010311
:1095E0009B0703D009E008C9121F08C0042AFAD259
:1095F00003E011F8013B00F8013B521EF9D270471D
:10960000D2B201E000F8012B491EFBD270470022C4
:10961000F6E710B513460A4604461946FFF7F0FF71
:10962000204610BD421C10F8011B0029FBD1801AF6
:10963000704730B504460020034600E05B1C9342AF
:1096400003D2E05CCD5C401BF8D030BD202A04DBA7
:10965000203A00FA02F1002070479140C2F1200345
:1096600020FA03F3194390407047202A04DB203A84
:1096700021FA02F00021704721FA02F3D040C2F132
:10968000200291400843194670470000064C074DE0
:1096900006E0E06840F0010394E8070098471034C2
:1096A000AC42F6D3FFF7B0FD841E0200A41E0200F8
:1096B00070B58C1810F8015B15F0070301D110F894
:1096C000013B2A1106D110F8012B03E010F8016BC1
:1096D00001F8016B5B1EF9D12B0705D40023521E44
:1096E0000DD401F8013BFAE710F8013BCB1A921CAC
:1096F00003E013F8015B01F8015B521EF9D5A142AA
:10970000D8D3002070BD00002DE9F04700268CB0B2
:10971000DFF86091B0464FF4807501243746069615
:10972000284604F03FFB38B1D9F80403204203D0A7
:10973000284604F02DFB26432D1D64007F1CADB28E
:10974000082FEDD34FF4BE74204604F02BFB48B134
:10975000204604F01DFB46F0004606AA0121002029
:1097600004F002FB444D16F0FF0F15D00127002432
:1097700037420DD009EB8401D1F81005D1F810154E
:10978000C0F3042055F82420C1F3014102B19047F1
:109790007F00641C082CEBD3002E67DA4FF0FF30FB
:1097A000CDE9088000263446281910F8507F90F93A
:1097B000000027F0C008401C44D009A9404603F02F
:1097C00021FD58B34FEA9719404601F087FD55F83F
:1097D00020701FB1B9F1030F03D00FE0B9F1030FEF
:1097E00030D108A84FEAD80208F00703815C4FF097
:1097F000010C0CFA03FC41EA0C0181544FF0A0412A
:1098000001EB8800D0F8000706A9C0F3014A4046E2
:1098100003F0F8FC18B1BAF1020F03D012E0BAF16C
:10982000030F0FD1B9F1030F08D1BAF1020F1BD00A
:109830000221404604F07CFA761CF6B217B1494684
:109840004046B847641C042CAED3002E0ED06A46A6
:109850000121002004F088FA06990098884205D07A
:109860000690089809909DE70321E2E70CB0BDE857
:10987000F0870000006000400C22002000F01F0272
:10988000012191404009800000F1E020C0F88012E1
:10989000704700F01F02012191404009800000F153
:1098A000E020C0F80011704700F01F020121914034
:1098B0004009800000F1E020C0F80012704749071D
:1098C000090E002806DA00F00F0000F1E02080F811
:1098D000141D704700F1E02080F80014704700006C
:1098E0002DE9F0414FF48077384603F01FFD012445
:1098F000104EA50748B1384603F01FFD0120C5F8FA
:1099000008037470002001F00DFD4FF48277384693
:1099100003F00CFD00280BD0384603F00EFD0220AA
:10992000C5F80803B470BDE8F041012001F0FABCAD
:10993000BDE8F081F821002007480021C0F840115F
:10994000C0F84411C0F84811C0F84C11C0F800111B
:10995000C0F8041107F082B90010014007F0CCB83C
:1099600004F0ECBEF0B5A1480127031D01783A07C9
:10997000181D06290BD11C78240708D10478C4F3DC
:109980000314032C06D0042C04D0052C02D0062985
:1099900007D011E0B2F82443954DC4F304242C60A1
:1099A00002E01C78240707D10478C4F30314032CC5
:1099B00002D1914D8F4C6C67D2F844428F4DC4F365
:1099C00042342C6006290CD11C78240709D1047874
:1099D000C4F30314032C04D1894C256825F0807549
:1099E00025604FF080440025C4F80C51C4F8105194
:1099F000824C241F2560062907D11C78240704D136
:109A00000478C4F30314032C02D0062908D01FE005
:109A1000DFF8E8C103240CF1640CCCF8004007E047
:109A20001C78240714D10478C4F30314032C0FD139
:109A3000DFF8D0C10524CCF80040724C78342760A0
:109A4000704C083425600CF1040C3F24CCF8004025
:109A50006D4C2468DFF8B4C1CCF800406A4C241D7A
:109A600024680CF1040CCCF80040674C08342468DE
:109A70000CF1040CCCF80040634C0C3424680CF15D
:109A8000040CCCF80040604C103424680CF1040C39
:109A9000CCF800405C4C143424680CF1040CCCF875
:109AA0000040594C18342468DFF860C10CF1200CD8
:109AB000CCF80040544C1C3424680CF1040CCCF855
:109AC0000040514C203424680CF1040CCCF80040C8
:109AD0004D4C243424680CF1040CCCF800404A4C62
:109AE000283424680CF1040CCCF80040464C2C348B
:109AF00024680CF1040CCCF80040434C303424684A
:109B0000DFF808C10CF1400CCCF800403E4C343476
:109B100024680CF1040CCCF800403B4C3834246829
:109B20000CF1040CCCF80040374C3C3424680CF1A8
:109B3000040CCCF80040344C403424680CF1040C84
:109B4000CCF80040DFF8C8C0FB24CCF80040062960
:109B500013D11C78240710D10478C4F30314032C08
:109B600003D0042C01D0052C07D1D2F85842DFF8DD
:109B7000A4C004F04F04CCF8004027480168C9078E
:109B800002D06FF0010101604FF01021D1F8000206
:109B9000002803DBD1F80402002822DA1F4A1760EC
:109BA0001F480368002BFCD01523C1F8003204685D
:109BB000002CFCD0C1F8043201680029FCD01560EB
:109BC00001680029FCD0BFF34F8F0D48F0380168C1
:109BD000144A01F4E06111430160BFF34F8F00BFED
:109BE000FDE7124910480860F0BD0000E00F00F0EA
:109BF000403501400DF0ADBA00C007403C050040C3
:109C0000FCED00E0105600400404001020C50040A8
:109C100018F50040E40E00400004004004E5014057
:109C200000E401400400FA050090D003B01C0020BD
:109C30000149024807F07AB8642200200020004061
:109C400002E008C8121F08C1002AFAD17047704705
:109C5000002001E001C1121F002AFBD17047000063
:109C60000121202803DA81400548014003E0402813
:109C700002DA2038814009B1012070470020704786
:109C8000FC06FFBD082806D228B1012803D004280D
:109C900001D0012070470020704710B560B159B164
:109CA00002780B785208B2EB530F05D10622401C04
:109CB000491CFFF7BEFC08B1002010BD012010BDFB
:109CC000800701D00020704701207047C3688B4295
:109CD00006D811440069491E814201D8012070470D
:109CE0000020704710B501220221002001F01EF96A
:109CF00008B1072810D107220221012001F016F92E
:109D000008B1072808D100210A22084601F00EF9FF
:109D100008B1072800D1002010BD000010B550B1D7
:109D20000A480321008801EB004009A104F0FEF974
:109D300005F03EFE03E00321094800F055FC002831
:109D400003D0BDE8104000F0C5B810BD101D0020C4
:109D5000457261736520626F6E64732100000000BC
:109D6000501D002070B58CB015460E4600236C4681
:109D7000C3F10F01415CE1545B1C102BF8D30D21A2
:109D800004F11000FFF743FC0020C0F10F02315C2A
:109D90002244401C11740328F7D3684643DF002097
:109DA000C0F10F01214491F820102954401C0328D0
:109DB000F6D30CB070BD022000F0B0BF01490979A4
:109DC00000F074BDCC1B002070B50024064D06E0E9
:109DD0006868012110F8340003F054FB641C2878F3
:109DE0008442F5D3002070BDEC1B0020F8B5154669
:109DF0000C460646052A01D20720F8BD03F028FCD0
:109E000018B903F0F7FB0028F7D1104900204E6085
:109E10000C70C1E902500E4D08610DE006EBC40064
:109E20006968009181788DF801100078094A6946C7
:109E300003F07AFB0028E0D1641EE4B2EED2BDE864
:109E4000F840054A0021024800F050B8EC1B002001
:109E5000D8150200D5C0010091B5010004F01EFA2A
:109E600004F078F80028FBD1104C0121208801EB88
:109E700000400FA104F05AF910480068C00700D054
:109E800000BE2088022101EB00400DA104F04EF934
:109E9000BFF34F8F0948E43801680D4A01F4E061CF
:109EA00011430160BFF34F8F00BFFDE7101D00207D
:109EB000466174616C206572726F7200F0ED00E0B3
:109EC00053797374656D20726573657400000000CA
:109ED0000400FA050EB500210091CDE901106A4693
:109EE00044F20100FFF7BAFF0EBD0000074B9B785C
:109EF00023B12AB120B10068037C1BB10820704750
:109F0000072070474174426100207047A022002062
:109F100070B506F019F8104800240B210470447045
:109F20000E4D817014206C602C706C70FFF7A6FCD5
:109F300007211420FFF7C3FC1420FFF7AAFC0848F0
:109F4000046007211120FFF7BAFC0548001F0068D4
:109F5000A860002070BD0000A0220020001C00208E
:109F6000081501402DE9FC47DFF8789099F8023098
:109F700073B368B3052902D20720BDE8FC874369A3
:109F800033B3437C012B25D00027044600258846A7
:109F900016468DF80050684600F038F801A806F023
:109FA000F1FFC8B1012101700F4944600968C0E99F
:109FB0000218C0E904769DF8040089F801009DF8B4
:109FC000000000F047F81420FFF76EFC2846D4E7A5
:109FD0000820D2E70F46D8E704259DF8000000F0DE
:109FE00039F8F3E7A02200200415014006498978DA
:109FF00039B130B1416921B100210174022106F06B
:10A0000009BE082070470000A022002030B5EFF301
:10A01000108172B60D4A9468012324B1037000299F
:10A0200000D162B630BD93604FF0E023D3F8805189
:10A03000074C25401560C3F88041D3F88441546033
:10A040005A17C3F8842100220270E8E7AC230020ED
:10A05000FC06FFBD0B498A68002A11D000280FD1E9
:10A06000EFF3108072B60B684FF0E022C2F80031B7
:10A070004B68C2F8043100228A60002800D162B621
:10A0800070470000AC2300202DE9F0410646086827
:10A090000C46411C4FF0A0474FF0010506D005FAD1
:10A0A00000F1C7F80815206803F027FE6068411C1E
:10A0B00002D0002103F018FE3168A069C1F8240520
:10A0C000607D217D32680843C2F86C05D4E9001236
:10A0D0003068C0F80C15C0F81425207D012815D172
:10A0E000A068411C02D0002103F0FEFDE068411C85
:10A0F00005D08540C7F80855E06803F0FEFDD4E9B7
:10A1000002123068C0F80825C0F81015BDE8F081CB
:10A110002DE9F047074600888EB0804600F08EFBA0
:10A120000646404602F054FA824604462E48002570
:10A130002A460178404600F0CFFB002E50D07879B7
:10A14000400734D501254FF6FF7603AB2A46072199
:10A15000504604F0E1FD010004D0404606F054F9F9
:10A1600000252BE0B1463146049802F085F90646F9
:10A1700048450FD004460146404602F013FA4046D7
:10A18000FFF71CFE30B9404606F010F94046FFF7D5
:10A1900015FE48B122460721504604F053FE010047
:10A1A00003D0404606F030F900254E4506D0404623
:10A1B00004F0B6FF10B1504602F0F6F902208DF817
:10A1C0001800ADF81A807879400701D5012000E029
:10A1D00002208DF820008DF8215006A801F024FB04
:10A1E0000EB0BDE8F0870000CC1B00202DE9FC4735
:10A1F000002517880646158090F82D0014468946DC
:10A2000030B13A462146484600F07EFB050009D1B0
:10A21000B0784FF00C0A18B32088C846001DB84229
:10A2200002D95046BDE8FC87684679DF0028F9D19D
:10A230002088032108F8001020881921401C80B2D2
:10A24000208008F800102088401C80B2208000EB9D
:10A250000801BDF8000006F0E5FD218808442080D3
:10A26000F0780222C8B1218896F9033001F1030C7D
:10A270004846BC45D5D8425421884FF0010C491CB2
:10A2800089B2218000F801C02188491C89B221804F
:10A2900009F801302088401C20807068B8B12188FE
:10A2A00090F9003001F1030C4846BC45B9D842543E
:10A2B00021880A22491C89B2218042542188491CE4
:10A2C00089B2218009F801302088401C2080308923
:10A2D00050B1CDE900474B460622022106F10800A5
:10A2E00006F068FE05009DD1308A50B1CDE90047E7
:10A2F0004B460722032106F1100006F05BFE050025
:10A3000090D1308B50B1CDE900474B461522142136
:10A3100006F1180006F04EFE050083D1306A30B118
:10A320003B462246494601F067F80500DBD1706ADA
:10A3300030B13B462246494602F09AFD0500D2D193
:10A3400096F82C0038B13B4622464946304606F086
:10A35000EBF80500C7D1307838B13B462246494674
:10A36000304602F00DFE0500BDD128465AE7F0B593
:10A370000C4693B01F210726ADF80010ADF804106D
:10A38000002750B1C17849070DD56A4602A9FFF7E9
:10A390002DFF002808D102AD02E00025ADF80070C5
:10A3A0006CB1E07810B1304613B0F0BD01AA0AA933
:10A3B0002046FFF71BFF0028F6D10AAA02E0002280
:10A3C000ADF80470BDF80400C3B2BDF80000C1B21E
:10A3D000284672DFE8E780F82410704770B50D005A
:10A3E000044653D0F4B3012020700026E6702022EA
:10A3F00005F17801201DFFF7F1F884F82460D5F805
:10A400009800C4F8CC00D5F89C00C4F8D0004FF6F2
:10A41000FF70A4F8C800C4F82560A4F8296084F887
:10A420002B6004F130003C210646FFF7F0F8287855
:10A4300084F83000A87884F83200E87884F8330093
:10A44000687884F83100D5E90401C4E91001D5E940
:10A450000201C4E90E01D5E90601C4E9120195F82B
:10A460002D0000E012E084F85D00686AD8B104F1C4
:10A47000780104F16C0061676065696A0988018090
:10A48000686A616D80888880002008E00E2070BDB9
:10A49000696A22188968095C82F87810401C616D2D
:10A4A00089888142F4D8A86AE8B104F1A400C4F80C
:10A4B000A0000C38A065A96A89888180A86AA16D6E
:10A4C00000880880002006E0A96A22188968095CD3
:10A4D00082F8A410401CA16D89888142F4D895F8B7
:10A4E0002C0084F85C00286A48B104F1C40020659F
:10A4F000296A49884180286A216D00880880686837
:10A5000000B1606305F13C013046BDE87040FFF7E3
:10A510002EBF10B50288102A1AD0112A1FD01B2A6C
:10A520001CD1007A0C46002818D1E0780521401C87
:10A53000B0FBF1F201FB1201204600F055F80028B3
:10A540000CD0D4F8D010002908D0BDE8104008473E
:10A55000C27B012A02D18088A1F8C80010BD0C4638
:10A56000002184F8D4108088B4F8C8108842F5D14E
:10A5700020790028F2D10121DEE710B50C4602282F
:10A5800001D0032811D1607800280ED0002060701F
:10A59000E178204600F028F8002806D0D4F8D01042
:10A5A000002902D0BDE81040084710BD10B5044690
:10A5B00074DF012084F8D400002084F8D60006203F
:10A5C00084F83300002104F13000FFF7D0FE0028AA
:10A5D00009D1E178204600F007F818B1D4F8D0107E
:10A5E00001B18847002010BD2DE9FF4704460078DF
:10A5F0000F4638B1E770002003F06EFA012628B14B
:10A600006670D2E0082004B0BDE8F0870025C4F8E9
:10A610002550A4F8295084F82B50A07910B1E07887
:10A62000012806D0E07970B1E078012801D0022835
:10A6300009D1D4F8CC1021B184F82C6008208847C7
:10A6400001E084F82C5004F1260100200A5C0AB1D4
:10A65000304603E0401C0628F8D300204FF00208E3
:10A660004FF0030A4FF00409012F06D0022F09D042
:10A67000032F0CD0042F12D10DE0A17911B108B134
:10A6800030460DE0E17911B108B1404608E0207A8A
:10A6900008B1504604E0607A08B1484600E0284618
:10A6A000E070D4F8CC1041B1032801D0042804D1C3
:10A6B000607910B194F8D400A8B184F8D550009511
:10A6C0000295019503958DF800508DF80850E178BA
:10A6D00004F1250004F13002052958D2DFE801F029
:10A6E000670A131F3B0084F8D65084F8D560072012
:10A6F0008847E4E7A67001908DF80060ADF80C5033
:10A70000ADF80A5043E084F8028001908DF80060B3
:10A71000208AADF80C00A089ADF80A0037E0A08AC5
:10A72000ADF80A00208BADF80C00607980B194F888
:10A73000D40068B994F8D60050B18DF8088084F838
:10A74000339000211046FFF712FE00BB05211AE0EE
:10A7500084F802A01BE0A08BADF80A00208CADF8B5
:10A760000C00607988B194F8D40070B994F8D600E0
:10A7700058B18DF8088084F8339000211046FFF717
:10A78000F6FD20B90621A17001E084F80290E0787E
:10A7900030B194F82410684673DF00287FF433AF9B
:10A7A000D4F8CC1009B1A078884700202BE7A57019
:10A7B000F6E7000070B5040012D001461C221448D0
:10A7C000FEF70CFF1248134D0560206850B17ADF88
:10A7D000002806D12068016829604068686005E0AB
:10A7E0000E2070BD0B487BDF0028FAD108484FF6D9
:10A7F000FF711438084A20F8041B054934390160F8
:10A800000021FFF773FB0028EBD0032070BD000090
:10A81000C81E0020881B0020050F020002494A6C58
:10A82000091D05F083BC0000E41E0020024602481A
:10A83000016D001D05F067BCE41E002070B5084ED8
:10A84000054600242A46301D716C05F05CFC28B1D9
:10A850002A46301DF16C05F056FC0124204670BDDF
:10A86000E41E002010B50024204606F07FFB28B12E
:10A87000641CE4B2182CF7D3182010BD0348012241
:10A88000A240016811430160204610BDE41E002073
:10A8900010B5044606F06AFB002803D0024800EB1E
:10A8A0008400806D10BD0000E41E002070B50546D8
:10A8B0000C46084606F05AFB002809D005482A46EF
:10A8C00000EB8401001D896DBDE8704005F01BBCE4
:10A8D00070BD0000E41E002070B5064615460C460B
:10A8E000084606F043FB00280AD006482B4600EB3A
:10A8F00084013246BDE87040001D583105F03BBC74
:10A9000070BD0000E41E00207CB5054608880C469A
:10A910000930904201D90C207CBD68466DDF0028CB
:10A92000FAD121880820685420881B21401C80B25D
:10A93000208029542088401C80B220802844DDF8E3
:10A9400001100160BDF8051081802088801D80B253
:10A9500020809DF80010490800D00121295420884A
:10A96000401C208000207CBD10B5028888B00446C1
:10A97000212A2FD010DC012A39D030480321102A97
:10A98000008801EB004017D0112A21D108B02CA17A
:10A99000BDE8104003F0CABB3B2A24D0512A2AD07C
:10A9A000562A15D18088132176DF002810D008B0F0
:10A9B000BDE81040FFF78EBA25A103F0B7FB0720D2
:10A9C00000F0D6FA08B1FFF785FA2449A08808807C
:10A9D00008B010BD00200090A08869468FDF28E0F5
:10A9E000FFF778FAF4E78088132176DFDDE78088C7
:10A9F000002166DFD9E71022A11D04A8FEF7EEFDB5
:10AA00009DF810100029E3D09DF81800042803D009
:10AA1000062801D00528DBD102290DD05FF0010006
:10AA20008DF800004FF4C170ADF80400A0886946AD
:10AA3000A8DF0028D4D1CBE70220F1E7101D0020C9
:10AA4000446973636F6E6E65637465642E00000005
:10AA5000436F6E6E65637465642E0000681B002092
:10AA600010B51A4C0188606810290ED011292BD11D
:10AA7000401E606028D1FFF735F9002824D02168F6
:10AA8000002921D0BDE810400847D0B9002101229B
:10AA9000084600F04BFA08B107280FD1072202211F
:10AAA000012000F043FA08B1072807D1042202214F
:10AAB000002000F03BFA20B1072802D0216801B144
:10AAC00088476068401C606010BD0000801B00204B
:10AAD0002DE9F04701883B4E40F2F3194FF6FF7520
:10AAE00010291BD011293ED0122954D0502946D10B
:10AAF000C188F289841D914241D1618902293ED1E8
:10AB00008688304601F012FE050038D004F10C00B2
:10AB100000F0EAF8A8B3294630464EE0C17B8788AA
:10AB2000044601292BD1A846284601F0FFFD050067
:10AB300017D02F8000202872234843464A460168D8
:10AB4000C5F80A104068C5F80E0004F1100105F1BF
:10AB50000A0001F051FE6872F08900280FD12946E1
:10AB60002AE0042013E0808801F0E0FD040006D014
:10AB70006068FFF73BFA08B105F02AFC2580BDE8C4
:10AB8000F087FFE76868FFF731FA0028F7D0BDE8E3
:10AB9000F04705F01DBC87880646384601F0C6FD23
:10ABA0000400ECD02B464A4606F1080104F10A00E5
:10ABB00001F022FE607221463846BDE8F04700F001
:10ABC00061BC0000C81E0020881B00202DE9F04752
:10ABD0000546038839480122A4B000F1480A102B29
:10ABE00009D0112B48D01A2B64D1297AB2EB111F4E
:10ABF00047D2012346E0D0E911218A430446011DD2
:10AC000012A805F093FA442212A901A8FEF7E6FC67
:10AC1000DFF8A8900026374609F144090DF1040831
:10AC20000AE000BF08EB46001D2283884946201D2C
:10AC3000009705F02DFA761C0198B042F2D8606CAE
:10AC4000AD88C04305F046FAA0F57F41FF390DD02D
:10AC500004EB4000012385802A465146201D05F063
:10AC60008AFA01232A464946201D1EE024B004200A
:10AC7000BDE8F047FFF72EB90023AA885146001D12
:10AC800013E000230D490446AA885031001D05F049
:10AC900072FA287A0221B1EB101F01D2012300E0E1
:10ACA00000230649AA885431201D24B0BDE8F0478E
:10ACB00005F061BA24B0BDE8F0870000E41E002072
:10ACC00010B504460748007800280AD0204601F055
:10ACD00059FB204605F080FC2046BDE8104001F0FD
:10ACE000D3B810BDBC1B0020007800F001007047F5
:10ACF0000149085C70470000941402000649095C91
:10AD00004FF0A040D0F81005C84010F0010000D06E
:10AD1000012080F0010070479414020007490B5C89
:10AD20004FF0A041D1F804250120984020EA020309
:10AD3000C1F808351040C1F80C05704790140200A6
:10AD40000249085C012103F004B8000090140200DD
:10AD50000249085C002102F0FCBF000090140200D0
:10AD60000649095C4FF0A040D0F80405C84010F037
:10AD7000010000D0012080F0010070479014020013
:10AD80007CB50024084E25460122305D0095002345
:10AD90001146019502F069FF641C042CF4D3BDE850
:10ADA0007C4000F003B800009014020010B50024AD
:10ADB0002046FFF7C5FF641C042CF9D310BD10B565
:10ADC00000242046FFF7C4FF641C042CF9D310BDF7
:10ADD00010B50246064B4FF0FF3000215C5C9442F8
:10ADE00001D1084610BD491C0429F7D310BD00004D
:10ADF0009414020070B50C4E0C004FF0000530604A
:10AE00000BD0012000F06AF808B1022004E0002015
:10AE100000F064F800B10B202070706810B9FEF7E4
:10AE200061FF0546284670BD801B002010B500203C
:10AE300000F0D0F908B1062806D1012000F0CAF9C7
:10AE400008B1062800D1002010BD00002DE9F04710
:10AE50000D468146FFF7BCFF0446042836D2DFF8D2
:10AE600074801B481C4EA8F10C0725B3012D0ED091
:10AE7000022D2BD104EB440030444578002D25D021
:10AE8000B968002922D02846BDE8F047084704EBFE
:10AE90004401755C0E44717849B10E4A4FF400418B
:10AEA000093A8068FFF75EF808B987F80390B1782F
:10AEB00008F80410E2E78068FFF798F804EB440113
:10AEC000314418F804008D78A842D7D0BDE8F08747
:10AED000981402007C1B0020681E0020FFF70EBFA4
:10AEE0000146104810B50088042907D007290ED064
:10AEF0000A2915D1BDE8104005F05ABB132176DFB1
:10AF00000CE000280CD0BDE81040FEF7E3BFA0F530
:10AF10007F41FF3904D10448FFF748FB0828F0D1EE
:10AF200010BD0000681B0020501D002070B50023DC
:10AF3000042810D20D4D00EB4004012A02D1012952
:10AF40000CD00022094E00EB4000304461B10129D1
:10AF500006D0022906D00723184670BD0E30C2B2B3
:10AF60002A55F9E74270F7E78270F5E7681E00207E
:10AF7000044A014600201279D20702D0084600F0A8
:10AF80004DB87047701B002070B506461E4800245F
:10AF9000C0E90161B00720D50025012211462846ED
:10AFA000FFF7C4FF6D1C0446042D02D2002CF4D020
:10AFB00013E094B940F2666204211448FEF716FFCC
:10AFC00004000AD1FEF700FF040006D10F48104A22
:10AFD0000021001FFEF78AFF0446F00701D0FFF7AB
:10AFE000CFFE74B909480B4A00210C38FEF77EFFEA
:10AFF000040006D10548084A01210838FEF776FF0B
:10B000000446204670BD0000701B0020A4140200FE
:10B0100071B201008DC80100B79D01002DE9F05FFC
:10B020006A4C054600266078B34618B184F801B032
:10B0300001F014FC664F4FF47A694FF4C87A4FF070
:10B040000108182D62D2DFE805F0AC0C0C31404D40
:10B0500062676B746B74BE7D7D7D7D7DACAFB2B578
:10B06000BEBE0020FFF77CFE00284FF0000008D095
:10B07000FFF766FE022D02D14FF4E16008E048467A
:10B0800006E0FFF765FE022D01D1C82000E0504622
:10B09000410CC0034FF4FA72801841F10001257091
:10B0A00052000023FEF764FA01462AE00020FFF771
:10B0B00057FE00284FF0000004D0FFF741FE4FF488
:10B0C0004870E5E7FFF744FEDFE70020FFF748FEA2
:10B0D00000284FF0000002D0FFF732FECFE7FFF765
:10B0E00037FED4E70020FFF73BFE00284FF00000BA
:10B0F00002D0FFF725FE01E0FFF72AFE257041F69A
:10B100009A1100223868FEF72DFF064646E000201F
:10B11000FFF704FE257008E0002051E025703DE0B7
:10B1200084F801800120FFF7F9FD002240F6CD41AF
:10B13000E8E784F801800120FFF7F0FD00224FF4DA
:10B140008041DFE77868FEF751FF0646D5F1110030
:10B1500000D02EB10220FFF7F3FD84F802B01DE00D
:10B16000012816D980B2C8214843C117C90341EA52
:10B170005041C0034FF4FA72801841F100015200AF
:10B180000023FEF7F5F9014600227868FEF7EAFE93
:10B1900006460220FFF7DCFD84F802803046BDE859
:10B1A000F09F01F05BFBB9E701F058FBB4E701F059
:10B1B00055FB04E001F052FB0020FFF7C9FD012020
:10B1C000FFF7C6FDAAE7FFF7FAFDA7E7701B00200F
:10B1D0009814020010B5FFF78BFD032102F097FDD4
:10B1E000002010BDF8B5861C00208DF800000C462C
:10B1F00001276846FEF70AFF0F4801682160D0E981
:10B200000012891A82680446511AB51C07E000BF73
:10B2100001F002FDD4E90001401AA168091A491C95
:10B220008D42F5D82068304420609DF80000FEF77C
:10B2300011FF3846F8BD00005826002030B482685F
:10B240000468531C8360A154D0E901128A4202D3DE
:10B2500030BC02F018BB30BC70470000034803C884
:10B26000814201D1012070470020704758260020FC
:10B2700000780221FFF7EABD05494FF0FF320828A8
:10B2800041F8202002D3084480F84820704700008D
:10B290000C220020F0B54FF0FF3512B10023082634
:10B2A00001E008230C260C4C05E000BF54F8237085
:10B2B0007F1C04D05B1CB342F8D32846F0BD26188F
:10B2C0005DB286F8305044F82310002AF5D1E11819
:10B2D00081F84800F1E700000C22002002490844F0
:10B2E00090F93000704700000C22002070B5044631
:10B2F0004FF6FF750A462846AC4208D14FF48074D9
:10B300002146104604F01EFAA04209D070BDFF2C61
:10B31000FCD82146104604F008FA08B1204670BD5A
:10B32000284670BD70B5084C050009D0103421685E
:10B33000002907D008682060496828468847F6E752
:10B340000834F4E770BD0000F82100202DE9F05F1B
:10B3500026484168F1B3DFF898B00E688146DBF803
:10B36000004087688078E11B21F07F45ED1CB0B973
:10B37000DFF880804FF48030C8F84403C8F8040335
:10B380001120FEF77BFA1120FEF783FA4FF0010A35
:10B39000C8F800A02F2001F0D9FF89F802A0B5421B
:10B3A00000D23546124BE8193C3320F07F4018603C
:10B3B000DBF800105A46091B21F07F41001B20F0EA
:10B3C0007F40C91C81420FD9106818602F2001F0FE
:10B3D000BDFF00E004E0BDE8F05F1120FEF764BAB5
:10B3E000BDE8F05F04F0B0BDBDE8F09F001C002098
:10B3F00004150140001001402DE9F0411788064670
:10B40000B81D14460D46984202D90C20BDE8F081C3
:10B410003188072206290AD34FF4486C4FF6FF7390
:10B42000614501D9994202D17088062801D210469F
:10B43000ECE7604501D99842F9D1994203D098428E
:10B4400001D08142F3D80520E85520881221401C04
:10B4500080B2208029542088401C80B2208041196D
:10B46000308805F0DFFC2188084480B22080411933
:10B47000708805F0D7FC2188084420800020C5E7AB
:10B48000FEF728BD38B54A7A0F4B62B100220A7226
:10B490005969002906D001228DF80020ADF802007C
:10B4A0006846884738BD0A7A62B19B684C68024694
:10B4B00019462046FEF756FD0028F3D0BDE8384077
:10B4C00004F086BF5B68F1E7C81E0020F0B585B0C8
:10B4D00016460F4604461D4614220B496846FEF7E1
:10B4E0007DF80A488DF80870ADF80240ADF80A60A2
:10B4F0008DF80C50017800222046FFF7EDF96846E0
:10B5000000F092F905B0F0BDA8150200CC1B002098
:10B510007FB50C4610B1012004B070BD2079002623
:10B5200038B141F61D5501281BD0022826D00F2026
:10B53000F2E70220207102960396E06801906946C6
:10B5400001A804F05DFC50B102988188E180008878
:10B550002081BDF80010029804F0D0FCDCE70A203E
:10B56000DAE70A4B6A460021A01D04F005FC38B159
:10B57000064918398E61CE610A28CDD12846CBE71D
:10B5800002488188019804F0B9FCF5E72C1C0020E2
:10B590002DE9F04100260125144C22E06068226963
:10B5A00000EBC607387805FA00F1114217D08A433C
:10B5B000226102F015F802463878E36805FA00F1D6
:10B5C000194002FA00F3994209D17978012901D092
:10B5D000012100E0002151407A6802B19047761CB9
:10B5E000F6B220788642D9D3BDE8F081EC1B00206A
:10B5F0000E4910B50A784C780023A24212D0521C92
:10B60000D2B20A70022A00D10B70084A0B780C32B1
:10B6100052F8232002608868104420F07F40886040
:10B62000012010BD0360002010BD0000001C0020A0
:10B6300013460A460021FFF749BF00002DE9F843F1
:10B64000104D0F4680461E4691466946286801F017
:10B650004EFD040014D01C21FDF7D9FF01202071FC
:10B66000C4F81490380BC4F80080C4E9026069463D
:10B67000286801F05DFD04F01BFB0020BDE8F883A5
:10B680000420FBE70816020010B503780022072B00
:10B6900006D2DFE803F005040610202930000A7006
:10B6A00010BD01230B7003898B818388CB81C06817
:10B6B00088600A7410BD02220A7002898A81828819
:10B6C000CA81C2688A60807D062802D00020087482
:10B6D00010BD0120FBE703220A70C2888A8102891B
:10B6E000CA81C068886010BD04230B70C08888813F
:10B6F000CA818A6010BD0520087010BD70B5064D66
:10B700000646002455F8241009B130468847641CC9
:10B71000042CF7D370BD0000C423002030B50446CC
:10B72000006885B00D46806800281CD0142168464A
:10B73000FDF76DFF0195A0680490207910B10128F4
:10B740000DD104E001208DF80000206904E0022002
:10B750008DF80000E06800030290606903902068A3
:10B7600081686846884705B030BD70B586B015461B
:10B770000C00064619D0112C17D0082C15D0142116
:10B780006846FDF744FFADF80260304600F020FF48
:10B79000ADF804000D2C0AD0862C1CD007208DF8A3
:10B7A00000000294684600F04DF806B070BD03201A
:10B7B0008DF8000025B12878C00701D0012000E0F5
:10B7C00002208DF8080000208DF80C0041F20110D5
:10B7D000ADF80A00E6E706208DF80000E2E7000079
:10B7E00010B50446408800F0F3FEA08002480168CE
:10B7F0002046BDE810400847981B00202DE9F04185
:10B8000007460024064E074D05E000BF56F82410F9
:10B8100038468847641CE8788442F7DBBDE8F0814D
:10B82000AC210020BC1B002010B50446408800F06D
:10B83000CFFEA080024801682046BDE810400847BE
:10B840007C1502000149096808470000D015020074
:10B8500070B586B0044614216846FDF7D8FEA0896D
:10B860000026A0F54040ADF8040020782D4D0628B4
:10B8700035D2DFE800F0340303032E4EA08900F038
:10B88000C9F9012130B9E08943F6FE72A0F54040C4
:10B89000904224D8A07B8DF808002078032810D08F
:10B8A0005FF000008DF80900A0680390606850B157
:10B8B00009208DF8000060680490684603F00AFBD8
:10B8C0000DE00120EEE708208DF800008DF8101043
:10B8D000F3E7A08900F09EF908B1E08938B16878F3
:10B8E000002802D06E7003F025FC06B070BD6068C1
:10B8F00038B10B208DF800006E70AE7003F01AFCAA
:10B90000DBE70A208DF80000BDF8040003F0A2FC7C
:10B91000F2E713208DF800004FF6FF70ADF8040039
:10B92000CBE70000A81B002038B504460E4800787D
:10B93000A8B1A4F57F40FF380FD0684604F0F2F8B4
:10B9400078B10521017001210171C480684604F0BD
:10B95000F7F804F09DF9002038BD042038BD02201E
:10B9600038BD082038BD0000341C00200C4808B544
:10B97000007888B1684604F0D5F878B106210170E6
:10B98000684604F0DDF80748017809B10121017328
:10B9900004F07EF9002008BD022008BD082008BD83
:10B9A000341C002088240020F0B589B0142168469A
:10B9B000FDF72DFE2D4C207818B16846FFF79EFE4E
:10B9C00052E0201D012105AAFDF730FCC8BB4FF055
:10B9D000102040694FF080510969421C02D101EBEF
:10B9E00041000001224900220861A0F54050C860D2
:10B9F00020491F4802F067F8002820D11F481C2367
:10BA00008C221D49006801F05FFB03F017F8050068
:10BA100014D0022D12D000270126062D12D006A820
:10BA200004F080F888B106700C2D18D2DFE805F01C
:10BA3000170F170F17161716171113110B2009B030
:10BA4000F0BD11E026706760B7E70820F7E70771DF
:10BA500005E0032100E00221017100E0067106A863
:10BA600004F06EF804F014F90020E8E7341C00201C
:10BA7000B41C002018160200D4230020E015020098
:10BA800038B5040014D0694604F0BAF9A0B1BDF885
:10BA9000000000EB8001094800EB8100C16849B15A
:10BAA000A17A39B1C168491EC1600020A07238BDB9
:10BAB000052038BD062038BD0A2038BD602400208E
:10BAC0001FB501A9684604F057F904B010BD07B5C9
:10BAD00013460A466946002004F04EF90EBD07B52C
:10BAE00013460A460021684604F046F90EBD20B10F
:10BAF00019B10068086000207047052070470000F9
:10BB00007CB50D46040019D0C5B1694604F078F93A
:10BB1000B0B1BDF800000B4900EB800001EB8000E4
:10BB2000012101AA0C306668FDF7A7FB2E60606852
:10BB30000C3068600120A07200207CBD05207CBD17
:10BB40000A207CBD6024002018B10323002205F0E8
:10BB500077BB052070470223002205F071BB12B1AC
:10BB6000022305F06DBB052070470000094908B5A8
:10BB70000A69042A0BD0084A096942F821000548DD
:10BB8000012110306A46FDF778FB002008BD0C202B
:10BB900008BD0000141C0020C423002038B5044652
:10BBA00009480D46007858B164B16946284605F049
:10BBB00041FC002803D1BDF800102180658038BD0C
:10BBC000022038BD052038BD341C002010B50446C5
:10BBD0000E48007898B1A4B12188022913D80C4AE4
:10BBE00001EB810002EB800260885289C31C934202
:10BBF00009D805F013FC00202080608010BD0220D1
:10BC000010BD052010BD042010BD0000341C002014
:10BC10006024002043F6FE71A0F54040884201D820
:10BC2000012070470020704710B50446007818289E
:10BC300002D1FEF717FE207010BD10B50446007843
:10BC4000182802D1FEF70EFE207010BD70B5134605
:10BC5000002206461546862902D0112902D002E0AC
:10BC6000012200E001250D4C73B1A179FEF734FEED
:10BC70002A4661793046FEF72FFE0022A178304631
:10BC8000FEF72AFE002203E0A178FEF725FE2A46F1
:10BC900061783046BDE87040FEF71EBED41B002020
:10BCA000406803F055BF000070B508B1012070BDB9
:10BCB000194C0025207B08B1257301E000F0A0F8A5
:10BCC0002078082826D2DFE800F02504080C10258B
:10BCD0001420BDE8704000F021B8BDE8704000F0CD
:10BCE0007DB8BDE8704000F05FB8BDE8704000F07E
:10BCF0003BB86088084900EB8000283901EB8000E0
:10BD00004068BDE8704002F079BE6560BDE87040F3
:10BD100002F082BE0F2070BD882400201149F0B4CB
:10BD20008A1C00200346A1F128050C18A67A4EB102
:10BD3000A37200EB800405EB8404E66816B9247C4A
:10BD4000012C0AD0401C80B20228EED30B704B802D
:10BD50004B60F0BC41F61D5070471080F0BC00F005
:10BD60003DB80000882400200C48418801EB810286
:10BD7000A0F1280101EB8201CA6852B105210170CE
:10BD8000074802218180016800230122054801F053
:10BD900073BE042202704968F6E700008824002080
:10BDA0003C1C0020B41C002038B50A490848032474
:10BDB0000B684268898803EB810153880470DB1C9F
:10BDC00000201B0400909B0B034801F01BFF38BDB3
:10BDD000882400203C1C0020B41C0020074910B51A
:10BDE0004888091D04F05CF818B1BDE81040FFF761
:10BDF000DBBFBDE81040FFF7B7BF0000882400207C
:10BE0000F0B51F481F490125067802248B88A0F150
:10BE10002802082E19D2DFE806F00418181B222F7A
:10BE20002F170189491C01810021418080F80C10E5
:10BE300001EB810312F8233043B100234418491C5D
:10BE400089B2A3720229F3D30570F0BD0123F5E78F
:10BE500042685288D21C1A448A800470F0BD468819
:10BE60000D6806EB860602EB860256680E6055608A
:10BE700013818C80062100E007210170F0BD0000D5
:10BE8000882400203C1C002030B501888588224C85
:10BE900085B0502924D0522902D0542932D103E050
:10BEA000284600F063FE2DE014221C496846FDF789
:10BEB00095FBADF80250284600F08AFBADF804006F
:10BEC00000F034F9002261792846FEF705FD0022D2
:10BED00021792846FEF700FD6846FFF781FC11E056
:10BEE000017B01290ED1817A01290BD10089A0F5AE
:10BEF0002451023906D10121284600F06BFEA078BA
:10BF000003F040FAE07803F03DFA207905B0BDE88F
:10BF1000304003F037BA0000901B002000150200EB
:10BF200010B50446007800280FD1608800F01EFE8E
:10BF3000608800F0A3F9002807D004496088012236
:10BF40000979BDE81040FEF7C7BC10BD901B00206A
:10BF500010B5124C00202070FEF784FCA070FEF794
:10BF600081FCE070FEF77EFC2071FEF77BFC6071C7
:10BF7000A17818290FD0E17818290CD02179182937
:10BF800009D0182807D00121601C03F0C7FB01204D
:10BF90002070002010BD032010BD0000901B002069
:10BFA0002DE9F04192B000F0D9F86846FEF736FC72
:10BFB00000246E460D4D4FF6FF780DE006EB44076A
:10BFC000B88800F005FB404504D1B88801222979E2
:10BFD000FEF782FC641CA4B20098A042EED8287937
:10BFE00003F0D0F912B0BDE8F0810000901B0020F2
:10BFF0007CB5044600781C4D08282FD1607A38BBE8
:10C00000207A4FF6FF7601280DD0072802D00828A5
:10C0100024D11EE0A08800F019FAB0421ED0012100
:10C0200000F0D8FD1AE0A0886A46012102F04AFE1D
:10C0300070B90198007858B1A08800F007FAB042B2
:10C040000CD001222979FEF747FC287903F09AF9F0
:10C0500004E005480021401C03F09BFBA878BDE8E4
:10C060007C4003F08FB90000901B002010B50446FF
:10C070000A4841782046FEF719FC68B108480021BB
:10C0800001EB410200EB82025288A24201D1C8B208
:10C0900010BD491C1429F3D3FF2010BDA21B0020A2
:10C0A0009C1F002070B5094D094E002404EB44008C
:10C0B00005EB800071784088FEF7F8FB20B1641C26
:10C0C000142CF3D3FF2070BDE0B270BD9C1F002084
:10C0D000A21B00202DE9F041124E07460125BD406C
:10C0E0003068FDF783FF00280DD10F4C20692842EE
:10C0F00007D1384601F074FA0028E06805D02843DB
:10C1000004E0A8432061BDE8F081A843E060206915
:10C1100028432061A1683068BDE8F0410022FDF7A6
:10C1200021BF0000D8150200EC1B00201CB5054AF9
:10C13000D2E90212CDE900120022694602F0E7FDC1
:10C140001CBD00001815020003484FF6FF718180E6
:10C1500001210170002070479C1B002010B54FF694
:10C16000FF7002F067FD03498880BDE8104004F0CD
:10C1700073B900009C1B00202DE9FC41804600F0B3
:10C1800027FA002403250127A0F57F412646FF3921
:10C1900008D06A46082102F095FD18B90198841D5F
:10C1A0008688056832462B4621464046A9DF04288A
:10C1B00004D0082804D00B2808D002E0112000E0A9
:10C1C0000020002F00D10B20BDE8FC810027A8072C
:10C1D00001D50125E6E73443F5D0002426460325A2
:10C1E000E0E72DE9FC41804600F0F2F90646A0F5B3
:10C1F0007F40FF380ED001252A466D1C0027ADB2C6
:10C200006B460821304602F087FD040006D0072C5B
:10C2100025D025E043F20200BDE8FC81019903230B
:10C220000A1D0B604046891DAADF040004D00C2CB7
:10C2300009D0052C09D009E032460821104602F049
:10C2400001FE04460CE0012700E0002408213046EE
:10C2500002F0E4FD00B10324002FCDD100E00C2456
:10C260002046D9E704488088A0F57F41FF3901D0F6
:10C2700004F0F2B8704700009C1B00200EB502A924
:10C28000019100F0A5F96A46012102F01BFD08B1F9
:10C2900000200EBD019800780EBD00002DE9F04190
:10C2A00007464FF6FF760A48ABDF10B10320BDE822
:10C2B000F081074C43F20305A41E324661883846DC
:10C2C000A7DFA842F3D16088401C6080F5E700003A
:10C2D0009E1B0020428800EB82020C328A4201D968
:10C2E000022070478188A1F57F42FF3A03D0008881
:10C2F00008B10020704701207047884204D20068CE
:10C30000401C01D001207047002070473EB50278E4
:10C3100002230C46B3EB520F17D1B0F80110ADF861
:10C320000010C1788DF802108188ADF80410807972
:10C330008DF8060002AA01A92046FDF713FD03228D
:10C3400002A96846FDF775F908B100203EBD01203D
:10C350003EBD000010B50C46FFF788FEFF280CD04C
:10C36000074900EB400001EB800041682160018932
:10C37000A180807AA071002010BD052010BD0000B2
:10C380009C1F002070B5018892B0102959D1011D61
:10C3900034226846FDF722F99DF804004FF6FF7637
:10C3A000032134466D46B1EB500F2AD002F000FE57
:10C3B0009DF8040040080ED001280CD0022820D19E
:10C3C00018E00F99281D1131FDF767FC18B100BF67
:10C3D000BDF8344015E00EAA0DA9072002F0BCFDFF
:10C3E0000028EED10DE00F99281D491CFFF78EFFA4
:10C3F0000028EDD10EAA0DA9072002F0ADFD0028FE
:10C40000F1D1BDF80000291D00F008FEB44218D09B
:10C41000BDF80000214600F0C5F8BDF80000ADF8F9
:10C4200036000020ADF83840074E8DF834000DADD1
:10C43000044600BF56F8241028468847641C022C86
:10C44000F8D312B070BD00002C150200094A00217B
:10C4500001EB410332F82330834205D101EB410067
:10C4600002EB800040887047491C1429F0D34FF636
:10C47000FF7070479C1F00203EB50C46054602F039
:10C4800097FD0BE0BDF80000A04207D028460299B6
:10C4900000F02EF810B1BDF800003EBD01AA6946BB
:10C4A000072002F059FD0028ECD14FF6FF703EBD89
:10C4B00010B50D4C18200D4A607000204FF6FF712A
:10C4C00000EB400302EB8303401C59801428F7D390
:10C4D000FEF7C8F96070182803D0012020700020F2
:10C4E00010BD032010BD0000A21B00209C1F0020D7
:10C4F0002DE9F0410C46054600F1110701F1110646
:10C500001022491C401CFDF794F848B9681C00F043
:10C5100095F928B1601C00F091F908B1012400E000
:10C52000002431463846FDF7B8FB3B780222B2EBD7
:10C53000530F0CD00321B1EB530F08D03378B2EB7B
:10C54000530F04D0B1EB530F01D0012100E00021C3
:10C55000084201D18C4302D00120BDE8F0810020C7
:10C56000FBE7018811B9421892780AB1012070479F
:10C57000491C0829F7D30020704710B50C46034624
:10C58000FFF7EFFF00280AD018882188884205D1DC
:10C590000822A11C981CFDF74CF808B1002010BD22
:10C5A000012010BD02F0AABE70B50446FFF74EFF91
:10C5B0000546204602F089FB4FF6FF7104468D4286
:10C5C00003D014B9284602F099FE204670BD000041
:10C5D00010B5FFF74BFDFF2805D0044900EB4000E4
:10C5E00031F8200010BD4FF6FF7010BD9C1F0020D9
:10C5F0003EB5044602F0DCFC0EE0019920464631CF
:10C60000FFF7BBFF28B9019920462A31FFF7B5FF94
:10C6100010B1BDF808003EBD6A4602A9072002F02D
:10C620009BFC0028E9D14FF6FF703EBD38B50446AB
:10C630000A4801216A46FCF7ABFE68B90848606009
:10C6400002F08EF805491C238C22087404488C39AA
:10C65000001F006800F038FD002038BD34250020A0
:10C660000C1602002DE9F0412D4F002518B17D6018
:10C670000120BDE8F0810879012258B1294E012836
:10C680000CD0274C4FF002080834022821D0032890
:10C6900042D128E00A7102F0BFF93BE05FF00000F0
:10C6A00000EB800116F82110022908D0401C80B24E
:10C6B0000228F5D33A707D6041F61D50D9E700EBB2
:10C6C000800006F8205006EB8000406802F096F9E2
:10C6D00020E00D71A4F80480002301221248216893
:10C6E00001F0CAF916E00D71206802F087F90D49D2
:10C6F00023682831498801EB810206EB8201D1F8D9
:10C7000004C0C4F800C04B60A3880B81A4F8048067
:10C7100006F822500028ACD07D600E20A9E700006A
:10C72000341C002060240020B41C00200146034873
:10C7300002888A4200D0002070470000B41E00200A
:10C740002DE9FC5F0E008346DDE90C47C6F10000D1
:10C7500098469246814600D40846012503E000BF72
:10C7600090FBFAF06D1C5045FADAA84500D9454611
:10C7700024B1002E01DB780700D5641EB80702D56E
:10C78000B8F1000F0AD0F80708D13CB1A54205D294
:10C7900020215846641EFEF751FDF6E7002E02DA0E
:10C7A0004E462D2102E0780703D52B215846FEF78F
:10C7B00045FD07F0030002280BD1B8F1000F08D1A6
:10C7C0003CB1A54205D230215846641EFEF736FD25
:10C7D000F6E7CDE90047434652463146584604F055
:10C7E00037FBBDE8FC9F00000248007A002800D01B
:10C7F0000120704734250020F0B58488A5189442A4
:10C8000000D82246A41AC288D6189A4200D81346E5
:10C81000D21A4B880788BB420CD34088834209D880
:10C820008888A04206D3A84204D8C888904201D381
:10C83000B04201D90020F0BD0120F0BD0021425CD2
:10C840000AB101207047491C1029F8D30020704715
:10C85000800701D000207047012070470A4810B5BA
:10C86000807860B1002401E0022C06D02046FEF75B
:10C8700067FA641C042CF7D310BD0324F6E7BDE867
:10C880001040FEF793BA0000701B002003480179A6
:10C89000C90702D00078FEF7C1BB7047701B0020AB
:10C8A00006490120086006480168C1F300410029DB
:10C8B000FAD1044900208870704700000C00004045
:10C8C00018040040F8210020172101804180002138
:10C8D00001714171704700002DE9FE4F2A4D9846C5
:10C8E00091460F00824601D000260DE0684600F018
:10C8F000C1FB6A460021504602F053F92878009E99
:10C9000010B99DF8090098B14A463146504603F0E7
:10C91000AFFF0446014600225046FFF797F9112C5D
:10C920001AD008DC74B3082C2CD00D2C09D129E0C6
:10C930000520BDE8FE8F862C1AD0A4F540500238A1
:10C9400020D00325B8F1000F04D0324621465046CE
:10C95000FEF70BFF2846ECE73A4629795046FDF7EB
:10C96000BBFF4A46E9785046FDF7B6FF0025E9E7E8
:10C970003A4629795046FDF7AFFF4A46E9785046D6
:10C98000FDF7AAFF2546DDE7D41B00202DE9F04185
:10C99000204F0E46154604463978FDF787FF0028DC
:10C9A00035D0204602F0D8F850B32046FFF710FEED
:10C9B00080462046B978FDF779FF08B1012700E0ED
:10C9C0000227204602F0ACFB0028404602D0FFF7C9
:10C9D000EBFD0DE0A8F57F41FF3909D0072102F0FA
:10C9E0001DFA010004D0052902D0204603F00CFDF9
:10C9F0002B46324639462046BDE8F041FEF766BD7B
:10CA00002A4631462046BDE8F041FEF711BEBDE89A
:10CA1000F0810000CC1B00202DE9F04391B081464D
:10CA2000FDF736FF002820D06846FDF7F7FE00240A
:10CA30006E4617E006EB44054946A888FDF736FF29
:10CA400078B10B4FA888F978FDF730FF8046A888A9
:10CA50003979FDF72BFF0146A88801234246FFF7ED
:10CA60003BFF641C0098A042E4D811B0BDE8F083FD
:10CA7000D41B00202DE9F047394E002780463D4663
:10CA8000DFF8E090D6F804A057E003D00446D0F8D1
:10CA90001C8035E099F8002002EB4201521CD2B212
:10CAA00089F8002009EBC10199F80230091D9A426A
:10CAB00001D189F8005048680A780446012A12D04A
:10CAC000022A02D0032A3BD108E004F073F800B137
:10CAD0000127257434E00574C06900E070680028FF
:10CAE000F9D170602CE0207C50BB88686060C86819
:10CAF000A0600869E0604869A061F07800B16560F5
:10CB00006268B168184B501A20F07F40984202D2F8
:10CB1000A168084406E0881AA16820F07F4081429D
:10CB200002D9081A206000E0256065600120A56038
:10CB300020742046E56104F01FF8B8F10000A4D18C
:10CB400099F8001099F801008142A3D117B97168D2
:10CB5000514502D00120BDE8F0870020FBE700002E
:10CB6000001C0020A0220020FFFF7F0030B585B010
:10CB70000546002414216846FCF749FDA5F57F40D1
:10CB8000ADF80250FF3815D02846FFF7F5FA98B1F6
:10CB90000B2815D0112811D0A0F54051023903D02F
:10CBA0000146284603F01CFC09482246C178284665
:10CBB000FDF792FE05B030BD0E2002E00124F3E740
:10CBC0000F208DF800006846FEF70AFEECE7000033
:10CBD000901B00200A4602498978FDF77DBE0000BF
:10CBE000901B0020F8B5054600780C460026204230
:10CBF0000FD100208DF800006846FDF707FA28786D
:10CC0000204202D12043287001269DF80000FDF744
:10CC100021FA3046F8BD000070B588B0214800F018
:10CC200092FA2048001F064600F08DFA1E4DD5E905
:10CC3000014105E0C0F3891202EB9050641C0444EA
:10CC400004EA010005EB8000C0688207F2D00020F2
:10CC50000DF1080204EA010305EB8303641CDB68A1
:10CC600042F82030401C0228F4D3029800F0030060
:10CC7000012808D002280AD10298032101EB905024
:10CC800004EB900403E00298C0F3831004443046A0
:10CC9000002101AAFCF725FC002800D06C6008B038
:10CCA00070BD0000702A002058260020A8B0002087
:10CCB00001F0AEFA08B1FDF70DF901F03DF9FDF70D
:10CCC00027F908B1FDF706F957490320FEF75CF98B
:10CCD00008B1FDF7FFF869460020FEF78BF808B1B0
:10CCE000FDF7F8F89DF8000002287DD05FF0000500
:10CCF00001F0EEFC08B1FDF7EDF8002469460120D3
:10CD0000009401F0B3FB08B1FDF7E4F8684601F0C8
:10CD10002DFC08B1FDF7DEF89DF8080043A120F0D6
:10CD20000F00401C20F0F00010308DF808000F229A
:10CD300002A87CDF08B1FDF7CDF800945020ADF8D3
:10CD40000000A0200194ADF80200ADF804404FF4BB
:10CD5000C870ADF8060068467ADF08B1FDF7BAF88A
:10CD60000021364800F056FA08B1FDF7B3F8A021CB
:10CD70006846FCF74CFC02208DF8000001208DF87D
:10CD800002000621ADF810008DF87C008DF803102C
:10CD90004FF496702A4922900591B4202390294897
:10CDA0002690264869461030FDF718FB08B1FDF7BC
:10CDB00091F8224801211030FDF70DFB1C21684637
:10CDC000FCF725FC4FF42030CDE900404FF47020F3
:10CDD000029003261C488DF80C600590ADF80E40BB
:10CDE0008DF81040194800E01CE006906846FDF7F9
:10CDF000E1FC08B1FDF76EF802F08EFA144815A1B7
:10CE0000008806EB004001F091F92846FCF786FF08
:10CE100001F0A0F80028FBD13EDF0028F8D0FDF794
:10CE200059F8F5E7012563E7E1AE01004E6F726442
:10CE300069635F54656D706C61746500401D00200E
:10CE40006A1B002079E80100C5E8010081B40100F7
:10CE5000101D002054656D706C61746520657861EB
:10CE60006D706C6520737461727465642E000000CF
:10CE700070B5144682880E4605462088111D01446F
:10CE8000921C994201D8FE2A01D90C2070BD521C77
:10CE900032542088FF21401C80B2208031542088E9
:10CEA000401C80B220808119288803F0BBFF2188B4
:10CEB000084480B22080AA8842B1A96841B13044B8
:10CEC000FCF78CFB2088A98808442080002070BDD6
:10CED000072070BD2DE9F047C7880446181D164687
:10CEE0008946B0FBF7F1B0FBF7F207FB12009A1985
:10CEF0003A44D21CB2FBF7F2DDF820A001E024682E
:10CF0000491E0029FBD13D1A8846B54216D818E0C3
:10CF1000BAF1000F05D0211809EB08002A46091DB7
:10CF200004E0204409EB08012A46001DFCF756FBEB
:10CF300000202468761BA844B74201D9354600E09A
:10CF40003D46002EE4D1BDE8F087000030B5024632
:10CF500069B101F08BF90021084C0BE001EB4103B2
:10CF600004EB830315685B88AB4202D1116000209B
:10CF700030BD491C8142F1D3052030BDC81C0020C2
:10CF8000F8B50E46017814460546012901D16878A6
:10CF900030B12088821C9A422DD8012902D006E0A7
:10CFA0000720F8BD69780144891C994223D8181AD2
:10CFB000801E87B2ADF800702188B01C0844694615
:10CFC0007DDF0028EDD12878022805D1BDF80010BA
:10CFD000B94201D809210AE00821012805D1687861
:10CFE000B84202D8ADF8000001E0ADF80070BDF81D
:10CFF0000000FE2801D90C20F8BD2288401CB05446
:10D000002088401C80B2208031542088401C208021
:10D01000BDF80010084420800020F8BD70B505461A
:10D020000C004FF0FF0020D04FF6FF76B5421CD029
:10D030000E48012241782846FDF74EFC2846FFF7AE
:10D0400015F8FF2803D1FFF72DF8FF280DD0084B66
:10D0500000EB400203EB82014D8023F8226022683E
:10D060004A60A2880A81A2798A7270BDA21B002040
:10D070009C1F0020034A00219268C0E900218160C2
:10D0800070470000D41B002070B54FF6FF750E46A8
:10D09000A84201D1002000E0401C84B208E02146F3
:10D0A000304602F06AFB08B1204670BD641CA4B291
:10D0B000FF2CF4D9284670BD10B5FCF744F908B12F
:10D0C000002010BD112010BD10B531B1B2FBF3F43A
:10D0D00003FB14241CB1092010BD0E2010BD0160FB
:10D0E0000021416081608281C381084610BD70B516
:10D0F0000C460546FCF7DCF8002802D02188286899
:10D10000084470BD10B50A8849888A4203D1FCF7EB
:10D1100011F9012010BD002010BD70B50C46054668
:10D12000FCF7EBF8002802D061882868084470BD3D
:10D1300010B50A8849888A4203D1FCF7D5F8012046
:10D1400010BD002010BD08B501216A46FCF7BCF9EE
:10D15000009808BD08B56A46FCF78FF8009808BD2E
:10D1600038B5044600258DF800506846FCF74EFFA0
:10D1700021686268086890420ED9401E08600178F4
:10D18000238AE26801FB0325227A2168101AC0B2C3
:10D190000A79824200D208719DF80000FCF75AFF1C
:10D1A000284638BD38B5054600208DF800000C46ED
:10D1B0006846FCF72BFFE868298A201AB0FBF1F1DA
:10D1C0002A681068431C136001709DF80000FCF78A
:10D1D00041FF38BD10B530B1017A42680368891A41
:10D1E000C9B21A6006E00E2010BD03681A68541C0C
:10D1F0001C601170491EC9B2F7D20068002101718C
:10D20000084610BDC20800F007030120895C984061
:10D210000840704710B560B1C160172120F8021BAB
:10D2200020F8021B1B2100F8021BFFF74DFB00201A
:10D2300010BD0E2010BD00002DE9FC4182880C4677
:10D24000002A51D101880126354F0025102906D02A
:10D25000112925D03A2927D055294BD146E0C07B4A
:10D2600004F1060E012802D12088AEF80000BEF8B5
:10D270000010BEF8020081423CD910469EDF020039
:10D2800008D0112A09D03888264906EB004000F062
:10D2900051FF2FE08EF805602CE08EF804602CE042
:10D2A000A01DFFF711FB25E02346408934F8061F37
:10D2B000814200D808466080172800D2172060807D
:10D2C000D86878B1607968B11749D1E90001CDE932
:10D2D0000001ADF802206088ADF80400DA68694604
:10D2E0001846904765712571BDE8FC8101462046CE
:10D2F00001F0F6FAA07A0028F6D02846E1889EDFF1
:10D3000002000AD0112AEFD0388802B006EB0040A4
:10D31000BDE8F041034900F00DBFA572E672E3E7F6
:10D32000C81C0020A81802003415020000F180403B
:10D330000068002800D00120704708B500F1804047
:10D34000002101600068009008BD000000283ED068
:10D350001F49204A096800BF00BF00BF00BF00BFCF
:10D3600000BF00BF00BF91422FD000BF00BF00BF71
:10D3700000BF00BF00BF00BF00BF00BF00BF00BFB5
:10D3800000BF00BF00BF00BF00BF00BF00BF00BFA5
:10D3900000BF00BF00BF00BF00BF00BF00BF00BF95
:10D3A00000BF00BF00BF00BF00BF00BF00BF00BF85
:10D3B00000BF00BF00BF00BF00BF00BF00BF00BF75
:10D3C00000BF00BF00BF00BF00BF0138C3D170471E
:10D3D000B01C00200024F40070B50F4C002520780C
:10D3E00008B1852516E00021A16061602161E1603E
:10D3F0004FF0E020D0F80001012610F0010F03D11A
:10D400000721002000F022F801F0AAF908B903482A
:10D4100006602670284670BDF821002018050040DF
:10D4200008B500208DF800006846FCF7EFFD0648BF
:10D43000C168491EC160C06808B9FFF731FA9DF89C
:10D440000000FCF707FE08BDF82100204907090E7F
:10D45000002806DA00F00F0202F1E02282F8141D23
:10D4600003E000F1E02282F8001400F01F02012125
:10D4700091404009800000F1E020C0F88012C0F81F
:10D48000001170472DE9F0418846054601F0E6FF9E
:10D49000234E002828461AD0FDF720FF304490F88C
:10D4A00048008009032802D001280ED007E04FF081
:10D4B000A040D0F81005E84010F0010F05D003217E
:10D4C0002846BDE8F04100F033BC0221F8E701F046
:10D4D000D1FF002822D02846FDF700FF04464FF474
:10D4E000807000EB84000F4F81B207EB8400D0F80E
:10D4F000102542F00102C0F81025084600F048FC53
:10D50000B8F1000F0AD02846FDF7E8FE56F82000D3
:10D51000002803D00120A040C7F80403BDE8F08133
:10D520000C220020006000402DE9FC41DFF8A480BF
:10D53000044608EB0400002790F930001346C0179A
:10D540000E46401C01D0082741E0F27819462046DB
:10D55000FDF7A0FE0546401C38D0B07850B14FF022
:10D56000A04000EB8400D0F8001721F00201C0F8C1
:10D57000001707E000217378204600910A460191C8
:10D5800000F085FBF078C0B11348317800EB8500DE
:10D59000D0F81025114B1A40C0F810254FF4F8525E
:10D5A0004FF4403302EA042203EA01410A43D0F86F
:10D5B00010150A43C0F8102509E008EB0500327881
:10D5C00010F8481F41EA8211017000E00427384634
:10D5D000BDE8FC810C22002000600040FFE0FCFF61
:10D5E0004FF0A041D1F81015C14011F0010000D05A
:10D5F0000120704770B5144D95F8540008B108200B
:10D6000070BD0020411E2A18401CC0B282F83010A4
:10D610002028F8D300242046FDF72EFE641CE4B237
:10D620000C2CF8D307210620FFF710FF4FF4BE7033
:10D6300000F0AEFB05494FF00040C1F804030120A3
:10D6400085F85400002070BD0C22002000600040CE
:10D65000034890F85400002800D0012070470000D3
:10D660000C2200200121B1EB507F01D10120704735
:10D67000002070472DE9F04105460F4600791F490B
:10D68000C0EBC00001EB80041646E07E10B108201C
:10D69000BDE8F08139462846FCF7F6FC666038693B
:10D6A0002060F6B13E7F4FF48871286801F0DDF804
:10D6B0004FF49071286801F0D8F84FF492712868FF
:10D6C00001F0D3F84FF4A271286801F0CEF8286871
:10D6D0000B49C0F8041328683146000B40B2FFF72D
:10D6E000B5FE28680821C0F800150020E0752076F6
:10D6F000A0750121E176A076CAE70000642200202F
:10D70000100302002DE9F04704460079254FC0EBD5
:10D71000C00007EB800590460E460846FFF7A2FFC3
:10D7200030B1204600F040F820B11120BDE8F0876C
:10D730001020FBE785F816804FF00008AE60A5F8D2
:10D74000148020794FF49079C0EBC00007EB80057E
:10D7500046464946206801F088F84FF4AC773946D0
:10D76000206801F082F82068A97DAA68C0F84425E5
:10D77000C0F84815206801218160686880B9CA46F0
:10D78000B9465146206801F06BF8074649462068C3
:10D7900001F066F80743F4D000B10F2685F8168033
:10D7A0003046C3E76422002000790549C0EBC00081
:10D7B00001EB8000807D002800D001207047000030
:10D7C000642200202DE9F041024600792549C0EB92
:10D7D000C00001EB800710684FF00008C0F800851A
:10D7E000786880B110682049C0F8081310680121DA
:10D7F000000B40B200F01F0399404009800000F187
:10D80000E020C0F880111068D0F80C35D0F814650D
:10D81000D0F80855D0F810454FF0FF31C0F80C157E
:10D82000C0F814151068C0F80815C0F81015581C79
:10D8300002D0184600F04FFA701C02D0304600F0BB
:10D840004AFA601C02D0204600F045FA681C02D05B
:10D85000284600F040FA87F81B80C7F80480BDE82E
:10D86000F081000064220020100302000FB408B50C
:10D870000399002904D004AA00926A4600F00FF828
:10D8800001B05DF814FB10B582680446002A05D08B
:10D89000D4E90403216898470020A06010BD2DE959
:10D8A000FC4791460C00804676D014F8011B39B134
:10D8B00025290ED04046FDF7C1FC20780028F4D180
:10D8C00098F80C00002867D04046BDE8FC47FFF7F9
:10D8D000DABF0020012221782B291BD02D2902D06C
:10D8E000302908D102E040F0010001E040F00200E0
:10D8F000641C002AEFD100252A290ED02178A1F13D
:10D9000030020A2A11D205EB850201EB4205641CA4
:10D91000303DF1E740F00400EAE7D9F800100B1DB4
:10D92000C9F800300968641C0D44217800232E29B1
:10D930000BD114F8011FA1F130020A2A05D203EB22
:10D94000830201EB4203303BF3E76C290DD06829D9
:10D950000BD0692921D00BDC252918D0582931D0CA
:10D9600063290ED0642915D117E014F8011FECE7E4
:10D97000702969D0732932D075291BD0782909D133
:10D9800020E0D9F80000011DC9F8001001784046D8
:10D99000FDF754FC641C90E76CE0D9F800100A1DF8
:10D9A000C9F800200968CDE900500A224046FEF778
:10D9B000C7FEEFE7D9F800100A1DC9F80020096872
:10D9C0000A2206E0D9F800100A1DC9F800200968EB
:10D9D0001022CDE90050404603F03AFADAE7D9F8D0
:10D9E000001000270A1DC9F800200E68C00705D1E5
:10D9F00012E04046761C7F1CFDF720FC31780029A0
:10DA0000F7D104E0202140466D1EFDF717FCBD4212
:10DA1000C0D9002DF6D1BDE74EB13046FBF702FE6E
:10DA2000074604E0202140466D1EFDF707FCBD427D
:10DA300006D9002DF6D103E04046761CFDF7FEFB2B
:10DA400031780029F8D1A5E7D9F80000011DC9F8FF
:10DA50000010056830214046FDF7F0FB7821404674
:10DA6000FDF7ECFB08200021CDE900010346102260
:10DA70002946B0E7BDE8FC872DE9F0411F46154671
:10DA800004000E4616D02068B8B1C5B160680268BF
:10DA9000501E304215D16A432046FCF717F980B179
:10DAA00020683B462A46D0F810C031462046BDE8E3
:10DAB000F04160470E20BDE8F0810820FBE7092017
:10DAC000F9E71020F7E720B119B101600B681146A2
:10DAD00018470E20704700002DE9F04128B1016879
:10DAE00019B1C969BDE8F04108470D4D0D48002442
:10DAF000461B14270DE000BF04EB840005EB8000FB
:10DB0000016829B1C969884710B10120BDE8F081D9
:10DB1000641CB6FBF7F0A042EED80020F6E7000048
:10DB2000B41C0020C81C0020044801214174007A64
:10DB300008B1002070470120704700003425002004
:10DB4000012801D0032808D10449002201284A7481
:10DB500000D00020087402F04FB870473425002030
:10DB600070B5254C0246207A012837D0022841D1D1
:10DB700022480023022A006802D0032A2ED11BE08B
:10DB8000E360017911B1012928D10DE0D0E90565E3
:10DB9000711B4FF48056B14200D331462944816154
:10DBA0004569A9420ED019E00169491C0161426929
:10DBB000914213D1237217E0E168491CE160082902
:10DBC0000CD9E3602372022A0ED00D21FDF7A6FDC9
:10DBD0000B480A49091D0068FFF794FA607C28B1D8
:10DBE000BDE8704000F0C2BD0021EFE7BDE8704025
:10DBF00002F002B870BD000034250020441C002053
:10DC0000081602002DE9F8431D46089F164688466F
:10DC100004000DD066B1206860B135B1606840681D
:10DC2000B5FBF0F100FB115030B10920BDE8F883DD
:10DC30000E20FBE70820F9E74046FCF741F890B1D9
:10DC40003046FCF73DF870B12A4641462046FCF7C5
:10DC50003DF840B1009720682B463246C7684146E0
:10DC60002046B847E2E71020E0E770B541EA4201FC
:10DC7000DDE904564FF0A04441EA830141EA052161
:10DC800004EB800041EA0641C0F8001770BD70B592
:10DC900041EA4201DDE904564FF0A04441EA830124
:10DCA00041EA052104EB800041EA0641C0F8001773
:10DCB00070BD70B541EA4201DDE904564FF0A04461
:10DCC00041EA830141EA052104EB800041EA064173
:10DCD000C0F8001770BD1CB5002100910B46012251
:10DCE0000191FFF7E6FF1CBD1CB500220B46009218
:10DCF00011460192FFF7DDFF1CBD1CB5002100910C
:10DD00000B46012201911146FFF7D3FF1CBD4FF0D6
:10DD1000A04202EB8000D0F8002722F44032C0F885
:10DD20000027D0F8002742EA0141C0F800177047E9
:10DD30004FF0A04202EB8000D0F8002722F44032DE
:10DD4000C0F80027D0F8002742EA0141C0F80017C8
:10DD5000704701224FF0A043824011B1C3F808255B
:10DD60007047C3F80C25704718B5084B6C46014442
:10DD70001B68009306E000BF54F82030D3F810353C
:10DD8000401C08C28142F7D818BD0000D41502001B
:10DD9000034908B50844002101600068009008BDEF
:10DDA0000060004002494058012800D00020704720
:10DDB0000060004030B5124B01460020D3F81044FB
:10DDC000224609E0157A854205D1401C0A28F7DB76
:10DDD0004FF0FF3030BD5268002AF3D1421CF9D019
:10DDE0000872D3F810242AB152684A60D3F810247C
:10DDF000516030BD0022C3F810144A6030BD0000ED
:10DE000058260020F0B595B01C4615460F4608462A
:10DE10001A9E00F0FBFA182109A8FBF7F8FB0E96F2
:10DE2000CDE909540023082203A9384600F008FB75
:10DE3000059806900498ADF81C0000208DF820008D
:10DE40000398082600F00300012802D002281DD004
:10DE50003CE003983346850AC0F3C2008DF81E00EB
:10DE600003980FA9C0F380008DF81F000398C0F33A
:10DE70008314A200384600F0E3FA09A8009006AB2C
:10DE800022460FA9284600F01DFA1FE00398840DD2
:10DE9000C0F3C2008DF81E000398C0F380008DF817
:10DEA0001F00082C01D2254600E0082533462A46EB
:10DEB0000FA9384600F0C4FA2E44641B09AB06AA29
:10DEC00029460FA800F04EF9002CEAD1384600F0A0
:10DED000A6FA15B0F0BD7047012002F0FFBE0000A9
:10DEE00010B50448FFF76EFCBDE81040002002F0BA
:10DEF000F5BE0000501C002008B5034A00924023E4
:10DF0000024AFFF77FFF08BD3104020058250020B8
:10DF1000084A012902EBC00005D0022903D00329D9
:10DF200003D0042903D0002070470079704740795E
:10DF300070470000A41E020010B5FFF7CDFF0421BA
:10DF40000348FFF737FF02490120487210BD000067
:10DF5000581C00202DE9F04F8DB0FDF77FF918B166
:10DF600000200DB0BDE8F08F6E480021C0F81814F5
:10DF7000BFF34F8FD0E9014604EA060100EB8101AF
:10DF80004FF000090AE000BFC1F3891202EB915182
:10DF9000641C0C4404EA060100EB8101C9688A078D
:10DFA000F2D0002103AA804604EA060008EB8000B4
:10DFB000641CC06842F82100491C0229F4D303986C
:10DFC00000F00300022802D001284BD0A4E00398FF
:10DFD0005022810D8A46B2EB905F00D850210D4649
:10DFE00065F39F50039008314F4800F0C6F90700D1
:10DFF00075D000F00BFA4B46082203A9384600F012
:10E0000025FA04EA0601701A8000001D09F1080BC8
:10E01000854220D9434E0C3630B1C2B208EB8101A3
:10E02000281A91460C3104E03146EAB200269146A6
:10E030003046C5B25B46384600F008FA0BEB0903E0
:10E0400026B12A463146384600F000FA0AF10300AC
:10E0500004EB90043AE008EB81015B462A4638461F
:10E060000C31F1E70398C0F38310062800D3062093
:10E07000039960F38911C1F38310801C039181001F
:10E08000294800F07AF9070046D000F0BFF94B4666
:10E09000082203A9384600F0D9F909F1080900253A
:10E0A0000EE000BF04EA060008EB80014B460422A4
:10E0B00038460C31641C00F0C9F909F104096D1CE3
:10E0C0000398C0F38310A842ECD847B1D8F8105495
:10E0D000D8F81804464660B1384600F0A0F91BE0B5
:10E0E000687A012804D12A68284639461268904780
:10E0F0006D68002DF4D1384600F091F900208DF8BC
:10E1000000006846FBF782FFD6F8180400B9746077
:10E110009DF80000FBF79EFFFDF7A0F880F00100DE
:10E120001FE70000582600206817020000231A4647
:10E1300002F098BC08B5012300926A4602F092FCF6
:10E1400008BD1CB5CDE9002302236A4602F08AFC13
:10E150001CBD3EB5069C8DE81C0003236A4602F0F8
:10E1600081FC3EBD2DE9F0470E4680461C46924696
:10E1700008293ED894F80C900020207319461046C8
:10E1800001F0A2FC0025B54206D218F805201AA11C
:10E190002046FFF76BFB03E019A12046FFF766FB63
:10E1A0006D1C082DEFD317A12046FFF75FFB00255C
:10E1B000B54210D218F80570FBF70CFA0068C05D84
:10E1C00010F03E0F01D03A4600E02E220EA120466C
:10E1D000FFF74CFB03E00DA12046FFF747FB6D1C4A
:10E1E000082DE5D301222146504601F04FFC84F86A
:10E1F0000C90BDE8F0870000202530327800000048
:10E20000202020007C00000025630000200000008A
:10E21000114810B5FF218160002101604160C0F804
:10E220001814C0F8141480F81C140C4800F0F5F809
:10E2300000280FD10A480B490B4B401AC108002097
:10E2400005E000BF00EB400223F82200401C88429A
:10E25000F8D3002010BD00005826002068170200E7
:10E26000F41E0200A41E0200C81C0020024803493C
:10E27000401AC00870470000F41E0200A41E0200ED
:10E2800013B56846FEF762FE08B100201CBD0248C7
:10E29000009950F831001CBDA41E020070B508485A
:10E2A0000125D0F8104480F81C5405E065722168FF
:10E2B0002046496888476468002CF7D170BD00008B
:10E2C000582600202DE9FF4781460C9D00200C4672
:10E2D0002F7B2873984616462946184601F0F4FB12
:10E2E000072E42D2DFE806F004090F161F2A360077
:10E2F00049462846FFF7BAFA37E0494628462268D9
:10E30000FFF7B4FA31E0D4E9002349462846FFF785
:10E31000ADFA2AE0A0680090D4E9002349462846D7
:10E32000FFF7A4FA21E0D4E90201CDE90001D4E924
:10E33000002349462846FFF799FA16E004F1080041
:10E3400007C88DE80700D4E9002349462846FFF7AF
:10E350008DFA0AE004F108000FC88DE80F00D4E937
:10E36000002349462846FFF781FA00222946404605
:10E3700001F08CFB2F73BDE8FF872DE9F041058A82
:10E3800080462D1F4819C01CB0FBF5F0C6B24046B0
:10E39000FEF7E6FE041E19D00020207101206071F6
:10E3A000E58000272546761EC4F800800BE0404635
:10E3B000FEF7D6FE60B16179491C6171286005469F
:10E3C0007F1CC0F80080B742F1D32046BDE8F08141
:10E3D000204600F002F80020F8E72DE9F0414579E9
:10E3E00001466B1E002201E00968521C9A42FBD3D1
:10E3F0000F680146002605E038460C68FEF7D2FE9D
:10E400002146761CAE42F7D3BDE8F08108B5012164
:10E410006A46001DFBF731F808BDFEF7DBBE38B5D4
:10E420000446001D01216A46FBF734F8009810F0FD
:10E43000FF0F04D12046BDE83840FFF7CEBF38BDFE
:10E4400038B501240094FEF745FD38BD38B50024E9
:10E450000094FEF73FFD38BD20B103490968016013
:10E46000002070470E207047F4170200FEB50246E8
:10E470000E460846FFF7F0FF002869D100250095F9
:10E480000195012403208DF80020ADF804000295C9
:10E490008DF8024069462020326869DF2D4F48B16F
:10E4A00000F0D4F93988024604EB01432A491846A2
:10E4B000FFF740FE0095019502958DF800406946F2
:10E4C0004020326869DF48B100F0C0F9398802465F
:10E4D00004EB014321491846FFF72CFE00950195F6
:10E4E00002958DF8005069460120326869DF40B11D
:10E4F00000F0ACF902463888194904EB0040FFF7F8
:10E5000019FE4FF4B0600090019502956946A12074
:10E51000326869DF40B100F099F902463888114944
:10E5200004EB0040FFF706FE0095019502958DF87B
:10E5300000406946A020326869DF40B100F086F9EA
:10E5400002463888084904EB0040FFF7F3FD00203D
:10E55000FEBD0000281D0020941D0200DC1D0200ED
:10E56000F41C0200401D0200A01C02002DE9F04135
:10E570000446D0F800E060DF2368144D064673457A
:10E5800015D02888022707EB0040724610A1FFF73C
:10E59000D8FDF806D0F80C012168800200F1005087
:10E5A000421A288816A107EB0040FFF7C3FD56B1B9
:10E5B000304600F04BF902462888012101EB00406B
:10E5C00018A1FFF7B7FD3046BDE8F081281D0020F7
:10E5D00052414D20737461727473206174203078DD
:10E5E00025782C2063616E2062652061646A7573F2
:10E5F00074656420746F20307825782E0000000048
:10E6000052414D2073697A652063616E20626520F6
:10E6100061646A757374656420746F20307825783E
:10E620002E00000073645F626C655F656E61626CF2
:10E630006528292072657475726E65642025732EB5
:10E640000000000030B593B05FF03805ADF84450DD
:10E6500011A903A861DF30B1052816D013B0BDE8B9
:10E660003040FBF737BC03AC0949684600F0AAF814
:10E6700007E000BFD0E9002120469047684600F03F
:10E68000B8F802980028E1D0F4E713B030BD0000DC
:10E69000F817020010B50D4C2078A0B10120A07031
:10E6A00001F0C8FC11280CD0022001F0DBFC11DFC6
:10E6B000002807D12070A07002F090F9032001F02B
:10E6C000D1FC002010BD082010BD0000AC1C0020B3
:10E6D00038B5174C207808B1082038BD0125A57041
:10E6E000002001F0A7FC112820D0002001F0BAFC86
:10E6F0001048114900680090684610DF0028ECD1EE
:10E700002570A07060700721162001F047FC08B149
:10E71000FBF7E0FB0721152001F040FC08B1FBF7F7
:10E72000D9FB02F077F9012001F09CFC002038BDF4
:10E73000AC1C00208C1702005D9E01000EB507493D
:10E74000684600F03FF805E0D0E9001088476846C9
:10E7500000F04FF802980028F6D10EBDA81702006D
:10E760000148007870470000AC1C00200548817803
:10E7700019B1007818B1FFF78DBF08207047FFF777
:10E78000A7BF0000AC1C00201FB5684648DF30B1B1
:10E79000052814D004B0BDE81040FBF79BBB084926
:10E7A00001A800F00FF806E0D0E90021009890479A
:10E7B00001A800F01EF803980028E6D0F4E71FBD7A
:10E7C00014180200016009684160AFF3008010B5C1
:10E7D000D0E900215368994201D1002104E0D1E938
:10E7E0000034A34202D01946816010BD0831416057
:10E7F000F0E7816800290BD0026892680A448260C1
:10E8000041684B689A4203D108314160FFF7DFBF8E
:10E81000704700000C4A10B502F1F0030EE0991A9F
:10E82000C91001EBD171491002EBC1010C6884429F
:10E8300001D90B4602E005D201F108029A42EED35B
:10E84000002010BD486810BD4C16020000B5FFF74F
:10E85000E1FF002800D1014800BD00003816020089
:10E860004058002800D00120704708B500224250CF
:10E870004058009008BD000010B590B1032814D195
:10E880000A480321008801EB004009A1FFF74EFC74
:10E890000220FCF76DFB002807D0BDE81040FBF715
:10E8A00019BBBDE8104001F083BE10BD101D002053
:10E8B00046617374206164766572746973696E670A
:10E8C0002E0000000078002807D104483B21008872
:10E8D00076DF002801D0FBF7FDBA7047681B0020E7
:10E8E0007CB506468D88C88805EB450106EB4104DA
:10E8F000A41D172800D217202188814200D808467D
:10E9000060800020207121882846ADDF020007D0FA
:10E910000E480121008801EB00400D49FFF70AFC79
:10E920006079002810D1F06800280DD00949D1E99C
:10E930000201CDE90001ADF802506088ADF8040095
:10E94000F2686946304690477CBD0000C81C002034
:10E95000EC1802003415020048B1064A01689142E1
:10E9600005D140680449401802D0012800D0032096
:10E9700070470000DEC0ADDE02FEE10E0389CA1C56
:10E980001A4402814289511AC91E41817047000010
:10E990002DE9F0410D460221904600F58056298070
:10E9A00000F10804144F1BE031462046FDF792FCAD
:10E9B00040B1B8F1000F02D0012288F800200228EF
:10E9C00016D004E0A0687969884200D97861288867
:10E9D00061880844C01C2880608804EB80040C34E3
:10E9E00031462046FDF789FC0028DDD1BDE8F081E5
:10E9F0004FF480602880F9E7141C002008B500213E
:10EA0000009101460823024A0248FFF7FBF808BDBF
:10EA1000F0150200B41C002008B500200090044846
:10EA20000823044A01680448FFF7ECF808BD000019
:10EA30003C1C0020E8150200B41C00202DE9F05F0A
:10EA40000025DFF80891DFF808B12C464FF00308E5
:10EA5000AA462F46D9F80C0000EB07363046FFF7E0
:10EA60007BFF78B3012847D0032862D100204FF400
:10EA7000806200BF56F82010491C0ED004EB8401C0
:10EA80000BEB8102A8F10100566003221FFA80F807
:10EA90000BF82120641CA4B24BE0401C9042E9D347
:10EAA0002C48016879B104EB840102200BF82100A5
:10EAB0000BEB81014E600881254828304480641C9E
:10EAC000A4B205E007E00221066081804FF0010A50
:10EAD00045F001052DE004EB840100220BF8212014
