:020000040001F9
:10900000803200204D9501005595010057950100D3
:10901000599501005B9501005D950100000000007D
:109020000000000000000000000000005F9501004B
:109030006195010000000000639501006595010045
:10904000E198010067950100319C010067950100DE
:109050006795010000000000099701006795010075
:10906000679501006795010067950100679501000C
:1090700067950100679501006795010067950100FC
:109080006795010039990100679501006795010016
:109090005D990100679501006199010067950100E4
:1090A00067950100679501000000000000000000C6
:1090B00067950100679501000000000000000000B6
:1090C00000000000000000000000000000000000A0
:1090D0000000000000000000000000000000000090
:1090E0000000000000000000000000000000000080
:1090F0000000000000000000000000000000000070
:10910000000000000000000000000000000000005F
:10911000000000000000000000000000000000004F
:10912000000000000000000000000000000000003F
:10913000000000000000000000000000000000002F
:10914000000000000000000000000000000000001F
:10915000000000000000000000000000000000000F
:1091600000000000000000000000000000000000FF
:1091700000000000000000000000000000000000EF
:1091800000000000000000000000000000000000DF
:1091900000000000000000000000000000000000CF
:1091A00000000000000000000000000000000000BF
:1091B00000000000000000000000000000000000AF
:1091C000000000000000000000000000000000009F
:1091D000000000000000000000000000000000008F
:1091E000000000000000000000000000000000007F
:1091F000000000000000000000000000000000006F
:10920000DFF80CD000F042FA00480047B5CE01006C
:109210008032002030B4044654E8000F0D4644E884
:109220000053002BF8D1156030BC704730B40446B1
:1092300054E8000F40EA010544E80053002BF7D141
:10924000156030BC704730B4044654E8000F00EAA3
:10925000010544E80053002BF7D1156030BC70477E
:1092600030B4044654E8000F80EA010544E8005396
:10927000002BF7D1156030BC704730B4044654E879
:10928000000F00EB010544E80053002BF7D11560F7
:1092900030BC704730B4044654E8000FA0EB010521
:1092A00044E80053002BF7D1156030BC7047000034
:1092B00030B450E8012F93B2C48923448489A34277
:1092C00028BF1B1B0489A34202BFBFF32F8F0020BE
:1092D00007E0C3EA020340E80134002CE9D14FF073
:1092E00001000A6030BC704750E8012FC2EA024218
:1092F00040E801210029F7D1704730B450E8022F2F
:109300001FFAA2F3C488A34202BFBFF32F8F00202D
:109310000DE0C48923448489A34228BF1B1BC2EAF1
:10932000034340E80234002CE8D14FF001000A600A
:1093300030BC704750E8022FC2EA224240E80221C6
:109340000029F7D17047034653E8022FD988B2EBC2
:10935000324F4FF0000017BF92B241EA014142EA9A
:10936000014104E05A68B2EB324F08BF012043E8E4
:109370000212002AE8D1704730B4044654E8000FC6
:109380000D4644E80053002BF8D1156030BC7047FF
:1093900030B4044654E8000F40EA010544E80053A5
:1093A000002BF7D1156030BC704730B4044654E848
:1093B000000F00EA010544E80053002BF7D11560C7
:1093C00030BC704730B4044654E8000F80EA010511
:1093D00044E80053002BF7D1156030BC704730B41F
:1093E000044654E8000F00EB010544E80053002B4D
:1093F000F7D1156030BC704730B4044654E8000F14
:10940000A0EB010544E80053002BF7D1156030BCF8
:109410007047000030B4044654E8000F0D4644E89D
:109420000053002BF8D1156030BC704730B40446AF
:1094300054E8000F40EA010544E80053002BF7D13F
:10944000156030BC704730B4044654E8000F00EAA1
:10945000010544E80053002BF7D1156030BC70477C
:1094600030B4044654E8000F80EA010544E8005394
:10947000002BF7D1156030BC704730B4044654E877
:10948000000F00EB010544E80053002BF7D11560F5
:1094900030BC704730B4044654E8000FA0EB01051F
:1094A00044E80053002BF7D1156030BC7047000032
:1094B00030B4044654E8000F0D4644E80053002B36
:1094C000F8D1156030BC704730B4044654E8000F42
:1094D00040EA010544E80053002BF7D1156030BC89
:1094E000704730B4044654E8000F00EA010544E830
:1094F0000053002BF7D1156030BC704730B40446E0
:1095000054E8000F80EA010544E80053002BF7D12E
:10951000156030BC704730B4044654E8000F00EBCF
:10952000010544E80053002BF7D1156030BC7047AB
:1095300030B4044654E8000FA0EB010544E80053A2
:10954000002BF7D1156030BC7047000006488047FB
:1095500006480047FEE7FEE7FEE7FEE7FEE7FEE718
:10956000FEE7FEE7FEE7FEE76599010001920100D4
:109570002DE9F05F0546002092469B468846064648
:10958000814640241BE0284641464746224600F0DB
:109590006CF853465A46C01A914110D311461846EA
:1095A000224600F053F82D1A67EB01084F46224679
:1095B0000120002100F04AF817EB00094E41201E5F
:1095C000A4F10104DFDC484631462A464346BDE8A3
:1095D000F09F000000487047941A020040EA01031F
:1095E0009B0703D009E008C9121F08C0042AFAD259
:1095F00003E011F8013B00F8013B521EF9D270471D
:10960000D2B201E000F8012B491EFBD270470022C4
:10961000F6E710B513460A4604461946FFF7F0FF71
:10962000204610BD421C10F8011B0029FBD1801AF6
:10963000704730B504460020034600E05B1C9342AF
:1096400003D2E05CCD5C401BF8D030BD202A04DBA7
:10965000203A00FA02F1002070479140C2F1200345
:1096600020FA03F3194390407047202A04DB203A84
:1096700021FA02F00021704721FA02F3D040C2F132
:10968000200291400843194670470000064C074DE0
:1096900006E0E06840F0010394E8070098471034C2
:1096A000AC42F6D3FFF7B0FD68200200882002002C
:1096B00070B58C1810F8015B15F0070301D110F894
:1096C000013B2A1106D110F8012B03E010F8016BC1
:1096D00001F8016B5B1EF9D12B0705D40023521E44
:1096E0000DD401F8013BFAE710F8013BCB1A921CAC
:1096F00003E013F8015B01F8015B521EF9D5A142AA
:10970000D8D3002070BD00002DE9F04700268CB0B2
:10971000DFF86091B0464FF4807501243746069615
:10972000284604F03DFC38B1D9F80403204203D0A8
:10973000284604F02BFC26432D1D64007F1CADB28F
:10974000082FEDD34FF4BE74204604F029FC48B135
:10975000204604F01BFC46F0004606AA012100202A
:1097600004F000FC444D16F0FF0F15D00127002433
:1097700037420DD009EB8401D1F81005D1F810154E
:10978000C0F3042055F82420C1F3014102B19047F1
:109790007F00641C082CEBD3002E67DA4FF0FF30FB
:1097A000CDE9088000263446281910F8507F90F93A
:1097B000000027F0C008401C44D009A9404603F02F
:1097C0001FFE58B34FEA9719404601F053FE55F873
:1097D00020701FB1B9F1030F03D00FE0B9F1030FEF
:1097E00030D108A84FEAD80208F00703815C4FF097
:1097F000010C0CFA03FC41EA0C0181544FF0A0412A
:1098000001EB8800D0F8000706A9C0F3014A4046E2
:1098100003F0F6FD18B1BAF1020F03D012E0BAF16D
:10982000030F0FD1B9F1030F08D1BAF1020F1BD00A
:109830000221404604F07AFB761CF6B217B1494685
:109840004046B847641C042CAED3002E0ED06A46A6
:109850000121002004F086FB06990098884205D07B
:109860000690089809909DE70321E2E70CB0BDE857
:10987000F0870000006000401022002000F01F026E
:10988000012191404009800000F1E020C0F88012E1
:10989000704700F01F02012191404009800000F153
:1098A000E020C0F80011704700F01F020121914034
:1098B0004009800000F1E020C0F80012704749071D
:1098C000090E002806DA00F00F0000F1E02080F811
:1098D000141D704700F1E02080F80014704700006C
:1098E0002DE9F0414FF48077384603F01DFE012446
:1098F000104EA50748B1384603F01DFE0120C5F8FB
:1099000008037470002001F0D9FD4FF482773846C7
:1099100003F00AFE00280BD0384603F00CFE0220AC
:10992000C5F80803B470BDE8F041012001F0C6BDE0
:10993000BDE8F081FC21002007480021C0F840115B
:10994000C0F84411C0F84811C0F84C11C0F800111B
:10995000C0F8041107F07ABA0010014007F0C4B94A
:1099600004F0E8BFF0B5A1480127031D01783A07CC
:10997000181D06290BD11C78240708D10478C4F3DC
:109980000314032C06D0042C04D0052C02D0062985
:1099900007D011E0B2F82443954DC4F304242C60A1
:1099A00002E01C78240707D10478C4F30314032CC5
:1099B00002D1914D8F4C6C67D2F844428F4DC4F365
:1099C00042342C6006290CD11C78240709D1047874
:1099D000C4F30314032C04D1894C256825F0807549
:1099E00025604FF080440025C4F80C51C4F8105194
:1099F000824C241F2560062907D11C78240704D136
:109A00000478C4F30314032C02D0062908D01FE005
:109A1000DFF8E8C103240CF1640CCCF8004007E047
:109A20001C78240714D10478C4F30314032C0FD139
:109A3000DFF8D0C10524CCF80040724C78342760A0
:109A4000704C083425600CF1040C3F24CCF8004025
:109A50006D4C2468DFF8B4C1CCF800406A4C241D7A
:109A600024680CF1040CCCF80040674C08342468DE
:109A70000CF1040CCCF80040634C0C3424680CF15D
:109A8000040CCCF80040604C103424680CF1040C39
:109A9000CCF800405C4C143424680CF1040CCCF875
:109AA0000040594C18342468DFF860C10CF1200CD8
:109AB000CCF80040544C1C3424680CF1040CCCF855
:109AC0000040514C203424680CF1040CCCF80040C8
:109AD0004D4C243424680CF1040CCCF800404A4C62
:109AE000283424680CF1040CCCF80040464C2C348B
:109AF00024680CF1040CCCF80040434C303424684A
:109B0000DFF808C10CF1400CCCF800403E4C343476
:109B100024680CF1040CCCF800403B4C3834246829
:109B20000CF1040CCCF80040374C3C3424680CF1A8
:109B3000040CCCF80040344C403424680CF1040C84
:109B4000CCF80040DFF8C8C0FB24CCF80040062960
:109B500013D11C78240710D10478C4F30314032C08
:109B600003D0042C01D0052C07D1D2F85842DFF8DD
:109B7000A4C004F04F04CCF8004027480168C9078E
:109B800002D06FF0010101604FF01021D1F8000206
:109B9000002803DBD1F80402002822DA1F4A1760EC
:109BA0001F480368002BFCD01523C1F8003204685D
:109BB000002CFCD0C1F8043201680029FCD01560EB
:109BC00001680029FCD0BFF34F8F0D48F0380168C1
:109BD000144A01F4E06111430160BFF34F8F00BFED
:109BE000FDE7124910480860F0BD0000E00F00F0EA
:109BF000403501400DF0ADBA00C007403C050040C3
:109C0000FCED00E0105600400404001020C50040A8
:109C100018F50040E40E00400004004004E5014057
:109C200000E401400400FA050090D003AC1C0020C1
:109C30000149024807F072B9682200200020004064
:109C400002E008C8121F08C1002AFAD17047704705
:109C5000002001E001C1121F002AFBD17047000063
:109C60000121202803DA81400548014003E0402813
:109C700002DA2038814009B1012070470020704786
:109C8000FC06FFBD082806D228B1012803D004280D
:109C900001D0012070470020704710B560B159B164
:109CA00002780B785208B2EB530F05D10622401C04
:109CB000491CFFF7BEFC08B1002010BD012010BDFB
:109CC000800701D00020704701207047C3688B4295
:109CD00006D811440069491E814201D8012070470D
:109CE0000020704710B501220221002001F0EAF99E
:109CF00008B1072810D107220221012001F0E2F962
:109D000008B1072808D100210A22084601F0DAF933
:109D100008B1072800D1002010BD000010B550B1D7
:109D20000A480321008801EB004009A104F0FCFA75
:109D300005F034FF03E00321094800F0B9FC0028D6
:109D400003D0BDE8104000F047B910BD001D002051
:109D5000457261736520626F6E64732100000000BC
:109D6000541D002070B58CB015460E4600236C467D
:109D7000C3F10F01415CE1545B1C102BF8D30D21A2
:109D800004F11000FFF743FC0020C0F10F02315C2A
:109D90002244401C11740328F7D3684643DF002097
:109DA000C0F10F01214491F820102954401C0328D0
:109DB000F6D30CB070BDF0B58FB00D4606461C2131
:109DC0006846FFF724FC00249DF80000039440F04F
:109DD0000A008DF80000012701948DF8367042F6D4
:109DE0000620049405940694ADF834000C94687A27
:109DF0008DF83000A87A8DF831009DF832001421DA
:109E000020F00600801C20F019008DF8320007A811
:109E1000FFF7FDFB287A8DF838000DA807900CA8F5
:109E20000890ADF824700EA8ADF82640ADF8287063
:109E30000B90308906F10A0307AA6946A2DF0FB02A
:109E4000F0BD0000124910B50988032202EB01425F
:109E500048B101280DD0022818D110460DA104F0F8
:109E600063FA10200AE010460DA104F05DFA1120FB
:109E700004E010460DA104F057FA0D2001F044F95A
:109E8000002803D0BDE8104000F0A6B810BD0000C7
:109E9000001D00204869676820416C6572742E00BF
:109EA0004E6F20416C6572742E0000004D696C6429
:109EB00020416C6572742E00022000F0F3BF000098
:109EC0000149097900F056BDC81B002070B5002477
:109ED000064D06E06868012110F8340003F0D0FB5D
:109EE000641C28788442F5D3002070BDE81B002054
:109EF000F8B515460C460646052A01D20720F8BDDE
:109F000003F0A4FC18B903F073FC0028F7D1104942
:109F100000204E600C70C1E902500E4D08610DE04A
:109F200006EBC4006968009181788DF80110007813
:109F3000094A694603F0F6FB0028E0D1641EE4B24A
:109F4000EED2BDE8F840054A0021024800F050B8C2
:109F5000E81B0020C8170200DDC2010029B701007C
:109F600004F09AFA04F0F4F80028FBD1104C012117
:109F7000208801EB00400FA104F0D6F910480068DA
:109F8000C00700D000BE2088022101EB00400DA1D7
:109F900004F0CAF9BFF34F8F0948E43801680D4A4D
:109FA00001F4E06111430160BFF34F8F00BFFDE793
:109FB000001D0020466174616C206572726F720032
:109FC000F0ED00E053797374656D2072657365740C
:109FD000000000000400FA050EB500210091CDE953
:109FE00001106A4644F20100FFF7BAFF0EBD0000FF
:109FF000074B9B7823B12AB120B10068037C1BB1C9
:10A000000820704707207047417442610020704764
:10A01000A422002070B506F08DF8104800240B2112
:10A02000047044700E4D817014206C602C706C7044
:10A03000FFF724FC07211420FFF741FC1420FFF751
:10A0400028FC0848046007211120FFF738FC054868
:10A05000001F0068A860002070BD0000A42200203E
:10A06000FC1B0020081501402DE9FC47DFF8789023
:10A0700099F8023073B368B3052902D20720BDE80E
:10A08000FC87436933B3437C012B25D0002704466A
:10A090000025884616468DF80050684600F038F8CE
:10A0A00001A807F067F8C8B1012101700F494460A9
:10A0B0000968C0E90218C0E904769DF8040089F82F
:10A0C00001009DF8000000F047F81420FFF7ECFBBA
:10A0D0002846D4E70820D2E70F46D8E704259DF8A4
:10A0E000000000F039F8F3E7A42200200415014035
:10A0F0000649897839B130B1416921B10021017433
:10A10000022106F07FBE082070470000A422002034
:10A1100030B5EFF3108172B60D4A9468012324B173
:10A120000370002900D162B630BD93604FF0E02388
:10A13000D3F88051074C25401560C3F88041D3F80F
:10A14000844154605A17C3F8842100220270E8E762
:10A15000B0230020FC06FFBD0B498A68002A11D0FD
:10A1600000280FD1EFF3108072B60B684FF0E02299
:10A17000C2F800314B68C2F8043100228A6000281E
:10A1800000D162B670470000B02300202DE9F041F5
:10A19000064608680C46411C4FF0A0474FF00105E9
:10A1A00006D005FA00F1C7F80815206803F0A3FEF1
:10A1B0006068411C02D0002103F094FE3168A06960
:10A1C000C1F82405607D217D32680843C2F86C0522
:10A1D000D4E900123068C0F80C15C0F81425207DB1
:10A1E000012815D1A068411C02D0002103F07AFE9D
:10A1F000E068411C05D08540C7F80855E06803F0C9
:10A200007AFED4E902123068C0F80825C0F81015AB
:10A21000BDE8F0812DE9F047074600888EB0804602
:10A2200000F070FB0646404602F0D6FA824604462D
:10A230002E4800252A460178404600F0B1FB002E4A
:10A2400050D07879400734D501254FF6FF7603AB1F
:10A250002A460721504604F055FE010004D040462E
:10A2600006F0C8F900252BE0B1463146049802F00B
:10A2700007FA064648450FD004460146404602F01C
:10A2800095FA4046FFF71CFE30B9404606F084F9C7
:10A290004046FFF715FE48B122460721504604F01C
:10A2A000C7FE010003D0404606F0A4F900254E4544
:10A2B00006D0404605F02AF810B1504602F078FA70
:10A2C00002208DF81800ADF81A807879400701D582
:10A2D000012000E002208DF820008DF8215006A812
:10A2E00001F06EFB0EB0BDE8F0870000C81B002037
:10A2F0002DE9FC47002517880646158090F82D00AB
:10A300001446894630B13A462146484600F060FB83
:10A31000050009D1B0784FF00C0A18B32088C84660
:10A32000001DB84202D95046BDE8FC87684679DF77
:10A330000028F9D12088032108F80010208819216D
:10A34000401C80B2208008F800102088401C80B299
:10A35000208000EB0801BDF8000006F05BFE2188BC
:10A3600008442080F0780222C8B1218896F9033091
:10A3700001F1030C4846BC45D5D8425421884FF022
:10A38000010C491C89B2218000F801C02188491CB8
:10A3900089B2218009F801302088401C2080706833
:10A3A000B8B1218890F9003001F1030C4846BC4552
:10A3B000B9D8425421880A22491C89B221804254CA
:10A3C0002188491C89B2218009F801302088401C6D
:10A3D0002080308950B1CDE900474B46062202214A
:10A3E00006F1080006F0DEFE05009DD1308A50B16E
:10A3F000CDE900474B460722032106F1100006F085
:10A40000D1FE050090D1308B50B1CDE900474B46CD
:10A410001522142106F1180006F0C4FE050083D1B0
:10A42000306A30B13B462246494601F0B1F805009A
:10A43000DBD1706A30B13B462246494602F016FE37
:10A440000500D2D196F82C0038B13B462246494649
:10A45000304606F05FF90500C7D1307838B13B4689
:10A4600022464946304602F089FE0500BDD1284605
:10A470005AE7F0B50C4693B01F210726ADF800103F
:10A48000ADF80410002750B1C17849070DD56A46D0
:10A4900002A9FFF72DFF002808D102AD02E0002538
:10A4A000ADF800706CB1E07810B1304613B0F0BD7B
:10A4B00001AA0AA92046FFF71BFF0028F6D10AAA25
:10A4C00002E00022ADF80470BDF80400C3B2BDF88C
:10A4D0000000C1B2284672DFE8E780F82410704718
:10A4E00070B50D00044653D0F4B30120207000264F
:10A4F000E670202205F17801201DFFF76FF884F83F
:10A500002460D5F89800C4F8CC00D5F89C00C4F8B5
:10A51000D0004FF6FF70A4F8C800C4F82560A4F876
:10A52000296084F82B6004F130003C210646FFF7D7
:10A530006EF8287884F83000A87884F83200E8783B
:10A5400084F83300687884F83100D5E90401C4E95F
:10A550001001D5E90201C4E90E01D5E90601C4E9FB
:10A56000120195F82D0000E012E084F85D00686AA1
:10A57000D8B104F1780104F16C0061676065696A23
:10A5800009880180686A616D80888880002008E001
:10A590000E2070BD696A22188968095C82F87810FB
:10A5A000401C616D89888142F4D8A86AE8B104F141
:10A5B000A400C4F8A0000C38A065A96A898881802D
:10A5C000A86AA16D00880880002006E0A96A221808
:10A5D0008968095C82F8A410401CA16D89888142B9
:10A5E000F4D895F82C0084F85C00286A48B104F18E
:10A5F000C4002065296A49884180286A216D008845
:10A600000880686800B1606305F13C013046BDE830
:10A610007040FFF72EBF10B50288102A1AD0112AF9
:10A620001FD01B2A1CD1007A0C46002818D1E078D4
:10A630000521401CB0FBF1F201FB1201204600F0A5
:10A6400037F800280CD0D4F8D010002908D0BDE885
:10A6500010400847C27B012A02D18088A1F8C800B7
:10A6600010BD0C46002184F8D4108088B4F8C810BE
:10A670008842F5D120790028F2D10121DEE710B51A
:10A680000C46022801D0032811D1607800280ED092
:10A6900000206070E178204600F00AF8002806D01B
:10A6A000D4F8D010002902D0BDE81040084710BDF2
:10A6B0002DE9FF47044600780F4638B1E7700020C7
:10A6C00003F008FB012628B16670D2E0082004B030
:10A6D000BDE8F0870025C4F82550A4F8295084F877
:10A6E0002B50A07910B1E078012806D0E07970B144
:10A6F000E078012801D0022809D1D4F8CC1021B18A
:10A7000084F82C600820884701E084F82C5004F17C
:10A71000260100200A5C0AB1304603E0401C0628EE
:10A72000F8D300204FF002084FF0030A4FF004095D
:10A73000012F06D0022F09D0032F0CD0042F12D1E5
:10A740000DE0A17911B108B130460DE0E17911B108
:10A7500008B1404608E0207A08B1504604E0607A2B
:10A7600008B1484600E02846E070D4F8CC1041B16A
:10A77000032801D0042804D1607910B194F8D400E2
:10A78000A8B184F8D55000950295019503958DF8F0
:10A7900000508DF80850E17804F1250004F13002F2
:10A7A000052958D2DFE801F0670A131F3B0084F83F
:10A7B000D65084F8D56007208847E4E7A67001905A
:10A7C0008DF80060ADF80C50ADF80A5043E084F805
:10A7D000028001908DF80060208AADF80C00A089FD
:10A7E000ADF80A0037E0A08AADF80A00208BADF87A
:10A7F0000C00607980B194F8D40068B994F8D60060
:10A8000050B18DF8088084F8339000211046FFF78E
:10A8100030FE00BB05211AE084F802A01BE0A08BEB
:10A82000ADF80A00208CADF80C00607988B194F87E
:10A83000D40070B994F8D60058B18DF8088084F827
:10A84000339000211046FFF714FE20B90621A170B5
:10A8500001E084F80290E07830B194F82410684662
:10A8600073DF00287FF433AFD4F8CC1009B1A0789F
:10A87000884700202BE7A570F6E7000070B50400BC
:10A8800012D001461C221448FEF7A8FE1248134DB0
:10A890000560206850B17ADF002806D12068016881
:10A8A00029604068686005E00E2070BD0B487BDFC2
:10A8B0000028FAD108484FF6FF711438084A20F8EA
:10A8C000041B0549343901600021FFF791FB002882
:10A8D000EBD0032070BD0000CC1E0020841B0020A4
:10A8E000F510020002494A6C091D05F015BD000073
:10A8F000E81E002002460248016D001D05F0F9BC6B
:10A90000E81E002070B5084E054600242A46301D7A
:10A91000716C05F0EEFC28B12A46301DF16C05F093
:10A92000E8FC0124204670BDE81E002010B500247C
:10A93000204606F013FC28B1641CE4B2182CF7D3AF
:10A94000182010BD03480122A24001681143016094
:10A95000204610BDE81E002010B5044606F0FEFBA0
:10A96000002803D0024800EB8400806D10BD000079
:10A97000E81E002070B505460C46084606F0EEFBC2
:10A98000002809D005482A4600EB8401001D896D86
:10A99000BDE8704005F0ADBC70BD0000E81E0020B1
:10A9A00070B5064615460C46084606F0D7FB00284B
:10A9B0000AD006482B4600EB84013246BDE87040C1
:10A9C000001D583105F0CDBC70BD0000E81E002010
:10A9D0007CB5054608880C460930904201D90C2008
:10A9E0007CBD68466DDF0028FAD1218808206854B4
:10A9F00020881B21401C80B2208029542088401CC4
:10AA000080B220802844DDF801100160BDF80510F7
:10AA100081802088801D80B220809DF80010490828
:10AA200000D0012129542088401C208000207CBDBA
:10AA300010B5028888B00446212A22D010DC012AF1
:10AA400034D02D480321102A008801EB004011D09A
:10AA5000112A1FD108B029A1BDE8104003F064BC41
:10AA60003B2A19D0512A25D0562A13D18088132188
:10AA700076DF14E025A103F057FC072000F044FB2B
:10AA80000DE000200090A08869468FDF2FE000BF16
:10AA9000FFF7A2FA08B010BD8088132176DF0028E6
:10AAA000F8D008B0BDE81040FFF796BA80880021C2
:10AAB00066DFF4E71022A11D04A8FEF78FFD9DF8C4
:10AAC00010100029E6D09DF81800042803D00628AD
:10AAD00001D00528DED102290CD001208DF800001C
:10AAE0004FF4C170ADF80400A0886946A8DF0028C3
:10AAF000CED1CFE70220F1E7001D00204469736347
:10AB00006F6E6E65637465642E000000436F6E6E39
:10AB100065637465642E000010B51A4C0188606886
:10AB200010290ED011292BD1401E606028D1FFF7CB
:10AB3000D9F8002824D02168002921D0BDE8104090
:10AB40000847D0B900210122084600F0BBFA08B13D
:10AB500007280FD107220221012000F0B3FA08B123
:10AB6000072807D104220221002000F0ABFA20B10F
:10AB7000072802D0216801B188476068401C6060E6
:10AB800010BD00007C1B00202DE9F04701883B4EE2
:10AB900040F2F3194FF6FF7510291BD011293ED052
:10ABA000122954D0502946D1C188F289841D91427E
:10ABB00041D1618902293ED18688304601F0BAFE32
:10ABC000050038D004F10C0000F051F9A8B3294673
:10ABD00030464EE0C17B8788044601292BD1A84628
:10ABE000284601F0A7FE050017D02F80002028720C
:10ABF000234843464A460168C5F80A104068C5F82C
:10AC00000E0004F1100105F10A0001F0F9FE68726E
:10AC1000F08900280FD129462AE0042013E080881B
:10AC200001F088FE040006D06068FFF761FA08B101
:10AC300005F0C4FC2580BDE8F087FFE76868FFF7F2
:10AC400057FA0028F7D0BDE8F04705F0B7BC878871
:10AC50000646384601F06EFE0400ECD02B464A460C
:10AC600006F1080104F10A0001F0CAFE60722146F3
:10AC70003846BDE8F04700F0D1BC0000CC1E0020F3
:10AC8000841B00202DE9F04705460388394801223E
:10AC9000A4B000F1480A102B09D0112B48D01A2B70
:10ACA00064D1297AB2EB111F47D2012346E0D0E9E3
:10ACB00011218A430446011D12A805F02DFB4422F0
:10ACC00012A901A8FEF78AFCDFF8A89000263746F3
:10ACD00009F144090DF104080AE000BF08EB460041
:10ACE0001D2283884946201D009705F0C7FA761C6F
:10ACF0000198B042F2D8606CAD88C04305F0E0FA2C
:10AD0000A0F57F41FF390DD004EB40000123858081
:10AD10002A465146201D05F024FB01232A464946B8
:10AD2000201D1EE024B00420BDE8F047FFF754B911
:10AD30000023AA885146001D13E000230D49044654
:10AD4000AA885031001D05F00CFB287A0221B1EBD6
:10AD5000101F01D2012300E000230649AA885431C4
:10AD6000201D24B0BDE8F04705F0FBBA24B0BDE8D3
:10AD7000F0870000E81E002010B504460748007860
:10AD800000280AD0204601F001FC204605F01CFDF9
:10AD90002046BDE8104001F07BB910BDB81B002073
:10ADA0001CB568B161B1002201230092ADF80030FA
:10ADB000ADF8022001914189408A6A46A5DF1CBD99
:10ADC0000E201CBD38B50D46040018D0BDB1286852
:10ADD000B8B120606868606001208DF8020041F61B
:10ADE0000300ADF8000004F1080269460120A0DF6D
:10ADF000002803D129462046FEF7DDFF38BD0E208E
:10AE000038BD072038BD38B50246002929D0002AB0
:10AE100027D013880020102B0FD0112B11D0192B05
:10AE20001FD10B46117A00291BD18DF800008DF837
:10AE30000100694618461A6817E00B469188598246
:10AE4000F3E70C46117A08290BD18DF80000204653
:10AE50000DF10101FFF7A4FF20B16168002900D0C6
:10AE6000884738BD226869462046904738BD00783B
:10AE700000F00100704700000149085C70470000C5
:10AE8000841602000649095C4FF0A040D0F8100576
:10AE9000C84010F0010000D0012080F00100704790
:10AEA0008416020007490B5C4FF0A041D1F804253D
:10AEB0000120984020EA0203C1F808351040C1F88B
:10AEC0000C057047801602000249085C012103F05E
:10AED0003EB80000801602000249085C002103F021
:10AEE00036B80000801602000649095C4FF0A04009
:10AEF000D0F80405C84010F0010000D0012080F017
:10AF000001007047801602007CB50024084E2546DB
:10AF10000122305D009500231146019502F0A3FF48
:10AF2000641C042CF4D3BDE87C4000F003B800009E
:10AF30008016020010B500242046FFF7C5FF641CF0
:10AF4000042CF9D310BD10B500242046FFF7C4FF30
:10AF5000641C042CF9D310BD10B50246064B4FF00B
:10AF6000FF3000215C5C944201D1084610BD491CB1
:10AF70000429F7D310BD00008416020070B50C4EF2
:10AF80000C004FF0000530600BD0012000F06AF893
:10AF900008B1022004E0002000F064F800B10B20AA
:10AFA0002070706810B9FEF79DFE0546284670BDFA
:10AFB0007C1B002010B5002000F0D8F908B106284D
:10AFC00006D1012000F0D2F908B1062800D10020F6
:10AFD00010BD00002DE9F0470D468146FFF7BCFF8C
:10AFE0000446042836D2DFF874801B481C4EA8F1B2
:10AFF0000C0725B3012D0ED0022D2BD104EB4400FC
:10B0000030444578002D25D0B968002922D0284643
:10B01000BDE8F047084704EB4401755C0E447178C5
:10B0200049B10E4A4FF40041093A8068FFF71CF815
:10B0300008B987F80390B17808F80410E2E780684F
:10B04000FFF756F804EB4401314418F804008D78FA
:10B05000A842D7D0BDE8F08788160200781B0020F0
:10B060006C1E0020FFF70EBF10B5042813D00A286D
:10B070000DD00F281BD10E480321008801EB0040A2
:10B080000CA103F051F9112000F03EF809E0BDE8F1
:10B09000104005F085BB0A481321408A76DF082856
:10B0A00005D0002803D0BDE81040FEF795BF10BDC5
:10B0B000001D0020416C657274204F66662E0000F2
:10B0C000401D002070B50023042810D20D4D00EB68
:10B0D0004004012A02D101290CD00022094E00EBC4
:10B0E0004000304461B1012906D0022906D007236F
:10B0F000184670BD0E30C2B22A55F9E74270F7E724
:10B100008270F5E76C1E0020044A01460020127987
:10B11000D20702D0084600F04DB870476C1B0020E3
:10B1200070B506461E480024C0E90161B00720D56D
:10B130000025012211462846FFF7C4FF6D1C044676
:10B14000042D02D2002CF4D013E094B940F26662D0
:10B1500004211448FEF7CCFE04000AD1FEF7B6FE27
:10B16000040006D10F48104A0021001FFEF740FFDF
:10B170000446F00701D0FFF7C7FE74B909480B4A2F
:10B1800000210C38FEF734FF040006D10548084AB8
:10B1900001210838FEF72CFF0446204670BD000050
:10B1A0006C1B00209416020009B4010095CA01002E
:10B1B000B99E01002DE9F05F6A4C054600266078D3
:10B1C000B34618B184F801B001F04CFC664F4FF45F
:10B1D0007A694FF4C87A4FF00108182D62D2DFE87F
:10B1E00005F0AC0C0C31404D62676B746B74BE7D26
:10B1F0007D7D7D7DACAFB2B5BEBE0020FFF774FE95
:10B2000000284FF0000008D0FFF75EFE022D02D1AB
:10B210004FF4E16008E0484606E0FFF75DFE022DCE
:10B2200001D1C82000E05046410CC0034FF4FA722F
:10B23000801841F10001257052000023FEF798F9B3
:10B2400001462AE00020FFF74FFE00284FF00000E3
:10B2500004D0FFF739FE4FF44870E5E7FFF73CFEF6
:10B26000DFE70020FFF740FE00284FF0000002D08B
:10B27000FFF72AFECFE7FFF72FFED4E70020FFF706
:10B2800033FE00284FF0000002D0FFF71DFE01E062
:10B29000FFF722FE257041F69A1100223868FEF76A
:10B2A000E3FE064646E00020FFF7FCFD257008E0BF
:10B2B000002051E025703DE084F801800120FFF777
:10B2C000F1FD002240F6CD41E8E784F8018001203D
:10B2D000FFF7E8FD00224FF48041DFE77868FEF7D2
:10B2E00007FF0646D5F1110000D02EB10220FFF76E
:10B2F000EBFD84F802B01DE0012816D980B2C82108
:10B300004843C117C90341EA5041C0034FF4FA72E0
:10B31000801841F1000152000023FEF729F901468F
:10B3200000227868FEF7A0FE06460220FFF7D4FD53
:10B3300084F802803046BDE8F09F01F093FBB9E746
:10B3400001F090FBB4E701F08DFB04E001F08AFB13
:10B350000020FFF7C1FD0120FFF7BEFDAAE7FFF7C0
:10B36000F2FDA7E76C1B00208816020010B5FFF75E
:10B3700083FD032102F0C9FD002010BDF8B5861C35
:10B3800000208DF800000C4601276846FEF7C0FE3D
:10B390000F4801682160D0E90012891A82680446CA
:10B3A000511AB51C07E000BF01F03AFDD4E90001D5
:10B3B000401AA168091A491C8D42F5D8206830440A
:10B3C00020609DF80000FEF7C7FE3846F8BD00007B
:10B3D0005C26002030B482680468531C8360A1544A
:10B3E000D0E901128A4202D330BC02F04ABB30BC21
:10B3F00070470000034803C8814201D10120704713
:10B40000002070475C26002000780221FFF7E2BD93
:10B4100005494FF0FF32082841F8202002D30844A4
:10B4200080F848207047000010220020F0B54FF04F
:10B43000FF3512B10023082601E008230C260C4C2E
:10B4400005E000BF54F823707F1C04D05B1CB3429E
:10B45000F8D32846F0BD26185DB286F8305044F87F
:10B460002310002AF5D1E11881F84800F1E7000027
:10B47000102200200249084490F930007047000073
:10B480001022002070B504464FF6FF750A46284684
:10B49000AC4208D14FF480742146104604F048FABB
:10B4A000A04209D070BDFF2CFCD82146104604F004
:10B4B00032FA08B1204670BD284670BD70B5084C00
:10B4C000050009D010342168002907D008682060E1
:10B4D000496828468847F6E70834F4E770BD00005D
:10B4E000FC2100202DE9F05F26484168F1B3DFF828
:10B4F00098B00E688146DBF8004087688078E11BD1
:10B5000021F07F45ED1CB0B9DFF880804FF480302A
:10B51000C8F84403C8F804031120FEF7AFF911205E
:10B52000FEF7B7F94FF0010AC8F800A02F2002F08B
:10B530000BF889F802A0B54200D23546124BE81943
:10B540003C3320F07F401860DBF800105A46091B9E
:10B5500021F07F41001B20F07F40C91C81420FD9A0
:10B56000106818602F2001F0EFFF00E004E0BDE854
:10B57000F05F1120FEF798B9BDE8F05F04F0DABD86
:10B58000BDE8F09FFC1B00200415014000100140A5
:10B590002DE9F04117880646B81D14460D4698421D
:10B5A00002D90C20BDE8F0813188072206290AD390
:10B5B0004FF4486C4FF6FF73614501D9994202D1AF
:10B5C0007088062801D21046ECE7604501D9984200
:10B5D000F9D1994203D0984201D08142F3D8052095
:10B5E000E85520881221401C80B2208029542088F0
:10B5F000401C80B220804119308805F00BFD218865
:10B60000084480B220804119708805F003FD21882C
:10B61000084420800020C5E7FEF7DEBC38B54A7A32
:10B620000F4B62B100220A725969002906D001222B
:10B630008DF80020ADF802006846884738BD0A7AC8
:10B6400062B19B684C68024619462046FEF70CFD25
:10B650000028F3D0BDE8384004F0B0BF5B68F1E7E4
:10B66000CC1E0020F0B585B016460F4604461D4698
:10B6700014220B496846FDF7B1FF0A488DF808709F
:10B68000ADF80240ADF80A608DF80C500178002248
:10B690002046FFF785F9684600F092F905B0F0BD45
:10B6A00098170200C81B00207FB50C4610B101207E
:10B6B00004B070BD2079002638B141F61D5501282F
:10B6C0001BD0022826D00F20F2E70220207102961C
:10B6D0000396E0680190694601A804F087FC50B128
:10B6E00002988188E18000882081BDF800100298CE
:10B6F00004F0FAFCDCE70A20DAE70A4B6A4600218C
:10B70000A01D04F02FFC38B1064918398E61CE61B6
:10B710000A28CDD12846CBE702488188019804F059
:10B72000E3FCF5E7281C00202DE9F0410026012567
:10B73000144C22E06068226900EBC607387805FAED
:10B7400000F1114217D08A43226102F047F8024605
:10B750003878E36805FA00F1194002FA00F39942DB
:10B7600009D17978012901D0012100E0002151405F
:10B770007A6802B19047761CF6B220788642D9D317
:10B78000BDE8F081E81B00200E4910B50A784C781E
:10B790000023A24212D0521CD2B20A70022A00D157
:10B7A0000B70084A0B780C3252F82320026088682C
:10B7B000104420F07F408860012010BD036000200D
:10B7C00010BD0000FC1B002013460A460021FFF7B5
:10B7D00049BF00002DE9F843104D0F4680461E4634
:10B7E00091466946286801F080FD040014D01C21B0
:10B7F000FDF70DFF01202071C4F81490380BC4F838
:10B800000080C4E902606946286801F08FFD04F0F9
:10B8100045FB0020BDE8F8830420FBE7F817020091
:10B8200010B503780022072B06D2DFE803F00504E9
:10B830000610202930000A7010BD01230B70038907
:10B840008B818388CB81C06888600A7410BD022216
:10B850000A7002898A818288CA81C2688A60807D72
:10B86000062802D00020087410BD0120FBE7032247
:10B870000A70C2888A810289CA81C068886010BD46
:10B8800004230B70C0888881CA818A6010BD05209E
:10B89000087010BD70B5064D0646002455F82410FA
:10B8A00009B130468847641C042CF7D370BD0000F2
:10B8B000C823002030B50446006885B00D46806876
:10B8C00000281CD014216846FDF7A1FE0195A06850
:10B8D0000490207910B101280DD104E001208DF8E9
:10B8E0000000206904E002208DF80000E0680003F9
:10B8F000029060690390206881686846884705B0B7
:10B9000030BD70B586B015460C00064619D0112C16
:10B9100017D0082C15D014216846FDF778FEADF835
:10B920000260304600F058FFADF804000D2C0AD03C
:10B93000862C1CD007208DF800000294684600F089
:10B940004DF806B070BD03208DF8000025B12878B1
:10B95000C00701D0012000E002208DF8080000207F
:10B960008DF80C0041F20110ADF80A00E6E7062060
:10B970008DF80000E2E7000010B50446408800F0B2
:10B980002BFFA080024801682046BDE81040084710
:10B99000941B00202DE9F04107460024064E074D78
:10B9A00005E000BF56F8241038468847641CE87844
:10B9B0008442F7DBBDE8F081B0210020B81B0020F5
:10B9C00010B50446408800F007FFA08002480168D7
:10B9D0002046BDE8104008476C170200014909687D
:10B9E00008470000C017020070B586B00446142155
:10B9F0006846FDF70CFEA0890026A0F54040ADF892
:10BA0000040020782D4D062835D2DFE800F03403FD
:10BA100003032E4EA08900F0C9F9012130B9E08955
:10BA200043F6FE72A0F54040904224D8A07B8DF8EA
:10BA300008002078032810D05FF000008DF809007E
:10BA4000A0680390606850B109208DF8000060681C
:10BA50000490684603F034FB0DE00120EEE7082077
:10BA60008DF800008DF81010F3E7A08900F09EF922
:10BA700008B1E08938B16878002802D06E7003F010
:10BA80004FFC06B070BD606838B10B208DF8000027
:10BA90006E70AE7003F044FCDBE70A208DF8000006
:10BAA000BDF8040003F0CCFCF2E713208DF8000091
:10BAB0004FF6FF70ADF80400CBE70000A41B002098
:10BAC00038B504460E480078A8B1A4F57F40FF3889
:10BAD0000FD0684604F01CF978B1052101700121EE
:10BAE0000171C480684604F021F904F0C7F9002010
:10BAF00038BD042038BD022038BD082038BD000004
:10BB0000301C00200C4808B5007888B1684604F065
:10BB1000FFF878B106210170684604F007F907487C
:10BB2000017809B10121017304F0A8F9002008BDD2
:10BB3000022008BD082008BD301C00208C240020F5
:10BB4000F0B589B014216846FDF761FD2D4C2078D1
:10BB500018B16846FFF79EFE52E0201D012105AA9C
:10BB6000FDF764FBC8BB4FF0102040694FF08051D7
:10BB70000969421C02D101EB410000012249002267
:10BB80000861A0F54050C86020491F4802F099F8AC
:10BB9000002820D11F481C238C221D49006801F079
:10BBA00091FB03F041F8050014D0022D12D00027BC
:10BBB0000126062D12D006A804F0AAF888B1067056
:10BBC0000C2D18D2DFE805F0170F170F17161716F0
:10BBD000171113110B2009B0F0BD11E0267067603A
:10BBE000B7E70820F7E7077105E0032100E002212D
:10BBF000017100E0067106A804F098F804F03EF91F
:10BC00000020E8E7301C0020B01C002008180200CB
:10BC1000D8230020D017020038B5040014D069469C
:10BC200004F0E4F9A0B1BDF8000000EB8001094880
:10BC300000EB8100C16849B1A17A39B1C168491EE0
:10BC4000C1600020A07238BD052038BD062038BD77
:10BC50000A2038BD642400201FB501A9684604F0FD
:10BC600081F904B010BD07B513460A4669460020A5
:10BC700004F078F90EBD07B513460A460021684660
:10BC800004F070F90EBD20B119B100680860002001
:10BC900070470520704700007CB50D46040019D0A0
:10BCA000C5B1694604F0A2F9B0B1BDF800000B4976
:10BCB00000EB800001EB8000012101AA0C306668D6
:10BCC000FDF7DBFA2E6060680C3068600120A0721E
:10BCD00000207CBD05207CBD0A207CBD64240020A2
:10BCE00018B10323002205F0A3BB052070470223EF
:10BCF000002205F09DBB12B1022305F099BB05207F
:10BD000070470000094908B50A69042A0BD0084A9F
:10BD1000096942F821000548012110306A46FDF703
:10BD2000ACFA002008BD0C2008BD0000101C00204B
:10BD3000C823002038B5044609480D46007858B19C
:10BD400064B16946284605F06DFC002803D1BDF8B2
:10BD500000102180658038BD022038BD052038BD27
:10BD6000301C002010B504460E48007898B1A4B1EC
:10BD70002188022913D80C4A01EB810002EB8002D2
:10BD800060885289C31C934209D805F03FFC00200B
:10BD90002080608010BD022010BD052010BD042051
:10BDA00010BD0000301C00206424002043F6FE710A
:10BDB000A0F54040884201D801207047002070471C
:10BDC00010B504460078182802D1FEF7AFFD2070A8
:10BDD00010BD10B504460078182802D1FEF7A6FD64
:10BDE000207010BD70B51346002206461546862900
:10BDF00002D0112902D002E0012200E001250D4C01
:10BE000073B1A179FEF7CCFD2A4661793046FEF781
:10BE1000C7FD0022A1783046FEF7C2FD002203E0F4
:10BE2000A178FEF7BDFD2A4661783046BDE8704036
:10BE3000FEF7B6BDD01B0020406803F07FBF0000B6
:10BE40000EB516A19DF8080020F00F00401C20F050
:10BE5000F00010308DF80800102202A87CDF08B135
:10BE6000FEF7BAF84FF4107078DF08B1FEF7B4F8B7
:10BE700000204FF4C87100900190ADF80400ADF8B7
:10BE800000104A00ADF80220ADF8061068467ADFCF
:10BE9000002801D0FEF7A0F80EBD00004E6F7264BE
:10BEA00069635F4C696E6B5F4C6F737300000000D9
:10BEB00070B508B1012070BD194C0025207B08B178
:10BEC000257301E000F0A0F82078082826D2DFE8EA
:10BED00000F02504080C10251420BDE8704000F087
:10BEE00021B8BDE8704000F07DB8BDE8704000F0BA
:10BEF0005FB8BDE8704000F03BB86088084900EBCF
:10BF00008000283901EB80004068BDE8704002F0F5
:10BF10006BBE6560BDE8704002F074BE0F2070BD5E
:10BF20008C2400201149F0B48A1C00200346A1F1A2
:10BF300028050C18A67A4EB1A37200EB800405EB1D
:10BF40008404E66816B9247C012C0AD0401C80B217
:10BF50000228EED30B704B804B60F0BC41F61D50B5
:10BF600070471080F0BC00F03DB800008C24002029
:10BF70000C48418801EB8102A0F1280101EB82010C
:10BF8000CA6852B105210170074802218180016809
:10BF900000230122054801F06DBE042202704968A9
:10BFA000F6E700008C240020381C0020B01C002084
:10BFB00038B50A49084803240B684268898803EBAE
:10BFC000810153880470DB1C00201B0400909B0B34
:10BFD000034801F015FF38BD8C240020381C0020D8
:10BFE000B01C0020074910B54888091D04F04EF820
:10BFF00018B1BDE81040FFF7DBBFBDE81040FFF708
:10C00000B7BF00008C240020F0B51F481F49012550
:10C01000067802248B88A0F12802082E19D2DFE8C6
:10C0200006F00418181B222F2F170189491C0181C3
:10C030000021418080F80C1001EB810312F82330BD
:10C0400043B100234418491C89B2A3720229F3D3D7
:10C050000570F0BD0123F5E742685288D21C1A44EE
:10C060008A800470F0BD46880D6806EB860602EBF8
:10C07000860256680E60556013818C80062100E0B0
:10C0800007210170F0BD00008C240020381C002026
:10C0900030B501888588224C85B0502924D052299A
:10C0A00002D0542932D103E0284600F063FE2DE08F
:10C0B00014221C496846FDF791FAADF80250284653
:10C0C00000F08AFBADF8040000F034F90022617939
:10C0D0002846FEF765FC002221792846FEF760FC21
:10C0E0006846FFF749FC11E0017B01290ED1817AF6
:10C0F00001290BD10089A0F52451023906D1012173
:10C10000284600F06BFEA07803F032FAE07803F0E6
:10C110002FFA207905B0BDE8304003F029BA0000BD
:10C120008C1B0020F016020010B504460078002891
:10C130000FD1608800F01EFE608800F0A3F900288F
:10C1400007D00449608801220979BDE81040FEF754
:10C1500027BC10BD8C1B002010B5124C0020207095
:10C16000FEF7E4FBA070FEF7E1FBE070FEF7DEFBFC
:10C170002071FEF7DBFB6071A17818290FD0E17800
:10C1800018290CD02179182909D0182807D00121A5
:10C19000601C03F0B9FB01202070002010BD0320BB
:10C1A00010BD00008C1B00202DE9F04192B000F082
:10C1B000D9F86846FEF796FB00246E460D4D4FF603
:10C1C000FF780DE006EB4407B88800F005FB40451A
:10C1D00004D1B88801222979FEF7E2FB641CA4B2DD
:10C1E0000098A042EED8287903F0C2F912B0BDE859
:10C1F000F08100008C1B00207CB5044600781C4DAB
:10C2000008282FD1607A38BB207A4FF6FF760128B4
:10C210000DD0072802D0082824D11EE0A08800F005
:10C2200019FAB0421ED0012100F0D8FD1AE0A08812
:10C230006A46012102F03CFE70B90198007858B1BD
:10C24000A08800F007FAB0420CD001222979FEF74D
:10C25000A7FB287903F08CF904E005480021401C75
:10C2600003F08DFBA878BDE87C4003F081B90000A5
:10C270008C1B002010B504460A4841782046FEF782
:10C2800079FB68B10848002101EB410200EB820212
:10C290005288A24201D1C8B210BD491C1429F3D35F
:10C2A000FF2010BD9E1B0020A01F002070B5094D6F
:10C2B000094E002404EB440005EB800071784088AF
:10C2C000FEF758FB20B1641C142CF3D3FF2070BD83
:10C2D000E0B270BDA01F00209E1B00202DE9F041A0
:10C2E000124E07460125BD403068FDF701FF0028CA
:10C2F0000DD10F4C2069284207D1384601F06EFA63
:10C300000028E06805D0284304E0A8432061BDE888
:10C31000F081A843E060206928432061A16830686B
:10C32000BDE8F0410022FDF79FBE0000C8170200E3
:10C33000E81B00201CB5054AD2E90212CDE9001223
:10C340000022694602F0D9FD1CBD0000081702005A
:10C3500003484FF6FF718180012101700020704772
:10C36000981B002010B54FF6FF7002F059FD0349ED
:10C370008880BDE8104004F065B90000981B0020DB
:10C380002DE9FC41804600F027FA0024032501270F
:10C39000A0F57F412646FF3908D06A46082102F001
:10C3A00087FD18B90198841D8688056832462B469A
:10C3B00021464046A9DF042804D0082804D00B28D1
:10C3C00008D002E0112000E00020002F00D10B2057
:10C3D000BDE8FC810027A80701D50125E6E7344325
:10C3E000F5D0002426460325E0E72DE9FC418046F0
:10C3F00000F0F2F90646A0F57F40FF380ED0012587
:10C400002A466D1C0027ADB26B460821304602F06B
:10C4100079FD040006D0072C25D025E043F2020068
:10C42000BDE8FC81019903230A1D0B604046891D6C
:10C43000AADF040004D00C2C09D0052C09D009E097
:10C4400032460821104602F0F3FD04460CE00127B5
:10C4500000E000240821304602F0D6FD00B103249C
:10C46000002FCDD100E00C242046D9E70448808875
:10C47000A0F57F41FF3901D004F0E4B87047000017
:10C48000981B00200EB502A9019100F0A5F96A469B
:10C49000012102F00DFD08B100200EBD01980078C9
:10C4A0000EBD00002DE9F04107464FF6FF760A4821
:10C4B000ABDF10B10320BDE8F081074C43F2030568
:10C4C000A41E324661883846A7DFA842F3D16088AF
:10C4D000401C6080F5E700009A1B0020428800EBBA
:10C4E00082020C328A4201D9022070478188A1F56C
:10C4F0007F42FF3A03D0008808B100207047012036
:10C500007047884204D20068401C01D00120704767
:10C51000002070473EB5027802230C46B3EB520F61
:10C5200017D1B0F80110ADF80010C1788DF80210E5
:10C530008188ADF8041080798DF8060002AA01A95F
:10C540002046FDF70FFC032202A96846FDF771F8AB
:10C5500008B100203EBD01203EBD000010B50C46D4
:10C56000FFF788FEFF280CD0074900EB400001EBE5
:10C570008000416821600189A180807AA07100203B
:10C5800010BD052010BD0000A01F002070B501885F
:10C5900092B0102959D1011D34226846FDF71EF8CA
:10C5A0009DF804004FF6FF76032134466D46B1EB4B
:10C5B000500F2AD002F0F2FD9DF8040040080ED082
:10C5C00001280CD0022820D118E00F99281D113124
:10C5D000FDF763FB18B100BFBDF8344015E00EAAAB
:10C5E0000DA9072002F0AEFD0028EED10DE00F9955
:10C5F000281D491CFFF78EFF0028EDD10EAA0DA9BA
:10C60000072002F09FFD0028F1D1BDF80000291D90
:10C6100000F002FEB44218D0BDF80000214600F040
:10C62000C5F8BDF80000ADF836000020ADF8384080
:10C63000074E8DF834000DAD044600BF56F82410A7
:10C6400028468847641C022CF8D312B070BD000045
:10C650001C170200094A002101EB410332F8233084
:10C66000834205D101EB410002EB80004088704716
:10C67000491C1429F0D34FF6FF707047A01F00200B
:10C680003EB50C46054602F089FD0BE0BDF8000002
:10C69000A04207D02846029900F02EF810B1BDF84C
:10C6A00000003EBD01AA6946072002F04BFD0028AC
:10C6B000ECD14FF6FF703EBD10B50D4C18200D4A61
:10C6C000607000204FF6FF7100EB400302EB830324
:10C6D000401C59801428F7D3FEF728F960701828F9
:10C6E00003D001202070002010BD032010BD0000E9
:10C6F0009E1B0020A01F00202DE9F0410C4605469E
:10C7000000F1110701F111061022491C401CFCF731
:10C7100090FF48B9681C00F095F928B1601C00F042
:10C7200091F908B1012400E0002431463846FDF7B4
:10C73000B4FA3B780222B2EB530F0CD00321B1EBD9
:10C74000530F08D03378B2EB530F04D0B1EB530F33
:10C7500001D0012100E00021084201D18C4302D028
:10C760000120BDE8F0810020FBE7018811B94218E3
:10C7700092780AB101207047491C0829F7D300209C
:10C78000704710B50C460346FFF7EFFF00280AD0AC
:10C7900018882188884205D10822A11C981CFCF722
:10C7A00048FF08B1002010BD012010BD02F09CBE62
:10C7B00070B50446FFF74EFF0546204602F07BFBAE
:10C7C0004FF6FF7104468D4203D014B9284602F09B
:10C7D0008BFE204670BD000010B5FFF74BFDFF2813
:10C7E00005D0044900EB400031F8200010BD4FF6A1
:10C7F000FF7010BDA01F00203EB5044602F0CEFC25
:10C800000EE0019920464631FFF7BBFF28B9019998
:10C8100020462A31FFF7B5FF10B1BDF808003EBD34
:10C820006A4602A9072002F08DFC0028E9D14FF6E4
:10C83000FF703EBD38B504460A4801216A46FCF740
:10C84000A7FD68B90848606002F086F805491C2316
:10C850008C22087404488C39001F006800F032FDF7
:10C86000002038BD38250020FC1702002DE9F041DA
:10C870002D4F002518B17D600120BDE8F0810879B9
:10C88000012258B1294E01280CD0274C4FF0020844
:10C890000834022821D0032842D128E00A7102F08E
:10C8A000B1F93BE05FF0000000EB800116F82110C9
:10C8B000022908D0401C80B20228F5D33A707D606E
:10C8C00041F61D50D9E700EB800006F8205006EB3A
:10C8D0008000406802F088F920E00D71A4F804801F
:10C8E000002301221248216801F0C4F916E00D71FD
:10C8F000206802F079F90D4923682831498801EB55
:10C90000810206EB8201D1F804C0C4F800C04B607C
:10C91000A3880B81A4F8048006F822500028ACD02C
:10C920007D600E20A9E70000301C00206424002058
:10C93000B01C00200146034802888A4200D0002033
:10C9400070470000B81E00202DE9FC5F0E008346F2
:10C95000DDE90C47C6F1000098469246814600D4B6
:10C960000846012503E000BF90FBFAF06D1C50451E
:10C97000FADAA84500D9454624B1002E01DB780734
:10C9800000D5641EB80702D5B8F1000F0AD0F80729
:10C9900008D13CB1A54205D220215846641EFEF7BD
:10C9A00019FDF6E7002E02DA4E462D2102E0780747
:10C9B00003D52B215846FEF70DFD07F00300022892
:10C9C0000BD1B8F1000F08D13CB1A54205D23021FE
:10C9D0005846641EFEF7FEFCF6E7CDE900474346E5
:10C9E00052463146584604F02BFBBDE8FC9F000040
:10C9F0000248007A002800D0012070473825002026
:10CA0000F0B58488A518944200D82246A41AC2889A
:10CA1000D6189A4200D81346D21A4B880788BB42D0
:10CA20000CD34088834209D88888A04206D3A84204
:10CA300004D8C888904201D3B04201D90020F0BD8B
:10CA40000120F0BD0021425C0AB101207047491C61
:10CA50001029F8D300207047800701D000207047CC
:10CA6000012070470A4810B5807860B1002401E0C9
:10CA7000022C06D02046FEF727FA641C042CF7D3BC
:10CA800010BD0324F6E7BDE81040FEF753BA0000DE
:10CA90006C1B002003480179C90702D00078FEF71B
:10CAA00089BB70476C1B00200649012008600648BE
:10CAB0000168C1F300410029FAD1044900208870BF
:10CAC000704700000C00004018040040FC210020CA
:10CAD00017210180418000210171417170470000E0
:10CAE0002DE9FE4F2A4D984691460F00824601D00F
:10CAF00000260DE0684600F0BBFB6A460021504668
:10CB000002F045F92878009E10B99DF8090098B107
:10CB10004A463146504603F0A3FF04460146002230
:10CB20005046FFF75FF9112C1AD008DC74B3082CBB
:10CB30002CD00D2C09D129E00520BDE8FE8F862CD4
:10CB40001AD0A4F54050023820D00325B8F1000FC8
:10CB500004D0324621465046FEF7D3FE2846ECE785
:10CB60003A4629795046FDF71BFF4A46E978504678
:10CB7000FDF716FF0025E9E73A4629795046FDF70B
:10CB80000FFF4A46E9785046FDF70AFF2546DDE7E4
:10CB9000D01B00202DE9F041204F0E4615460446DB
:10CBA0003978FDF7E7FE002835D0204602F0CAF8B4
:10CBB00050B32046FFF710FE80462046B978FDF7B7
:10CBC000D9FE08B1012700E00227204602F09EFBB3
:10CBD0000028404602D0FFF7EBFD0DE0A8F57F41AD
:10CBE000FF3909D0072102F00FFA010004D005290E
:10CBF00002D0204603F0FEFC2B4632463946204642
:10CC0000BDE8F041FEF72EBD2A4631462046BDE87C
:10CC1000F041FEF7D9BDBDE8F0810000C81B00203F
:10CC20002DE9F04391B08146FDF796FE002820D013
:10CC30006846FDF757FE00246E4617E006EB4405F4
:10CC40004946A888FDF796FE78B10B4FA888F97879
:10CC5000FDF790FE8046A8883979FDF78BFE0146E6
:10CC6000A88801234246FFF73BFF641C0098A042BE
:10CC7000E4D811B0BDE8F083D01B00202DE9F047C7
:10CC8000394E002780463D46DFF8E090D6F804A0F4
:10CC900057E003D00446D0F81C8035E099F8002016
:10CCA00002EB4201521CD2B289F8002009EBC1010B
:10CCB00099F80230091D9A4201D189F8005048685C
:10CCC0000A780446012A12D0022A02D0032A3BD154
:10CCD00008E004F067F800B10127257434E005741A
:10CCE000C06900E070680028F9D170602CE0207CF9
:10CCF00050BB88686060C868A0600869E0604869E7
:10CD0000A061F07800B165606268B168184B501A94
:10CD100020F07F40984202D2A168084406E0881AB9
:10CD2000A16820F07F40814202D9081A206000E00B
:10CD3000256065600120A56020742046E56104F04F
:10CD400013F8B8F10000A4D199F8001099F8010087
:10CD50008142A3D117B97168514502D00120BDE8C5
:10CD6000F0870020FBE70000FC1B0020A42200202D
:10CD7000FFFF7F0030B585B00546002414216846CA
:10CD8000FCF745FCA5F57F40ADF80250FF3815D003
:10CD90002846FFF7F5FA98B10B2815D0112811D0C5
:10CDA000A0F54051023903D00146284603F00EFC9D
:10CDB00009482246C1782846FDF7F2FD05B030BD8E
:10CDC0000E2002E00124F3E70F208DF800006846F2
:10CDD000FEF7D2FDECE700008C1B00200A4602495A
:10CDE0008978FDF7DDBD00008C1B0020F8B50546F5
:10CDF00000780C46002620420FD100208DF800005C
:10CE00006846FDF785F92878204202D12043287032
:10CE100001269DF80000FDF79FF93046F8BD00009F
:10CE200070B588B0214800F08CFA2048001F0646F3
:10CE300000F087FA1E4DD5E9014105E0C0F38912E3
:10CE400002EB9050641C044404EA010005EB8000EE
:10CE5000C0688207F2D000200DF1080204EA010345
:10CE600005EB8303641CDB6842F82030401C022879
:10CE7000F4D3029800F00300012808D002280AD158
:10CE80000298032101EB905004EB900403E0029818
:10CE9000C0F3831004443046002101AAFCF721FBB3
:10CEA000002800D06C6008B070BD0000742A00201B
:10CEB0005C260020A8B0002001F0A8FA08B1FDF718
:10CEC0008BF801F037F9FDF7A5F808B1FDF784F804
:10CED00057490320FEF724F908B1FDF77DF86946AC
:10CEE0000020FEF74BF808B1FDF776F89DF800003A
:10CEF00002287DD05FF0000601F0E6FC08B1FDF7E6
:10CF00006BF8002469460120009401F0ADFB08B1E4
:10CF1000FDF762F8684601F025FC08B1FDF75CF802
:10CF2000FEF78EFF0021434800F072FA08B1FDF7CA
:10CF300053F8A0216846FCF76AFB02208DF8000038
:10CF400001258DF8025005208DF803003A48059020
:10CF5000ADF8105028202290B42023903748269016
:10CF600034488DF87C5069462430FDF7B9FA08B191
:10CF7000FDF732F82F4801212430FDF7AEFA304892
:10CF800000903048CDE901048DF808409DF8090073
:10CF9000694620F00F00401C20F0F00020308DF892
:10CFA00009009DF80A0020F00F00401C20F0F0005E
:10CFB00020308DF80A001F481030FDF703FF08B13C
:10CFC000FDF70AF81C216846FCF721FB4FF42030DE
:10CFD000CDE900404FF47020032702908DF80C70CB
:10CFE0001948ADF80E408DF81050CDE9054000E02D
:10CFF0001CE06846FDF742FC08B1FCF7EDFF02F0CB
:10D0000081FA124812A1008807EB004001F08CF968
:10D010003046FCF783FE00BF01F09AF80028FBD1F0
:10D020003EDF0028F8D0FCF7D7FFF5E7012663E7DD
:10D0300069B00100301D0020681B002071EA01006A
:10D0400035EB01009D07020019B60100001D00200C
:10D050004C696E6B204C6F7373206578616D706CDA
:10D060006520737461727465642E000070B5144697
:10D0700082880E4605462088111D0144921C994263
:10D0800001D8FE2A01D90C2070BD521C32542088D0
:10D09000FF21401C80B2208031542088401C80B287
:10D0A00020808119288803F0B5FF2188084480B2C8
:10D0B0002080AA8842B1A96841B13044FCF78EFAB9
:10D0C0002088A98808442080002070BD072070BDFA
:10D0D0002DE9F047C7880446181D16468946B0FB5F
:10D0E000F7F1B0FBF7F207FB12009A193A44D21C91
:10D0F000B2FBF7F2DDF820A001E02468491E002908
:10D10000FBD13D1A8846B54216D818E0BAF1000F97
:10D1100005D0211809EB08002A46091D04E0204427
:10D1200009EB08012A46001DFCF758FA0020246884
:10D13000761BA844B74201D9354600E03D46002E93
:10D14000E4D1BDE8F087000030B5024669B101F0D6
:10D150008BF90021084C0BE001EB410304EB830346
:10D1600015685B88AB4202D11160002030BD491CBC
:10D170008142F1D3052030BDC41C0020F8B50E4615
:10D18000017814460546012901D1687830B120881C
:10D19000821C9A422DD8012902D006E00720F8BD52
:10D1A00069780144891C994223D8181A801E87B2D5
:10D1B000ADF800702188B01C084469467DDF002866
:10D1C000EDD12878022805D1BDF80010B94201D868
:10D1D00009210AE00821012805D16878B84202D85F
:10D1E000ADF8000001E0ADF80070BDF80000FE28C9
:10D1F00001D90C20F8BD2288401CB0542088401C66
:10D2000080B2208031542088401C2080BDF800105E
:10D21000084420800020F8BD70B505460C004FF092
:10D22000FF0020D04FF6FF76B5421CD00E480122F9
:10D2300041782846FDF7B4FB2846FFF71BF8FF2886
:10D2400003D1FFF733F8FF280DD0084B00EB400265
:10D2500003EB82014D8023F8226022684A60A28895
:10D260000A81A2798A7270BD9E1B0020A01F002037
:10D27000034A00219268C0E90021816070470000E4
:10D28000D01B002070B54FF6FF750E46A84201D1A5
:10D29000002000E0401C84B208E02146304602F045
:10D2A00062FB08B1204670BD641CA4B2FF2CF4D907
:10D2B000284670BD10B5FCF746F808B1002010BD37
:10D2C000112010BD10B531B1B2FBF3F403FB1424EF
:10D2D0001CB1092010BD0E2010BD0160002141606D
:10D2E00081608281C381084610BD70B50C46054639
:10D2F000FBF7DEFF002802D021882868084470BDB3
:10D3000010B50A8849888A4203D1FCF713F8012036
:10D3100010BD002010BD70B50C460546FBF7EDFFB3
:10D32000002802D061882868084470BD10B50A88BA
:10D3300049888A4203D1FBF7D7FF012010BD0020A6
:10D3400010BD08B501216A46FCF7BEF8009808BD7B
:10D3500008B56A46FBF791FF009808BD38B504464A
:10D3600000258DF800506846FCF7D2FE21686268FF
:10D37000086890420ED9401E08600178238AE2684E
:10D3800001FB0325227A2168101AC0B20A79824271
:10D3900000D208719DF80000FCF7DEFE284638BD7B
:10D3A00038B5054600208DF800000C466846FCF7AD
:10D3B000AFFEE868298A201AB0FBF1F12A681068EC
:10D3C000431C136001709DF80000FCF7C5FE38BDDA
:10D3D00010B530B1017A42680368891AC9B21A607F
:10D3E00006E00E2010BD03681A68541C1C60117002
:10D3F000491EC9B2F7D2006800210171084610BD6C
:10D40000C20800F007030120895C9840084070477B
:10D4100010B560B1C160172120F8021B20F8021B73
:10D420001B2100F8021BFFF753FB002010BD0E204C
:10D4300010BD00002DE9FC4182880C46002A51D124
:10D4400001880126354F0025102906D0112925D045
:10D450003A2927D055294BD146E0C07B04F1060E6E
:10D46000012802D12088AEF80000BEF80010BEF8F6
:10D47000020081423CD910469EDF020008D0112AEA
:10D4800009D03888264906EB004000F051FF2FE014
:10D490008EF805602CE08EF804602CE0A01DFFF7EC
:10D4A00017FB25E02346408934F8061F814200D847
:10D4B00008466080172800D217206080D86878B1AD
:10D4C000607968B11749D1E90001CDE90001ADF8F3
:10D4D00002206088ADF80400DA6869461846904773
:10D4E00065712571BDE8FC810146204601F0E6FA30
:10D4F000A07A0028F6D02846E1889EDF02000AD0F4
:10D50000112AEFD0388802B006EB0040BDE8F041A8
:10D51000034900F00DBFA572E672E3E7C41C0020CA
:10D52000981A02002417020000F1804000680028C9
:10D5300000D00120704708B500F180400021016053
:10D540000068009008BD000000283ED01F49204A16
:10D55000096800BF00BF00BF00BF00BF00BF00BF21
:10D5600000BF91422FD000BF00BF00BF00BF00BF6F
:10D5700000BF00BF00BF00BF00BF00BF00BF00BFB3
:10D5800000BF00BF00BF00BF00BF00BF00BF00BFA3
:10D5900000BF00BF00BF00BF00BF00BF00BF00BF93
:10D5A00000BF00BF00BF00BF00BF00BF00BF00BF83
:10D5B00000BF00BF00BF00BF00BF00BF00BF00BF73
:10D5C00000BF00BF00BF0138C3D17047AC1C0020B2
:10D5D0000024F40070B50F4C0025207808B1852593
:10D5E00016E00021A16061602161E1604FF0E02060
:10D5F000D0F80001012610F0010F03D1072100200F
:10D6000000F022F801F0A8F908B903480660267076
:10D61000284670BDFC2100201805004008B50020F8
:10D620008DF800006846FCF773FD0648C168491E86
:10D63000C160C06808B9FFF737FA9DF80000FCF731
:10D640008BFD08BDFC2100204907090E002806DAE1
:10D6500000F00F0202F1E02282F8141D03E000F155
:10D66000E02282F8001400F01F02012191404009DD
:10D67000800000F1E020C0F88012C0F8001170476F
:10D680002DE9F0418846054601F0DEFF234E0028D3
:10D6900028461AD0FDF7EEFE304490F84800800985
:10D6A000032802D001280ED007E04FF0A040D0F8A8
:10D6B0001005E84010F0010F05D003212846BDE811
:10D6C000F04100F033BC0221F8E701F0C9FF002867
:10D6D00022D02846FDF7CEFE04464FF4807000EBC2
:10D6E00084000F4F81B207EB8400D0F8102542F080
:10D6F0000102C0F81025084600F048FCB8F1000F00
:10D700000AD02846FDF7B6FE56F82000002803D0C0
:10D710000120A040C7F80403BDE8F08110220020DA
:10D72000006000402DE9FC41DFF8A480044608EBCE
:10D730000400002790F930001346C0170E46401C25
:10D7400001D0082741E0F27819462046FDF76EFE29
:10D750000546401C38D0B07850B14FF0A04000EBE7
:10D760008400D0F8001721F00201C0F8001707E08C
:10D7700000217378204600910A46019100F085FB54
:10D78000F078C0B11348317800EB8500D0F810254F
:10D79000114B1A40C0F810254FF4F8524FF44033A3
:10D7A00002EA042203EA01410A43D0F810150A43B1
:10D7B000C0F8102509E008EB0500327810F8481F82
:10D7C00041EA8211017000E004273846BDE8FC817F
:10D7D0001022002000600040FFE0FCFF4FF0A0415D
:10D7E000D1F81015C14011F0010000D001207047A0
:10D7F00070B5144D95F8540008B1082070BD002094
:10D80000411E2A18401CC0B282F830102028F8D3DC
:10D8100000242046FDF7FCFD641CE4B20C2CF8D378
:10D8200007210620FFF710FF4FF4BE7000F0AEFB9B
:10D8300005494FF00040C1F80403012085F8540069
:10D84000002070BD1022002000600040034890F8C6
:10D850005400002800D00120704700001022002052
:10D860000121B1EB507F01D10120704700207047AA
:10D870002DE9F04105460F4600791F49C0EBC00075
:10D8800001EB80041646E07E10B10820BDE8F0816F
:10D8900039462846FCF77AFC666038692060F6B1A4
:10D8A0003E7F4FF48871286801F0DBF84FF49071E7
:10D8B000286801F0D6F84FF49271286801F0D1F889
:10D8C0004FF4A271286801F0CCF828680B49C0F821
:10D8D000041328683146000B40B2FFF7B5FE2868F4
:10D8E0000821C0F800150020E0752076A075012100
:10D8F000E176A076CAE7000068220020100302004B
:10D900002DE9F04704460079254FC0EBC00007EB36
:10D91000800590460E460846FFF7A2FF30B120462C
:10D9200000F040F820B11120BDE8F0871020FBE79F
:10D9300085F816804FF00008AE60A5F814802079B5
:10D940004FF49079C0EBC00007EB8005464649468E
:10D95000206801F086F84FF4AC773946206801F072
:10D9600080F82068A97DAA68C0F84425C0F8481549
:10D97000206801218160686880B9CA46B94651466D
:10D98000206801F069F807464946206801F064F80C
:10D990000743F4D000B10F2685F816803046C3E760
:10D9A0006822002000790549C0EBC00001EB80002F
:10D9B000807D002800D001207047000068220020F0
:10D9C0002DE9F041024600792549C0EBC00001EB8A
:10D9D000800710684FF00008C0F80085786880B1B3
:10D9E00010682049C0F8081310680121000B40B2EC
:10D9F00000F01F0399404009800000F1E020C0F8CA
:10DA000080111068D0F80C35D0F81465D0F808559E
:10DA1000D0F810454FF0FF31C0F80C15C0F81415C0
:10DA20001068C0F80815C0F81015581C02D0184628
:10DA300000F04FFA701C02D0304600F04AFA601C29
:10DA400002D0204600F045FA681C02D0284600F0BB
:10DA500040FA87F81B80C7F80480BDE8F081000019
:10DA600068220020100302000FB408B503990029B2
:10DA700004D004AA00926A4600F00FF801B05DF8E5
:10DA800014FB10B582680446002A05D0D4E90403CB
:10DA9000216898470020A06010BD2DE9FC47914601
:10DAA0000C00804676D014F8011B39B125290ED020
:10DAB0004046FDF78FFC20780028F4D198F80C0040
:10DAC000002867D04046BDE8FC47FFF7DABF0020DA
:10DAD000012221782B291BD02D2902D0302908D1F1
:10DAE00002E040F0010001E040F00200641C002A66
:10DAF000EFD100252A290ED02178A1F130020A2A7F
:10DB000011D205EB850201EB4205641C303DF1E7C3
:10DB100040F00400EAE7D9F800100B1DC9F8003006
:10DB20000968641C0D44217800232E290BD114F8B8
:10DB3000011FA1F130020A2A05D203EB830201EB97
:10DB40004203303BF3E76C290DD068290BD06929DB
:10DB500021D00BDC252918D0582931D063290ED0CB
:10DB6000642915D117E014F8011FECE7702969D07A
:10DB7000732932D075291BD0782909D120E0D9F832
:10DB80000000011DC9F8001001784046FDF722FC95
:10DB9000641C90E76CE0D9F800100A1DC9F8002059
:10DBA0000968CDE900500A224046FEF7CDFEEFE7B6
:10DBB000D9F800100A1DC9F8002009680A2206E0F9
:10DBC000D9F800100A1DC9F8002009681022CDE913
:10DBD0000050404603F034FADAE7D9F80010002785
:10DBE0000A1DC9F800200E68C00705D112E04046A2
:10DBF000761C7F1CFDF7EEFB31780029F7D104E09D
:10DC0000202140466D1EFDF7E5FBBD42C0D9002D29
:10DC1000F6D1BDE74EB13046FBF704FD074604E000
:10DC2000202140466D1EFDF7D5FBBD4206D9002DD3
:10DC3000F6D103E04046761CFDF7CCFB3178002995
:10DC4000F8D1A5E7D9F80000011DC9F80010056852
:10DC500030214046FDF7BEFB78214046FDF7BAFB78
:10DC600008200021CDE90001034610222946B0E733
:10DC7000BDE8FC872DE9F0411F46154604000E461D
:10DC800016D02068B8B1C5B160680268501E304235
:10DC900015D16A432046FCF719F880B120683B464D
:10DCA0002A46D0F810C031462046BDE8F041604712
:10DCB0000E20BDE8F0810820FBE70920F9E71020DD
:10DCC000F7E720B119B101600B68114618470E2023
:10DCD000704700002DE9F04128B1016819B1C96908
:10DCE000BDE8F04108470D4D0D480024461B1427A0
:10DCF0000DE000BF04EB840005EB8000016829B152
:10DD0000C969884710B10120BDE8F081641CB6FBE9
:10DD1000F7F0A042EED80020F6E70000B01C00208B
:10DD2000C41C0020044801214174007A08B100207D
:10DD3000704701207047000038250020012801D0DD
:10DD4000032808D10449002201284A7400D0002089
:10DD5000087402F047B870473825002070B5254C8C
:10DD60000246207A012837D0022841D122480023D8
:10DD7000022A006802D0032A2ED11BE0E360017959
:10DD800011B1012928D10DE0D0E90565711B4FF4CF
:10DD90008056B14200D33146294481614569A94288
:10DDA0000ED019E00169491C01614269914213D109
:10DDB000237217E0E168491CE16008290CD9E3608F
:10DDC0002372022A0ED00D21FDF774FD0B480A497B
:10DDD000091D0068FFF794FA607C28B1BDE8704027
:10DDE00000F0C0BD0021EFE7BDE8704001F0FABFD0
:10DDF00070BD000038250020401C0020F8170200EC
:10DE00002DE9F8431D46089F1646884604000DD0AC
:10DE100066B1206860B135B160684068B5FBF0F16B
:10DE200000FB115030B10920BDE8F8830E20FBE75C
:10DE30000820F9E74046FBF743FF90B13046FBF777
:10DE40003FFF70B12A4641462046FBF73FFF40B1F5
:10DE5000009720682B463246C76841462046B8479F
:10DE6000E2E71020E0E770B541EA4201DDE904563F
:10DE70004FF0A04441EA830141EA052104EB800010
:10DE800041EA0641C0F8001770BD70B541EA420191
:10DE9000DDE904564FF0A04441EA830141EA05213F
:10DEA00004EB800041EA0641C0F8001770BD70B570
:10DEB00041EA4201DDE904564FF0A04441EA830102
:10DEC00041EA052104EB800041EA0641C0F8001751
:10DED00070BD1CB5002100910B4601220191FFF796
:10DEE000E6FF1CBD1CB500220B46009211460192B4
:10DEF000FFF7DDFF1CBD1CB5002100910B46012280
:10DF000001911146FFF7D3FF1CBD4FF0A04202EB79
:10DF10008000D0F8002722F44032C0F80027D0F863
:10DF2000002742EA0141C0F8001770474FF0A042B5
:10DF300002EB8000D0F8002722F44032C0F800271E
:10DF4000D0F8002742EA0141C0F8001770470122CB
:10DF50004FF0A043824011B1C3F808257047C3F8C1
:10DF60000C25704718B5084B6C4601441B6800939C
:10DF700006E000BF54F82030D3F81035401C08C22A
:10DF80008142F7D818BD0000C4170200034908B544
:10DF90000844002101600068009008BD0060004056
:10DFA00002494058012800D000207047006000401E
:10DFB00030B5124B01460020D3F81044224609E048
:10DFC000157A854205D1401C0A28F7DB4FF0FF3057
:10DFD00030BD5268002AF3D1421CF9D00872D3F840
:10DFE00010242AB152684A60D3F81024516030BD21
:10DFF0000022C3F810144A6030BD00005C260020E7
:10E00000F0B595B01C4615460F4608461A9E00F01E
:10E01000FBFA182109A8FBF7FAFA0E96CDE9095484
:10E020000023082203A9384600F008FB0598069053
:10E030000498ADF81C0000208DF8200003980826F5
:10E0400000F00300012802D002281DD03CE0039814
:10E050003346850AC0F3C2008DF81E0003980FA94D
:10E06000C0F380008DF81F000398C0F38314A20052
:10E07000384600F0E3FA09A8009006AB22460FA943
:10E08000284600F01DFA1FE00398840DC0F3C2007B
:10E090008DF81E000398C0F380008DF81F00082C37
:10E0A00001D2254600E0082533462A460FA9384606
:10E0B00000F0C4FA2E44641B09AB06AA29460FA837
:10E0C00000F04EF9002CEAD1384600F0A6FA15B05F
:10E0D000F0BD7047012002F0F9BE000010B5044801
:10E0E000FFF76EFCBDE81040002002F0EFBE00001C
:10E0F0004C1C002008B5034A00924023024AFFF757
:10E100007FFF08BD1D0602005C250020084A01298A
:10E1100002EBC00005D0022903D0032903D0042953
:10E1200003D00020704700797047407970470000A5
:10E130008820020010B5FFF7CDFF04210348FFF748
:10E1400037FF02490120487210BD0000541C002016
:10E150002DE9F04F8DB0FDF74DF918B100200DB04D
:10E16000BDE8F08F6E480021C0F81814BFF34F8F40
:10E17000D0E9014604EA060100EB81014FF00009F5
:10E180000AE000BFC1F3891202EB9151641C0C44F8
:10E1900004EA060100EB8101C9688A07F2D0002178
:10E1A00003AA804604EA060008EB8000641CC068ED
:10E1B00042F82100491C0229F4D3039800F003001F
:10E1C000022802D001284BD0A4E003985022810DF0
:10E1D0008A46B2EB905F00D850210D4665F39F5000
:10E1E000039008314F4800F0C6F9070075D000F0E1
:10E1F0000BFA4B46082203A9384600F025FA04EA38
:10E200000601701A8000001D09F1080B854220D913
:10E21000434E0C3630B1C2B208EB8101281A914648
:10E220000C3104E03146EAB2002691463046C5B2D0
:10E230005B46384600F008FA0BEB090326B12A4684
:10E240003146384600F000FA0AF1030004EB90046E
:10E250003AE008EB81015B462A4638460C31F1E78B
:10E260000398C0F38310062800D30620039960F3B7
:10E270008911C1F38310801C03918100294800F0AB
:10E280007AF9070046D000F0BFF94B46082203A9EF
:10E29000384600F0D9F909F1080900250EE000BF61
:10E2A00004EA060008EB80014B46042238460C3194
:10E2B000641C00F0C9F909F104096D1C0398C0F34E
:10E2C0008310A842ECD847B1D8F81054D8F81804F5
:10E2D000464660B1384600F0A0F91BE0687A012894
:10E2E00004D12A6828463946126890476D68002D87
:10E2F000F4D1384600F091F900208DF8000068460E
:10E30000FBF706FFD6F8180400B974609DF800000A
:10E31000FBF722FFFDF76EF880F001001FE7000019
:10E320005C2600205819020000231A4602F092BC15
:10E3300008B5012300926A4602F08CFC08BD1CB5AA
:10E34000CDE9002302236A4602F084FC1CBD3EB5E1
:10E35000069C8DE81C0003236A4602F07BFC3EBD50
:10E360002DE9F0470E4680461C46924608293ED8C5
:10E3700094F80C90002020731946104601F09AFC86
:10E380000025B54206D218F805201AA12046FFF74D
:10E390006BFB03E019A12046FFF766FB6D1C082DFF
:10E3A000EFD317A12046FFF75FFB0025B54210D23F
:10E3B00018F80570FBF70EF90068C05D10F03E0F0D
:10E3C00001D03A4600E02E220EA12046FFF74CFB7A
:10E3D00003E00DA12046FFF747FB6D1C082DE5D398
:10E3E00001222146504601F047FC84F80C90BDE81C
:10E3F000F087000020253032780000002020200027
:10E400007C0000002563000020000000114810B5CA
:10E41000FF218160002101604160C0F81814C0F83C
:10E42000141480F81C140C4800F0F5F800280FD1E3
:10E430000A480B490B4B401AC108002005E000BFF9
:10E4400000EB400223F82200401C8842F8D3002051
:10E4500010BD00005C26002058190200D0200200E8
:10E4600088200200C41C002002480349401AC0084A
:10E4700070470000D02002008820020013B56846D3
:10E48000FEF762FE08B100201CBD0248009950F85A
:10E4900031001CBD8820020070B508480125D0F865
:10E4A000104480F81C5405E06572216820464968D4
:10E4B00088476468002CF7D170BD00005C260020FE
:10E4C0002DE9FF4781460C9D00200C462F7B2873C9
:10E4D000984616462946184601F0ECFB072E42D214
:10E4E000DFE806F004090F161F2A360049462846C1
:10E4F000FFF7BAFA37E0494628462268FFF7B4FA30
:10E5000031E0D4E9002349462846FFF7ADFA2AE076
:10E51000A0680090D4E9002349462846FFF7A4FAF2
:10E5200021E0D4E90201CDE90001D4E90023494604
:10E530002846FFF799FA16E004F1080007C88DE8AD
:10E540000700D4E9002349462846FFF78DFA0AE080
:10E5500004F108000FC88DE80F00D4E900234946F4
:10E560002846FFF781FA00222946404601F084FB45
:10E570002F73BDE8FF872DE9F041058A80462D1FE6
:10E580004819C01CB0FBF5F0C6B24046FEF7E6FEE7
:10E59000041E19D00020207101206071E580002741
:10E5A0002546761EC4F800800BE04046FEF7D6FEF6
:10E5B00060B16179491C6171286005467F1CC0F813
:10E5C0000080B742F1D32046BDE8F081204600F03C
:10E5D00002F80020F8E72DE9F041457901466B1E6D
:10E5E000002201E00968521C9A42FBD30F680146E1
:10E5F000002605E038460C68FEF7D2FE2146761C60
:10E60000AE42F7D3BDE8F08108B501216A46001D8E
:10E61000FAF733FF08BDFEF7DBBE38B50446001D30
:10E6200001216A46FAF736FF009810F0FF0F04D177
:10E630002046BDE83840FFF7CEBF38BD38B50124CD
:10E640000094FEF745FD38BD38B500240094FEF770
:10E650003FFD38BD20B103490968016000207047C3
:10E660000E207047E4190200FEB502460E46084629
:10E67000FFF7F0FF002868D10024009401940125E1
:10E6800003208DF80020ADF8040002948DF80250AC
:10E6900069462020326869DF2C4F48B100F0D2F97A
:10E6A0003988024605EB014329491846FFF740FE29
:10E6B0000094019402948DF800506946402032681D
:10E6C00069DF40B100F0BEF902463888214905EB08
:10E6D0000040FFF72DFE0094019402948DF8004055
:10E6E00069460120326869DF40B100F0ABF90246AB
:10E6F0003888194905EB0040FFF71AFE4FF4B06067
:10E700000090019402946946A120326869DF40B10B
:10E7100000F098F902463888104905EB0040FFF7F1
:10E7200007FE0094019402948DF800406946A020F1
:10E73000326869DF40B100F085F90246388808493F
:10E7400005EB0040FFF7F4FD0020FEBD181D002082
:10E75000841F0200CC1F0200E41E0200301F0200D2
:10E76000901E02002DE9F0410446D0F800E060DF81
:10E770002368144D0646734515D02888022707EBF9
:10E780000040724610A1FFF7DAFDF806D0F80C0140
:10E790002168800200F10050421A288816A107EB78
:10E7A0000040FFF7C5FD56B1304600F04BF9024678
:10E7B0002888012101EB004018A1FFF7B9FD304680
:10E7C000BDE8F081181D002052414D207374617224
:10E7D000747320617420307825782C2063616E205A
:10E7E00062652061646A757374656420746F20309B
:10E7F0007825782E0000000052414D2073697A651B
:10E800002063616E2062652061646A75737465645B
:10E8100020746F20307825782E00000073645F62CA
:10E820006C655F656E61626C652829207265747520
:10E83000726E65642025732E0000000030B593B021
:10E840005FF03805ADF8445011A903A861DF30B17D
:10E85000052816D013B0BDE83040FBF7BDBB03ACB4
:10E860000949684600F0AAF807E000BFD0E9002196
:10E8700020469047684600F0B8F802980028E1D09A
:10E88000F4E713B030BD0000E819020010B50D4CDC
:10E890002078A0B10120A07001F0C2FC11280CD09A
:10E8A000022001F0D5FC11DF002807D12070A070F4
:10E8B00002F08CF9032001F0CBFC002010BD0820F1
:10E8C00010BD0000A81C002038B5174C207808B1F6
:10E8D000082038BD0125A570002001F0A1FC1128F9
:10E8E00020D0002001F0B4FC1048114900680090CD
:10E8F000684610DF0028ECD12570A07060700721F9
:10E90000162001F041FC08B1FBF766FB072115203A
:10E9100001F03AFC08B1FBF75FFB02F073F901204C
:10E9200001F096FC002038BDA81C00207C190200D4
:10E93000619F01000EB50749684600F03FF805E009
:10E94000D0E900108847684600F04FF80298002888
:10E95000F6D10EBD981902000148007870470000FA
:10E96000A81C00200548817819B1007818B1FFF77C
:10E970008DBF08207047FFF7A7BF0000A81C00202C
:10E980001FB5684648DF30B1052814D004B0BDE893
:10E990001040FBF721BB084901A800F00FF806E082
:10E9A000D0E900210098904701A800F01EF80398D4
:10E9B0000028E6D0F4E71FBD041A020001600968D0
:10E9C0004160AFF3008010B5D0E90021536899424F
:10E9D00001D1002104E0D1E90034A34202D019465C
:10E9E000816010BD08314160F0E7816800290BD0DB
:10E9F000026892680A44826041684B689A4203D177
:10EA000008314160FFF7DFBF704700000C4A10B5C6
:10EA100002F1F0030EE0991AC91001EBD17149100F
:10EA200002EBC1010C68844201D90B4602E005D219
:10EA300001F108029A42EED3002010BD486810BDD3
:10EA40003C18020000B5FFF7E1FF002800D10148A3
:10EA500000BD0000281802004058002800D0012006
:10EA6000704708B5002242504058009008BD000091
:10EA700010B590B1032814D10A480321008801EB96
:10EA8000004009A1FFF750FC0220FCF73DFB0028E5
:10EA900007D0BDE81040FBF79FBABDE8104001F079
:10EAA0007FBE10BD001D0020466173742061647636
:10EAB0006572746973696E672E0000007CB5064646
:10EAC0008D88C88805EB450106EB4104A41D172875
:10EAD00000D217202188814200D80846608000209B
