:020000040000FA
:10000000E82B00204D0300005503000057030000BB
:10001000590300005B0300005D03000000000000C6
:100020000000000000000000000000005F0300006E
:10003000610300000000000063030000650300008E
:1000400067030000CD070000490D000067030000B2
:1000500067030000670300007504000067030000E9
:10006000E50C000067030000670300006703000061
:1000700067030000670300006703000067030000D8
:1000800067030000E5080000670300006703000045
:10009000090900000D090000670300006703000064
:1000A00067030000670300006703000067030000A8
:1000B000670300006703000000000000000000006C
:1000C0006703000067030000670300006703000088
:1000D00067030000670300006703000000000000E2
:1000E0000000000000000000000000000000000010
:1000F0000000000000000000000000000000000000
:1001000000000000000000000000000000000000EF
:1001100000000000000000000000000000000000DF
:1001200000000000000000000000000000000000CF
:1001300000000000000000000000000000000000BF
:1001400000000000000000000000000000000000AF
:10015000000000000000000000000000000000009F
:10016000000000000000000000000000000000008F
:10017000000000000000000000000000000000007F
:10018000000000000000000000000000000000006F
:10019000000000000000000000000000000000005F
:1001A000000000000000000000000000000000004F
:1001B000000000000000000000000000000000003F
:1001C000000000000000000000000000000000002F
:1001D000000000000000000000000000000000001F
:1001E000000000000000000000000000000000000F
:1001F00000000000000000000000000000000000FF
:10020000DFF80CD000F024F900480047312400004A
:10021000E82B002030B4044654E8000F0D4644E8B3
:100220000053002BF8D1156030BC704730B4044641
:1002300054E8000F40EA010544E80053002BF7D1D1
:10024000156030BC704730B4044654E8000F00EA33
:10025000010544E80053002BF7D1156030BC70470E
:1002600030B4044654E8000F80EA010544E8005326
:10027000002BF7D1156030BC704730B4044654E809
:10028000000F00EB010544E80053002BF7D1156087
:1002900030BC704730B4044654E8000FA0EB0105B1
:1002A00044E80053002BF7D1156030BC70470000C4
:1002B00030B4044654E8000F0D4644E80053002BC8
:1002C000F8D1156030BC704730B4044654E8000FD4
:1002D00040EA010544E80053002BF7D1156030BC1B
:1002E000704730B4044654E8000F00EA010544E8C2
:1002F0000053002BF7D1156030BC704730B4044672
:1003000054E8000F80EA010544E80053002BF7D1C0
:10031000156030BC704730B4044654E8000F00EB61
:10032000010544E80053002BF7D1156030BC70473D
:1003300030B4044654E8000FA0EB010544E8005334
:10034000002BF7D1156030BC70470000064880478D
:1003500006480047FEE7FEE7FEE7FEE7FEE7FEE7AA
:10036000FEE7FEE7FEE7FEE7950900000102000058
:100370002DE9F05F0546002092469B4688460646DA
:10038000814640241BE0284641464746224600F06D
:100390004EF853465A46C01A914110D3114618469A
:1003A000224600F035F82D1A67EB01084F46224629
:1003B0000120002100F02CF817EB00094E41201E0F
:1003C000A4F10104DFDC484631462A464346BDE835
:1003D000F09F40EA01039B0703D009E008C9121F00
:1003E00008C0042AFAD203E011F8013B00F8013BEF
:1003F000521EF9D2704730B504460020034600E093
:100400005B1C934203D2E05CCD5C401BF8D030BD56
:10041000202A04DB203A00FA02F1002070479140C4
:10042000C2F1200320FA03F3194390407047202AB9
:1004300004DB203A21FA02F00021704721FA02F38E
:10044000D040C2F120029140084319467047000095
:10045000064C074D06E0E06840F0010394E8070011
:1004600098471034AC42F6D3FFF7CEFE2453000079
:10047000445300002DE9F04700268CB0DFF860916E
:10048000B0464FF48075012437460696284602F0A0
:100490005BFD38B1D9F80403204203D0284602F0AE
:1004A00049FD26432D1D64007F1CADB2082FEDD3FE
:1004B0004FF4BE74204602F047FD48B1204602F0DA
:1004C00039FD46F0004606AA0121002002F01EFD7B
:1004D000444D16F0FF0F15D00127002437420DD0F0
:1004E00009EB8401D1F81005D1F81015C0F30420F0
:1004F00055F82420C1F3014102B190477F00641CEC
:10050000082CEBD3002E67DA4FF0FF30CDE90880DE
:1005100000263446281910F8507F90F9000027F083
:10052000C008401C44D009A9404602F0EAF858B37C
:100530004FEA9719404601F0C7F855F820701FB1EF
:10054000B9F1030F03D00FE0B9F1030F30D108A8C0
:100550004FEAD80208F00703815C4FF0010C0CFA57
:1005600003FC41EA0C0181544FF0A04101EB8800EB
:10057000D0F8000706A9C0F3014A404602F0C1F8CE
:1005800018B1BAF1020F03D012E0BAF1030F0FD184
:10059000B9F1030F08D1BAF1020F1BD00221404676
:1005A00002F098FC761CF6B217B149464046B847AF
:1005B000641C042CAED3002E0ED06A46012100200C
:1005C00002F0A4FC06990098884205D0069008988D
:1005D00009909DE70321E2E70CB0BDE8F087000039
:1005E000006000406401002002F030B82DE9F74FB0
:1005F000364C4FF4803B904607460025C4F808B3BC
:10060000334EB07810B13348FFF7EEFF1FB93148D1
:10061000801CFFF7E9FF706818B12E48C01CFFF777
:10062000E3FFDFF8B4A077605FEA08004FF000094D
:100630004FF00108AAF1040725D0012830D0022884
:100640002AD024481630FFF7CFFF00BF86F802807B
:10065000C4F840910199294489B239603F68C4F8CF
:100660004480DAF80060D4F8400118B11948283005
:10067000FFF7BAFFAF4215D3AE4201D3BE4221D33A
:1006800014483D301CE0C4F84480DAF80050C4F847
:100690004080C4F84091D9E70F48001D0568D5E7B0
:1006A0003D68D3E7BE4201D2012000E00020B54200
:1006B00001D8012100E00021884203D105485630CD
:1006C000FFF792FFC4F804B3BDE8FE8F008000403E
:1006D000A4000020730004004485004000F01F02C5
:1006E000012191404009800000F1E020C0F8801213
:1006F000704700F01F02012191404009800000F185
:10070000E020C0F88012704700F01F0201219140E4
:100710004009800000F1E020C0F88012704700F02E
:100720001F02012191404009800000F1E020C0F843
:100730008012704700F01F020121914040098000A3
:1007400000F1E020C0F88011704700F01F02012185
:1007500091404009800000F1E020C0F8001170478E
:1007600000F01F02012191404009800000F1E020CB
:10077000C0F80011704700F01F02012191404009AC
:10078000800000F1E020C0F8001270474907090E10
:10079000002806DA00F00F0000F1E02080F8141DB8
:1007A000704700F1E02080F8001470474907090EF7
:1007B000002806DA00F00F0000F1E02080F8141D98
:1007C000704700F1E02080F80014704770B53E4C8F
:1007D00020696578401C2061607D10B13B48FFF7BF
:1007E00003FF21783A4803291CD1D0F80C11C9B174
:1007F000012D04D0022D0DD03448193060E020695D
:10080000022803D031480F30FFF7EEFEBDE87040FC
:1008100003F02EBA206901284CD02C481430FFF781
:10082000E3FE47E0032D49D02A4E012D1AD0022DB8
:1008300040D06178284A002502EB01110A7B1AB1E9
:10084000D0F80C0100B10125887A2070012003F056
:10085000A3F9002D2DD030688068002829D0BDE88C
:10086000704000472169012905D0022921D1BDE846
:10087000704003F05DB90021C0F80011C0F8041108
:10088000C0F80811C0F80C11C0F81011491EC0F8CA
:1008900008130121C0F804133168097D19B10F4A0A
:1008A0004FF4806111600E4AE16811600B21C0F8BD
:1008B000001270BDBDE8704003F018BA034845301F
:1008C000BDE87040FFF790BED4080020B3010A00D5
:1008D00000100040AC000020D852000004F5014098
:1008E0000415004007480021C0F84011C0F8441129
:1008F000C0F84811C0F84C11C0F80011C0F804113C
:1009000004F094BA0010014004F0E2B92DE9F0417E
:100910001F4C0027012080F31088D4F8840080B396
:10092000D4F8800000EB400004EB8000017961F313
:100930000705417961F30F25817961F31745C17985
:1009400061F31F6581688289C08962F30F0660F3D5
:100950001F46D4F88400401EC4F88400D4F88000F8
:10096000401CC4F88000D4F880000A2801D3C4F8E1
:100970008070002080F3108823683246284698470C
:10098000C8E7FFE7002080F31088BDE8F081000091
:10099000F8080020F0B5AE480023021D01780125BB
:1009A000101D4FF0805406290BD11678360708D158
:1009B0000678C6F30316032E06D0042E04D0052EA7
:1009C00002D0062907D00EE0B4F82463A14FC6F385
:1009D00004263E6002E01678360704D10678C6F396
:1009E0000316032E02D0062904D00FE09B4F9A4E27
:1009F0007E670EE01678360708D10678C6F3031630
:100A0000032E06D0042E04D0052E02D0062907D0CE
:100A10000EE0D4F84462924FC6F342363E6002E0E4
:100A20001678360704D10678C6F30316032E02D0D3
:100A3000062906D011E08B4E376827F080773760A3
:100A40000EE01678360708D10678C6F30316032E93
:100A500006D0042E04D0052E02D006290AD011E0BB
:100A60004FF08046C6F80C31C6F810317C4E361F68
:100A7000336002E01678360704D10678C6F3031611
:100A8000032E02D0062905D00CE0754F03266437EB
:100A90003E600AE01678360704D10678C6F30316DE
:100AA000032E02D006290DD014E06F4F05263E60BC
:100AB0006D4E783635606C4E083633603F263F1DEC
:100AC0003E6002E01678360704D10678C6F30316B6
:100AD000052E02D0062957D062E0644E3668644F76
:100AE0003E60624E361D36683F1D3E605F4E0836E2
:100AF00036683F1D3E605D4E0C3636683F1D3E60D9
:100B00005A4E103636683F1D3E60584E14363668D1
:100B10003F1D3E60554E18363668554F20373E60B3
:100B2000524E1C3636683F1D3E60504E20363668A9
:100B30003F1D3E604D4E243636683F1D3E604B4E95
:100B4000283636683F1D3E60484E2C3636683F1DBD
:100B50003E60464E30363668454F40373E60434E25
:100B6000343636683F1D3E60404E383636683F1D8D
:100B70003E603E4E3C3636683F1D3E603B4E403642
:100B800036683F1D3E6002E01678360708D10678C9
:100B9000C6F30316032E06D0042E04D0052E02D071
:100BA000062907D019E0D4F85812324A01F04F0153
:100BB000116002E0117809070FD10078C0F303102B
:100BC000032803D0042801D0052806D12A4801684B
:100BD000C90702D06FF00101016022487438016832
:100BE00041F470010160BFF34F8FBFF36F8F4FF07F
:100BF0001021D1F80002002803DBD1F804020028FC
:100C000022DA1E4A15601E480468002CFCD0152408
:100C1000C1F800420568002DFCD0C1F8044201680B
:100C20000029FCD0136001680029FCD0BFF34F8F6E
:100C30000C48F0380168134A01F4E0611143016087
:100C4000BFF34F8F00BFFDE710490F480860F0BDAC
:100C5000E00F00F0403501400DF0ADBA00C0074094
:100C60003C050040FCED00E010560040040400107C
:100C700020C50040E40E00400004004004E50140AF
:100C800000E401400400FA050090D0036C0000204D
:100C9000124A10B50021104B126809E053F82140A8
:100CA000844203D10E48FFF79FFC13E0491CC9B2F0
:100CB0009142F3D3084A002112F1180201EB01130B
:100CC00002EB4303834201D1012010BD491CC9B28C
:100CD0000629F3D3002010BD040B0020C40000201F
:100CE000F600030070B5144E4FF48030C6F80803C8
:100CF0000025C6F84051114C606810B91048FFF744
:100D000073FCA57062680123656073640D48016817
:100D1000001F00681430B1F5804F04D2B0F5404F89
:100D200001D9637005E0814201D3012000E0002079
:100D30006070BDE87040104700800040A4000020B3
:100D4000EC000400448500400448017F0448002969
:100D5000024901D004F067B904F0D6B8BC01002004
:100D60000020004002E008C8121F08C1002AFAD182
:100D700070477047002001E001C1121F002AFBD11B
:100D80007047022000F03ABA70B50024064D06E024
:100D90006868012110F8340001F0C8FD641C28784F
:100DA0008442F5D3002070BD1C000020F8B5154624
:100DB0000C460646052A01D20720F8BD01F09CFE2C
:100DC00018B901F06BFE0028F7D1104900204E60E1
:100DD0000C70C1E902500E4D08610DE006EBC40035
:100DE0006968009181788DF801100078094A694698
:100DF00001F0EEFD0028E0D1641EE4B2EED2BDE8C1
:100E0000F840054A0021024800F050B81C000020BC
:100E1000A8520000711900009917000003F01AFA97
:100E200003F0FEF80028FBD1104C0121208801EBD3
:100E300000400FA103F0DCF910480068C00700D0A3
:100E400000BE2088022101EB00400DA103F0D0F983
:100E5000BFF34F8F0948E43801680D4A01F4E0619F
:100E600011430160BFF34F8F00BFFDE7EC0000208E
:100E7000466174616C206572726F7200F0ED00E083
:100E800053797374656D207265736574000000009A
:100E90000400FA050EB500210091CDE901106A4663
:100EA00044F20100FFF7BAFF0EBD0000074B9B782C
:100EB00023B12AB120B10068037C1BB10820704720
:100EC0000720704741744261002070472C020020C7
:100ED00070B503F07BFD104800240B2104704470B2
:100EE0000E4D817014206C602C706C70FFF7F6FB57
:100EF00007211420FFF74AFC1420FFF726FC0848BE
:100F0000046007211120FFF741FC0548001F00681D
:100F1000A860002070BD00002C02002030000020DE
:100F2000081501402DE9F843DFF8709099F8023078
:100F30005BB350B3052902D20720BDE8F8834369AB
:100F40001BB3437C012B22D0002704460025884692
:100F50001646284600F036F8684604F071F9C0B12C
:100F6000012101700E4944600968C0E90218C0E916
:100F700004769DF8000089F80100002000F024F8B4
:100F80001420FFF7F8FB2846D7E70820D5E70F46DF
:100F9000DBE70425002000F017F8F4E72C0200201E
:100FA000041501400649897839B130B1416921B150
:100FB00000210174022103F019BF082070470000CE
:100FC0002C02002000F002B800F008B872B6024807
:100FD0000168491C0160704744000020034908680B
:100FE000401E086000D162B6704700004400002037
:100FF00010B502F009FE034900200861024908709B
:1010000010BD0000B0080020900000202DE9FF4135
:1010100044480068444C012802D04448006828B97C
:1010200060680078202801D8012000E00020404FAF
:101030000321002539704FF00108256090B339482D
:1010400008300668006839490839086003A8CDE906
:10105000000434480C30026801233146184603F07E
:1010600007FA00B3012805D002281FD0032847D073
:10107000304843E0039818B12E481038FFF7B4FA0F
:10108000304603F0E9FA18B92A480F38FFF7ACFAEE
:101090007868F1B20023807D1A46CDE900100295F0
:1010A00019461BE01EE023480B3827E0039818B9C7
:1010B00020480838FFF798FA304603F0CDFA18B9FF
:1010C0001C48C01FFFF790FA7968F2B20023897DAF
:1010D000CDF80880CDE9002103991A46022003F0DB
:1010E000B8FC0DE0002300951A46194618460195F4
:1010F00003F0BEF9042803D00E48C01DFFF774FAB0
:10110000206838B184F815800B48206104203870BD
:10111000BDE8FF8102F078FD6575256100F026F8D5
:10112000F6E7000000140040B0080020341500402D
:1011300090000020D1050900ED11000010B5074C0A
:101140002078012802D00648FFF74EFA02202070CE
:101150000448002101610449C16010BD90000020D5
:101160009B050900B00800200D10000010B5FFF726
:101170003FFF1A490120087019480168194A21F0F7
:10118000FF0112691143016003F06AFAC0B103F074
:1011900067FA032802D01448FFF726FA022002F06B
:1011A0008BFE002002F0ECFE03F05AFA032803D075
:1011B0000D480830FFF718FABDE81040FFF7BEBF32
:1011C00003F002F90228E9D303F0D8FA05495031B7
:1011D00000284860E2D10448401FDDE7900000206D
:1011E00030150040600800208905090002490520EB
:1011F0000870FFF7BBBF00009000002007490B5CA0
:101200004FF0A041D1F804250120984020EA0203C4
:10121000C1F808351040C1F80C0570477052000045
:101220000249085C012101F066BE00007052000016
:101230000249085C002101F05EBE0000705200000F
:101240000649095C4FF0A040D0F80405C84010F0F2
:10125000010000D0012080F00100704770520000B2
:101260007CB50024084E25460122305D0095002300
:101270001146019501F00AFE641C042CF4D3BDE86C
:101280007C4000F003B800007052000010B500244C
:101290002046FFF7C5FF641C042CF9D310BD10B520
:1012A00000242046FFF7C4FF641C042CF9D310BDB2
:1012B00010B50246064B4FF0FF3000215C5C9442B3
:1012C00001D1084610BD491C0429F7D310BD000008
:1012D000745200002DE9F0470D468146FFF7E8FF04
:1012E0000446042836D2DFF874801B481C4EA8F14F
:1012F0000C0725B3012D0ED0022D2BD104EB440099
:1013000030444578002D25D0B968002922D02846E0
:10131000BDE8F047084704EB4401755C0E44717862
:1013200049B10E4A4FF40041093A8068FFF7FAFDCF
:1013300008B987F80390B17808F80410E2E78068EC
:10134000FFF730FE04EB4401314418F804008D78B7
:10135000A842D7D0BDE8F087785200000C000020EA
:101360003801002070B50023042810D20D4D00EB89
:101370004004012A02D101290CD00022094E00EBC1
:101380004000304461B1012906D0022906D007236C
:10139000184670BD0E30C2B22A55F9E74270F7E721
:1013A0008270F5E73801002070B506461E4800241B
:1013B000C0E90161B00720D5002501221146284669
:1013C000FFF7D0FF6D1C0446042D02D2002CF4D090
:1013D00013E094B940F2666204211448FFF7E6FC7A
:1013E00004000AD1FFF7D0FC040006D10F48104AD0
:1013F0000021001FFFF75AFD0446F00701D0FFF758
:101400002FFF74B909480B4A00210C38FFF74EFD35
:10141000040006D10548084A01210838FFF746FDB7
:101420000446204670BD00000000002084520000E9
:101430005D1600004D210000830D00002DE9F05FD6
:101440006A4C054600266078B34618B184F801B0AE
:1014500000F064FE664F4FF47A694FF4C87A4FF09B
:101460000108182D62D2DFE805F0AC0C0C31404DBC
:1014700062676B746B74BE7D7D7D7D7DACAFB2B5F4
:10148000BEBE0020FFF7DCFE00284FF0000008D0B1
:10149000FFF7C6FE022D02D14FF4E16008E0484696
:1014A00006E0FFF7C5FE022D01D1C82000E050463E
:1014B000410CC0034FF4FA72801841F1000125700D
:1014C00052000023FEF754FF01462AE00020FFF7F8
:1014D000B7FE00284FF0000004D0FFF7A1FE4FF444
:1014E0004870E5E7FFF7A4FEDFE70020FFF7A8FE5E
:1014F00000284FF0000002D0FFF792FECFE7FFF781
:1015000097FED4E70020FFF79BFE00284FF0000075
:1015100002D0FFF785FE01E0FFF78AFE257041F655
:101520009A1100223868FFF7FDFC064646E00020CD
:10153000FFF764FE257008E0002051E025703DE0D3
:1015400084F801800120FFF759FE002240F6CD41CA
:10155000E8E784F801800120FFF750FE00224FF4F5
:101560008041DFE77868FFF71DFD0646D5F11100E1
:1015700000D02EB10220FFF753FE84F802B01DE028
:10158000012816D980B2C8214843C117C90341EACE
:101590005041C0034FF4FA72801841F1000152002B
:1015A0000023FEF7E5FE014600227868FFF7BAFC4B
:1015B00006460220FFF73CFE84F802803046BDE874
:1015C000F09F00F0ABFDB9E700F0A8FDB4E700F034
:1015D000A5FD04E000F0A2FD0020FFF729FE012098
:1015E000FFF726FEAAE7FFF75AFEA7E70000002054
:1015F000785200002DE9F041861C0C46012700209E
:10160000FFF7E0FC0F4801682160D0E90012891A59
:1016100082680446511AB51C07E000BF00F01CFEAA
:10162000D4E90001401AA168091A491C8D42F5D875
:101630002068304420600020FFF7C6FC3846BDE833
:10164000F0810000F8030020034803C8814201D163
:101650000120704700207047F80300200078022125
:10166000FFF738BE05494FF0FF32082841F8202027
:1016700002D3084480F8482070470000640100202D
:10168000F0B54FF0FF3512B10023082601E0082322
:101690000C260C4C05E000BF54F823707F1C04D0CE
:1016A0005B1CB342F8D32846F0BD26185DB286F81D
:1016B000305044F82310002AF5D1E11881F8480091
:1016C000F1E70000640100200249084490F930006D
:1016D00070470000640100202DE9F05F2648416852
:1016E000F1B3DFF898B00E688146DBF800408768F8
:1016F0008078E11B21F07F45ED1CB0B9DFF88080D8
:101700004FF48030C8F84403C8F804031120FEF7F2
:10171000E5FF1120FFF719F84FF0010AC8F800A003
:101720002F2001F063F889F802A0B54200D23546B7
:10173000124BE8193C3320F07F401860DBF80010B2
:101740005A46091B21F07F41001B20F07F40C91C35
:1017500081420FD9106818602F2001F047F800E08F
:1017600004E0BDE8F05F1120FFF705B8BDE8F05FC9
:1017700003F02CB9BDE8F09F3000002004150140B3
:10178000001001400348416809B1491E416003F05F
:10179000FFBC0000940800202DE9F041002601253F
:1017A000144C22E06068226900EBC607387805FA1D
:1017B00000F1114217D08A43226101F065F9024617
:1017C0003878E36805FA00F1194002FA00F399420B
:1017D00009D17978012901D0012100E0002151408F
:1017E0007A6802B19047761CF6B220788642D9D347
:1017F000BDE8F0811C000020FEB5324800680128D9
:1018000002D03148006830B930484068007820285C
:1018100001D8012700E0002703F088F92B4C0126AE
:101820001C3C00B9666102F01BFF012802D0284869
:10183000FEF7DAFE274D6868007D18B12448401C89
:10184000FEF7D2FE02F0E0F9002F3AD0012108465F
:1018500002F0A0FE052826D2DFE800F003211021C7
:10186000210002F0F3FEC6B202F0EAFE014668680B
:101870000022807D0096CDE901020AE002F0E6FE3A
:10188000C7B202F0DDFE01466868807D0097CDE9B1
:101890000106E389A289002003F0DBF803E00C488D
:1018A0002030FEF7A1FE00F05FFF206107485038AE
:1018B0004069606003F06CFCBDE8FE40002000F071
:1018C00083BFFEBD0014004034150040B008002066
:1018D000B2060900900000200E4910B50A784C7835
:1018E0000023A24212D0521CD2B20A70022A00D1A6
:1018F0000B70084A0B780C3252F82320026088687B
:10190000104420F07F408860012010BD036000205B
:1019100010BD00003000002010B5044CE06F00281E
:1019200002D101F02DFAE06710BD0000800900200F
:101930003EB50D4D687E002815D003F003F902F086
:1019400063F90024AC706C7600940194234622461F
:1019500021460520029403F07CF804480470BDE899
:101960003E4000F0C3BC3EBD940800209000002023
:101970002DE9F041124E07460125BD403068FFF7C2
:1019800011FB00280DD10F4C2069284207D13846A1
:1019900001F07AF80028E06805D0284304E0A84365
:1019A0002061BDE8F081A843E06020692843206100
:1019B000A1683068BDE8F0410022FFF7B3BA00002B
:1019C000A85200001C00002010B501F00FFB00BF62
:1019D00001F006FC0028FBD110BD10B50024204604
:1019E00001F066FB641C082CF9DB10BD10B501F09A
:1019F0008FFB012804D0FFF7E7FF012001F08AFCEC
:101A000001F0EEFB002803D1BDE8104001F0FCBA64
:101A100010BD400001F000BC10B50024204601F0CC
:101A200057FB641C082CF9DB10BD000002490A8832
:101A30000280897881707047C4520000F0B5074673
:101A4000204889B0154600780E4698B1012814D078
:101A5000022834D110221C4904A8FEF7BAFC1B4905
:101A60000D2204A8FEF7B5FC0024164A6846521C55
:101A700021460DE010221449F3E71022124904A870
:101A8000FEF7A7FC04A800F088F8EDE7052C02D2C9
:101A9000135D035500E00155641CE4B2102CF5D32E
:101AA00001F05EF804A801F06DF86946084601F0FF
:101AB0002DF82B466A463146384600F015FB09B032
:101AC000F0BD000058000020C75200003808002078
:101AD00001490870704700005800002001460D229F
:101AE0000148FEF776BC0000380800200349026870
:101AF000C1F80120007948717047000058000020AB
:101B000070B5084C0D46E2784AB10749FEF761FC12
:101B10000DB1E07828700020E070012070BD002039
:101B200070BD00005E000020450800200248C0781B
:101B3000002800D0012070475E000020F0B54E2341
:101B4000B3FBF2F5022303704F23841804F8013C21
:101B500081B10123541E0BE003F003068E5DB6FB3A
:101B6000F5F705FB176605FB0366C6545B1CDBB285
:101B7000A342F1DB01210DE04318445C13F8013C62
:101B8000E31ADBB2052B03D2C3F10503234443540C
:101B9000491CC9B29142EFD3F0BD41F201010A687C
:101BA000026009790171704702498A680260097B05
:101BB000017170475E000020F8B505464FF4805073
:101BC0000E468079FF2815D1002141F2060002F06F
:101BD0001FFC002441F207070AE00121684600F0DB
:101BE00007FA9DF80010E01902F012FC641CE4B240
:101BF000B442F2D3002206E041F20700805C521C9E
:101C000005F8010BD2B2B242F6D3F8BD30B58BB0B5
:101C100020203E4D00240890AC70204601F08CFA44
:101C2000002805DD08AA6946002001F00BFA0446E9
:101C3000E87820430AD1012001F07EFA002805DD72
:101C400008AA6946012001F0FDF904463CB39DF85D
:101C5000000007283AD2DFE800F00439080C10230E
:101C60003400684600F0B4F830E0684600F08CF9C3
:101C70002CE0684600F04AF928E00A208DF824009C
:101C800009AC601CFFF790FF00F04EF810B9601C23
:101C9000FFF72CFF0122062109A800F087F815E0C4
:101CA0006C460120FFF714FF1022611C601CFFF737
:101CB000C5FE601C00F00CFA40B1201DFFF70EFFBE
:101CC00004E00898C1B2684600F0E4F801F088FA30
:101CD00060B90020FFF79DFE687828B101F038FA5E
:101CE00040F0010001F02CFBFFF780FE07490020C7
:101CF00008310A5C521C12F0FF020A5403D1401C46
:101D0000C0B20528F5D30BB030BD00005E00002046
:101D100000B500F009F8002802D00249022008703E
:101D200000BD00005E00002002480078002800D0BE
:101D3000012070475E00002008B504216846FFF7C7
:101D40003BFF684600F070F901F002FA40F0020033
:101D500001F0F6FA04490020487088700870C870D5
:101D6000FFF757FE08BD00005E00002070B50E4D65
:101D700004466878A04216D0FFF726FE34B101F081
:101D8000E7F940F0010001F0DBFA07E001F0E0F9CB
:101D900020F0010001F0D4FA002028706C70BDE83A
:101DA0007040FFF723BE70BD5E00002070B5164680
:101DB0000C460546FFF708FEFFF72EFE2246294691
:101DC000304601F0C9F8BDE87040FFF70FBE0000D3
:101DD000FEB5054620202E4E02900020B070FFF781
:101DE000F3FD01F0B5F9C4B2301DB0F9020010F1F5
:101DF000400F44DB002001F0A3FA9620FFF709FE14
:101E0000FFF7EBFDFFF7F2FD01F0EAF90028FBD147
:101E100008208DF8000004210DF10100FFF7CCFE31
:101E200005226946002001F097F84FF4AF70FFF7E4
:101E3000F0FD012001F084FAFFF7D8FD01270CE046
:101E4000002001F079F940B102AA2946002001F0F2
:101E5000F9F82878012800D1B77001F0C1F90028FD
:101E6000EED1FFF7D9FDFFF7B8FD0020FFF7D1FD58
:101E7000204601F065FA00BFFFF7B8FDFEBD24F073
:101E8000010001F05DFA4FF4FA70FFF7C2FDF3E7CD
:101E90005E0000203EB50D460446FFF745FF08B141
:101EA000002000E00220FFF713FE681EC2B2611C92
:101EB000601CFFF7C3FD601C00F00AF938B111483F
:101EC0002D1FEAB2C270211D0F48FEF782FA0B20C7
:101ED0008DF800006C46A01DFFF7A8FD0322A11D90
:101EE000A01DFFF7ABFD601CFFF75EFEFFF71CFFB8
:101EF00010B9601CFFF7FAFD012209216846FFF7BF
:101F000055FF3EBD5E000020450800203EB504465A
:101F1000FFF70AFF002827D00020FFF7D9FD032292
:101F2000611C601CFFF78AFD601C00F0D1F80028DE
:101F30001AD0144B00246D461878022815D00328B7
:101F40001AD08DF8044009208DF800002C46681C3A
:101F5000FFF76CFD0922611C601CFFF76FFD012279
:101F60000A216846FFF722FF3EBD01208DF80400DC
:101F7000681DFFF712FE02E002208DF804001C70BD
:101F8000E1E700005E0000207CB5184D044668784B
:101F900000282AD0FFF7C8FE20B9601CFFF7A6FD75
:101FA000012028706846FFF7F8FD00216846425C72
:101FB000FF2A02D1491C0529F9DB052915D1FFF7B4
:101FC000F3FD69460523621C084600F08DF84FF4C6
:101FD000805469462078FF2807D10522601C02F052
:101FE00039FA0021204602F013FA7CBD5E00002081
:101FF000F0B50B4B0025C3F8005101241C602A46A4
:10200000084E09E0D3F80071002FFBD037688754E1
:10201000C3F80051521CD2B28A42F3D35C60F0BDC7
:1020200000D0004008D500402DE9FF41054601F0F1
:10203000D7F8264C0646EDB328786978EA7800EBA5
:102040000120A978090401EB0261471801F0D6F9D3
:10205000204601F0EDF850B10021084601F0C8F823
:1020600028B1384601F0F4F808B1012402E0012457
:1020700007E037B12146084601F0BAF808B1012758
:1020800000E00027641CE4B2082CF2D301F034F81D
:102090000446C2B229466846FFF750FD87B1214683
:1020A000684601F0E5F858B10120002E05D000F097
:1020B000ABFF00E007E030B1012004B0BDE8F081E3
:1020C0000020002EF9D00020F7E700000406080ADF
:1020D00010B503220349FEF78EF908B1002010BDA8
:1020E000012010BDC452000070B5002409E000BFFB
:1020F00011F8015B12F8016B7540641C00F8015B7C
:10210000E4B29C42F4D370BD0278521C0270027893
:102110008A4201D300210170704700000A4810B5BF
:10212000807860B1002401E0022C06D02046FFF741
:1021300077F8641C042CF7D310BD0324F6E7BDE840
:102140001040FFF7A3B80000000000200348017909
:10215000C90702D00078FFF771B97047000000206E
:102160002DE9F047394E002780463D46DFF8E090E4
:10217000D6F804A057E003D00446D0F81C8035E020
:1021800099F8002002EB4201521CD2B289F80020DB
:1021900009EBC10199F80230091D9A4201D189F871
:1021A000005048680A780446012A12D0022A02D058
:1021B000032A3BD108E002F0E9FD00B101272574B4
:1021C00034E00574C06900E070680028F9D17060DF
:1021D0002CE0207C50BB88686060C868A0600869FB
:1021E000E0604869A061F07800B165606268B1683C
:1021F000184B501A20F07F40984202D2A168084440
:1022000006E0881AA16820F07F40814202D9081AAE
:10221000206000E0256065600120A56020742046F4
:10222000E56102F095FDB8F10000A4D199F8001025
:1022300099F801008142A3D117B97168514502D0C4
:102240000120BDE8F0870020FBE7000030000020FF
:102250002C020020FFFF7F0070B588B0214800F0FD
:10226000FDF92048001F064600F0F8F91E4DD5E99B
:10227000014105E0C0F3891202EB9050641C044454
:1022800004EA010005EB8000C0688207F2D000205C
:102290000DF1080204EA010305EB8303641CDB680B
:1022A00042F82030401C0228F4D3029800F00300CA
:1022B000012808D002280AD10298032101EB90508E
:1022C00004EB900403E00298C0F38310044430460A
:1022D000002101AAFEF705F8002800D06C6008B0C4
:1022E00070BD000010080020F80300201CB5104944
:1022F0004FF44070086002F0B3F9012812D00228B0
:1023000010D0032813D10020009003460246014656
:10231000019002F0ADF8042809D0BDE81C40054842
:10232000FEF762B90021084602F034F9F3E71CBD5C
:1023300008F50140E801090015480021016001216C
:1023400001601448016821F480710160016821F086
:102350000F01891D0160016821F4702141F44031B1
:102360000160001D016821F000710160016841F009
:1023700080710160016821F0FF0141F020010160DE
:10238000016821F47F4101600120FEF7B2B900002D
:10239000FC1F00401415004070B5134801F05CFDAF
:1023A0001249114C503C4860607F01F097F9206A57
:1023B00001F020FA606A01F029FA0025601990F80E
:1023C0002810284601F02EFA6D1C082DF6DB08496E
:1023D00014F8300F0860607801F0ACF9A078BDE81F
:1023E000704001F0E3B90000B00800209000002028
:1023F0000C1500400C4910B5002008600A484FF445
:1024000040744C380460FFF797FF00F0D9FC064990
:1024100008310860091F0548086003485038046007
:10242000BDE81040FFF7B8BF54F50140041100406B
:102430008AB002F071FE012000F094FE28B900F08D
:1024400061FE00F50340FEF725FD4FF4FC7000F03F
:1024500087FF28B900F056FE00F50340FEF71AFD8D
:10246000FFF76AFC00F074FE40F0040000F068FF23
:1024700028B900F047FE00F50340FEF70BFD0120F0
:10248000FFF774FC00F0C0FD28B900F03BFE00F53A
:102490000340FEF7FFFC2024FFF7B8FBFFF744FCE6
:1024A00008B1FFF735FC0220089400F045FE28B182
:1024B00008AA6946022000F0C5FD07E0FFF736FBD9
:1024C0000028E9D008A96846FFF71AFB0028E3D0E6
:1024D0009DF8000002F008FADEE72DE9F047C78812
:1024E0000446181D16468946B0FBF7F1B0FBF7F21B
:1024F00007FB12009A193A44D21CB2FBF7F2DDF83E
:1025000020A001E02468491E0029FBD13D1A88461D
:10251000B54216D818E0BAF1000F05D0211809EB22
:1025200008002A46091D04E0204409EB08012A4658
:10253000001DFDF74EFF00202468761BA844B7421B
:1025400001D9354600E03D46002EE4D1BDE8F087D4
:102550002DE9F04713460E46C0F30729C2B2010E1B
:1025600040F3074000241F0C40421FFA83F8062A5C
:102570005FD2DFE802F003182F4E4A4601B1012175
:10258000254667F30F0461F3070560F31F4468F302
:102590001F45304600F0B2FF224629464846BDE8B6
:1025A000F04700F022BD26488068407E10B92548DB
:1025B000FEF71AF8304600F0A1FF214664F3070148
:1025C00067F30F0468F31F4122464846BDE8F04711
:1025D00000F00ABD09B1012200E0002262F3070405
:1025E00060F31F443AB11EB916480E30FDF7FCFFE8
:1025F000304600F083FF21464846BDE8F04700F032
:10260000A9BDBDE8F04700F0FDBC00F0EFFDBDE85E
:10261000F0870D484168491C416001780029F6D0D7
:10262000816811B1491E8160F1E7BDE8F04700F013
:10263000DDBCBDE8F04703482E30FDF7D5BF0000F4
:1026400070000020D20305005408002002490F2228
:102650000A70C860704700007000002008B50121B2
:102660006A46FDF731FE009808BD70B504460025A6
:102670002846FEF7A7FC21686268086890420ED9D8
:10268000401E08600178238AE26801FB0325227A54
:102690002168101AC0B20A79824200D20871002063
:1026A000FEF792FC284670BD70B505460C4600202A
:1026B000FEF788FCE868298A201AB0FBF1F12A6845
:1026C0001068431C13600170BDE870400020FEF7E5
:1026D0007BBC10B530B1017A42680368891AC9B26F
:1026E0001A6006E00E2010BD03681A68541C1C60B6
:1026F0001170491EC9B2F7D2006800210171084665
:1027000010BDC20800F007030120895C9840084012
:10271000704700000948021F4168491C4160126867
:102720001368994208D3002343600168491C016083
:102730005268914200D30360704700009C00002063
:1027400070B5074C251F206829684968884202D364
:102750000448FDF749FF286821688068405C70BD27
:102760009C000020B1000100014800687047000093
:102770009C00002001484068704700009C00002039
:1027800010B5040002D10548FDF72EFF04480021D2
:102790000460001D0160416010BD000029000100BF
:1027A0009800002010B50446054800684068A04223
:1027B00002D80448FDF718FF0148001D046010BD51
:1027C00098000020B800010010B5044605480068D4
:1027D0000068A04202D80448FDF706FF0148001D2A
:1027E000446010BD98000020C400010000283ED0C5
:1027F0001F49204A096800BF00BF00BF00BF00BFDB
:1028000000BF00BF00BF91422FD000BF00BF00BF7C
:1028100000BF00BF00BF00BF00BF00BF00BF00BFC0
:1028200000BF00BF00BF00BF00BF00BF00BF00BFB0
:1028300000BF00BF00BF00BF00BF00BF00BF00BFA0
:1028400000BF00BF00BF00BF00BF00BF00BF00BF90
:1028500000BF00BF00BF00BF00BF00BF00BF00BF80
:1028600000BF00BF00BF00BF00BF0138C3D1704729
:102870006C0000200024F400002839D0401E00BF66
:1028800000BF00BF00BF00BF00BF00BF00BF00BF50
:1028900000BF00BF00BF00BF00BF00BF00BF00BF40
:1028A00000BF00BF00BF00BF00BF00BF00BF00BF30
:1028B00000BF00BF00BF00BF00BF00BF00BF00BF20
:1028C00000BF00BF00BF00BF00BF00BF00BF00BF10
:1028D00000BF00BF00BF00BF00BF00BF00BF00BF00
:1028E00000BF00BF00BF00BF00BF00BF00BFC5D119
:1028F00070474907090E002806DA00F00F0202F1BE
:10290000E02282F8141D03E000F1E02282F80014B6
:1029100000F01F02012191404009800000F1E020F9
:10292000C0F88012C0F80011704700002DE9F04196
:102930008846054601F0F4FF234E002828461AD0A9
:10294000FEF7C2FE304490F848008009032802D008
:1029500001280ED007E04FF0A040D0F81005E84065
:1029600010F0010F05D003212846BDE8F04100F02A
:10297000B1BA0221F8E701F0DFFF002822D0284693
:10298000FEF7A2FE04464FF4807000EB84000F4F68
:1029900081B207EB8400D0F8102542F00102C0F8A4
:1029A0001025084600F0C6FAB8F1000F0AD02846F4
:1029B000FEF78AFE56F82000002803D00120A04030
:1029C000C7F80403BDE8F081640100200060004006
:1029D0002DE9FC41DFF8A480044608EB0400002741
:1029E00090F930001346C0170E46401C01D008274E
:1029F00041E0F27819462046FEF742FE0546401CAB
:102A000038D0B07850B14FF0A04000EB8400D0F83F
:102A1000001721F00201C0F8001707E000217378C9
:102A2000204600910A46019100F042FAF078C0B1C8
:102A30001348317800EB8500D0F81025114B1A406F
:102A4000C0F810254FF4F8524FF4403302EA042244
:102A500003EA01410A43D0F810150A43C0F81025D3
:102A600009E008EB0500327810F8481F41EA8211AE
:102A7000017000E004273846BDE8FC8164010020B5
:102A800000600040FFE0FCFF4FF0A041D1F81015BE
:102A9000C14011F0010000D00120704770B5144D05
:102AA00095F8540008B1082070BD0020411E2A1876
:102AB000401CC0B282F830102028F8D300242046F1
:102AC000FEF7D0FD641CE4B20C2CF8D307210620DD
:102AD000FFF70FFF4FF4BE7000F02CFA05494FF0DE
:102AE0000040C1F80403012085F85400002070BDA7
:102AF0006401002000600040034890F85400002862
:102B000000D00120704700006401002070B5124D14
:102B100006464FF080746868814202D01022FDF7AB
:102B200058FC0E490020C1F8000101220A6001E0B2
:102B3000641E0ED0D1F80021002AF9D0C1F800019E
:102B4000A9688E4203D010223046FDF742FC0120D6
:102B500070BD002070BD00001000002000E00040AB
:102B60000549064801F11002C0E9001210328260E6
:102B70000348016001207047DC01002010000020A4
:102B800004E500400146024810220068FDF721BC20
:102B9000100000202DE9F0410446102802D30B4814
:102BA000FDF722FD094E0A4D361D204600F07CF847
:102BB000070008D0AF4202D13046FDF715FD384678
:102BC00000F008F8F1E7BDE8F0810000D70003004D
:102BD000ADDEADDE70B5104C06462068062802D387
:102BE0000E48FDF701FD3046FEF752F818B90B48C4
:102BF000401CFDF7F9FC0A4D20680A4955F82000F1
:102C0000884203D00548C01CFDF7EEFC216845F85A
:102C10002160491C216070BDC400002085000300B4
:102C2000040B0020ADDEADDE0148006870470000F7
:102C3000C400002010B50446102802D30348FDF755
:102C4000D3FC034904EB4400085C10BDC80003003A
:102C5000140A002030B50020114A014600EB400361
:102C60009C186170A170D154401C1028F6D30C4DF3
:102C70000020F03505F118045FF0DE0300EB0011D1
:102C800004EB410245F8202000215354491C22291D
:102C9000FBD3401C0628F1D302490620086030BD52
:102CA000140A0020C400002070B500260446102835
:102CB00002D30C48FDF798FC0B4D04EB4404285D4F
:102CC00070B105F1300000EB8401601910F8022F9B
:102CD00051F822600321FFF717FA285D401E28559E
:102CE000304670BDA6000300140A002070B50C46E3
:102CF0000646102902D31248FDF776FC3046FDF750
:102D0000C7FF18B90E48401CFDF76EFC0D4D04EBD3
:102D10004404285D032810D205F1300000EB840143
:102D2000601910F8012F41F822600321FFF7ECF938
:102D3000285D401C2855012070BD002070BD00009A
:102D40008F000300140A002010B50446102802D397
:102D50000948FDF749FC094904EB44000A5C42B10B
:102D600001F1300202EB80020844807852F8200022
:102D700010BD002010BD0000B7000300140A0020A1
:102D80000B4810B50168002479B10A4A0A4B02EBDE
:102D90008102491E52F8044D136001602046FDF780
:102DA00077FF10B90548FDF71FFC204610BD000055
:102DB000C4000020040B0020ADDEADDE7D0003006A
:102DC00000487047488000400048704740810040FC
:102DD0000148007870470000A400002070B5144E30
:102DE00001247460F4601348002505607464114880
:102DF0003C30006810B11048FDF7F6FB4FF0FF3093
:102E0000C6F80803C6F840510A4904200831086092
:102E10000A4845600470457085700820FDF774FC11
:102E20004FF0E0214FF48070C1F8000170BD000048
:102E3000008000400885004035000400A400002008
:102E40000349012008600349002008707047000012
:102E500000800040A400002070B5074801254560AF
:102E6000C560064C0026082066606670FDF74CFCC5
:102E7000A670257070BD000000800040A4000020F6
:102E80000148407870470000A400002070B541EA76
:102E90004201DDE904564FF0A04441EA830141EAD2
:102EA000052104EB800041EA0641C0F8001770BD1F
:102EB00070B541EA4201DDE904564FF0A04441EA11
:102EC000830141EA052104EB800041EA0641C0F894
:102ED000001770BD4FF0A04202EB8000D0F8002731
:102EE00022F44032C0F80027D0F8002742EA01411E
:102EF000C0F80017704701224FF0A043824011B183
:102F0000C3F808257047C3F80C25704718B5084B5F
:102F10006C4601441B68009306E000BF54F8203063
:102F2000D3F81035401C08C28142F7D818BD000004
:102F3000A4520000034908B508440021016000685C
:102F4000009008BD0060004002494058012800D0B0
:102F500000207047006000402DE9F041204D1646EA
:102F600088460746082801D3042035E0B8F1000F51
:102F700003D0202E03D906202EE003202CE0384673
:102F800000F0D6FA032801D3092025E0384600F0E6
:102F9000C7FA032801D30A201EE000F0B9FA02287C
:102FA00001D2082018E000F08FFB0446067040783C
:102FB000324640F0010060704146A01CFDF709FA5E
:102FC000F8B2214600F064FB10B10120BDE8F081A9
:102FD0000448FDF709FB0F2028700020F6E70000E9
:102FE00070000020F60005007047704710B500F033
:102FF0003BFB18B1BDE8104000F004B8BDE810403C
:1030000000F00ABA704700000C4810B5816821B181
:103010000B490968090C02D007E002210AE00849BF
:103020000831096811F0FF0F03D000F009FA012000
:1030300010BD11210170002010BD000070000020A3
:103040001C1500402DE9F04116460F46044600F0DD
:1030500067FA154D48B157B1204600F033FB0078B0
:103060003168814205D206201AE00B2018E00320C7
:1030700016E0204600F002FB04000DD0A01C0BD08F
:103080002278A11C38463260FDF7A3F9204600F0F3
:1030900035FA0120BDE8F0810448FDF7A5FA0F20BC
:1030A00028700020F6E70000700000201E010500D7
:1030B00010B5082804D3054904200870002010BD6D
:1030C000C0B200F0F9F9012010BD0000700000202E
:1030D000084910B58A68527E0AB10C2002E008281F
:1030E00003D304200870002010BDC0B200F0EEF938
:1030F000012010BD700000200148406870470000AA
:103100007000002001480078704700007000002027
:1031100010B500F0FFF930B1012806D0022806D022
:103120000448FDF761FA022010BD002010BD012007
:1031300010BD000089010500082804D303490420BC
:103140000870401F704700F0EBB9000070000020CD
:1031500000F0E8B9002801D1014841607047000043
:103160005E00002070B51B4C054600201A492070F7
:10317000E060086048608860184800F0DBF9A060F3
:1031800018B304F11000616800F072F80646284692
:1031900000F0C0F800EA0605042000F09FFA0020C5
:1031A00000F0A0F80540012000F0EAF805400220F8
:1031B00000F080F80540002000F008F905400120EB
:1031C00000F068F90DB1012070BD012020700020D1
:1031D00070BD000070000020540800205125000040
:1031E00001488068407E70477000002070470000F2
:1031F000084A10B593685B7E0BB1022002E00828F4
:1032000003D304201070002010BD00F00BFB012040
:1032100010BD0000700000200449002200280A7040
:1032200002D0886001200870704700005408002018
:10323000064910B58A68527E1AB102200870002033
:1032400010BD00F0D7FA012010BD00007000002072
:10325000064910B58A68527E1AB102200870002013
:1032600010BD00F0D3FA012010BD00007000002056
:1032700010B50F4CA268527E012A11D0102911D826
:1032800081B188B10A466160014604F11000FDF782
:10329000A0F804F11000616800F034FA012010BDBC
:1032A000022002E0072000E003202070002010BD73
:1032B000700000200A4910B58B68024601205B7E31
:1032C0000BB1022004E0012A05D0022A04D00E200E
:1032D0000870002010BD002000F068FA012010BD29
:1032E000700000200A4910B58B68024600205B7E02
:1032F0000BB1022003E032B1012A03D00E20087086
:10330000002010BD012000F0F7F9012010BD0000E1
:103310007000002010B540B1012808D002280BD061
:10332000064905200870002010BD012000E00220A1
:1033300000F04AFA012010BD0020F9E770000020DB
:10334000064910B58A68527E1AB102200870002022
:1033500010BD00F08FFA012010BD000070000020A9
:10336000064910B58A68527E1AB102200870002002
:1033700010BD00F085FA012010BD00007000002093
:10338000114910B58B68024600205B7E0BB102200C
:1033900017E0072A14D2DFE802F0040F06080A0C2F
:1033A0000E00042008E0FC2006E0F82004E0F420F1
:1033B00002E0F02000E0EC2000F074FA012010BDE3
:1033C0000E200870002010BD700000200A4910B5C2
:1033D0008B68024600205B7E0BB1022003E032B115
:1033E000012A03D00E200870002010BD012000F03B
:1033F00063FA012010BD00007000002010B5FFF737
:10340000EFFE002806D0FFF7F1FD30BFFFF7E8FE22
:103410000028FBD110BD000010B5012080F31088FA
:103420000648417E29B1817819B90121817001F0E6
:103430004BFB002080F3108810BD00009408002092
:1034400070B5124C607E00281ED1FEF7D3FF04F148
:103450003405A86810B90E48FDF7C6F8686818B9B1
:103460000B48401CFDF7C0F801F000FA18B10848FD
:103470000830FDF7B9F8002001F00CFA0120607661
:10348000BDE8704001F020BB70BD00009408002032
:103490005D02090010B504460448406810B90448AC
:1034A000FDF7A2F80348047510BD0000900000204D
:1034B00000040900B008002010B5012181F3108834
:1034C00001F0A8F8002080F3108810BD10B5044664
:1034D000012181F310880748017821B1407E10B1A5
:1034E0000548FDF781F8204601F097F8002080F3A9
:1034F000108810BD94080020F902090010B50121C0
:1035000081F3108801F092F8002080F3108810BD3C
:1035100001F08EB801480078704700009408002040
:1035200001F09AB801480069704700006008002067
:1035300001F09CB82DE9F0410646012080F3108887
:10354000454D4FF003080024687085F80080AC708A
:103550006C60AC60AC81EC812C6107466C612C76B0
:1035600005F11C006C76046044608460C4600461F2
:103570000475183084604460FFF730FC304600F07A
:103580002DFF01F075F8002001F07CF905F1340001
:10359000FFF7F6F800210820FDF708F900210120C7
:1035A000FDF704F901211520FDF700F9012000F0D5
:1035B0000BF9A5F13406FF2046F8100F04207073B4
:1035C000264931612649716137760221717686F884
:1035D0001A80F07605203077062070770720B077C4
:1035E0000820F07786F8204086F8211086F82270AF
:1035F0001E2046F8040F4FF4167046F8100C0220F7
:1036000000F044F90F2000F047F9F480377177712A
:103610003472204601F0ACF8692046F8140C687842
:10362000012802D00F48FCF7DFFF2F70AC706C60F0
:10363000AC60AC81EC812C616C612C766C76FEF711
:10364000D9FE0820FDF755F81520FDF752F884F350
:1036500010880148BDE8F0819408002004070A0D95
:1036600005080B0E3B0209000348407E08B100200C
:1036700070470120704700009408002010B5012118
:1036800081F3108801F028F8002181F3108810BD23
:1036900010B5012282F3108801F02CF858B10848C7
:1036A000817819B9407E08B101F00EFA002080F34C
:1036B0001088012010BD002080F3108810BD00008C
:1036C0009408002001F027B810B5012080F310887D
:1036D00001F026F8002181F3108810BD04494877D5
:1036E00004490A6822F4E02242EA00400860704778
:1036F0006008002018150040014908767047000056
:103700006008002070B50C00054602D10748FCF7A0
:103710006BFF1DB90548401CFCF766FF0448C0E973
:103720000145BDE870400020FFF73CB848030900A0
:10373000C8080020194981F8310019490A6822F0A7
:10374000FF020A6058B1164A0B1D0832012809D041
:10375000022810D0032817D01248FCF745BF08688C
:1037600008607047086840F001000860FF201060A2
:1037700040F2071010E0086840F0020008604FF6C1
:10378000FF701060084807E0086840F00300086018
:103790006FF07F40106000201860704760080020C4
:1037A00034150040C103090021100100044981F8CB
:1037B0003200044908B1012800D1086070470000B8
:1037C000600800201015004010B5012181F3108819
:1037D00007490A78824204D04870487E28B101F037
:1037E00073F9002080F3108810BD01F0DFFCF8E7CA
:1037F00094080020034910B5086201F045FA024917
:10380000086010BD600800201C150040034910B579
:10381000486201F039FA0249086010BD60080020D2
:103820002015004070B5082819D20F4A024482F8CA
:1038300028108207D40EFF22A240D243042801D2CE
:103840000A4D01E0094D2D1D2868104028600846EA
:1038500001F008FA2968A0400843286070BDBDE85F
:1038600070400348FCF7C0BE6008002024150040EB
:103870003803090001490861704700006008002012
:103880000149486070470000600800200149C86095
:1038900001F07EBC600800200149886001F078BC1E
:1038A00060080020024981F8300002490860704732
:1038B000600800200C15004001490877704700009F
:1038C000600800200B4810B54068407D30B10120F1
:1038D00000F056FB08498889401C88810749002070
:1038E00008600548343803C8BDE81040091A0020B4
:1038F00001F0D0B8900000209408002054F5014059
:10390000FEB501F013F9494D494E05F1340450B1AB
:10391000FDF738FFA07800286AD0FEF7FBFEBDE86F
:10392000FE40FEF705B82078012802D0022804D016
:1039300008E000F01BFB28B171E0307804286ED05D
:1039400003286CD0FEF7E6FEFDF71CFFA07880B1DF
:10395000FDF7EEFF00F038FD022843D30020009071
:1039600001900346024601460290032001F071F8DF
:10397000FEBD01F01BFC20B10020696801F08AF84F
:10398000E8E72078F0B1012816D0022817D029489E
:10399000FCF72AFE687E0128DCD101F08DF90028B1
:1039A000D8D12078D8B1012811D00228D2D021480E
:1039B0001A30FCF719FECDE700F03EF8EAE700F018
:1039C00097F8E7E70020696801F064F8E2E700F0A3
:1039D00047FE0028BED100F037FF0028BAD101F021
:1039E000B1F8B7E7BDE8FE4012483430FCF7FCBD43
:1039F0002078022808D0FEF78DFE696803B0002009
:103A0000BDE8F04001F046B83078042807D003281C
:103A100005D0FEF77FFEBDE8FE4000F069B868689B
:103A2000BDE8FE40400801F029B800006008002011
:103A30009000002061040900FEB500F0E5F800F0F8
:103A40000FFE284D05F13404C0B1688B88B3A189FD
:103A500081422FD30121002000F09CFD00F0F6FDF3
:103A6000C6B200F0EDFD01460020CDE900600290F5
:103A7000E389A289012000F0ECFF2CE000F0A4FC17
:103A8000022828D301F018F960B1FEF773FE10BBCD
:103A9000287E20B9FEF768FE216988421BD101F01B
:103AA00069F818E02069FEF77DFE0020FEF78CFE25
:103AB000F5E7FFE7FFF7E4F910B10B48FCF794FDD9
:103AC000FEF73EFE09490968884202D0E089401CA1
:103AD000E08100F03DFF296803B00120BDE8F0401F
:103AE00000F0D8BF60080020130509000815004049
:103AF00070B50024FEF724FE0A4D2968884203D0E1
:103B0000FEF71EFE286001240748641E0078044268
:103B100001D1FDF72BFB05484168BDE8704000204E
:103B200000F0B8BF08150040900000206008002099
:103B3000164810B50021C0F80C11C0F81011C0F8DB
:103B40000011C0F82811D0F8002282F00802C0F855
:103B500000220122C0F808230822C0F804230C4ADE
:103B60000323137051601175C0F80411C0F80811D7
:103B7000084C2068006900B18047206880680028F0
:103B800002D0BDE81040004710BD0000001000400A
:103B9000D4080020AC0000202DE9F041174C00258E
:103BA0000746C4F80052164E307803281CD0681E11
:103BB000C4F80803C4F80C51032070700120FCF70E
:103BC000AEFD00BFC4F80051C4F81051C4F8045150
:103BD00075603575002F0FD00A480068006900280D
:103BE0000AD0BDE8F04100476FF00800C4F80803B0
:103BF0000820C4F80403E5E7BDE8F08100100040A8
:103C0000D4080020AC00002070B50120FCF792FD24
:103C10000120FCF784FD144C4FF0FF30C4F808037A
:103C20000026C4F80062C4F8106101202061A06180
:103C30000E4D2878012813D0022813D0032811D064
:103C40005FF00100FEF718FEC4F810612E7000202E
:103C5000FFF7A2FF6E75BDE870400120FCF780BD44
:103C60000620EFE70220EDE700100040D408002016
:103C700070B5194E0220194C3070B069401C0025F7
:103C8000B061C4F80052681EC4F80803C4F80C51AF
:103C9000C4F80051C4F81051C4F80451C4F82851B4
:103CA0000120FCF73CFD032070700D4875603575F0
:103CB0000068017D49B10B490968B175C4F81C5110
:103CC0000121A161084A89021160C068002802D060
:103CD000BDE87040004770BDD408002000100040CF
:103CE000AC0000204815004008F50140244910B5FB
:103CF0000A690020234C012A08D0022A1FD0032A77
:103D000021D0BDE810402048FCF76EBCC4F80C017F
:103D1000C4F80001C4F81001C4F80801C4F8040193
:103D2000012004F58074FCF7FAFC0820C4F80402B2
:103D30000120C4F808020720C4F8000110BDBDE846
:103D4000104000F025B8C4F80C01C4F81001C4F804
:103D50000001C4F80401C4F82801C4F80002087086
:103D60004FF0FF32C4F8082303224A7048600875F8
:103D70000648006800690028E0D0BDE81040004710
:103D8000D4080020001000403D030A00AC000020D1
:103D90002DE9F0412A4E04203070B069401CB0611A
:103DA0000120FCF7BCFC274D0024C5F80C41C5F8E8
:103DB0000041C5F81041C5F80441C5F82841224F1B
:103DC0004FF001083868007D90B120480068B07558
:103DD0001F480068400502D41E48FCF705FCC5F8E2
:103DE0001C41C5F818801A494FF4806008310860FA
:103DF000D5F8000118B11748C01DFCF7F5FBD5F840
:103E00000C0118B113480830FCF7EEFB4FF0E0202E
:103E1000D0F8000210F0020F03D00E480930FCF772
:103E2000E3FB3868C06800B180473868417D0029ED
:103E300003D00649006844390860BDE8F0810000FD
:103E4000D408002000100040AC00002048150040BD
:103E500000F50140EC020A00124910B5086001208B
:103E6000FCF768FC1149104808600F48091FF03042
:103E70000860FFF7C9FE0E4800210322017042705E
:103E8000416001610175417581750A48016821F041
:103E9000010141F0807101600120FCF761FC0448E0
:103EA00010BD0000AC0000201410004064F501407B
:103EB000D4080020741700402DE9F047254C064631
:103EC0004FF0000ADFF89090214884F815A04FF0D9
:103ED000FF3100EB06155746C9F808130120FCF71F
:103EE0001EFCDFF878806670032ED8F800000268A8
:103EF000A2604168C4E90317A7612868606018D20E
:103F0000287A4F4640F00100C9F80002EB7A1448C5
:103F10001BB10160006848B904E00260006828B97C
:103F2000104801E00F48401DFCF75EFB687AC7F8B7
:103F30000403D8F80000007D30B1022E04D10A49F4
:103F400084F816A07002086001206075BDE8F08753
:103F5000D8520000D408002000100040AC0000201F
:103F60000415004025010A0004F501400348D0F87B
:103F70000401012800D0002070470000001000401C
:103F80002DE9F041204C07462048657800EB0516E6
:103F9000607D012802D01E48FCF726FB207D18B169
:103FA0001B48401CFCF720FB012000212075617597
:103FB000032D09D20FB931680860022D01D0012DFF
:103FC00006D1B07A207003E011481A30FCF70CFBE0
:103FD00010480068007D002813D0022D11D10E4832
:103FE0000068400503D40A482030FCF7FDFA0B486E
:103FF0000068002805D1BDE8F04105482130FCF7F4
:10400000F3BABDE8F0810000D4080020D8520000C7
:1040100042010A00AC00002004F5014004150040F4
:104020002DE9FE4FFDF710FB10B10020BDE8FE8F1B
:104030006D480021C0F81814BFF34F8FD0E9014636
:1040400004EA060100EB81014FF000090AE000BF1D
:10405000C1F3891202EB9151641C0C4404EA06017D
:1040600000EB8101C9688A07F2D000216A468046C8
:1040700004EA060308EB8300641CC06842F82100D0
:10408000491C0229F4D3009800F00300022802D052
:1040900001284DD0A2E000985022810D8A46B2EB53
:1040A000905F00D850210D4665F39F500090083175
:1040B0004E4800F0E3F8070077D000F028F94B46AF
:1040C00008226946384600F03CF904EA0600311A35
:1040D0008900091D09F1080B8D4222D9424E0C3688
:1040E00031B1CAB208EB8000691A91460C3004E085
:1040F0003046EAB2002691463146CDB201465B46D3
:10410000384600F01EF90BEB09032EB12A46314662
:104110004FEA070000F015F90AF1030004EB9004E0
:104120003AE008EB80015B462A4638460C31F1E75D
:104130000098C0F38310062800D30620009960F38E
:104140008911C1F38310801C00918100274800F081
:1041500095F8070042D000F0DAF84B46082269468D
:10416000384600F0EEF809F1080900250EE000BF1E
:1041700004EA060008EB80014B46042238460C3165
:10418000641C00F0DEF809F104096D1C0098C0F30E
:104190008310A842ECD847B1D8F81054D8F81804C6
:1041A000464660B1384600F0BBF817E0687A01284F
:1041B00004D12A6828463946126890476D68002D58
:1041C000F4D1384600F0ACF80020FCF7FBFED6F83E
:1041D000180400B974600020FCF7F6FEFDF734FA0D
:1041E00080F0010022E70000F8030020B052000038
:1041F00000231A4600F0ECBC114810B5FF21816085
:10420000002101604160C0F81814C0F8141480F84F
:104210001C140C4800F082F800280FD10A480B4902
:104220000B4B401AC108002005E000BF00EB400224
:1042300023F82200401C8842F8D3002010BD000063
:10424000F8030020B0520000645300004453000003
:10425000C800002070B508480125D0F8104480F847
:104260001C5405E0657221682046496888476468E7
:10427000002CF7D170BD0000F80300202DE9F041BB
:10428000058A80462D1F4819C01CB0FBF5F0C6B248
:104290004046FEF7EAF9041E19D0002020710120E3
:1042A0006071E58000272546761EC4F800800BE08B
:1042B0004046FEF7DAF960B16179491C6171286006
:1042C00005467F1CC0F80080B742F1D32046BDE808
:1042D000F081204600F002F80020F8E72DE9F041D7
:1042E000457901466B1E002201E00968521C9A4282
:1042F000FBD30F680146002605E038460C68FEF740
:10430000D3F92146761CAE42F7D3BDE8F08108B55B
:1043100001216A46001DFBF7B0FF08BDFEF7D9B9C1
:1043200038B50446001D01216A46FBF7B3FF00982B
:1043300010F0FF0F04D12046BDE83840FFF7CEBF94
:1043400038BD38B500240094FEF7C7F838BD00002A
:1043500070B51B4C0546206810B91A48FCF744F9A3
:10436000D4F884000A2803D31648401CFCF73CF913
:10437000E06F00EB400004EB80012878087168785A
:104380004871A8788871E878C87168688860288959
:1043900088816889C881D4F88400401CC4F88400EE
:1043A000E06F401CE067E16F00200A2900D3E0675E
:1043B0004FF0E0214FF40010C1F8000270BD000082
:1043C000F808002034000B000348D0F88400C0F146
:1043D0000A00C0B270470000F808002010B50400C1
:1043E00002D10948FCF700F908490C600020C867B1
:1043F000C1F88000C1F884004FF0E0214FF40010B4
:10440000C1F8000110BD000029000B00F8080020D1
:1044100010B500F003029043D200FF2494400368DB
:104420009140A343CA18094901230B60BFF36F8F62
:10443000BFF34F8F026006480268002AFCD00020BC
:104440000860BFF36F8FBFF34F8F10BD04E50140CD
:1044500000E40140F0B515460E460746002404E08E
:10446000315D3819FFF7D4FF641CAC42F8D3F0BDBE
:104470002DE9FF4F81B0444FDDE90EA8032600254A
:10448000F86F0C46AB4610B94048FCF7ADF83878E9
:10449000032803D03D48401CFCF7A6F8F86FB94646
:1044A0004278D0072FD199F8920060B30027019885
:1044B000E8B30399584661F31700C2F3410209EBD0
:1044C000840162F31F608A6BCAF800B0C8F800B0BC
:1044D0000090904234D0204600F060FA051E07EAB2
:1044E00005072DD004F1080109EB810200999161C3
:1044F00004990D4223D0264E305D00B3204600F0D3
:10450000B5F830B901E00127D1E720483630FCF793
:104510006BF8204600F0E3F8CAF80000BAF1000F8B
:104520000AD018B919483B30FCF75EF800E01BE0F0
:1045300006F804B0022603E014483F30F4E70126F1
:1045400077B1204600F0EAF8C8F8000018B110482A
:104550000121015506E00C485830C8F8000001E080
:10456000C8F800B00DB107E004264C46D9F87C002D
:10457000FEF730FBC4F87CB089F800B000F0D2F848
:1045800005B03046BDE8F08F800900205B010C00CB
:10459000B000002070B51D4C05460E46207801285D
:1045A00004D0022802D01A48FCF71EF8E5B12078A2
:1045B000012803D01648801DFCF716F8E06818B9EA
:1045C0001348C01DFCF710F8E068007820B160685F
:1045D00000F0E4F930B901E0002506E00C481230A3
:1045E000FCF702F8022500E004254EB1606800F0F7
:1045F00076F8A168814203D005482230FBF7F4FF2A
:104600000020207000F08EF8284670BD8009002040
:10461000FC000C000830FEF7BDBA10B5044600F0EF
:104620005DFC2046BDE81040FEF7B4BAFEF7D2BAF2
:10463000FEF7FABA0148C068704700008009002000
:1046400001488068704700008009002001484068E8
:1046500070470000800900200830FEF7EBBA000028
:10466000014800787047000080090020FEF7E2BA98
:104670002DE9F041FEF7EEFA0024154DDFF85480E5
:104680002646204600F042F904F10800074600F0F3
:104690003DF92919002081F880000146E81980F8C9
:1046A000801008F80460641C082CEAD32E706E6039
:1046B000AE60EE602E616E6185F8906085F8916065
:1046C00085F858600120EE6785F89200BDE8F0811A
:1046D00080090020B00000200830FEF7E5BA70B570
:1046E0000446FEF7E1FA050002D0204600F0F6FB92
:1046F000284670BD70B50E4604460025FEF794FAB4
:1047000038B121463046FEF7F1FA10B100F00AF850
:104710000125284670BD0830FEF716BBFEF714BB16
:10472000FEF72EBB2DE9F041104C207800281AD15D
:1047300094F89000002816D108250126002760690A
:10474000FEF778FA18B184F89060606920616069BA
:10475000401C6061082800D1676194F8900000282F
:1047600001D16D1EEBD1BDE8F08100008009002071
:10477000014981F8920070478009002010B50C4C67
:10478000207810B10B48FBF72FFFFDF7C5F8002884
:104790000DD0FF220270417841F0060141700021E6
:1047A0004318491C9A702029FAD30321217010BDA7
:1047B000800900203B010C0070B5214C207810B11D
:1047C0002048FBF711FF94F890000025F8B120690C
:1047D0006060FFF7A3FFA06018B91A48801DFBF7BF
:1047E00003FFA0684078C00705D194F8920010B18B
:1047F0000220E56009E06068FFF72EFF032806D27B
:10480000FDF78AF8E06010B10120207002E0207806
:10481000002814D0A06818B90A482430FBF7E4FE39
:104820002069606004EB8001C87E401CC876A168E6
:104830004A7860F342024A7084F89050012070BDBB
:1048400080090020C3000C00014890F890007047D8
:104850008009002004480178817041780170001DB2
:1048600050F8210000470000B800002001480078FF
:1048700070470000B80000200148407870470000F1
:10488000B800002002498870487008707047000026
:10489000B800002010B50446022802D30248FBF7F6
:1048A000A3FE0248447010BD2A000D00B80000208D
:1048B0004058002800D00120704708B5002242501F
:1048C0004058009008BDD0F80403084000D00120F3
:1048D00070474058002800D00120704708B50022DA
:1048E00042504058009008BD70B50024054601268E
:1048F00006FA04F02842204602D0FCF799FC01E0B9
:10490000FCF78EFC641C042CF2D370BD034900221A
:1049100001EB800062F31F62826170478009002012
:104920000449084490F93000082801DB0120704751
:1049300000207047640100200449084490F93000C9
:10494000082801D201207047002070476401002030
:1049500010B5FDF7F5FE0D490860FFF781FE01284F
:1049600007D0FFF77DFE022802D00948FBF73CFE86
:104970000020FFF7A1FAFEF727FA0649086006486B
:10498000091D40684068086010BD0000081500401F
:104990002806090050F501409000002070B5094D2F
:1049A0000446E86F10B90848FBF71EFE04F1080141
:1049B000E86FFEF79BF9002802D00020E86701208D
:1049C00070BD0000800900206F020C0070B5012648
:1049D00070044FF0E0210025C1F88001084C401020
:1049E000C4F84803C4F8080366602F20FDF7FEFEF4
:1049F000A660044C2F20A560FDF7F8FEA57070BDE1
:104A0000001001403000002070B50546C87D0C46FE
:104A100000284FF4847128460AD0FFF74EFFD5F8DE
:104A20001805627EE1688854607E401C607670BD27
:104A3000FFF743FFD5F8180570BD1FB501238DF8AA
:104A400000308DF808100192D0E9001268469047B6
:104A50001FBDFEB508AF97E870008DF800008DF817
:104A60000140ADF808208DF802500191ADF80A30F0
:104A70008DF803606846FFF76BFCFEBD0349012219
:104A8000486101460248FBF7B1BD000094080020D0
:104A90005548000070B50C46FFF7FCFE074D6869ED
:104AA000A04202D30648FBF79FFD68690122211A44
:104AB0000448FBF79BFD0020686170BD940800204E
:104AC000570609005548000010B5FEF781F9012886
:104AD00022D1FFF7D1FE10B11048FBF785FD00226F
:104AE00064210F48FBF782FD0E48007F80B90E4815
:104AF0000121016000220007C0F80021016000BF11
:104B000000BF00BFAFF30080D0F800110029FBD038
:104B1000BDE81040FEF794B910BD0000360609004C
:104B2000554800006008002014050040044810B5F6
:104B3000406918B9FEF7A4F9002800D0012010BD83
:104B40009408002010B5FEF743F901280ED0FEF7B7
:104B500083F90748007F10B90120810748600020D1
:104B6000FFF798FE024900203431486010BD000074
:104B70006008002010B5FFF71FFE002820D0114864
:104B800000218181C181FFF761FD0F490860FFF7B6
:104B90005DFD012181400C48001D026822F0FF02EA
:104BA00011430160FFF74CFD064C1C342060FFF7F9
:104BB00041FD60600548E060BDE81040FFF7C8BEF9
:104BC00010BD0000940800202C150040F9170000CB
:104BD0002DE9F843224C8846054691461F46694612
:104BE0001846A668FCF706FD88B3009800EA06019F
:104BF00004EB810252F80C1F21F00301491C401CF8
:104C000011605FEAC56C02D541F0040101E021F0BA
:104C1000040165F3C50167F3891168F39F211160F1
:104C200000EA0602290C04EB8202401CD1600090CD
:104C300000200AE0009959F8203001EA060204EB4E
:104C40008202491CD360401C0091B842F2D394F810
:104C50001C0401E0FFF7E4F90028FBD1BDE8F8836C
:104C6000F8030020024610B50020014622FA01F3A5
:104C700003F00103C1F10704A3400343491CC9B277
:104C8000D8B20829F2D310BD2DE9F0410024064620
:104C900025461827E80026FA00F0C0B2FFF7E2FF29
:104CA000694207EBC101884020436D1CEDB2044608
:104CB000042DEFD3BDE8F08104480178022902D029
:104CC0004068002800D001207047000094080020B0
:104CD0002DE9F84F1D4C00256846D4E901A6FCF7E4
:104CE000FBFD002738B30023009A61681CE0D1F86F
:104CF00000C00846944503D9ACEB02020A6015E0F7
:104D0000A2EB0C0263440760D0F80CC0C169814675
:104D1000BCF1000F08D006EB030828F07F48C0E97B
:104D2000018CC9F81C5005460029E0D12846616075
:104D3000FDF716FA03E02846FDF712FA10B15046C7
:104D4000FCF7CAFCE770BDE8F88F000030000020D7
:104D50000D4B10B5596831B102680C68A24204D8F5
:104D6000A21A0A60C161586010BD0B4603E00B46F1
:104D7000C969121B21B10C689442F8D3A41A0C60C3
:104D80000260C161D86110BD300000202DE9F04102
:104D9000144E77683D462C4603E0844204D02546F5
:104DA000E469002CF9D11BE0D4B1A5420BD1F8691C
:104DB000706040B90C49012088600021B160F0703A
:104DC0002F20FDF713FD2168E069E86110B102684A
:104DD000114401607068874202D00120BDE8F08173
:104DE0000020FBE73000002000100140F8B5064627
:104DF00000240D462046FCF7E5F8684600F020FA4E
:104E000068B10570084946609DF8000048700020B0
:104E1000FCF7DAF81420FBF7AEFC2046F8BD0424BA
:104E20000020FCF7D1F8F8E72C0200202DE9F04132
:104E3000194D6C68002C2CD0184800270068A96810
:104E4000B846401A20F07F462068B0420CD8214670
:104E5000361A0744E469087C20B181F8108088691B
:104E600049698847002CEFD129786878814206D1BA
:104E7000401CC0B26870022801D185F80180064844
:104E800069780C3040F82170BDE8F0411420FBF740
:104E900072BCBDE8F0810000300000200415014024
:104EA00070B50C4605464FF48E71FFF706FDA18ADA
:104EB000A068415CA08A401CA082C5F81C1570BD8A
:104EC0001FB500228DF800208DF80810816801912F
:104ED0008275D0E90012684690471FBD70B5084D35
:104EE000044695F8900020B12869A04201D1FFF74F
:104EF00019FC0020291981F880000249085570BD6D
:104F000080090020B00000202DE9FF470C4605462F
:104F10004FF40071FFF7D7FC01274FF4017800260A
:104F200018B34FF4927949462846FFF7C1FCE0B127
:104F300049462846FFF7C1FCC5F80883A07E00B9A2
:104F40006F6002208DF80000D5F88004C5F8800459
:104F50000390E07D8DF80800E0680190E675267604
:104F6000D4E900126846904727E004212846FFF75D
:104F7000AAFC10B34FF484712846FFF799FCE0B106
:104F800021462846FFF740FDE07D617E884214D12E
:104F9000207E38B1617EE268E0752069E0602676A7
:104FA000667607E0A07E00B96F60C5F80883E675F5
:104FB000617EE2682046FFF740FD4FF48E7841465F
:104FC0002846FFF775FC88B1A08AA17D884204D2EB
:104FD00021462846FFF764FF08E041462846FFF7D0
:104FE0006CFCA17D11B12046FFF76AFF4FF4A27857
:104FF00041462846FFF75CFC002812D0414628466F
:10500000FFF75BFCA07E00B12F60E07D002808D098
:10501000E675617EE26804B02046BDE8F047FFF720
:105020000CBDBDE8FF872DE9FF410C464FF4927798
:1050300005463946FFF74DFC0026C0B139462846E3
:10504000FFF74CFC02208DF80000D5F88004C5F86D
:1050500080040390D5F83C058DF80800E0680190C5
:10506000E6752676D4E900126846904724E04FF4AE
:10507000887739462846FFF72CFCE8B139462846A0
:10508000FFF72CFCD5F83C05C1B2E07D884213D176
:10509000207E60B1E268D5F8000220F02000C5F85B
:1050A0000002207EE0752069E060267601E0E6756A
:1050B000E2682046FFF7C1FC4FF4A2773946284644
:1050C000FFF707FC68B139462846FFF707FCE07D8B
:1050D00038B1E675D5F83C05E268C1B22046FFF765
:1050E000ACFC4FF4907631462846FFF7F2FB0028DF
:1050F0000FD031462846FFF7F1FBA07D002808D0ED
:10510000D5F84C0504B0C1B22046BDE8F041FFF728
:10511000D7BEBDE8FF81000010B5FBF7D9FE08B18E
:10512000FBF7B8FE00210120FCF73EF908B1FBF7C0
:10513000B1FE0020FFF760F808B1FBF7ABFE0848AE
:105140000321008801EB004006A1FFF751F800BFE2
:10515000FEF766FF0028FBD1BDE81040FCF780B8E1
:10516000EC00002047617A656C6C2064796E616D9B
:1051700069632070616972696E67206578616D701E
:105180006C652E20486F7374206D6F64652E00006F
:1051900010B5FFF791FD044901F1680208B1C86834
:1051A00000E08868106010BD600800203EB5224D08
:1051B0002878697888423DD008B9FDF71BF96878EE
:1051C00008B9FDF793F81D4800240460FEF71CFDA4
:1051D00019481C300460446004618460C46028780D
:1051E000012802D0022808D015E0FFF739FA90B163
:1051F00000210846FFF7CEF90DE0FBF7F9FEFFF7B7
:105200002FFA032807D1002300941A46194618469E
:105210000194FFF72DF9FFF7BBFF68782870002392
:10522000009401941A46194604200294FFF711FCD9
:1052300001203EBD00203EBD9408002054F50140F1
:105240000A494A788B78521CD2B2934200D100228C
:105250000B78934201D1002070470270487800EB30
:10526000400001EBC000001D704700002C02002030
:10527000111213140D0E0F10F80000201801002059
:10528000440100200D000300D51200000E000300B1
:10529000D51200000F000300D5120000100003001B
:1052A000D5120000000000500C0200200300000096
:1052B000500000204800002050000020380300204B
:1052C0001800000032536601172D391A440C400DA6
:1052D000490D3E1A2D0C4D000010004010110040E9
:1052E000031000000100000000100040000000005A
:1052F0004102040000000000041000400000000013
:1053000006010301000000006770696F746500000A
:10531000756172740000000062616C6C6F63000064
:10532000617070006453000000000020F80000006D
:10533000640D00005C540000F8000020F02A00001A
:10534000740D00000853000000000000105300001E
:10535000000000001853000000000000205300006F
:10536000000003000000000000000000000000003A
:10537000000000000000000000000000000000002D
:10538000000000000000000000000000000000001D
:10539000000000000000000000000000000000000D
:1053A00000000000000000000000000000000000FD
:1053B00000000000000000000000000000000000ED
:1053C00000000000000000000000000000000000DD
:1053D0000090D00300000000050000000000000065
:1053E0000000000004192A3F4D00000000000000EA
:1053F00000000000000000000000000000000000AD
:10540000000000000000000000000000000000009C
:10541000000000000000000000000000000000008C
:1054200001390000C5380000000000000000000045
:10543000000000000000000000000000000000006C
:10544000000000000000000000000000000000005C
:0C54500000000000000000000000000050
:0400000500000201F4
:00000001FF
