:020000040000FA
:1000000028270020150400001D0400001F04000024
:10001000210400002304000025040000000000006B
:1000200000000000000000000000000027040000A5
:1000300029040000000000002B0400002D04000033
:100040002F0400002F040000D50900002F04000039
:100050002F0400002F040000390500002F040000C9
:100060002F0400002F0400002F0400002F040000C4
:100070002F0400002F0400002F0400002F040000B4
:100080002F040000110700002F0400002F040000BF
:10009000350700002F0400002F0400002F0400008B
:1000A0002F0400002F0400002F0400002F04000084
:1000B0002F0400002F0400000000000000000000DA
:1000C0002F0400002F0400002F0400002F04000064
:1000D0002F0400002F0400002F0400000000000087
:1000E0000000000000000000000000000000000010
:1000F0000000000000000000000000000000000000
:1001000000000000000000000000000000000000EF
:1001100000000000000000000000000000000000DF
:10040000DFF80CD000F066F800480047F51A00004D
:10041000282700200648804706480047FEE7FEE7F9
:10042000FEE7FEE7FEE7FEE7FEE7FEE7FEE7FEE7A4
:100430003907000001040000004870471C2D00002F
:1004400040EA01039B0703D009E008C9121F08C056
:10045000042AFAD203E011F8013B00F8013B521ED6
:10046000F9D27047421C10F8011B0029FBD1801AF9
:1004700070472DE9F05F0546002092469B4688466E
:100480000646814640241BE0284641464746224610
:1004900000F041F853465A46C01A914110D3114614
:1004A0001846224600F028F82D1A67EB01084F463F
:1004B00022460120002100F01FF817EB00094E41F1
:1004C000201EA4F10104DFDC484631462A4643469B
:1004D000BDE8F09F064C074D06E0E06840F00103E0
:1004E00094E8070098471034AC42F6D3FFF78CFF2E
:1004F000A42F0000C42F0000202A04DB203A00FAB9
:1005000002F1002070479140C2F1200320FA03F36A
:10051000194390407047202A04DB203A21FA02F068
:100520000021704721FA02F3D040C2F1200291402D
:1005300008431946704700002DE9F04700268CB0AB
:10054000DFF86091B0464FF4807501243746069677
:10055000284601F0EDFD38B1D9F80403204203D05C
:10056000284601F0DBFD26432D1D64007F1CADB243
:10057000082FEDD34FF4BE74204601F0D9FD48B1E9
:10058000204601F0CBFD46F0004606AA01210020DE
:1005900001F0B0FD444D16F0FF0F15D001270024E7
:1005A00037420DD009EB8401D1F81005D1F81015B0
:1005B000C0F3042055F82420C1F3014102B1904753
:1005C0007F00641C082CEBD3002E67DA4FF0FF305D
:1005D000CDE9088000263446281910F8507F90F99C
:1005E000000027F0C008401C44D009A9404601F093
:1005F000B3FA58B34FEA9719404601F09BF855F803
:1006000020701FB1B9F1030F03D00FE0B9F1030F50
:1006100030D108A84FEAD80208F00703815C4FF0F8
:10062000010C0CFA03FC41EA0C0181544FF0A0418B
:1006300001EB8800D0F8000706A9C0F3014A404644
:1006400001F08AFA18B1BAF1020F03D012E0BAF140
:10065000030F0FD1B9F1030F08D1BAF1020F1BD06C
:100660000221404601F02AFD761CF6B217B1494638
:100670004046B847641C042CAED3002E0ED06A4608
:100680000121002001F036FD06990098884205D02E
:100690000690089809909DE70321E2E70CB0BDE8B9
:1006A000F0870000006000407801002000F01F0289
:1006B000012191404009800000F1E020C0F8801243
:1006C000704700F01F02012191404009800000F1B5
:1006D000E020C0F80011704700F01F020121914096
:1006E0004009800000F1E020C0F80012704749077F
:1006F000090E002806DA00F00F0000F1E02080F873
:10070000141D704700F1E02080F8001470470000CD
:1007100007480021C0F84011C0F84411C0F8481142
:10072000C0F84C11C0F80011C0F8041102F0D0B8A4
:100730000010014002F048B8F0B598480023021DAF
:1007400001780125101D4FF08056062907D1147835
:10075000240704D10478C4F30314032C02D006291F
:1007600004D00FE08F4F8E4C7C670EE01478240786
:1007700008D10478C4F30314032C06D0042C04D04D
:10078000052C02D0062907D00EE0D6F84442864F49
:10079000C4F342343C6002E01478240704D10478A6
:1007A000C4F30314032C02D0062906D011E07F4CB9
:1007B000276827F0807727600EE01478240708D197
:1007C0000478C4F30314032C06D0042C04D0052CA5
:1007D00002D006290AD011E04FF08044C4F80C3151
:1007E000C4F81031704C241F236002E014782407F1
:1007F00004D10478C4F30314032C02D0062905D0D5
:100800000CE0694F032464373C600AE01478240745
:1008100004D10478C4F30314032C02D006290DD0AC
:1008200014E0634F05243C60614C78342560604CD3
:10083000083423603F243F1D3C6002E01478240705
:1008400004D10478C4F30314052C02D0062957D030
:1008500068E058490968584A11605649091D0968F5
:10086000121D1160534908310968121D1160514968
:100870000C310968121D11604E4910310968121DB2
:1008800011604C4914310968121D11604949183131
:100890000968494A2032116046491C310968121D15
:1008A0001160444920310968121D11604149243109
:1008B0000968121D11603F4928310968121D116035
:1008C0003C492C310968121D11603A4930310968E0
:1008D000394A40321160374934310968121D1160BC
:1008E000344938310968121D116032493C310968B8
:1008F000121D11602F4940310968121D116002E07C
:10090000117809070ED10078C0F30310032803D033
:10091000042801D0052805D1D6F85802274900F04F
:100920004F00086021487438016841F4700101608B
:10093000BFF34F8FBFF36F8F4FF01021D1F800023C
:10094000002803DBD1F80402002822DA1C4A1560D3
:100950001C480468002CFCD01524C1F8004205682E
:10096000002DFCD0C1F8044201680029FCD01360BE
:1009700001680029FCD0BFF34F8F0C48F0380168A4
:10098000114A01F4E06111430160BFF34F8F00BFD2
:10099000FDE70F490D480860F0BD0000E00F00F0D2
:1009A0000DF0ADBA00C007403C050040FCED00E092
:1009B000105600400404001020C50040E40E004022
:1009C00004E5014000E401400400FA050090D00372
:1009D000C00000200448017F04480029024901D0DA
:1009E00002F087B801F0F6BFD001002000200040DF
:1009F0000FB41CB50A46521ECDE9000207A9054BEB
:100A00006A46069800F018F8009A002111701CBC84
:100A10005DF814FB9B0E000002E008C8121F08C11D
:100A2000002AFAD170477047002001E001C1121F6F
:100A3000002AFBD1704700002DE9FF4F8DB00F4613
:100A40000546002606E025280BD0DDE90F12904769
:100A50006D1C761C28780028F5D111B03046BDE811
:100A6000F08F0024A246A1460122EC4900E0044395
:100A700015F8013F203B02FA03F00842F7D128782D
:100A80002A2810D06FF02F022878A0F13001092910
:100A900014D80AEB8A0102EB410144F0020400EB96
:100AA000010A6D1CF0E701CF5FEA000A03D544F4A8
:100AB0000054CAF1000A44F002046D1C28782E2864
:100AC00017D115F8010F44F004042A280ED06FF056
:100AD0002F022878A0F1300109290AD809EB8901F1
:100AE00002EB410100EB01096D1CF2E757F8049B92
:100AF0006D1C28786C280FD006DC4C2817D068288D
:100B00000DD06A2814D104E0742810D07A280FD1AF
:100B10000DE044F400140AE044F4801401E044F4CD
:100B200040146978814202D104F580146D1C6D1C5B
:100B30002A786E2A1FD00CDC632A31D004DC002A0C
:100B40008BD0582A11D1A3E0642A68D0692A0CD12D
:100B500065E0732A2ED004DC6F2A73D0702A04D18A
:100B60009BE0752A6FD0782A6ED01046DDE90F120F
:100B70009047761C50E1C4F30250022806D00328A7
:100B800009D0042801CF09D0066045E101CFF11753
:100B9000C0E9006140E101CF06803DE106703BE124
:100BA00017F8040B8DF8000000208DF80100EB46CB
:100BB000012003E057F804BB4FF0FF3061074FF00E
:100BC000000102D40DE008F10101884649450FDA21
:100BD0008045F8DB1BF808100029F4D108E008F183
:100BE000010188468142FADB1BF808100029F6D182
:100BF000DDE90F23AAEB08008146214600F036F913
:100C0000304400EB080604E0DDE90F121BF8010B8D
:100C10009047B8F10108F7D221464846F7E00A218B
:100C2000C4F302534FF0000B0891022B04D001CF04
:100C3000C117032B09D00AE0FF1D27F00707F7E8CB
:100C4000020108E032E01FE020E000B2C117042BEF
:100C500001D140B2C117031E71F1000307DA4FF052
:100C6000000CD0EB0C006CEB01012D2302E02305FE
:100C700004D52B238DF82430012303E0E30701D0B2
:100C80002023F7E7984658E00A2110E010210EE0F3
:100C900010204FF0000B08900CE010214FF0000BDB
:100CA00044F004044FF00809089103E008214FF0D4
:100CB000000B0891C4F30253022B04D001CF002192
:100CC000032B06D006E0FF1D27F00707F7E8020117
:100CD00003E080B2042B00D1C0B24FF0000823071C
:100CE0002BD5702A07D0DDF820C08CF0100C5CEA00
:100CF0000B0C05D00EE040238DF82430012308E0D2
:100D000050EA010306D030238DF824308DF82520D9
:100D100002239846DDF820C08CF0080C5CEA0B0C2E
:100D20000BD150EA010301D1630706D530238DF8BA
:100D300024304FF00108A9F10109582A04D038A243
:100D40000B9208AA0A920BE03AA2F9E75B46089ACE
:100D5000FFF78FFB0B9B9B5C0A9A521E0A92137043
:100D600050EA0102F2D10A98ADEB000000F1200B2D
:100D7000600702D524F4803401E04FF00109D94521
:100D800002DDA9EB0B0000E0002000EB0B01414469
:100D90000890AAEB010AE00306D4DDE90F232146FF
:100DA000504600F063F806444FF0000908E009A936
:100DB00011F80900DDE90F12904709F10109761CCD
:100DC000C145F4DBE0030CD5DDE90F232146504695
:100DD00000F04CF8064404E0DDE90F1230209047A3
:100DE000761C0899481E08900029F5DC08E00A984E
:100DF0000A990078491C0A91DDE90F129047761C88
:100E0000BBF10001ABF1010BF1DC21465046DDE9FD
:100E10000F2300F019F806446D1C1BE60928010099
:100E20003031323334353637383961626364656660
:100E30000000000030313233343536373839414222
:100E400043444546000000002DE9F04104460025DA
:100E50001E461746880404D405E039462020B047D2
:100E60006D1C641EF9D52846BDE8F0812DE9F041DE
:100E7000044600251E469046C80301D5302700E0F1
:100E80002027880404D505E041463846B0476D1C4C
:100E9000641EF9D52846BDE8F0814A68002A06D0CC
:100EA0000A68531C0B6010704868401E4860704709
:100EB000022000F099B9000070B50024064D06E04C
:100EC0006868012110F8340000F0BEFE641C287828
:100ED0008442F5D3002070BD78000020F8B5154697
:100EE0000C460646052A01D20720F8BD00F092FF05
:100EF00018B900F061FF0028F7D1104900204E60BA
:100F00000C70C1E902500E4D08610DE006EBC40003
:100F10006968009181788DF801100078094A694666
:100F200000F0E4FE0028E0D1641EE4B2EED2BDE899
:100F3000F840054A0021024800F04AB87800002035
:100F40004C2C0000B1180000111800000DA1012068
:100F500001F0FEFA01F056FA01F058FA0028FBD130
:100F60000CA1032001F0F4FABFF34F8F1048016881
:100F7000104A01F4E06111430160BFF34F8F00BFDD
:100F8000FDE700003A4552524F523A466174616C97
:100F90000D0A00003A494E464F3A48697420776579
:100FA000616B2068616E646C65720D0A0000000060
:100FB0000CED00E00400FA050EB500210091CDE92A
:100FC00001106A4644F20100FFF7C0FF0EBD0000A9
:100FD000074B5B6823B12AB120B10068037C1BB1C9
:100FE0000820704707207047417442610020704715
:100FF0009C0000202DE9F047074698461446894694
:1010000090074FF0000526D12CB301F07DFB134E65
:1010100006F11000C6F80C800570457080F802904B
:1010200044607560357075701420FFF73FFB072131
:101030001420FFF75CFB1420FFF743FB0848076010
:1010400007211120FFF753FB0548001F0068B0601F
:101050000020BDE8F0870720FBE700008C0000209F
:10106000081501402DE9F843DFF87090D9F80430F5
:101070005BB350B3052902D20720BDE8F88343696A
:101080001BB3437C012B22D0002704460025884651
:101090001646284600F036F8684601F0A3FDC0B1B8
:1010A000012101700E4944600968C0E90218C0E9D5
:1010B00004769DF8000089F80100002000F024F873
:1010C0001420FFF709FB2846D7E70820D5E70F468D
:1010D000DBE70425002000F017F8F4E79C0000206F
:1010E000041501400649496839B130B1416921B15F
:1010F00000210174022101F0CBBB082070470000E1
:101100009C00002000F002B800F008B872B6024857
:101110000168491C01607047AC0000200349086861
:10112000401E086000D162B670470000AC0000208D
:101130002DE9F041064608680C46411C4FF0A047D7
:101140004FF0010506D005FA00F1C7F80815206830
:1011500000F0AAFF6068411C02D0002100F09BFF54
:101160003079204901EB4010A169007F00283068E8
:10117000C0F8241525D0607D227D31681043C1F868
:101180006C05D4E900123068C0F80C15C0F81425BD
:1011900024E0A068411C02D0002100F07CFFE06840
:1011A000411C05D08540C7F80855E06800F07CFF79
:1011B000D4E902123068C0F80825C0F81015BDE85F
:1011C000F081607D217D32680843C2F86C05D4E966
:1011D00000123068C0F81425C0F80C15207D0128D5
:1011E000D7D0ECE7D001002007490B5C4FF0A041BD
:1011F000D1F804250120984020EA0203C1F80835FF
:101200001040C1F80C057047142C00000249085C1E
:10121000012100F064BF0000142C00000249085CAA
:10122000002100F05CBF0000142C00000649095C9E
:101230004FF0A040D0F80405C84010F0010000D0E5
:10124000012080F001007047142C00007CB50024C0
:10125000084E25460122305D009500231146019578
:1012600000F0DAFE641C042CF4D3BDE87C4000F0EE
:1012700003B80000142C000010B500242046FFF72E
:10128000C5FF641C042CF9D310BD10B50024204602
:10129000FFF7C4FF641C042CF9D310BD10B502463F
:1012A000064B4FF0FF3000215C5C944201D10846B0
:1012B00010BD491C0429F7D310BD0000182C0000F4
:1012C0002DE9F0470D468146FFF7E8FF0446042864
:1012D00038D2DFF878801C481D4EA8F1100735B3CE
:1012E000012D0ED0022D2DD104EB44003044457861
:1012F000002D27D0F968002924D02846BDE8F04702
:10130000084704EB4401755C0E44717859B1796863
:101310000E4A01EB810149000E3A8068FFF7A2FEF8
:1013200008B987F80290B17808F80410E0E78068FF
:10133000FFF7D8FE04EB4401314418F804008D781F
:10134000A842D5D0BDE8F0871C2C00007400002016
:101350004C01002010B5064A40F6CD41032000F0B4
:1013600069F8002803D0BDE81040FFF725BE10BD86
:10137000B913000070B50023042810D20D4D00EB06
:101380004004012A02D101290CD00022094E00EBB1
:101390004000304461B1012906D0022906D007235C
:1013A000184670BD0E30C2B22A55F9E74270F7E711
:1013B0008270F5E74C01002070B5134C0E2821789F
:1013C00006D00F281ED1172907D0491C217006E02E
:1013D00009B1491EFAE7172000E0002020702078AC
:1013E00000F01CF8054608482178001D50F821201F
:1013F00006A1032001F0D2F8280003D0BDE8704018
:10140000FFF7DABD70BD0000000000204150503AE7
:10141000494E464F3A25730D0A000000044A014622
:101420000020127AD20702D0084600F04FB8704769
:10143000640000202DE9F04106461F4800240F46B5
:101440004160C0E90262B0071FD5002501221146A4
:101450002846FFF78FFF6D1C0446042D02D2002C96
:10146000F4D012E08CB97A0804211448FFF736FD55
:1014700004000AD1FFF720FD040006D10F48104AEE
:101480000021001FFFF7A4FD0446F00701D0FFF77D
:10149000DDFE74B909480B4A00210C38FFF798FDAE
:1014A000040006D10548084A01210838FFF790FDDD
:1014B00004462046BDE8F08164000020282C00008E
:1014C000C916000081190000B10E00002DE9F04797
:1014D000594C05460026607818B100206070FFF76F
:1014E000CBFE0120554F4FF47A694FF4C87A4FF084
:1014F0006408182D2CD2DFE805F0890C0C2C3A4733
:1015000051565A615A619B6969696969898C8F92E0
:101510009B9B0020FFF78AFE00284FF0000008D0B8
:10152000FFF774FE022D02D14FF4E16006E0484659
:1015300004E0FFF773FE022D2ED05046B0FBF8F109
:1015400025706068414300223868FFF78BFD06462E
:1015500059E00020FFF76AFE28B10020FFF756FE91
:101560004FF44870EAE70020FFF758FE14E000202F
:10157000FFF75CFE00284FF0000002D0FFF746FEA8
:10158000D5E7FFF74BFED8E70020FFF74FFE002816
:10159000E9D00020FFF73AFEC820CFE70020FFF790
:1015A00023FE257007E000203FE025702BE06070EF
:1015B0000120FFF719FE00226168C5E76070012075
:1015C000FFF712FE606800EB8001BCE77868FFF768
:1015D00089FD0646D5F1110000D01EB10220FFF7AB
:1015E00015FE10E001280BD9C82110FB01F1B1FB59
:1015F000F8F16068002241437868FFF733FD064642
:101600000220FFF70BFE3046BDE8F087FFF734FEFF
:10161000CBE7FFF731FEC6E7FFF72EFE04E0FFF74A
:101620002BFE0020FFF7FAFD0120FFF7F7FDBCE7D6
:10163000FFF72BFEB9E70000640000201C2C00001F
:10164000002901DA0020704702681144016001207E
:101650007047000070B5461C0D4601240020FFF7BE
:1016600051FD114A10682860D2E900109568081AE7
:101670002B1A701C5B1C98420FD963B10B480C4BA2
:10168000294000681B6802EB810163F39F20C8605A
:101690001068401C1060002401E0881910600020D0
:1016A000FFF732FD204670BD10030020742C0000AF
:1016B000BC000020034803C8814201D101207047CB
:1016C000002070471003002000780221FFF7F8BDCA
:1016D00005494FF0FF32082841F8202002D3084482
:1016E00080F848207047000078010020F0B54FF0E6
:1016F000FF3512B10023082601E008230C260C4C0C
:1017000005E000BF54F823707F1C04D05B1CB3427B
:10171000F8D32846F0BD26185DB286F8305044F85C
:101720002310002AF5D1E11881F84800F1E7000004
:10173000780100200249084490F930007047000009
:101740007801002006480121016000228807C0F8C6
:1017500004218160D0F804110029FBD070470000FB
:10176000180500402DE9F05F26484168F1B3DFF825
:1017700098B00E688146DBF8004087688078E11BEE
:1017800021F07F45ED1CB0B9DFF880804FF4803048
:10179000C8F84403C8F804031120FEF787FF11209E
:1017A000FEF78FFF4FF0010AC8F800A02F2000F0CD
:1017B000DBF989F802A0B54200D23546124BE81990
:1017C0003C3320F07F401860DBF800105A46091BBC
:1017D00021F07F41001B20F07F40C91C81420FD9BE
:1017E000106818602F2000F0BFF900E004E0BDE8A9
:1017F000F05F1120FEF770BFBDE8F05F00F084BF1E
:10180000BDE8F09F8C00002004150140001001404D
:101810002DE9F04100260125144C22E06068226980
:1018200000EBC607387805FA00F1114217D08A4359
:10183000226100F0B7FA02463878E36805FA00F151
:10184000194002FA00F3994209D17978012901D0AF
:10185000012100E0002151407A6802B19047761CD6
:10186000F6B220788642D9D3BDE8F0817800002016
:101870000E4910B50A784C780023A24212D0521CAF
:10188000D2B20A70022A00D10B70084A0B781832C3
:1018900052F8232002608868104420F07F4088605E
:1018A000012010BD0360002010BD00008C0000204E
:1018B0002DE9F041124E07460125BD403068FFF783
:1018C00011FC00280DD10F4C2069284207D1384661
:1018D00000F068FA0028E06805D0284304E0A84337
:1018E0002061BDE8F081A843E060206928432061C1
:1018F000A1683068BDE8F0410022FFF7B3BB0000EB
:101900004C2C00007800002070B50E46044600798B
:1019100018494FF4A27501EB4010017F2068A1B176
:101920004FF4887100F096FE4FF49071206800F03B
:1019300091FE4FF49271206800F08CFE29462068D9
:1019400000F088FE0C49206809E04FF48E7100F029
:1019500070FE2946206800F06CFE08492068C0F837
:101960000413206800F06DF93146BDE8704000F0C6
:101970004CB90000D00100201003020080000200DA
:101980000348017AC90702D00078FFF79FBD70476E
:10199000640000202DE9F043264CA4F110092278C0
:1019A000D9F8048099F80350404694F801C0D9F85A
:1019B000086031E002EB42036168521C01EBC30195
:1019C000A378D2B2934200D100220B78022B02D02E
:1019D000032B21D11DE003464F68194603E0B942AD
:1019E00003D00B46C969B9B1F9E7A9B18B4205D15A
:1019F000C06918B9104E0125B56000260F68C96985
:101A0000D96149B10B683B440B6005E00174C069C2
:101A100000E000210028F9D19445CBD1C9E90106A5
:101A200089F80350404502D00120BDE8F083002032
:101A3000FBE700009C000020001001402DE9F04170
:101A40002A4F0446002607F11005D7F804803EE02F
:101A500002D02046E4691DE02878696800EB400266
:101A6000401CC0B201EBC2012870AA78904200D19C
:101A70002E700A784868012A2BD1027C4ABB8A68FA
:101A80004260CA6882600A69C26049698161F97806
:101A900001B146604368BA68DFF854C0991A21F072
:101AA0007F41614502D28268114406E0D11A826802
:101AB00021F07F418A4202D9511A016000E006609C
:101AC0004660012186600174C66100F0C3FE002CEF
:101AD000BED1287869788842BED17968414502D064
:101AE0000120BDE8F0810020FBE700008C00002011
:101AF000FFFF7F00FFF726FE00230E4A0321184652
:101B0000FFF778FA08B1FFF757FA002000F07AFDE6
:101B100008B1FFF751FA08A1032000F019FDFFF703
:101B200019FC00BF00F072FC0028FBD140BF20BFB1
:101B300020BFF7E7C40000204150503A494E464FBD
:101B40003A425350206578616D706C652073746102
:101B5000727465642E0D0A00C20800F007030120AC
:101B6000895C98400840704700283ED01F49204AB1
:101B7000096800BF00BF00BF00BF00BF00BF00BFBB
:101B800000BF91422FD000BF00BF00BF00BF00BF09
:101B900000BF00BF00BF00BF00BF00BF00BF00BF4D
:101BA00000BF00BF00BF00BF00BF00BF00BF00BF3D
:101BB00000BF00BF00BF00BF00BF00BF00BF00BF2D
:101BC00000BF00BF00BF00BF00BF00BF00BF00BF1D
:101BD00000BF00BF00BF00BF00BF00BF00BF00BF0D
:101BE00000BF00BF00BF401EC3D17047C00000202F
:101BF0000024F40000F01F02012191404009800000
:101C000000F1E020C0F8801170474907090E002854
:101C100006DA00F00F0202F1E02282F8141D03E060
:101C200000F1E02282F8001400F01F02012191402F
:101C30004009800000F1E020C0F88012C0F80011D7
:101C40007047000B40B270472DE9F04188460546C9
:101C500000F006FD234E002828461AD0FFF76AFD43
:101C6000304490F848008009032802D001280ED0A3
:101C700007E04FF0A040D0F81005E84010F0010F49
:101C800005D003212846BDE8F04100F017BA022133
:101C9000F8E700F0F1FC002822D02846FFF74AFDC3
:101CA00004464FF4807000EB84000F4F81B207EBC5
:101CB0008400D0F8102542F00102C0F81025084633
:101CC00000F02CFAB8F1000F0AD02846FFF732FDD9
:101CD00056F82000002803D00120A040C7F80403D4
:101CE000BDE8F08178010020006000402DE9FC4152
:101CF000DFF8A480044608EB0400002790F93000C8
:101D00001346C0170E46401C01D0082741E0F27868
:101D100019462046FFF7EAFC0546401C38D0B0784B
:101D200050B14FF0A04000EB8400D0F8001721F034
:101D30000201C0F8001707E00021737820460091E7
:101D40000A46019100F07AF9F078C0B11348317871
:101D500000EB8500D0F81025114B1A40C0F8102573
:101D60004FF4F8524FF4403302EA042203EA0141EF
:101D70000A43D0F810150A43C0F8102509E008EB13
:101D80000500327810F8481F41EA8211017000E026
:101D900004273846BDE8FC8178010020006000403F
:101DA000FFE0FCFF4FF0A041D1F81015C14011F049
:101DB000010000D00120704770B5144D95F8540013
:101DC00008B1082070BD0020411E2A18401CC0B276
:101DD00082F830102028F8D300242046FFF778FC42
:101DE000641CE4B20C2CF8D307210620FFF70DFF8A
:101DF0004FF4BE7000F092F905494FF00040C1F871
:101E00000403012085F85400002070BD78010020F3
:101E100000600040034890F85400002800D00120E2
:101E200070470000780100200121B1EB507F01D103
:101E300001207047002070472DE9F04105460079E8
:101E4000164F904607EB40140E46E07E10B1082076
:101E5000BDE8F081707F20772846FFF769F95FEAD7
:101E6000080060603169216003D0317F2846FFF7A8
:101E70004BFD287907EB4010007F0028286801D02F
:101E8000082100E00421C0F800150020E07520764C
:101E9000A0750121E176A076DAE70000D0010020EC
:101EA0002DE9F047054600793F4E904606EB401479
:101EB0000F46207F18B10846FFF7B6FF30B128461D
:101EC00000F074F820B11120BDE8F0871020FBE786
:101ED00084F81680A7600027A78228794FF00108B0
:101EE00006EB40143E46207F0028286825D04FF49A
:101EF0009079494600F0AEFB4FF4AC7A5146286821
:101F000000F0A8FB2868A17DA268C0F84425C0F8AD
:101F100048152868C0F808806068F0B94946286804
:101F200000F093FB80465146286800F08EFB58EA8B
:101F30000001F3D058BBA7750FE04FF48E7A5146DD
:101F400000F077FB2868C0F808802146286800F078
:101F50001BFD61684FF4807089B13046B4E751468B
:101F6000286800F061FB10B9A08A4845F7D1A08A23
:101F7000484505D02146286800F006FD00E081466E
:101F8000A08AA17D8842EAD3A08A484501D10F26C4
:101F9000D1E75146286800F047FB0028F9D02868AF
:101FA000C0F80C80C7E70000D00100200079044988
:101FB00001EB4010807D002800D001207047000018
:101FC000D001002070B5044600791149002601EBCC
:101FD000401520682A7FC0F80065686888B12079BC
:101FE00001EB4010007F0028206801D0094901E082
:101FF00008498C39C0F808132068FFF722FEFFF764
:10200000F9FD204600F044FBEE766E6070BD0000E6
:10201000D00100201003020070B541EA4201DDE961
:1020200004564FF0A04441EA830141EA052104EB44
:10203000800041EA0641C0F8001770BD70B541EA62
:102040004201DDE904564FF0A04441EA830141EA30
:10205000052104EB800041EA0641C0F8001770BD7D
:1020600070B541EA4201DDE904564FF0A04441EA6F
:10207000830141EA052104EB800041EA0641C0F8F2
:10208000001770BD1CB5002100910B460122019183
:10209000FFF7E6FF1CBD1CB500220B46009211465F
:1020A0000192FFF7DDFF1CBD1CB5002100910B461E
:1020B000012201911146FFF7D3FF1CBD4FF0A04252
:1020C00002EB8000D0F8002722F44032C0F800274D
:1020D000D0F8002742EA0141C0F8001770470122FA
:1020E0004FF0A043824011B1C3F808257047C3F8F0
:1020F0000C25704718B5084B6C4601441B680093CB
:1021000006E000BF54F82030D3F81035401C08C258
:102110008142F7D818BD0000482C0000034908B5DB
:102120000844002101600068009008BD0060004084
:1021300002494058012800D000207047006000404C
:1021400000487047B921000030B5184C054689B0E9
:10215000207828B16078854202D1002009B030BDD6
:10216000202213496846FEF76BF900208DF8140011
:10217000062000900820019005200390072002907F
:102180004FF0EB7006900948001DFFF71BFF0DB1E3
:10219000002200E0074A05486946001DFFF74CFE93
:1021A0000028DBD1012020706570D6E7B000002048
:1021B000542C0000C52900002DE9F04FC1B00D00DE
:1021C0004FF0000140914D984B991C46174601EB8A
:1021D000000B01D00A2000E00020804600F0D8FA71
:1021E00000287CD16E46BCB9409840AA31182846D8
:1021F00000F0B0FB002872D03846FEF733F9C22851
:1022000000D9C220054640982A4630443946FEF798
:1022100017F94098284440904FF0200A409901EB6C
:10222000080231320DEB01050DEB0206002002E041
:1022300005F801AB401C4045FAD300275C4508D3A4
:1022400005F801AB05F801AB05F801AB06F801ABE9
:102250002DE04B98844202D24A98005D02E0211A98
:102260004C98405C2B46814602460121880022FAA8
:1022700000F000F00F00092801D9373000E03030BD
:10228000C1F1010C491E03F80C00EFD29D1C05F8AA
:1022900001ABFEF7D1F8016811F8090010F03E0F0C
:1022A00001D0484600E02E2006F8010B641C7F1C7C
:1022B000102FC3D30D2030700A20707085F800A055
:1022C0004099684641444331409100F067FA30B18B
:1022D00000F05EFA18B9002040905C459ED341B0F2
:1022E0002046BDE8F08F2DE9F043C7B000251C461D
:1022F000904689464E9F459500F04AFA00287AD1CB
:10230000459805AE311845AA484600F023FB002841
:1023100035D0072F27D2DFE807F004121B35424FD4
:102320005D004046FEF79EF8054645982918FF29AE
:1023300019D830442A464146FEF782F813E0459802
:102340002368C0F5807130444246FEF751FB09E036
:102350006068009045982368C0F58071304442461B
:10236000FEF746FB0546294645A8FFF769F945995A
:1023700078B3B1F5807F3ED805A800F00FFA47B0DA
:10238000BDE8F083D4E90101CDE900014598236857
:10239000C0F5807130444246FEF72AFBE2E7201D7B
:1023A00007C88DE8070045982368C0F58071304460
:1023B0004246FEF71DFBD5E7201D0FC88DE80F0034
:1023C00045982368C0F5807130444246FEF710FB03
:1023D000C8E710E004F1080001AD0FC885E80F0060
:1023E0006068009045982368C0F58071304442468B
:1023F000FEF7FEFAB6E70020C1E70000004870478C
:10240000E72200000120FFF79FBE00002DE9F04FFA
:1024100087B0FFF74FF918B1002007B0BDE8F08F83
:10242000454ED6E9014704EA070006EB8000A146C5
:10243000641CC5680CE000BFC5F3891000EB955023
:10244000044404EA070006EB8000A146C568641C4A
:10245000A807F1D005F003004FF0000B022805D0CB
:10246000AA0A01A8C5F38313002153E004EA070078
:1024700006EB800004F1010A0AEA0704C268381B6F
:1024800080004FEA9558001DC5F38913804521D976
:1024900029490C3138B106EB840400F0FF0CA8EB9D
:1024A00000000C3404E00C46002108F0FF0C084644
:1024B000C0B2CDE90210CDE9004CD6F81444C5F302
:1024C000C2005946A047404511D108F103080AEB64
:1024D00098042AE0002106EB84000C300090CDE93E
:1024E00001810391C5F3C200D6F81444EAE760F312
:1024F0008F1509EA070006EB8000C56016E000BFF3
:1025000004EA070C06EB8C0C491CDCF80CC040F804
:1025100004CB641C9942F3D3C5F3C2000093D6F8F0
:10252000105401AB5946A84700B17460FFF7C2F8D8
:1025300080F0010071E7000010030020034AFF2330
:10254000936000231360536000F054B81003002020
:102550002DE9F8430F4F8846044600256946284672
:10256000BE68FFF777F8002812D00B4800214068BA
:1025700061F38200009964F3C50001EA060265F385
:10258000891007EB820268F39F20491CD0600091FC
:10259000BDE8F88310030020742C00002DE9F843F7
:1025A000124D884604460127914669463846AE6872
:1025B000FFF750F8002817D00D480021806861F31C
:1025C0008200009964F3C50001EA060267F38910EE
:1025D00005EB820268F39F20491CD06000913140D6
:1025E00005EB8101C1F80C90BDE8F88310030020D1
:1025F000742C0000024A02F5826203C27047000098
:102600001003002070B506460020FFF79DFD040072
:1026100008D1FFF795FD0546FFF7F0FE3246294643
:10262000FFF78CFF204670BD4058002800D00120E5
:10263000704708B5002242504058009008BDD0F8BD
:102640000403084000D0012070474058002800D003
:102650000120704708B5002242504058009008BD44
:102660000449084490F93000082801DB0120704734
:1026700000207047780100200449084490F9300098
:10268000082801D2012070470020704778010020FF
:1026900070B5034600791B4901EB40101968027FB1
:1026A0004FF0FF30002AD1F80C25D1F81465D1F88D
:1026B0000855D1F8104504D0C1F80C05C1F814052F
:1026C00003E0C1F81405C1F80C051968C1F8080544
:1026D000C1F81005501C02D01046FFF7D3FC701C47
:1026E00002D03046FFF7CEFC601C02D02046FFF738
:1026F000C9FC681C04D02846BDE87040FFF7C2BC86
:1027000070BD0000D001002070B5012670044FF0AC
:10271000E0210025C1F88001084C4010C4F84803AE
:10272000C4F8080366602F20FFF71EFAA660044C69
:102730002F20A560FFF718FAA57070BD00100140AA
:102740008C00002070B50546C87D0C4600284FF46B
:10275000847128460AD0FFF76CFFD5F81805627E11
:10276000E1688854607E401C607670BDFFF761FFB1
:10277000D5F8180570BD1FB501238DF800308DF810
:1027800008100192D0E90012684690471FBD000072
:102790000148FFF70BBC0000B400002070B50D46E7
:1027A0000A46014601240648FDF74AFEEAB20449FA
:1027B0000448FFF775FB00B10024204670BD0000FF
:1027C00010020020B40000202DE9F84F204C002515
:1027D0006846D4E901B6FFF74BF88046FFF7DAF810
:1027E0000746A946B8F1000F25D00023009ACC4631
:1027F000606819E007680146974202D9BA1A026078
:1028000014E0C1F800C0D1F80C80D21BC8693B4469
:102810008A46B8F1000F07D0F71827F07F47C1E9C3
:102820000178CAF81C500D460028E3D160602846A4
:10283000FFF704F904E02846FFF700F900B917B1E3
:102840005846FEF78FFF84F80390BDE8F88F00002C
:102850008C0000200D4B10B5596831B102680C682E
:10286000A24204D8A21A0A60C161586010BD0B468A
:1028700003E00B46C969121B21B10C689442F8D3DE
:10288000A41A0C600260C161D86110BD8C000020E8
:10289000F8B5064600240D462046FEF733FC684690
:1028A00000F0A0F968B10570084946609DF8000085
:1028B00048700020FEF728FC1420FDF70DFF20468D
:1028C000F8BD04240020FEF71FFCF8E79C00002060
:1028D0002DE9F0411D4D6C68002C35D01C480027B7
:1028E0000068A968B846401A20F07F462068B042C8
:1028F00015D82246361A0744E469107C68B182F87C
:102900001080EB6833B1D2E90501984728B1FEF792
:1029100053FB02E0D2E905108847002CE6D1297864
:102920006878814206D1401CC0B26870022801D18B
:1029300085F8018005486978183040F82170BDE8B5
:10294000F0411420FDF7C8BEBDE8F0818C000020E6
:102950000415014010B5144602004FF001000CD0E0
:102960000846136806A24FF48071FEF741F801464D
:102970002046BDE81040FEF763BE0021216010BD77
:102980005B253038645D000070B50C4605464FF499
:102990008E71FFF74EFEA18AA068415CA08A401CA0
:1029A000A082C5F81C1570BD1FB500228DF800204F
:1029B0008DF80810816801918275D0E9001268468F
:1029C00090471FBD0078012801D1014988707047E8
:1029D000B00000202DE9FF470C4605464FF400717A
:1029E000FFF72DFE01274FF40178002618B34FF4AE
:1029F000927949462846FFF717FEE0B14946284636
:102A0000FFF717FEC5F80883A07E00B96F600220AB
:102A10008DF80000D5F88004C5F880040390E07DAF
:102A20008DF80800E0680190E6752676D4E900127A
:102A30006846904727E004212846FFF700FE10B3C0
:102A40004FF484712846FFF7EFFDE0B12146284698
:102A5000FFF778FEE07D617E884214D1207E38B198
:102A6000617EE268E0752069E0602676667607E0C0
:102A7000A07E00B96F60C5F80883E675617EE268E4
:102A80002046FFF778FE4FF48E7841462846FFF740
:102A9000CBFD88B1A08AA17D884204D22146284678
:102AA000FFF772FF08E041462846FFF7C2FDA17D0F
:102AB00011B12046FFF778FF4FF4A278414628462F
:102AC000FFF7B2FD002812D041462846FFF7B1FDBE
:102AD000A07E00B12F60E07D002808D0E675617E01
:102AE000E26804B02046BDE8F047FFF744BEBDE809
:102AF000FF872DE9FF410C464FF492770546394692
:102B0000FFF7A3FD0026C0B139462846FFF7A2FD16
:102B100002208DF80000D5F88004C5F880040390E9
:102B2000D5F83C058DF80800E0680190E67526763A
:102B3000D4E900126846904724E04FF4887739467C
:102B40002846FFF782FDE8B139462846FFF782FDA7
:102B5000D5F83C05C1B2E07D884213D1207E60B13A
:102B6000E268D5F8000220F02000C5F80002207EBF
:102B7000E0752069E060267601E0E675E2682046AF
:102B8000FFF7F9FD4FF4A27739462846FFF75DFDC0
:102B900068B139462846FFF75DFDE07D38B1E6753E
:102BA000D5F83C05E268C1B22046FFF7E4FD4FF4DA
:102BB000907631462846FFF748FD00280FD0314671
:102BC0002846FFF747FDA07D002808D0D5F84C0522
:102BD00004B0C1B22046BDE8F041FFF7E5BEBDE854
:102BE000FF8100000A4A10B553789478591CC9B285
:102BF0008C4200D1002114788C4201D1002010BDFC
:102C00000170506803EB430100EBC10010BD0000F0
:102C10009C000020111213140D0E0F100C01002047
:102C20002C010020580100200D000300C1120000FB
:102C30000E000300C11200000F000300C1120000CB
:102C400010000300C112000000000050F00100203D
:102C500003000000FFFFFFFFFFFFFFFFFFFFFFFF7D
:102C6000FFFFFFFF00000000000000000000D60191
:102C70000701000029000000010000000100000021
:102C80000100000001000000010000000100000040
:102C90000100000002000000004040404040404071
:102CA000404041414141414040404040404040401F
:102CB00040404040404040404005020202020202C3
:102CC0000202020202020202022020202020202012
:102CD0002020200202020202020290909090909026
:102CE00010101010101010101010101010101010E4
:102CF0001010101002020202020288888888888858
:102D00000808080808080808080808080808080843
:102D1000080808080202020240000000992C000086
:102D20004253505F494E4449434154455F555345D2
:102D3000525F53544154455F300000004253505F8E
:102D4000494E4449434154455F414C4552545F30DC
:102D5000000000004253505F494E444943415445EE
:102D60005F555345525F53544154455F3100000055
:102D70004253505F494E4449434154455F414C459D
:102D800052545F31000000004253505F494E4449A5
:102D9000434154455F555345525F53544154455F39
:102DA000320000004253505F494E4449434154456C
:102DB0005F414C4552545F32000000004253505F67
:102DC000494E4449434154455F555345525F53541E
:102DD0004154455F330000004253505F494E44491F
:102DE000434154455F414C4552545F33000000005D
:102DF0004253505F494E4449434154455F434F4E0F
:102E00004E454354454400004253505F494E4449A7
:102E1000434154455F4144564552544953494E47F6
:102E20005F44495245435445440000004253505FBB
:102E3000494E4449434154455F49444C45000000D4
:102E40004253505F494E4449434154455F555345B1
:102E5000525F53544154455F4F4646004253505FC2
:102E6000494E4449434154455F414C4552545F4F9C
:102E7000464600004253505F494E44494341544541
:102E80005F424F4E44494E47000000004253505F9E
:102E9000494E4449434154455F5343414E4E494E88
:102EA000470000004253505F494E44494341544556
:102EB0005F4144564552544953494E470000000073
:102EC0004253505F494E4449434154455F53454E38
:102ED000545F4F4B000000004253505F494E44493D
:102EE000434154455F5243565F4F4B004253505F3E
:102EF000494E4449434154455F555345525F5354ED
:102F00004154455F4F4E00004253505F494E444983
:102F1000434154455F53454E445F4552524F520022
:102F20004253505F494E4449434154455F464154E2
:102F3000414C5F4552524F52000000004253505FD7
:102F4000494E4449434154455F5243565F455252AE
:102F50004F5200004253505F494E4449434154454B
:102F60005F4144564552544953494E475F5748497B
:102F700054454C49535400004253505F494E444914
:102F8000434154455F4144564552544953494E4785
:102F90005F534C4F570000004F766572666C6F7739
:102FA0000D0A0000C42F000000000020C400000033
:102FB000180A000088300000C400002064260000C9
:102FC000280A0000000000002C2E00008C2E0000BB
:102FD000A42E0000542F0000782F0000082E0000BF
:102FE000742E0000F02D0000C02E0000082F0000FD
:102FF000D82E00003C2F0000202F00003C2D0000A8
:10300000702D0000A42D0000D82D00005C2E0000C3
:10301000402E0000202D0000542D0000882D0000BF
:10302000BC2D0000EC2E000000000000000000009D
:103030000000000000000000000000000000000090
:103040000000000000000000000000000000000080
:103050000000000000000000000000000000000070
:103060000000000000000000000000000000000060
:1030700000000000000000000020004000000000F0
:08308000982F00000090D0031E
:0400000500000401F2
:00000001FF
