:020000040000FA
:1000000018080020D5000000EF000000F1000000FB
:1000100000000000000000000000000000000000E0
:10002000000000000000000000000000F3000000DD
:100030000000000000000000F5000000F7000000D4
:10004000F9000000F9000000F9000000F9000000CC
:10005000F900000000000000F9000000F9000000B5
:10006000F9000000F9000000F90000003101000073
:10007000F9000000F9000000F9000000F90000009C
:10008000F9000000F9000000F9000000F90000008C
:10009000F9000000F9000000F9000000F90000007C
:1000A000F9000000F900000000000000000000005E
:1000B0000000000000000000000000000000000040
:1000C0000348854600F022F8004800478D030000F1
:1000D000180800200321094802680A430260084802
:1000E00002680A4302600748804707480047FEE766
:1000F000FEE7FEE7FEE7FEE7FEE70000240500401E
:1001000054050040D1010000C1000000064C01254B
:10011000064E05E0E36807CC2B430C3C98471034AF
:10012000B442F7D3FFF7D0FF70060000900600003E
:10013000FEB5002007460190234C0125FF26032031
:100140002D044136000220180090406828420ED04D
:10015000A05900280BD00098856400988560002085
:10016000A0510199F8B28A00184989588847361D6C
:100170006D007F1CB6B2042F01D20098E5E700990C
:10018000FF2049680130C907C90F0AD0215800294A
:1001900007D000212150019881000C4841580420CB
:1001A0008847009AFF200530526802210A420AD08F
:1001B0002158002907D000212150019881000348CF
:1001C000415805208847FEBD00B0004004000020D3
:1001D00010B500F085F8002805D00E490C4848609D
:1001E000C8130D4988610D48018CC9B201290ED18F
:1001F000818C09070BD1018D0906090F042906D14D
:10020000808D0006000F02D105490120886010BDD5
:10021000DFFF07C000050040006C0040C00F00F089
:100220000006004002E008C8121F08C1002AFAD1E7
:1002300070477047002001E001C1121F002AFBD166
:1002400070470000BFF34F8F04490348C860BFF3F5
:100250004F8F00BFFDE700000400FA0500ED00E04D
:1002600010B5144900244A681349002A15D0CA68F9
:10027000D207D20F1BD18968C907C90F17D1012432
:10028000002802D00D490120486000210C4A0120BD
:10029000800711600121016009E0C868C007C00F34
:1002A00003D18868C007C00F01D000F00BF82046CA
:1002B00010BD00000C0000200004004000030040BE
:1002C000000100400449012008600448C168C907D2
:1002D000C90FFBD17047000004000040000400403B
:1002E0001048018CC9B2012917D1818C090714D19A
:1002F000018D09060A0F03D1828D1206120F0ED04E
:10030000090F012903D1828D1206120F07D003298C
:1003100003D1808D0006000F01D00020704701201E
:1003200070470000C00F00F010B50F480F4C8068F8
:1003300000280ED000F074F8002809D16069C007C9
:10034000C00F05D10A49086009490120FC3908603D
:1003500010BD00F065F8002803D16069C007C00F28
:10036000F6D000F007F810BD0C000020000400409B
:100370000401004010B504490120086000F050F865
:100380000028FBD110BD00000C000040002001211E
:100390001F4C034603220D4685406D02AD0F02D06F
:1003A00085002D192A60401C2028F4D30321194808
:1003B00049058160C360002000F03AF8002803D0AE
:1003C00000221146FFF73EFF00F04AF8124A0021D2
:1003D000124800F0D9F8002803D000221146FFF798
:1003E00031FF01210D4800F00FF9012318220021EF
:1003F0000A4800F073F8002803D000221146FFF7E6
:1004000021FF064800F0B4F840BF20BF20BFFBE743
:10041000000700500005005049060000600600007B
:1004200002488069C003C00F70470000000400400C
:10043000094900200A78002A01D08520704700224F
:100440004A608A60054BFF221A61044B0122403B3F
:100450009A610A70704700000C00002040050040BF
:1004600010B505488168491C81600020FFF7F8FE3F
:10047000FFF75AFF10BD00000C0000208207D30ECA
:10048000FF229A408907090E10B5994000280BDA1F
:1004900003071B0F083B9C080C4BA400E318DC6906
:1004A00094430C43DC6107E08408094BA400E41882
:1004B000236893430B432360C106C90E0120884083
:1004C000044908600449086010BD000000ED00E028
:1004D00000E400E080E200E000E100E0F0B501248B
:1004E00024048C408E003146FF3141318FB2032508
:1004F00001682D0249199C468C64016849198C6079
:1005000011024279090A5300D318174A9A185278EF
:1005100005231B02002A026814D0B218D2181164F5
:100520000268D2185268531A8A4201D20F495B18E6
:1005300041794A008A180C4951188978994204DD9A
:100540000D20F0BDB218D21811646146002905D003
:1005500001680022CA51016849194C6000684019BD
:1005600044640020F0BD000000000020FFFFFF00F9
:10057000016801220A604079022142008018014A84
:10058000115470470000002070B50D460446002A43
:1005900006D060791A4980000A50002D02D006E08A
:1005A000072070BD607906214843164945186079D7
:1005B000134E41004018361F305C002801D008203F
:1005C00070BD0420A9782056FFF758FF0522216846
:1005D0001202288889188860617928794A00891868
:1005E000891948706179E8784A00891889198870F2
:1005F000617901204A0089187054002070BD000004
:10060000040000206806000030B5FF2401340122F8
:10061000036800251D51032304681B02E41862646B
:10062000002902D00068C018426030BD054A01218F
:1006300053688140C340D807C00F01D0D1607047D4
:10064000916070470005005010B5002805D00428BF
:1006500002D11520FFF7EAFF10BD1620FAE70000CF
:1006600000B000400B000000FF0F0300000000007E
:1006700090060000000000200C0000002402000092
:100680009C0600000C0000200C0800003402000052
:0C06900000000000000000000024F40046
:04000005000000C136
:00000001FF
