:020000040000FA
:1000000050270020150400001D0400001F040000FC
:10001000210400002304000025040000000000006B
:1000200000000000000000000000000027040000A5
:1000300029040000000000002B0400002D04000033
:10004000610700002F040000090900002F040000D0
:100050002F0400002F040000390500002F040000C9
:100060002F0400002F0400002F0400002F040000C4
:100070002F0400002F0400002F0400002F040000B4
:100080002F040000B90700002F0400002F04000017
:10009000DD0700002F0400002F0400002F040000E3
:1000A0002F0400002F0400002F0400002F04000084
:1000B0002F0400002F0400000000000000000000DA
:1000C0002F0400002F0400002F0400002F04000064
:1000D0002F0400002F0400002F0400002F04000054
:1000E0002F0400002F0400002F0400002F04000044
:1000F000000000002F0400000000000000000000CD
:1001000000000000000000000000000000000000EF
:1001100000000000000000000000000000000000DF
:1001200000000000000000000000000000000000CF
:1001300000000000000000000000000000000000BF
:10040000DFF80CD000F066F800480047011C00003F
:10041000502700200648804706480047FEE7FEE7D1
:10042000FEE7FEE7FEE7FEE7FEE7FEE7FEE7FEE7A4
:10043000E10700000104000000487047A4330000F9
:1004400040EA01039B0703D009E008C9121F08C056
:10045000042AFAD203E011F8013B00F8013B521ED6
:10046000F9D27047421C10F8011B0029FBD1801AF9
:1004700070472DE9F05F0546002092469B4688466E
:100480000646814640241BE0284641464746224610
:1004900000F041F853465A46C01A914110D3114614
:1004A0001846224600F028F82D1A67EB01084F463F
:1004B00022460120002100F01FF817EB00094E41F1
:1004C000201EA4F10104DFDC484631462A4643469B
:1004D000BDE8F09F064C074D06E0E06840F00103E0
:1004E00094E8070098471034AC42F6D3FFF78CFF2E
:1004F000B4330000D4330000202A04DB203A00FA91
:1005000002F1002070479140C2F1200320FA03F36A
:10051000194390407047202A04DB203A21FA02F068
:100520000021704721FA02F3D040C2F1200291402D
:1005300008431946704700002DE9F04F00268FB0A0
:10054000DFF8B081B14602964FF48075012437463A
:100550000396284601F082FF38B1D8F80403204200
:1005600003D0284601F070FF26432D1D64007F1C38
:10057000ADB2082FEDD34FF4BE74204601F06EFFEC
:1005800048B1204601F060FF46F0004602AA022171
:10059000002001F043FF584C16F0FF0F15D0012743
:1005A000002537420DD008EB8501D1F81005D1F8B0
:1005B0001015C0F3062054F82520C1F3014102B103
:1005C00090477F006D1C082DEBD3002E7DDA0020B4
:1005D000CDF82890411E0DF1080B08AACDF82C90FB
:1005E00042F82010401C91460228F9D300252E46DF
:1005F000A01910F8607F90F9000027F0C008401C97
:1006000049D008A9404601F03BFB88B34FEA971A4E
:10061000404601F005F954F820701FB1BAF1030FFC
:1006200003D00FE0BAF1030F35D10AA84FEAD80280
:1006300008F00703815C4FF0010C0CFA03FC41EA5F
:100640000C01815406A8CDF8188001F0A3FE06998C
:1006500000EB8100D0F8000702A9C0F3014006902A
:10066000404601F00DFB0028069802D0022802D077
:1006700011E003280FD1BAF1030F08D10698022820
:1006800032D00221404601F05FFE6D1CEDB217B181
:1006900051464046B847761C042EA9D3002D20D0E1
:1006A00004AA0221002001F0B9FE00205A4604A944
:1006B00052F8206051F82030B34217D000200AAE23
:1006C0004FEA090351F8207000E00AE042F8207078
:1006D00056F8207043F82070401C0228F2D3002DF9
:1006E00084D10FB0BDE8F08F0321CBE7401C022876
:1006F000DED3F6E7006000406C01002000F01F022E
:10070000012191404009800000F1E020C0F88012F2
:10071000704700F01F02012191404009800000F164
:10072000E020C0F80011704700F01F020121914045
:100730004009800000F1E020C0F80012704749072E
:10074000090E002806DA00F00F0000F1E02080F822
:10075000141D704700F1E02080F80014704700007D
:100760002DE9F0414FF48077384601F091FA0124E9
:10077000104EA50748B1384601F091FA0120C5F89E
:1007800008037470002001F053F84FF48277384664
:1007900001F07EFA00280BD0384601F080FA0220E2
:1007A000C5F80803B470BDE8F041012001F040B87D
:1007B000BDE8F0815801002007480021C0F8401131
:1007C000C0F84411C0F84811C0F84C11C0F800112D
:1007D000C0F8041102F0BCBB0010014002F034BBB1
:1007E00030B54FF080500021D0F830210124082A84
:1007F00002D1D0F8343113B1082A09D00BE04FF000
:100800008042C2F80C11C2F81011334A116005E0A1
:10081000D0F8343113B1082A04D006E0304B2F4A07
:100820001A6005E0D0F8343113B1082A04D006E08C
:100830002C4BFB221A6005E0D0F8343113B1082AA2
:1008400008D00EE090F858322748026863F303029C
:10085000026002E0D0F8340118B9244A4FF4007065
:1008600010602348026842F470020260BFF34F8FA9
:10087000BFF36F8F4FF01022D2F80002002803DB85
:10088000D2F80402002822DA1A4B1C601A480468C5
:10089000002CFCD01224C2F800420568002DFCD0C8
:1008A000C2F804420268002AFCD0196001680029DD
:1008B000FCD0BFF34F8F0E487C3801680F4A01F41B
:1008C000E06111430160BFF34F8F00BFFDE70D49A9
:1008D0000B48086030BD0000380500404881030027
:1008E0008C56004018F50040E40E0040409602404F
:1008F00088ED00E004E5014000E401400400FA0551
:100900000090D003700000200448017F04480029B3
:10091000024901D002F02DBC02F09CBBD4010020A2
:10092000002000400FB41CB50A46521ECDE900025B
:1009300007A9054B6A46069800F018F8009A0021AE
:1009400011701CBC5DF814FBCF0D000002E008C85C
:10095000121F08C1002AFAD170477047002001E039
:1009600001C1121F002AFBD1704700002DE9FF4F83
:100970008DB00F460546002606E025280BD0DDE9A0
:100980000F1290476D1C761C28780028F5D111B005
:100990003046BDE8F08F0024A246A1460122EC4972
:1009A00000E0044315F8013F203B02FA03F008423F
:1009B000F7D128782A2810D06FF02F022878A0F1DC
:1009C0003001092914D80AEB8A0102EB410144F0F5
:1009D000020400EB010A6D1CF0E701CF5FEA000A98
:1009E00003D544F40054CAF1000A44F002046D1C1B
:1009F00028782E2817D115F8010F44F004042A286E
:100A00000ED06FF02F022878A0F1300109290AD802
:100A100009EB890102EB410100EB01096D1CF2E7D2
:100A200057F8049B6D1C28786C280FD006DC4C28E6
:100A300017D068280DD06A2814D104E0742810D08B
:100A40007A280FD10DE044F400140AE044F4801435
:100A500001E044F440146978814202D104F5801425
:100A60006D1C6D1C2A786E2A1FD00CDC632A31D0D5
:100A700004DC002A8BD0582A11D1A3E0642A68D064
:100A8000692A0CD165E0732A2ED004DC6F2A73D05A
:100A9000702A04D19BE0752A6FD0782A6ED0104658
:100AA000DDE90F129047761C50E1C4F30250022892
:100AB00006D0032809D0042801CF09D0066045E1FB
:100AC00001CFF117C0E9006140E101CF06803DE1AF
:100AD00006703BE117F8040B8DF8000000208DF83C
:100AE0000100EB46012003E057F804BB4FF0FF3054
:100AF00061074FF0000102D40DE008F101018846C2
:100B000049450FDA8045F8DB1BF808100029F4D1BD
:100B100008E008F1010188468142FADB1BF8081061
:100B20000029F6D1DDE90F23AAEB08008146214612
:100B300000F036F9304400EB080604E0DDE90F125E
:100B40001BF8010B9047B8F10108F7D2214648463F
:100B5000F7E00A21C4F302534FF0000B0891022B77
:100B600004D001CFC117032B09D00AE0FF1D27F0E5
:100B70000707F7E8020108E032E01FE020E000B2DA
:100B8000C117042B01D140B2C117031E71F100033C
:100B900007DA4FF0000CD0EB0C006CEB01012D23B9
:100BA00002E0230504D52B238DF82430012303E034
:100BB000E30701D02023F7E7984658E00A2110E028
:100BC00010210EE010204FF0000B08900CE01021D7
:100BD0004FF0000B44F004044FF00809089103E0C3
:100BE00008214FF0000B0891C4F30253022B04D0EC
:100BF00001CF0021032B06D006E0FF1D27F00707D9
:100C0000F7E8020103E080B2042B00D1C0B24FF03C
:100C1000000823072BD5702A07D0DDF820C08CF000
:100C2000100C5CEA0B0C05D00EE040238DF824304C
:100C3000012308E050EA010306D030238DF8243068
:100C40008DF8252002239846DDF820C08CF0080C92
:100C50005CEA0B0C0BD150EA010301D1630706D506
:100C600030238DF824304FF00108A9F10109582AEA
:100C700004D038A20B9208AA0A920BE03AA2F9E734
:100C80005B46089AFFF7F5FB0B9B9B5C0A9A521E8A
:100C90000A92137050EA0102F2D10A98ADEB0000FB
:100CA00000F1200B600702D524F4803401E04FF0FE
:100CB0000109D94502DDA9EB0B0000E0002000EBA3
:100CC0000B0141440890AAEB010AE00306D4DDE9D8
:100CD0000F232146504600F063F806444FF0000908
:100CE00008E009A911F80900DDE90F12904709F1A0
:100CF0000109761CC145F4DBE0030CD5DDE90F23C7
:100D00002146504600F04CF8064404E0DDE90F129D
:100D100030209047761C0899481E08900029F5DC81
:100D200008E00A980A990078491C0A91DDE90F1237
:100D30009047761CBBF10001ABF1010BF1DC2146C1
:100D40005046DDE90F2300F019F806446D1C1BE640
:100D50000928010030313233343536373839616291
:100D60006364656600000000303132333435363755
:100D70003839414243444546000000002DE9F04126
:100D8000044600251E461746880404D405E039466B
:100D90002020B0476D1C641EF9D52846BDE8F081BF
:100DA0002DE9F041044600251E469046C80301D5B2
:100DB000302700E02027880404D505E04146384666
:100DC000B0476D1C641EF9D52846BDE8F0814A681D
:100DD000002A06D00A68531C0B6010704868401E39
:100DE00048607047022000F011BA000070B500247E
:100DF000084D05E0686810F8340001F01BF8641C29
:100E000028788442F6D304480068BDE8704000F0BA
:100E100071B9000018000020D032000070B5002425
:100E2000064D06E06868012110F8340001F026F84C
:100E3000641C28788442F5D3002070BD180000207F
:100E4000F8B515460C460646052A01D20720F8BD1E
:100E500001F0F6F818B901F0C5F80028F7D11049EB
:100E600000204E600C70C1E902500E4D08610DE08B
:100E700006EBC4006968009181788DF80110007854
:100E8000094A694601F046F80028E0D1641EE4B240
:100E9000EED2BDE8F840054A0021024800F0A0B8B3
:100EA00018000020D0320000A5190000051900002C
:100EB0000DA1012001F0E2FC01F03AFC01F03CFC44
:100EC0000028FBD10CA1032001F0D8FCBFF34F8F09
:100ED00010480168104A01F4E06111430160BFF35A
:100EE0004F8F00BFFDE700003A4552524F523A463D
:100EF0006174616C0D0A00003A494E464F3A4869E8
:100F000074207765616B2068616E646C65720D0A90
:100F1000000000000CED00E00400FA050EB5002111
:100F20000091CDE901106A4644F20100FFF7C0FFCD
:100F30000EBD0000144910B54A782AB178B10128D5
:100F400006D0022812D118E001208870002010BDC0
:100F500000F01AFA50B100BFFFF7E0FF06E000F022
:100F600013FA012000F0DAFB00F0D0FB00F0D2F819
:100F700008B1FFF7D3FF012010BD04A1012001F04B
:100F80007DFC9020E8E70000000000204150503A2E
:100F90004552524F523A456E746572696E672044ED
:100FA0004655206973206E6F7420737570706F7270
:100FB0007465642062792074686973206578616D56
:100FC000706C652E0D0A0000401A20F07F40106002
:100FD0000020704701480068704700000415014078
:100FE000074B5B6823B12AB120B10068037C1BB1B9
:100FF0000820704707207047417442610020704705
:101000003C0000202DE9F0470746984614468946E3
:1010100090074FF0000526D12CB301F0FFFD134ED1
:1010200006F11000C6F80C800570457080F802903B
:1010300044607560357075701420FFF75FFB072101
:101040001420FFF77CFB1420FFF763FB08480760C0
:1010500007211120FFF773FB0548001F0068B060EF
:101060000020BDE8F0870720FBE700002C000020EF
:10107000081501402DE9F843DFF87090D9F80430E5
:101080005BB350B3052902D20720BDE8F88343695A
:101090001BB3437C012B22D0002704460025884641
:1010A0001646284600F042F8684602F0DBF8C0B168
:1010B000012101700E4944600968C0E90218C0E9C5
:1010C00004769DF8000089F80100002000F030F857
:1010D0001420FFF729FB2846D7E70820D5E70F465D
:1010E000DBE70425002000F023F8F4E73C000020B3
:1010F000041501400649496839B130B1416921B14F
:1011000000210174022101F003BF08207047000094
:101110003C0000200448406818B10321002001F081
:10112000F7BE0820704700003C00002000F002B825
:1011300000F008B872B602480168491C01607047A7
:101140004C00002003490868401E086000D162B6C8
:10115000704700004C00002070B5054608680C463A
:10116000411C04D001F03DF9206801F0C8F8606826
:10117000411C02D0002101F0B9F828791F4901EB88
:1011800040102968007F0028A069C1F8240523D0F9
:10119000607D227D29681043C1F86C05D4E90012F6
:1011A0002868C0F80C15C0F8142522E0A068411C7E
:1011B00002D0002101F09AF8E068411C04D001F04F
:1011C00010F9E06801F09BF8D4E902122868C0F831
:1011D0000825C0F8101570BD607D217D2A68084380
:1011E000C2F86C05D4E900122868C0F81425C0F8CC
:1011F0000C15207D0128D9D070BD0000D40100203D
:101200000149085C7047000098320000094908B5A0
:10121000085C0090684601F0AFF8D0F80425009B08
:101220000121994021EA0203C0F808351140C0F8B5
:101230000C1508BD943200000249085C012101F040
:10124000DAB80000943200000249085C002101F085
:10125000D2B8000094320000084908B5085C00903C
:10126000684601F089F8D0F804050099C84010F0EC
:10127000010000D0012080F0010008BD9432000080
:101280007CB50024084E25460122305D00950023E0
:101290001146019500F0D6FF641C042CF4D3BDE880
:1012A0007C4000F003B800009432000010B5002428
:1012B0002046FFF7C1FF641C042CF9D310BD10B504
:1012C00000242046FFF7C0FF641C042CF9D310BD96
:1012D00010B50246064B4FF0FF3000215C5C944293
:1012E00001D1084610BD491C0429F7D310BD0000E8
:1012F000983200002DE9F0470D468146FFF7E8FFE0
:101300000446042838D2DFF878801C481D4EA8F126
:10131000100735B3012D0ED0022D2DD104EB440062
:1013200030444578002D27D0F968002924D028467C
:10133000BDE8F047084704EB4401755C0E44717842
:1013400059B179680E4A01EB810149000E3A806873
:10135000FFF790FE08B987F80290B17808F80410FA
:10136000E0E78068FFF7C6FE04EB4401314418F85B
:1013700004008D78A842D5D0BDE8F0879C320000EB
:10138000140000202C010020FFF730BD10B5164AD4
:1013900040F6CD41022000F0B3F808B1FFF7BEFDE2
:1013A0000C220221012000F021F808B1FFF7B6FD60
:1013B0000A220021012000F019F808B1FFF7AEFD64
:1013C00000220121104600F011F808B1FFF7A6FD38
:1013D00000210E22084600F009F8002803D0BDE8DD
:1013E0001040FFF79BBD10BD3114000070B5002305
:1013F000042810D20D4D00EB4004012A02D101292E
:101400000CD00022094E00EB4000304461B10129AC
:1014100006D0022906D00723184670BD0E30C2B28E
:101420002A55F9E74270F7E78270F5E72C010020B2
:1014300070B5054601F08EFA13A1032001F01EFAE3
:10144000194C0A2D19D001200C2D14D00E2D13D1BA
:10145000617819B10020607014A101E060701EA1D4
:10146000032001F00BFAA078002805D0607800284E
:1014700002D0032004E0207070BD207800B101206C
:10148000BDE8704001F0E8BA4150503A494E464F2D
:101490003A506F776572206D616E6167656D656E3C
:1014A00074206665640D0A00000000204150503A27
:1014B000494E464F3A53797374656D206973206EB7
:1014C0006F7420726561647920666F72207368752D
:1014D00074646F776E0D0A004150503A494E464F82
:1014E0003A53797374656D2069732072656164790C
:1014F00020666F722073687574646F776E0D0A00D2
:101500002DE9F04106461F4800240F464160C0E91E
:101510000262B0071FD50025012211462846FFF7B9
:1015200065FF6D1C0446042D02D2002CF4D012E09D
:101530008CB97A0804211448FFF782FC04000AD110
:10154000FFF76CFC040006D10F48104A0021001F71
:10155000FFF746FD0446F00701D0FFF791FE74B98E
:1015600009480B4A00210C38FFF73AFD040006D168
:101570000548084A01210838FFF732FD0446204695
:10158000BDE8F08104000020A8320000B51700007B
:101590008D1A0000E50D00002DE9F047594C054675
:1015A0000026607818B100206070FFF77FFE0120F0
:1015B000554F4FF47A694FF4C87A4FF06408182DEC
:1015C0002CD2DFE805F0890C0C2C3A4751565A61B1
:1015D0005A619B6969696969898C8F929B9B00201C
:1015E000FFF73AFE00284FF0000008D0FFF724FE76
:1015F000022D02D14FF4E16006E0484604E0FFF717
:1016000023FE022D2ED05046B0FBF8F12570606805
:10161000414300223868FFF72DFD064659E00020BF
:10162000FFF71AFE28B10020FFF706FE4FF44870BE
:10163000EAE70020FFF708FE14E00020FFF70CFEA9
:1016400000284FF0000002D0FFF7F6FDD5E7FFF7C6
:10165000FBFDD8E70020FFF7FFFD0028E9D00020C0
:10166000FFF7EAFDC820CFE70020FFF7CFFD257088
:1016700007E000203FE025702BE060700120FFF7BD
:10168000C5FD00226168C5E760700120FFF7BEFD5F
:10169000606800EB8001BCE77868FFF72BFD064629
:1016A000D5F1110000D01EB10220FFF7C5FD10E0FA
:1016B00001280BD9C82110FB01F1B1FBF8F16068DA
:1016C000002241437868FFF7D5FC06460220FFF769
:1016D000BBFD3046BDE8F087FFF7E8FDCBE7FFF73D
:1016E000E5FDC6E7FFF7E2FD04E0FFF7DFFD0020C0
:1016F000FFF7AAFD0120FFF7A7FDBCE7FFF7DFFD1D
:10170000B9E70000040000209C32000002490120DB
:1017100088600020704700000050004010B5FFF7BF
:101720006FFD032100F0F6FD002010BD002901DA55
:1017300000207047026811440160012070470000DA
:1017400070B5461C0D4601240020FFF7EFFC114A3E
:1017500010682860D2E900109568081A2B1A701CCE
:101760005B1C98420FD963B10B480C4B29400068B1
:101770001B6802EB810163F39F20C8601068401C66
:101780001060002401E0881910600020FFF7D0FCF1
:10179000204670BD34030020FC3200006C000020A5
:1017A000034803C8814201D10120704700207047DF
:1017B0003403002000780221FFF79CBD05494FF05B
:1017C000FF32082841F8202002D3084480F858202E
:1017D000704700006C010020F0B54FF0FF3512B1EA
:1017E0000023082601E008230C260C4C05E000BF6E
:1017F00054F823707F1C04D05B1CB342F8D32846F6
:10180000F0BD26185DB286F8305044F82310002A47
:10181000F5D1E11881F85800F1E700006C010020D3
:101820000249084490F93000704700006C01002024
:1018300070B5084C050009D010342168002907D084
:1018400008682060496828468847F6E70834F4E7C6
:1018500070BD0000580100202DE9F05F2648416866
:10186000F1B3DFF898B00E688146DBF80040876876
:101870008078E11B21F07F45ED1CB0B9DFF8808056
:101880004FF48030C8F84403C8F804031120FEF771
:1018900035FF1120FEF73DFF4FF0010AC8F800A008
:1018A0002F2000F005FA89F802A0B54200D2354693
:1018B000124BE8193C3320F07F401860DBF8001031
:1018C0005A46091B21F07F41001B20F07F40C91CB4
:1018D00081420FD9106818602F2000F0E9F900E06C
:1018E00004E0BDE8F05F1120FEF71EBFBDE8F05F29
:1018F00001F094B9BDE8F09F2C00002004150140D0
:10190000001001402DE9F04100260125144C22E091
:101910006068226900EBC607387805FA00F11142C9
:1019200017D08A43226100F055FB02463878E368FD
:1019300005FA00F1194002FA00F3994209D17978C9
:10194000012901D0012100E0002151407A6802B153
:101950009047761CF6B220788642D9D3BDE8F08154
:10196000180000200E4910B50A784C780023A242D6
:1019700012D0521CD2B20A70022A00D10B70084A4F
:101980000B78183252F8232002608868104420F047
:101990007F408860012010BD0360002010BD000062
:1019A0002C0000202DE9F041124E07460125BD40D4
:1019B0003068FFF79FFB00280DD10F4C20692842AB
:1019C00007D1384600F006FB0028E06805D0284320
:1019D00004E0A8432061BDE8F081A843E0602069ED
:1019E00028432061A1683068BDE8F0410022FFF77C
:1019F00041BB0000D03200001800002070B50E4638
:101A00000446007918494FF4A27501EB4010017F9C
:101A10002068A1B14FF4887101F0A6F84FF49071DD
:101A2000206801F0A1F84FF49271206801F09CF851
:101A30002946206801F098F80C49206809E04FF425
:101A40008E7101F080F82946206801F07CF8084981
:101A50002068C0F80413206800F0E9F93146BDE8B9
:101A6000704000F0C8B90000D4010020100302004B
:101A7000800002000268134602E08A4204D0126825
:101A8000002AFAD10B600160704700000348017A18
:101A9000C90702D00078FFF77FBD7047040000201F
:101AA0002DE9F043264CA4F110092278D9F80480DE
:101AB00099F80350404694F801C0D9F8086031E025
:101AC00002EB42036168521C01EBC301A378D2B25E
:101AD000934200D100220B78022B02D0032B21D19C
:101AE0001DE003464F68194603E0B94203D00B4698
:101AF000C969B9B1F9E7A9B18B4205D1C06918B973
:101B0000104E0125B56000260F68C969D96149B139
:101B10000B683B440B6005E00174C06900E00021E4
:101B20000028F9D19445CBD1C9E9010689F80350C1
:101B3000404502D00120BDE8F0830020FBE7000013
:101B40003C000020001001402DE9F0412A4F0446DE
:101B5000002607F11005D7F804803EE002D02046A9
:101B6000E4691DE02878696800EB4002401CC0B2BF
:101B700001EBC2012870AA78904200D12E700A7839
:101B80004868012A2BD1027C4ABB8A684260CA6835
:101B900082600A69C26049698161F97801B1466071
:101BA0004368BA68DFF854C0991A21F07F41614553
:101BB00002D28268114406E0D11A826821F07F4186
:101BC0008A4202D9511A016000E006604660012194
:101BD00086600174C66101F07DF9002CBED12878C1
:101BE00069788842BED17968414502D00120BDE8BC
:101BF000F0810020FBE700002C000020FFFF7F00A9
:101C0000002000F095FE08B1FFF788F912A103202B
:101C100000F034FE00F092F808B1FFF77FF90020E1
:101C200000F0AEF80023154A05211846FFF7EAF93F
:101C300008B1FFF773F9FFF7A9FB4FF4004000F07C
:101C4000A3FE08B1FFF76AF900F076FD0028FBD18A
:101C500000F0D4FEF8E700004150503A494E464F9C
:101C60003A506F776572204D616E6167656D656E84
:101C700074206578616D706C650D0A007400002039
:101C8000C20800F007030120895C984008407047B3
:101C900000F180400068002800D00120704708B59E
:101CA00000F18040002101600068009008BD000044
:101CB00000283ED01F49204A096800BF00BF00BF6E
:101CC00000BF00BF00BF00BF00BF91422FD000BFC8
:101CD00000BF00BF00BF00BF00BF00BF00BF00BF0C
:101CE00000BF00BF00BF00BF00BF00BF00BF00BFFC
:101CF00000BF00BF00BF00BF00BF00BF00BF00BFEC
:101D000000BF00BF00BF00BF00BF00BF00BF00BFDB
:101D100000BF00BF00BF00BF00BF00BF00BF00BFCB
:101D200000BF00BF00BF00BF00BF00BF00BF401E1C
:101D3000C3D17047700000200024F40070B50E4C31
:101D40000025207808B1852513E00021A16061609D
:101D50002161E1604FF0E020D0F80001012610F091
:101D6000010F03D10721002000F045F80348066069
:101D70002670284670BD000058010020180500405C
:101D800070B5154D0446A87838B114B161680120CA
:101D900088470020FFF7CAF915E00020FFF7C6F9D1
:101DA00024B10D4821461030FFF764FEE86850B9B1
:101DB0004FF48270FFF773FF02204107C1F804035C
:101DC000064901200860E868401CE860BDE87040F2
:101DD0000020FFF7ADB900005801002008000040C6
:101DE00000F01F02012191404009800000F1E02035
:101DF000C0F8801170474907090E002806DA00F084
:101E00000F0202F1E02282F8141D03E000F1E0224B
:101E100082F8001400F01F02012191404009800067
:101E200000F1E020C0F88012C0F800117047000BEC
:101E300040B2704710B5044600F09CFE28B1204621
:101E4000BDE81040002100F07FBA204600F09EFE61
:101E500000280FD02046FFF7E3FC074A02EB800181
:101E6000D1F8103523F00103C1F81035012181406C
:101E7000C2F8081310BD0000006000402DE9F041D9
:101E80000E46804600F076FE204D0028404616D0D3
:101E9000FFF7C6FC284490F858008009032802D0B8
:101EA00001280AD003E0404600F090FA28B103214F
:101EB0004046BDE8F04100F047BA0221F8E700F0E3
:101EC00065FE002820D04046FFF7AAFC0446104FCC
:101ED0004FF4807007EB840100EB8400D1F81025EB
:101EE00080B242F00102C1F8102500F0ADFA002ED8
:101EF0000AD04046FFF794FC55F82000002803D094
:101F00000120A040C7F80403BDE8F0816C01002067
:101F1000006000402DE9FC41DFF8AC80044608EB8E
:101F20000400002790F930001346C0170E46401CED
:101F300001D0082744E0F27819462046FFF74CFC10
:101F40000546401C3BD0B07868B16846009400F06C
:101F500021FA009900EB8100D0F8001721F002016E
:101F6000C0F8001707E000217378204600910A4668
:101F7000019100F080F9F078C0B11448317800EB9D
:101F80008500D0F81025124B1A40C0F810254FF4E8
:101F9000FE424FF4403302EA042203EA01410A43BD
:101FA000D0F810150A43C0F8102509E008EB050029
:101FB000327810F8581F41EA8211017000E00427BE
:101FC0003846BDE8FC8100006C0100200060004044
:101FD000FF80FCFF10B500F0F9F9002800D00120C7
:101FE00010BD000070B5144D95F8640008B10820CC
:101FF00070BD0020411E2A18401CC0B282F830106B
:102000003028F8D300242046FFF7D8FB641CE4B244
:102010000C2CF8D307210620FFF7EDFE4FF4BE701D
:1020200000F012FA05494FF00040C1F80403012006
:1020300085F86400002070BD6C0100200060004045
:10204000034890F86400002800D001207047000089
:102050006C0100200121B1EB507F01D101207047BC
:10206000002070472DE9F04105460079164F904653
:1020700007EB40140E46E07E10B10820BDE8F08169
:10208000707F20772846FFF767F85FEA08006060F6
:102090003169216003D0317F2846FFF7AFFC2879F2
:1020A00007EB4010007F0028286801D0082100E0DD
:1020B0000421C0F800150020E0752076A0750121EC
:1020C000E176A076DAE70000D40100202DE9F047A0
:1020D000054600793F4E904606EB40140F46207FA0
:1020E00018B10846FFF7B6FF30B1284600F074F883
:1020F00020B11120BDE8F0871020FBE784F816809E
:10210000A7600027A78228794FF0010806EB40144A
:102110003E46207F0028286825D04FF49079494614
:1021200000F022FD4FF4AC7A5146286800F01CFD07
:102130002868A17DA268C0F84425C0F84815286821
:10214000C0F808806068F0B94946286800F007FDCB
:1021500080465146286800F002FD58EA0001F3D09D
:1021600058BBA7750FE04FF48E7A514600F0EBFC98
:102170002868C0F808802146286800F045FF61689B
:102180004FF4807089B13046B4E75146286800F0BA
:10219000D5FC10B9A08A4845F7D1A08A484505D09A
:1021A0002146286800F030FF00E08146A08AA17D2A
:1021B0008842EAD3A08A484501D10F26D1E751468B
:1021C000286800F0BBFC0028F9D02868C0F80C8013
:1021D000C7E70000D40100200079044901EB40105A
:1021E000807D002800D0012070470000D40100202D
:1021F00070B5044600791149002601EB40152068AE
:102200002A7FC0F80065686888B1207901EB40102A
:10221000007F0028206801D0094901E008498C3975
:10222000C0F808132068FFF702FEFFF7D9FD20462B
:1022300000F0B8FCEE766E6070BD0000D4010020A6
:10224000100302002DE9FF411C46DDE90A7815461E
:102250000E46684600F090F846EA450141EA8401DE
:1022600041EA072242EA0841009A00EB8200C0F8E6
:102270000017BDE8FF812DE9FF411C46DDE90A7822
:1022800015460E46684600F085F846EA450141EAE3
:10229000840141EA072242EA0841009A00EB8200E9
:1022A000C0F80017BDE8FF812DE9FF411C46DDE9BC
:1022B0000A7815460E46684600F07AF846EA450167
:1022C00041EA840141EA072242EA0841009A00EB10
:1022D0008200C0F80017BDE8FF811CB50021009105
:1022E0000B4601220191FFF7DFFF1CBD1CB5002248
:1022F0000B46009211460192FFF7D6FF1CBD1CB59C
:10230000002100910B46012201911146FFF7CCFFFD
:102310001CBD0000202802D24FF0A04202E0094A72
:1023200000F01F0002EB8000D0F8002722F44032BA
:10233000C0F80027D0F8002742EA0141C0F8001792
:10234000704700000003005013B50C46684600F0CB
:1023500021F8009900EB8101D1F8002722F44032E6
:10236000C1F80027009900EB8100D0F8001741EA7E
:102370000441C0F800171CBD0168202902D24FF0AB
:10238000A040704701F01F01016001487047000044
:10239000000300500168202902D24FF0A04070478E
:1023A00001F01F0101600148704700000003005068
:1023B0000168202902D24FF0A040704701F01F01B0
:1023C00001600148704700000003005001B56846F5
:1023D000FFF7E0FFD0F810050099C84000F00100B9
:1023E00008BD01B56846FFF7E3FF009A012191405F
:1023F000C0F8081508BD38B501240090684631B111
:10240000FFF7BAFF00998C40C0F8084538BDFFF7C8
:10241000B3FF00998C40C0F80C4538BD1CB5094C81
:102420000144D4E90034CDE900346C4606E000BF35
:1024300054F82030D3F81035401C08C28142F7D838
:102440001CBD0000C8320000034908B50844002143
:1024500001600068009008BD0060004002494058DB
:10246000012800D0002070470060004000487047FD
:10247000E524000030B5184C054689B0207828B115
:102480006078854202D1002009B030BD2022134976
:102490006846FDF7D5FF00208DF814000620009057
:1024A0000820019005200390072002904FF0EB7068
:1024B00006900948001DFFF79BFE0DB1002200E0C9
:1024C000074A05486946001DFFF7CCFD0028DBD10F
:1024D000012020706570D6E760000020DC3200002B
:1024E000453000002DE9F04FC1B00D004FF0000164
:1024F00040914D984B991C46174601EB000B01D0BB
:102500000A2000E00020804600F0CCFB00287CD1AF
:102510006E46BCB9409840AA3118284600F05AFDD2
:10252000002872D03846FDF79DFFC22800D9C2208E
:10253000054640982A4630443946FDF781FF4098C9
:10254000284440904FF0200A409901EB08023132B4
:102550000DEB01050DEB0206002002E005F801ABD2
:10256000401C4045FAD300275C4508D305F801AB71
:1025700005F801AB05F801AB06F801AB2DE04B986F
:10258000844202D24A98005D02E0211A4C98405CD5
:102590002B46814602460121880022FA00F000F015
:1025A0000F00092801D9373000E03030C1F1010CAB
:1025B000491E03F80C00EFD29D1C05F801ABFDF796
:1025C0003BFF016811F8090010F03E0F01D04846AA
:1025D00000E02E2006F8010B641C7F1C102FC3D3D3
:1025E0000D2030700A20707085F800A04099684670
:1025F00041444331409100F05BFB30B100F052FBAD
:1026000018B9002040905C459ED341B02046BDE8FB
:10261000F08F2DE9F043C7B000251C46904689464F
:102620004E9F459500F03EFB00287AD1459805AEB7
:10263000311845AA484600F0CDFC002835D0072FB8
:1026400027D2DFE807F004121B35424F5D004046F9
:10265000FDF708FF054645982918FF2919D8304489
:102660002A464146FDF7ECFE13E045982368C0F585
:10267000807130444246FEF755F909E060680090E9
:1026800045982368C0F5807130444246FEF74AF908
:102690000546294645A8FFF749F8459978B3B1F5AD
:1026A000807F3ED805A800F003FB47B0BDE8F0836B
:1026B000D4E90101CDE9000145982368C0F5807196
:1026C00030444246FEF72EF9E2E7201D07C88DE8A8
:1026D000070045982368C0F5807130444246FEF7F4
:1026E00021F9D5E7201D0FC88DE80F004598236814
:1026F000C0F5807130444246FEF714F9C8E710E097
:1027000004F1080001AD0FC885E80F006068009073
:1027100045982368C0F5807130444246FEF702F9BF
:10272000B6E70020C1E7000000487047132600000C
:102730000120FFF79FBE00002DE9F04F87B0FFF7A3
:102740002FF818B1002007B0BDE8F08F454ED6E94C
:10275000014704EA070006EB8000A146641CC56837
:102760000CE000BFC5F3891000EB9550044404EA67
:10277000070006EB8000A146C568641CA807F1D0DD
:1027800005F003004FF0000B022805D0AA0A01A8AB
:10279000C5F38313002153E004EA070006EB800031
:1027A00004F1010A0AEA0704C268381B80004FEAF4
:1027B0009558001DC5F38913804521D929490C314D
:1027C00038B106EB840400F0FF0CA8EB00000C34D9
:1027D00004E00C46002108F0FF0C0846C0B2CDE929
:1027E0000210CDE9004CD6F81444C5F3C200594696
:1027F000A047404511D108F103080AEB98042AE0EC
:10280000002106EB84000C300090CDE9018103919A
:10281000C5F3C200D6F81444EAE760F38F1509EA5D
:10282000070006EB8000C56016E000BF04EA070C55
:1028300006EB8C0C491CDCF80CC040F804CB641C83
:102840009942F3D3C5F3C2000093D6F8105401ABFC
:102850005946A84700B17460FEF7A2FF80F001005E
:1028600071E7000034030020034AFF239360002334
:102870001360536000F054B8340300202DE9F8438E
:102880000F4F88460446002569462846BE68FEF775
:1028900057FF002812D00B480021406861F38200E6
:1028A000009964F3C50001EA060265F3891007EB9D
:1028B000820268F39F20491CD0600091BDE8F88334
:1028C00034030020FC3200002DE9F843124D884605
:1028D00004460127914669463846AE68FEF730FF48
:1028E000002817D00D480021806861F3820000990C
:1028F00064F3C50001EA060267F3891005EB820262
:1029000068F39F20491CD0600091314005EB8101A4
:10291000C1F80C90BDE8F88334030020FC320000BD
:10292000024A02F5826203C27047000034030020AD
:1029300070B506460020FFF79DFD040008D1FFF7A3
:1029400095FD0546FFF7F0FE32462946FFF78CFF5E
:10295000204670BD10B504A10420FFF78FFF094980
:102960000020888010BD00004E52465F5057525FD5
:102970004D474D543A44454255473A466565640DC6
:102980000A0000005000002010B5044610A10320EA
:10299000FFF774FF1548016841F010010160144A07
:1029A0000020012110709060D06090809070D070F5
:1029B000104A1148FEF714FB002807D10E482146A3
:1029C00000220068BDE81040FEF754BB10BD0000B7
:1029D0004E52465F5057525F4D474D543A494E460E
:1029E0004F3A496E69740D0A0000000010ED00E0D6
:1029F00050000020C12A0000D832000038B5002065
:102A0000FEF794FBF1EE100A20F09F00E1EE100AB1
:102A1000BFF35F8F0E494020C1F880020020FEF70F
:102A200087FB0020FEF782FBFEF7D4FA044620BFA6
:102A3000FEF7D0FA6A462146FEF7C6FA0548009A24
:102A40008168114481600020FEF772FB38BD0000F0
:102A500004E000E05000002070B50446032810D0C8
:102A60000020FEF763FB0B4DA87820B1BDE8704055
:102A70000020FEF75DBB0120A8700020FEF758FB88
:102A80006C70224604A10320FFF71EFFBDE87040D2
:102A900000F024B9500000204E52465F5057525F5C
:102AA0004D474D543A494E464F3A53687574646FDA
:102AB000776E20726571756573742025640D0A0048
:102AC000F8B5FEF787FA124C06466A46E168FEF74B
:102AD0007BFA0098A1686422411A5143B1FBF0F0DF
:102AE000C5B22A460BA10420FFF7EEFE2078A842CB
:102AF00000D225700020C4E90206A088032802D273
:102B0000401CA080F8BD0020FFF7A6FFF8BD000024
:102B1000500000204E52465F5057525F4D474D5473
:102B20003A44454255473A435055205573616765CD
:102B30003A20256425250D0A000000004058002891
:102B400000D00120704708B5002242504058009044
:102B500008BDD0F80403084000D001207047405859
:102B6000002800D00120704708B50022425040588C
:102B7000009008BD0449084490F93000082801DBA2
:102B800001207047002070476C0100200449084470
:102B900090F93000082801D20120704700207047CA
:102BA0006C01002070B5034600791B4901EB401011
:102BB0001968027F4FF0FF30002AD1F80C25D1F8B8
:102BC0001465D1F80855D1F8104504D0C1F80C05AA
:102BD000C1F8140503E0C1F81405C1F80C05196823
:102BE000C1F80805C1F81005501C02D01046FFF7C7
:102BF00074FB701C02D03046FFF76FFB601C02D0E4
:102C00002046FFF76AFB681C04D02846BDE87040E8
:102C1000FFF763BB70BD0000D401002070B5012632
:102C200070044FF0E0210025C1F88001084C4010ED
:102C3000C4F84803C4F8080366602F20FFF738F88B
:102C4000A660044C2F20A560FFF732F8A57070BD78
:102C5000001001402C00002070B50546C87D0C46D0
:102C600000284FF4847128460AD0FFF76CFFD5F88E
:102C70001805627EE1688854607E401C607670BDF5
:102C8000FFF761FFD5F8180570BD1FB501238DF85A
:102C900000308DF808100192D0E900126846904784
:102CA0001FBD00000148FFF797BA00006400002034
:102CB00070B50D460A46014601240648FDF7C0FBE3
:102CC000EAB204490448FFF701FA00B100242046A3
:102CD00070BD0000340200206400002070B51C4C60
:102CE0001CA103206278FFF7EFFD264D2648461B06
:102CF00010E000BF55F82010607888470028E07881
:102D000055F820201ED021A10320FFF7DDFDE0783B
:102D1000401CE070E078B0EB960FEBD3227828A14E
:102D20000320FFF7D1FD31A10220FFF7A7FDFFF738
:102D3000FFFC00BFFFF700FD0028FBD13349012055
:102D4000086070BDBDE8704031A10320FFF7BCBD35
:102D5000500000204E52465F5057525F4D474D5431
:102D60003A494E464F3A53687574646F776E2073D4
:102D70007461727465642E20547970652025640D29
:102D80000A000000D4330000D83300004E52465FE2
:102D90005057525F4D474D543A494E464F3A53793A
:102DA000734F66662068616E646C657220307825AA
:102DB000303858203D3E2072656164790D0A00006C
:102DC0004E52465F5057525F4D474D543A494E461A
:102DD0004F3A4D6178696D756D204350552075737C
:102DE0006167653A20257525250D0A004E52465F1C
:102DF0005057525F4D474D543A5741524E494E47F6
:102E00003A53687574646F776E0D0A0000050040D0
:102E10004E52465F5057525F4D474D543A494E46C9
:102E20004F3A5379734F66662068616E646C6572C1
:102E300020307825303858203D3E20626C6F636B1F
:102E4000696E670D0A0000002DE9F84F204C00253F
:102E50006846D4E901B6FEF785FD8046FEF720FE00
:102E60000746A946B8F1000F25D00023009ACC46AA
:102E7000606819E007680146974202D9BA1A0260F1
:102E800014E0C1F800C0D1F80C80D21BC8693B44E3
:102E90008A46B8F1000F07D0F71827F07F47C1E93D
:102EA0000178CAF81C500D460028E3D1606028461E
:102EB000FEF74AFE04E02846FEF746FE00B917B1C9
:102EC0005846FEF7C9FC84F80390BDE8F88F00006F
:102ED0002C0000200D4B10B5596831B102680C6808
:102EE000A24204D8A21A0A60C161586010BD0B4604
:102EF00003E00B46C969121B21B10C689442F8D358
:102F0000A41A0C600260C161D86110BD2C000020C1
:102F1000F8B5064600240D462046FEF707F9684638
:102F200000F0A0F968B10570084946609DF80000FE
:102F300048700020FEF7FCF81420FDF7F5FB204652
:102F4000F8BD04240020FEF7F3F8F8E73C00002069
:102F50002DE9F0411D4D6C68002C35D01C48002730
:102F60000068A968B846401A20F07F462068B04241
:102F700015D82246361A0744E469107C68B182F8F5
:102F80001080EB6833B1D2E90501984728B1FDF70D
:102F9000C5FF02E0D2E905108847002CE6D1297868
:102FA0006878814206D1401CC0B26870022801D105
:102FB00085F8018005486978183040F82170BDE82F
:102FC000F0411420FDF7B0BBBDE8F0812C000020DB
:102FD0000415014010B5144602004FF001000CD05A
:102FE0000846136806A24FF48071FDF79BFC01466A
:102FF0002046BDE81040FEF799BB0021216010BDBE
:103000005B253038645D000070B50C4605464FF412
:103010008E71FFF798FDA18AA068415CA08A401CD0
:10302000A082C5F81C1570BD1FB500228DF80020C8
:103030008DF80810816801918275D0E90012684608
:1030400090471FBD0078012801D101498870704761
:10305000600000202DE9FF470C4605464FF4007143
:10306000FFF777FD01274FF40178002618B34FF4DE
:10307000927949462846FFF761FDE0B14946284666
:10308000FFF761FDC5F80883A07E00B96F600220DC
:103090008DF80000D5F88004C5F880040390E07D29
:1030A0008DF80800E0680190E6752676D4E90012F4
:1030B0006846904727E004212846FFF74AFD10B3F1
:1030C0004FF484712846FFF739FDE0B121462846C8
:1030D000FFF7C2FDE07D617E884214D1207E38B1C9
:1030E000617EE268E0752069E0602676667607E03A
:1030F000A07E00B96F60C5F80883E675617EE2685E
:103100002046FFF7C2FD4FF48E7841462846FFF770
:1031100015FD88B1A08AA17D884204D221462846A7
:10312000FFF772FF08E041462846FFF70CFDA17D3E
:1031300011B12046FFF778FF4FF4A27841462846A8
:10314000FFF7FCFC002812D041462846FFF7FBFCA5
:10315000A07E00B12F60E07D002808D0E675617E7A
:10316000E26804B02046BDE8F047FFF78EBDBDE839
:10317000FF872DE9FF410C464FF49277054639460B
:10318000FFF7EDFC0026C0B139462846FFF7ECFCFE
:1031900002208DF80000D5F88004C5F88004039063
:1031A000D5F83C058DF80800E0680190E6752676B4
:1031B000D4E900126846904724E04FF488773946F6
:1031C0002846FFF7CCFCE8B139462846FFF7CCFC8F
:1031D000D5F83C05C1B2E07D884213D1207E60B1B4
:1031E000E268D5F8000220F02000C5F80002207E39
:1031F000E0752069E060267601E0E675E268204629
:10320000FFF743FD4FF4A27739462846FFF7A7FCA6
:1032100068B139462846FFF7A7FCE07D38B1E6756E
:10322000D5F83C05E268C1B22046FFF72EFD4FF409
:10323000907631462846FFF792FC00280FD03146A1
:103240002846FFF791FCA07D002808D0D5F84C0552
:1032500004B0C1B22046BDE8F041FFF7E5BEBDE8CD
:10326000FF8100000A4A10B553789478591CC9B2FE
:103270008C4200D1002114788C4201D1002010BD75
:103280000170506803EB430100EBC10010BD00006A
:103290003C0000200D0E0F100B0C1819EC00002044
:1032A0000C010020380100200B000300F512000083
:1032B0000C000300F512000018000300F5120000D6
:1032C00019000300F5120000000000500003005038
:1032D000F40100200300000014020020FFFFFFFFA4
:1032E000FFFFFFFFFFFFFFFFFFFFFFFF00000000EA
:1032F000000000000000D6010701000029000000C6
:1033000001000000010000000100000001000000B9
:1033100001000000010000000100000002000000A8
:1033200000404040404040404040414141414140D8
:10333000404040404040404040404040404040408D
:10334000400502020202020202020202020202021C
:103350000220202020202020202020020202020221
:103360000202909090909090101010101010101079
:103370001010101010101010101010100202020285
:1033800002028888888888880808080808080808C9
:1033900008080808080808080808080802020202C5
:1033A00040000000213300004F766572666C6F7735
:1033B0000D0A0000D8330000000000207400000057
:1033C0004C0900004C34000074000020DC26000092
:1033D0005C090000350F0000000000000000000044
:1033E00000000000000000000000000000000000DD
:1033F00000000000000000000000000000000000CD
:1034000000000000000000000000000000000000BC
:1034100000000000000000000000000000000000AC
:10342000000000000000000000000000000000009C
:10343000000000000000000000000000002000402C
:0C34400000000000A83300000090D00342
:0400000500000401F2
:00000001FF
