:020000040000FA
:10000000C8260020150400001D0400001F04000085
:10001000210400002304000025040000000000006B
:1000200000000000000000000000000027040000A5
:1000300029040000000000002B0400002D04000033
:100040002F0400002F040000D50900002F04000039
:100050002F0400002F040000390500002F040000C9
:100060002F0400002F0400002F0400002F040000C4
:100070002F0400002F0400002F0400002F040000B4
:100080002F040000110700002F0400002F040000BF
:10009000350700002F0400002F0400002F0400008B
:1000A0002F0400002F0400002F0400002F04000084
:1000B0002F0400002F0400000000000000000000DA
:1000C0002F0400002F0400002F0400002F04000064
:1000D0002F0400002F0400002F0400000000000087
:1000E0000000000000000000000000000000000010
:1000F0000000000000000000000000000000000000
:1001000000000000000000000000000000000000EF
:1001100000000000000000000000000000000000DF
:10040000DFF80CD000F066F800480047B11A000091
:10041000C82600200648804706480047FEE7FEE75A
:10042000FEE7FEE7FEE7FEE7FEE7FEE7FEE7FEE7A4
:10043000390700000104000000487047E02E00006A
:1004400040EA01039B0703D009E008C9121F08C056
:10045000042AFAD203E011F8013B00F8013B521ED6
:10046000F9D27047421C10F8011B0029FBD1801AF9
:1004700070472DE9F05F0546002092469B4688466E
:100480000646814640241BE0284641464746224610
:1004900000F041F853465A46C01A914110D3114614
:1004A0001846224600F028F82D1A67EB01084F463F
:1004B00022460120002100F01FF817EB00094E41F1
:1004C000201EA4F10104DFDC484631462A4643469B
:1004D000BDE8F09F064C074D06E0E06840F00103E0
:1004E00094E8070098471034AC42F6D3FFF78CFF2E
:1004F000F02E0000102F0000202A04DB203A00FA22
:1005000002F1002070479140C2F1200320FA03F36A
:10051000194390407047202A04DB203A21FA02F068
:100520000021704721FA02F3D040C2F1200291402D
:1005300008431946704700002DE9F04700268CB0AB
:10054000DFF86091B0464FF4807501243746069677
:10055000284601F023FE38B1D9F80403204203D025
:10056000284601F011FE26432D1D64007F1CADB20C
:10057000082FEDD34FF4BE74204601F00FFE48B1B2
:10058000204601F001FE46F0004606AA01210020A7
:1005900001F0E6FD444D16F0FF0F15D001270024B1
:1005A00037420DD009EB8401D1F81005D1F81015B0
:1005B000C0F3042055F82420C1F3014102B1904753
:1005C0007F00641C082CEBD3002E67DA4FF0FF305D
:1005D000CDE9088000263446281910F8507F90F99C
:1005E000000027F0C008401C44D009A9404601F093
:1005F000E9FA58B34FEA9719404601F06FF855F8F9
:1006000020701FB1B9F1030F03D00FE0B9F1030F50
:1006100030D108A84FEAD80208F00703815C4FF0F8
:10062000010C0CFA03FC41EA0C0181544FF0A0418B
:1006300001EB8800D0F8000706A9C0F3014A404644
:1006400001F0C0FA18B1BAF1020F03D012E0BAF10A
:10065000030F0FD1B9F1030F08D1BAF1020F1BD06C
:100660000221404601F060FD761CF6B217B1494602
:100670004046B847641C042CAED3002E0ED06A4608
:100680000121002001F06CFD06990098884205D0F8
:100690000690089809909DE70321E2E70CB0BDE8B9
:1006A000F0870000006000401801002000F01F02E9
:1006B000012191404009800000F1E020C0F8801243
:1006C000704700F01F02012191404009800000F1B5
:1006D000E020C0F80011704700F01F020121914096
:1006E0004009800000F1E020C0F80012704749077F
:1006F000090E002806DA00F00F0000F1E02080F873
:10070000141D704700F1E02080F8001470470000CD
:1007100007480021C0F84011C0F84411C0F8481142
:10072000C0F84C11C0F80011C0F8041102F0B2B9C1
:100730000010014002F02AB9F0B598480023021DCC
:1007400001780125101D4FF08056062907D1147835
:10075000240704D10478C4F30314032C02D006291F
:1007600004D00FE08F4F8E4C7C670EE01478240786
:1007700008D10478C4F30314032C06D0042C04D04D
:10078000052C02D0062907D00EE0D6F84442864F49
:10079000C4F342343C6002E01478240704D10478A6
:1007A000C4F30314032C02D0062906D011E07F4CB9
:1007B000276827F0807727600EE01478240708D197
:1007C0000478C4F30314032C06D0042C04D0052CA5
:1007D00002D006290AD011E04FF08044C4F80C3151
:1007E000C4F81031704C241F236002E014782407F1
:1007F00004D10478C4F30314032C02D0062905D0D5
:100800000CE0694F032464373C600AE01478240745
:1008100004D10478C4F30314032C02D006290DD0AC
:1008200014E0634F05243C60614C78342560604CD3
:10083000083423603F243F1D3C6002E01478240705
:1008400004D10478C4F30314052C02D0062957D030
:1008500068E058490968584A11605649091D0968F5
:10086000121D1160534908310968121D1160514968
:100870000C310968121D11604E4910310968121DB2
:1008800011604C4914310968121D11604949183131
:100890000968494A2032116046491C310968121D15
:1008A0001160444920310968121D11604149243109
:1008B0000968121D11603F4928310968121D116035
:1008C0003C492C310968121D11603A4930310968E0
:1008D000394A40321160374934310968121D1160BC
:1008E000344938310968121D116032493C310968B8
:1008F000121D11602F4940310968121D116002E07C
:10090000117809070ED10078C0F30310032803D033
:10091000042801D0052805D1D6F85802274900F04F
:100920004F00086021487438016841F4700101608B
:10093000BFF34F8FBFF36F8F4FF01021D1F800023C
:10094000002803DBD1F80402002822DA1C4A1560D3
:100950001C480468002CFCD01524C1F8004205682E
:10096000002DFCD0C1F8044201680029FCD01360BE
:1009700001680029FCD0BFF34F8F0C48F0380168A4
:10098000114A01F4E06111430160BFF34F8F00BFD2
:10099000FDE70F490D480860F0BD0000E00F00F0D2
:1009A0000DF0ADBA00C007403C050040FCED00E092
:1009B000105600400404001020C50040E40E004022
:1009C00004E5014000E401400400FA050090D00372
:1009D000600000200448017F04480029024901D03A
:1009E00002F069B902F0D8B8700100200020004080
:1009F0000FB41CB50A46521ECDE9000207A9054BEB
:100A00006A46069800F018F8009A002111701CBC84
:100A10005DF814FB9B0E000002E008C8121F08C11D
:100A2000002AFAD170477047002001E001C1121F6F
:100A3000002AFBD1704700002DE9FF4F8DB00F4613
:100A40000546002606E025280BD0DDE90F12904769
:100A50006D1C761C28780028F5D111B03046BDE811
:100A6000F08F0024A246A1460122EC4900E0044395
:100A700015F8013F203B02FA03F00842F7D128782D
:100A80002A2810D06FF02F022878A0F13001092910
:100A900014D80AEB8A0102EB410144F0020400EB96
:100AA000010A6D1CF0E701CF5FEA000A03D544F4A8
:100AB0000054CAF1000A44F002046D1C28782E2864
:100AC00017D115F8010F44F004042A280ED06FF056
:100AD0002F022878A0F1300109290AD809EB8901F1
:100AE00002EB410100EB01096D1CF2E757F8049B92
:100AF0006D1C28786C280FD006DC4C2817D068288D
:100B00000DD06A2814D104E0742810D07A280FD1AF
:100B10000DE044F400140AE044F4801401E044F4CD
:100B200040146978814202D104F580146D1C6D1C5B
:100B30002A786E2A1FD00CDC632A31D004DC002A0C
:100B40008BD0582A11D1A3E0642A68D0692A0CD12D
:100B500065E0732A2ED004DC6F2A73D0702A04D18A
:100B60009BE0752A6FD0782A6ED01046DDE90F120F
:100B70009047761C50E1C4F30250022806D00328A7
:100B800009D0042801CF09D0066045E101CFF11753
:100B9000C0E9006140E101CF06803DE106703BE124
:100BA00017F8040B8DF8000000208DF80100EB46CB
:100BB000012003E057F804BB4FF0FF3061074FF00E
:100BC000000102D40DE008F10101884649450FDA21
:100BD0008045F8DB1BF808100029F4D108E008F183
:100BE000010188468142FADB1BF808100029F6D182
:100BF000DDE90F23AAEB08008146214600F036F913
:100C0000304400EB080604E0DDE90F121BF8010B8D
:100C10009047B8F10108F7D221464846F7E00A218B
:100C2000C4F302534FF0000B0891022B04D001CF04
:100C3000C117032B09D00AE0FF1D27F00707F7E8CB
:100C4000020108E032E01FE020E000B2C117042BEF
:100C500001D140B2C117031E71F1000307DA4FF052
:100C6000000CD0EB0C006CEB01012D2302E02305FE
:100C700004D52B238DF82430012303E0E30701D0B2
:100C80002023F7E7984658E00A2110E010210EE0F3
:100C900010204FF0000B08900CE010214FF0000BDB
:100CA00044F004044FF00809089103E008214FF0D4
:100CB000000B0891C4F30253022B04D001CF002192
:100CC000032B06D006E0FF1D27F00707F7E8020117
:100CD00003E080B2042B00D1C0B24FF0000823071C
:100CE0002BD5702A07D0DDF820C08CF0100C5CEA00
:100CF0000B0C05D00EE040238DF82430012308E0D2
:100D000050EA010306D030238DF824308DF82520D9
:100D100002239846DDF820C08CF0080C5CEA0B0C2E
:100D20000BD150EA010301D1630706D530238DF8BA
:100D300024304FF00108A9F10109582A04D038A243
:100D40000B9208AA0A920BE03AA2F9E75B46089ACE
:100D5000FFF78FFB0B9B9B5C0A9A521E0A92137043
:100D600050EA0102F2D10A98ADEB000000F1200B2D
:100D7000600702D524F4803401E04FF00109D94521
:100D800002DDA9EB0B0000E0002000EB0B01414469
:100D90000890AAEB010AE00306D4DDE90F232146FF
:100DA000504600F063F806444FF0000908E009A936
:100DB00011F80900DDE90F12904709F10109761CCD
:100DC000C145F4DBE0030CD5DDE90F232146504695
:100DD00000F04CF8064404E0DDE90F1230209047A3
:100DE000761C0899481E08900029F5DC08E00A984E
:100DF0000A990078491C0A91DDE90F129047761C88
:100E0000BBF10001ABF1010BF1DC21465046DDE9FD
:100E10000F2300F019F806446D1C1BE60928010099
:100E20003031323334353637383961626364656660
:100E30000000000030313233343536373839414222
:100E400043444546000000002DE9F04104460025DA
:100E50001E461746880404D405E039462020B047D2
:100E60006D1C641EF9D52846BDE8F0812DE9F041DE
:100E7000044600251E469046C80301D5302700E0F1
:100E80002027880404D505E041463846B0476D1C4C
:100E9000641EF9D52846BDE8F0814A68002A06D0CC
:100EA0000A68531C0B6010704868401E4860704709
:100EB000022000F099B9000070B50024064D06E04C
:100EC0006868012110F8340000F0F4FE641C2878F2
:100ED0008442F5D3002070BD18000020F8B51546F7
:100EE0000C460646052A01D20720F8BD00F0C8FFCF
:100EF00018B900F097FF0028F7D1104900204E6084
:100F00000C70C1E902500E4D08610DE006EBC40003
:100F10006968009181788DF801100078094A694666
:100F200000F01AFF0028E0D1641EE4B2EED2BDE862
:100F3000F840054A0021024800F04AB81800002095
:100F4000102E00006D180000CD1700000DA101202B
:100F500001F034FB01F08CFA01F08EFA0028FBD18D
:100F60000CA1032001F02AFBBFF34F8F104801684A
:100F7000104A01F4E06111430160BFF34F8F00BFDD
:100F8000FDE700003A4552524F523A466174616C97
:100F90000D0A00003A494E464F3A48697420776579
:100FA000616B2068616E646C65720D0A0000000060
:100FB0000CED00E00400FA050EB500210091CDE92A
:100FC00001106A4644F20100FFF7C0FF0EBD0000A9
:100FD000074B5B6823B12AB120B10068037C1BB1C9
:100FE0000820704707207047417442610020704715
:100FF0003C0000202DE9F0470746984614468946F4
:1010000090074FF0000526D12CB301F04DFC134E94
:1010100006F11000C6F80C800570457080F802904B
:1010200044607560357075701420FFF73FFB072131
:101030001420FFF75CFB1420FFF743FB0848076010
:1010400007211120FFF753FB0548001F0068B0601F
:101050000020BDE8F0870720FBE700002C000020FF
:10106000081501402DE9F843DFF87090D9F80430F5
:101070005BB350B3052902D20720BDE8F88343696A
:101080001BB3437C012B22D0002704460025884651
:101090001646284600F036F8684601F085FEC0B1D5
:1010A000012101700E4944600968C0E90218C0E9D5
:1010B00004769DF8000089F80100002000F024F873
:1010C0001420FFF709FB2846D7E70820D5E70F468D
:1010D000DBE70425002000F017F8F4E73C000020CF
:1010E000041501400649496839B130B1416921B15F
:1010F00000210174022101F0ADBC082070470000FE
:101100003C00002000F002B800F008B872B60248B7
:101110000168491C016070474C00002003490868C1
:10112000401E086000D162B6704700004C000020ED
:101130002DE9F041064608680C46411C4FF0A047D7
:101140004FF0010506D005FA00F1C7F80815206830
:1011500000F0E0FF6068411C02D0002100F0D1FFE8
:101160003079204901EB4010A169007F00283068E8
:10117000C0F8241525D0607D227D31681043C1F868
:101180006C05D4E900123068C0F80C15C0F81425BD
:1011900024E0A068411C02D0002100F0B2FFE0680A
:1011A000411C05D08540C7F80855E06800F0B2FF43
:1011B000D4E902123068C0F80825C0F81015BDE85F
:1011C000F081607D217D32680843C2F86C05D4E966
:1011D00000123068C0F81425C0F80C15207D0128D5
:1011E000D7D0ECE77001002007490B5C4FF0A0411D
:1011F000D1F804250120984020EA0203C1F80835FF
:101200001040C1F80C057047D82D00000249085C59
:10121000012100F09ABF0000D82D00000249085CAF
:10122000002100F092BF0000D82D00000649095CA3
:101230004FF0A040D0F80405C84010F0010000D0E5
:10124000012080F001007047D82D00007CB50024FB
:10125000084E25460122305D009500231146019578
:1012600000F010FF641C042CF4D3BDE87C4000F0B7
:1012700003B80000D82D000010B500242046FFF769
:10128000C5FF641C042CF9D310BD10B50024204602
:10129000FFF7C4FF641C042CF9D310BD10B502463F
:1012A000064B4FF0FF3000215C5C944201D10846B0
:1012B00010BD491C0429F7D310BD0000DC2D00002F
:1012C0002DE9F0470D468146FFF7E8FF0446042864
:1012D00038D2DFF878801C481D4EA8F1100735B3CE
:1012E000012D0ED0022D2DD104EB44003044457861
:1012F000002D27D0F968002924D02846BDE8F04702
:10130000084704EB4401755C0E44717859B1796863
:101310000E4A01EB810149000E3A8068FFF7A2FEF8
:1013200008B987F80290B17808F80410E0E78068FF
:10133000FFF7D8FE04EB4401314418F804008D781F
:10134000A842D5D0BDE8F087E02D000014000020B1
:10135000EC00002070B50023042810D20D4D00EBE6
:101360004004012A02D101290CD00022094E00EBD1
:101370004000304461B1012906D0022906D007237C
:10138000184670BD0E30C2B22A55F9E74270F7E731
:101390008270F5E7EC000020044A01460020127A32
:1013A000D20702D0084600F04FB870470400002072
:1013B0002DE9F04106461F4800240F464160C0E970
:1013C0000262B0071FD50025012211462846FFF70B
:1013D000C1FF6D1C0446042D02D2002CF4D012E093
:1013E0008CB97A0804211448FFF778FD04000AD16B
:1013F000FFF762FD040006D10F48104A0021001FCC
:10140000FFF7E6FD0446F00701D0FFF71FFF74B9B0
:1014100009480B4A00210C38FFF7DAFD040006D119
:101420000548084A01210838FFF7D2FD0446204646
:10143000BDE8F08104000020EC2D000045160000FE
:101440003D190000B10E00002DE9F047594C05464A
:101450000026607818B100206070FFF70DFF0120B2
:10146000554F4FF47A694FF4C87A4FF06408182D3D
:101470002CD2DFE805F0890C0C2C3A4751565A6102
:101480005A619B6969696969898C8F929B9B00206D
:10149000FFF7CCFE00284FF0000008D0FFF7B6FEA3
:1014A000022D02D14FF4E16006E0484604E0FFF768
:1014B000B5FE022D2ED05046B0FBF8F125706068C5
:1014C000414300223868FFF7CDFD064659E0002071
:1014D000FFF7ACFE28B10020FFF798FE4FF44870EC
:1014E000EAE70020FFF79AFE14E00020FFF79EFED7
:1014F00000284FF0000002D0FFF788FED5E7FFF785
:101500008DFED8E70020FFF791FE0028E9D00020EB
:10151000FFF77CFEC820CFE70020FFF765FE2570AF
:1015200007E000203FE025702BE060700120FFF70E
:101530005BFE00226168C5E760700120FFF754FE82
:10154000606800EB8001BCE77868FFF7CBFD0646DA
:10155000D5F1110000D01EB10220FFF757FE10E0B8
:1015600001280BD9C82110FB01F1B1FBF8F160682B
:10157000002241437868FFF775FD06460220FFF719
:101580004DFE3046BDE8F087FFF776FECBE7FFF76C
:1015900073FEC6E7FFF770FE04E0FFF76DFE002064
:1015A000FFF73CFE0120FFF739FEBCE7FFF76DFEB9
:1015B000B9E7000004000020E02D0000002901DA56
:1015C000002070470268114401600120704700004C
:1015D00070B5461C0D4601240020FFF793FD114A0B
:1015E00010682860D2E900109568081A2B1A701C40
:1015F0005B1C98420FD963B10B480C4B2940006823
:101600001B6802EB810163F39F20C8601068401CD7
:101610001060002401E0881910600020FFF774FDBD
:10162000204670BDB0020020382E00005C00002073
:10163000034803C8814201D1012070470020704750
:10164000B002002000780221FFF73ABE70B50446D0
:10165000000E01F089F90506200C01F085F945EA34
:101660000045200A01F080F945EA0025204601F0F6
:101670007BF9284370BD000005494FF0FF32082870
:1016800041F8202002D3084480F848207047000029
:1016900018010020F0B54FF0FF3512B100230826E5
:1016A00001E008230C260C4C05E000BF54F8237021
:1016B0007F1C04D05B1CB342F8D32846F0BD26182B
:1016C0005DB286F8305044F82310002AF5D1E118B5
:1016D00081F84800F1E700001801002002490844A1
:1016E00090F9300070470000180100204FF0804052
:1016F0000022C0F800210121C0F80010D0F800310C
:10170000002BFBD0054B1960C0F80421C0F808106D
:10171000D0F804110029FBD07047000018050040E4
:101720002DE9F05F26484168F1B3DFF898B00E6804
:101730008146DBF8004087688078E11B21F07F4517
:10174000ED1CB0B9DFF880804FF48030C8F8440356
:10175000C8F804031120FEF7A9FF1120FEF7B1FF1E
:101760004FF0010AC8F800A02F2000F033FA89F8E2
:1017700002A0B54200D23546124BE8193C3320F0A6
:101780007F401860DBF800105A46091B21F07F41AA
:10179000001B20F07F40C91C81420FD910681860DF
:1017A0002F2000F017FA00E004E0BDE8F05F112000
:1017B000FEF792BFBDE8F05F01F076B8BDE8F09F9C
:1017C0002C00002004150140001001402DE9F041DB
:1017D00000260125144C22E06068226900EBC60750
:1017E000387805FA00F1114217D08A43226100F0DF
:1017F0000FFB02463878E36805FA00F1194002FA57
:1018000000F3994209D17978012901D0012100E042
:10181000002151407A6802B19047761CF6B22078D8
:101820008642D9D3BDE8F081180000200E4910B5DA
:101830000A784C780023A24212D0521CD2B20A700D
:10184000022A00D10B70084A0B78183252F8232074
:1018500002608868104420F07F408860012010BD3D
:101860000360002010BD00002C0000202DE9F04195
:10187000124E07460125BD403068FFF733FC0028B3
:101880000DD10F4C2069284207D1384600F0C0FA2C
:101890000028E06805D0284304E0A8432061BDE8A3
:1018A000F081A843E060206928432061A168306886
:1018B000BDE8F0410022FFF7D5BB0000102E00006C
:1018C0001800002070B50E460446007918494FF400
:1018D000A27501EB4010017F2068A1B14FF488711F
:1018E00000F0EEFE4FF49071206800F0E9FE4FF436
:1018F0009271206800F0E4FE2946206800F0E0FEC6
:101900000C49206809E04FF48E7100F0C8FE2946AA
:10191000206800F0C4FE08492068C0F8041320685D
:1019200000F0C5F93146BDE8704000F0A4B90000F0
:101930007001002010030200800002000348017AB9
:10194000C90702D00078FFF77FBD70470400002070
:101950002DE9F043264CA4F110092278D9F804802F
:1019600099F80350404694F801C0D9F8086031E076
:1019700002EB42036168521C01EBC301A378D2B2AF
:10198000934200D100220B78022B02D0032B21D1ED
:101990001DE003464F68194603E0B94203D00B46E9
:1019A000C969B9B1F9E7A9B18B4205D1C06918B9C4
:1019B000104E0125B56000260F68C969D96149B18B
:1019C0000B683B440B6005E00174C06900E0002136
:1019D0000028F9D19445CBD1C9E9010689F8035013
:1019E000404502D00120BDE8F0830020FBE7000065
:1019F0003C000020001001402DE9F0412A4F044630
:101A0000002607F11005D7F804803EE002D02046FA
:101A1000E4691DE02878696800EB4002401CC0B210
:101A200001EBC2012870AA78904200D12E700A788A
:101A30004868012A2BD1027C4ABB8A684260CA6886
:101A400082600A69C26049698161F97801B14660C2
:101A50004368BA68DFF854C0991A21F07F416145A4
:101A600002D28268114406E0D11A826821F07F41D7
:101A70008A4202D9511A016000E0066046600121E5
:101A800086600174C66100F0C7FF002CBED12878C3
:101A900069788842BED17968414502D00120BDE80D
:101AA000F0810020FBE700002C000020FFFF7F00FA
:101AB000FFF71CFE0023234A03211846FFF79AFA7A
:101AC00008B1FFF779FA002000F0D2FD08B1FFF766
:101AD00073FA002240F6CD410120FFF769FC08B1FE
:101AE000FFF76AFA00F046FE18491748086012200E
:101AF000FFF752FC044616A1032000F05FFD200012
:101B000001D0FFF759FA00F0B7FC0028FBD100BF65
:101B100000F0A0FE05460A20FFF73EFC044615A192
:101B2000032000F04BFD200001D0FFF745FA2A46C4
:101B300018A1032000F068FD00F09EFC0028FBD1F6
:101B4000E6E70000640000200000002004150040CB
:101B50004150503A494E464F3A5761697420666F7A
:101B600072206669727374207061636B65740D0A0C
:101B7000000000004150503A494E464F3A506163D0
:101B80006B6574207761732072656365697665643F
:101B90000D0A00004150503A494E464F3A5468658C
:101BA00020636F6E74656E7473206F662074686551
:101BB000207061636B6167652069732025750D0A6C
:101BC00000000000C20800F007030120895C984073
:101BD0000840704700283ED01F49204A096800BFCE
:101BE00000BF00BF00BF00BF00BF00BF00BF9142E9
:101BF0002FD000BF00BF00BF00BF00BF00BF00BFAD
:101C000000BF00BF00BF00BF00BF00BF00BF00BFDC
:101C100000BF00BF00BF00BF00BF00BF00BF00BFCC
:101C200000BF00BF00BF00BF00BF00BF00BF00BFBC
:101C300000BF00BF00BF00BF00BF00BF00BF00BFAC
:101C400000BF00BF00BF00BF00BF00BF00BF00BF9C
:101C500000BF401EC3D17047600000200024F40084
:101C600000F01F02012191404009800000F1E020B6
:101C7000C0F8801170474907090E002806DA00F005
:101C80000F0202F1E02282F8141D03E000F1E022CD
:101C900082F8001400F01F020121914040098000E9
:101CA00000F1E020C0F88012C0F800117047000B6E
:101CB00040B270472DE9F0418846054600F006FD28
:101CC000234E002828461AD0FFF708FD304490F82C
:101CD00048008009032802D001280ED007E04FF009
:101CE000A040D0F81005E84010F0010F05D0032106
:101CF0002846BDE8F04100F017BA0221F8E700F0ED
:101D0000F1FC002822D02846FFF7E8FC04464FF4F7
:101D1000807000EB84000F4F81B207EB8400D0F895
:101D2000102542F00102C0F81025084600F02CFAF8
:101D3000B8F1000F0AD02846FFF7D0FC56F8200073
:101D4000002803D00120A040C7F80403BDE8F081BB
:101D500018010020006000402DE9FC41DFF8A4805C
:101D6000044608EB0400002790F930001346C01722
:101D70000E46401C01D0082741E0F2781946204663
:101D8000FFF788FC0546401C38D0B07850B14FF0C2
:101D9000A04000EB8400D0F8001721F00201C0F849
:101DA000001707E000217378204600910A46019150
:101DB00000F07AF9F078C0B11348317800EB850073
:101DC000D0F81025114B1A40C0F810254FF4F852E6
:101DD0004FF4403302EA042203EA01410A43D0F8F7
:101DE00010150A43C0F8102509E008EB0500327809
:101DF00010F8481F41EA8211017000E004273846BC
:101E0000BDE8FC811801002000600040FFE0FCFFFD
:101E10004FF0A041D1F81015C14011F0010000D0E1
:101E20000120704770B5144D95F8540008B1082092
:101E300070BD0020411E2A18401CC0B282F830102C
:101E40002028F8D300242046FFF716FC641CE4B2D7
:101E50000C2CF8D307210620FFF70DFF4FF4BE70BE
:101E600000F092F905494FF00040C1F80403012049
:101E700085F85400002070BD18010020006000406B
:101E8000034890F85400002800D00120704700005B
:101E9000180100200121B1EB507F01D101207047D2
:101EA000002070472DE9F04105460079164F904615
:101EB00007EB40140E46E07E10B10820BDE8F0812B
:101EC000707F20772846FFF733F95FEA08006060EB
:101ED0003169216003D0317F2846FFF7F3FC287970
:101EE00007EB4010007F0028286801D0082100E09F
:101EF0000421C0F800150020E0752076A0750121AE
:101F0000E176A076DAE70000700100202DE9F047C5
:101F1000054600793F4E904606EB40140F46207F61
:101F200018B10846FFF7B6FF30B1284600F074F844
:101F300020B11120BDE8F0871020FBE784F816805F
:101F4000A7600027A78228794FF0010806EB40140C
:101F50003E46207F0028286825D04FF490794946D6
:101F600000F0AEFB4FF4AC7A5146286800F0A8FBB5
:101F70002868A17DA268C0F84425C0F848152868E3
:101F8000C0F808806068F0B94946286800F093FB03
:101F900080465146286800F08EFB58EA0001F3D0D5
:101FA00058BBA7750FE04FF48E7A514600F077FBCF
:101FB0002868C0F808802146286800F0C7FD6168DD
:101FC0004FF4807089B13046B4E75146286800F07C
:101FD00061FB10B9A08A4845F7D1A08A484505D0D1
:101FE0002146286800F0B2FD00E08146A08AA17D6C
:101FF0008842EAD3A08A484501D10F26D1E751464D
:10200000286800F047FB0028F9D02868C0F80C8049
:10201000C7E70000700100200079044901EB40107F
:10202000807D002800D00120704700007001002052
:1020300070B5044600791149002601EB401520686F
:102040002A7FC0F80065686888B1207901EB4010EC
:10205000007F0028206801D0094901E008498C3937
:10206000C0F808132068FFF722FEFFF7F9FD2046AD
:1020700000F044FBEE766E6070BD00007001002041
:102080001003020070B541EA4201DDE904564FF049
:10209000A04441EA830141EA052104EB800041EAC2
:1020A0000641C0F8001770BD70B541EA4201DDE994
:1020B00004564FF0A04441EA830141EA052104EBB4
:1020C000800041EA0641C0F8001770BD70B541EAD2
:1020D0004201DDE904564FF0A04441EA830141EAA0
:1020E000052104EB800041EA0641C0F8001770BDED
:1020F0001CB5002100910B4601220191FFF7E6FF7C
:102100001CBD1CB500220B46009211460192FFF740
:10211000DDFF1CBD1CB5002100910B460122019181
:102120001146FFF7D3FF1CBD4FF0A04202EB800029
:10213000D0F8002722F44032C0F80027D0F800275A
:1021400042EA0141C0F80017704701224FF0A04356
:10215000824011B1C3F808257047C3F80C257047B9
:1021600018B5084B6C4601441B68009306E000BF9D
:1021700054F82030D3F81035401C08C28142F7D8FB
:1021800018BD00000C2E0000034908B508440021CA
:1021900001600068009008BD00600040024940589E
:1021A000012800D0002070470060004000487047C0
:1021B0002522000030B5184C054689B0207828B19A
:1021C0006078854202D1002009B030BD2022134939
:1021D0006846FEF735F900208DF8140006200090BF
:1021E0000820019005200390072002904FF0EB702B
:1021F00006900948001DFFF71BFF0DB1002200E00B
:10220000074A05486946001DFFF74CFE0028DBD150
:10221000012020706570D6E750000020182E0000C5
:10222000892B00002DE9F04FC1B00D004FF00001E7
:1022300040914D984B991C46174601EB000B01D07D
:102240000A2000E00020804600F072FB00287CD1CC
:102250006E46BCB9409840AA3118284600F05CFC94
:10226000002872D03846FEF7FDF8C22800D9C220F7
:10227000054640982A4630443946FEF7E1F8409832
:10228000284440904FF0200A409901EB0802313277
:102290000DEB01050DEB0206002002E005F801AB95
:1022A000401C4045FAD300275C4508D305F801AB34
:1022B00005F801AB05F801AB06F801AB2DE04B9832
:1022C000844202D24A98005D02E0211A4C98405C98
:1022D0002B46814602460121880022FA00F000F0D8
:1022E0000F00092801D9373000E03030C1F1010C6E
:1022F000491E03F80C00EFD29D1C05F801ABFEF758
:102300009BF8016811F8090010F03E0F01D0484613
:1023100000E02E2006F8010B641C7F1C102FC3D395
:102320000D2030700A20707085F800A04099684632
:1023300041444331409100F001FB30B100F0F8FA24
:1023400018B9002040905C459ED341B02046BDE8BE
:10235000F08F2DE9F043C7B000251C469046894612
:102360004E9F459500F0E4FA00287AD1459805AED5
:10237000311845AA484600F0CFFB002835D0072F7A
:1023800027D2DFE807F004121B35424F5D004046BC
:10239000FEF768F8054645982918FF2919D83044F2
:1023A0002A464146FEF74CF813E045982368C0F5ED
:1023B000807130444246FEF71BFB09E060680090E4
:1023C00045982368C0F5807130444246FEF710FB03
:1023D0000546294645A8FFF7F1F8459978B3B1F5C8
:1023E000807F3ED805A800F0A9FA47B0BDE8F08389
:1023F000D4E90101CDE9000145982368C0F5807159
:1024000030444246FEF7F4FAE2E7201D07C88DE8A3
:10241000070045982368C0F5807130444246FEF7B6
:10242000E7FAD5E7201D0FC88DE80F00459823680F
:10243000C0F5807130444246FEF7DAFAC8E710E092
:1024400004F1080001AD0FC885E80F006068009036
:1024500045982368C0F5807130444246FEF7C8FABB
:10246000B6E70020C1E70000004870475323000092
:102470000120FFF79FBE00002DE9F04F87B0FFF766
:10248000D7F818B1002007B0BDE8F08F454ED6E967
:10249000014704EA070006EB8000A146641CC568FA
:1024A0000CE000BFC5F3891000EB9550044404EA2A
:1024B000070006EB8000A146C568641CA807F1D0A0
:1024C00005F003004FF0000B022805D0AA0A01A86E
:1024D000C5F38313002153E004EA070006EB8000F4
:1024E00004F1010A0AEA0704C268381B80004FEAB7
:1024F0009558001DC5F38913804521D929490C3110
:1025000038B106EB840400F0FF0CA8EB00000C349B
:1025100004E00C46002108F0FF0C0846C0B2CDE9EB
:102520000210CDE9004CD6F81444C5F3C200594658
:10253000A047404511D108F103080AEB98042AE0AE
:10254000002106EB84000C300090CDE9018103915D
:10255000C5F3C200D6F81444EAE760F38F1509EA20
:10256000070006EB8000C56016E000BF04EA070C18
:1025700006EB8C0C491CDCF80CC040F804CB641C46
:102580009942F3D3C5F3C2000093D6F8105401ABBF
:102590005946A84700B17460FFF74AF880F001007F
:1025A00071E70000B0020020034AFF23936000237C
:1025B0001360536000F054B8B00200202DE9F843D6
:1025C0000F4F88460446002569462846BE68FEF738
:1025D000FFFF002812D00B480021406861F3820001
:1025E000009964F3C50001EA060265F3891007EB60
:1025F000820268F39F20491CD0600091BDE8F883F7
:10260000B0020020382E00002DE9F843124D884614
:1026100004460127914669463846AE68FEF7D8FF62
:10262000002817D00D480021806861F382000099CE
:1026300064F3C50001EA060267F3891005EB820224
:1026400068F39F20491CD0600091314005EB810167
:10265000C1F80C90BDE8F883B0020020382E0000CD
:10266000024A02F5826203C270470000B0020020F5
:1026700070B506460020FFF79DFD040008D1FFF766
:1026800095FD0546FFF7F0FE32462946FFF78CFF21
:10269000204670BD4058002800D00120704708B582
:1026A000002242504058009008BDD0F80403084072
:1026B00000D0012070474058002800D0012070470A
:1026C00008B5002242504058009008BD0449084413
:1026D00090F93000082801DB012070470020704786
:1026E000180100200449084490F93000082801D25C
:1026F00001207047002070471801002070B5034684
:1027000000791B4901EB40101968027F4FF0FF3040
:10271000002AD1F80C25D1F81465D1F80855D1F864
:10272000104504D0C1F80C05C1F8140503E0C1F848
:102730001405C1F80C051968C1F80805C1F81005A1
:10274000501C02D01046FFF7D3FC701C02D030465C
:10275000FFF7CEFC601C02D02046FFF7C9FC681CC6
:1027600004D02846BDE87040FFF7C2BC70BD000031
:102770007001002070B53248002404603049072001
:10278000091F08602E48001D0460C32000F0ECF80B
:102790000506C22000F0E8F845EA0045C12000F037
:1027A000E3F845EA0025C02000F0DEF805432448A0
:1027B00018300560C72000F0D7F80506C62000F0E5
:1027C000D3F845EA0045C42000F0CEF805431C4884
:1027D0001C3005601B48FEF739FF194910310860AD
:1027E0001948FEF733FF16491431086014482030A9
:1027F0000460134901202431086011480830046046
:102800000F4912480C3108600D4802212830016040
:102810000168021D01F0030309493031022B0AD07F
:10282000006800F00300012804D1FF20086040F296
:102830000710106070BD4FF6FF7008600448F8E79D
:102840000C15004067452301EFCDAB890101040160
:1028500021100100114910B500200246C1F8000105
:1028600001234B60D1F80041002CFBD0C1F80C21B2
:10287000C1F80830D1F80C41002CFBD0084C24687A
:10288000012C01D107480068C1F81021C1F81030AF
:10289000D1F81021002AFBD010BD0000001000402C
:1028A000001400400000002070B5012670044FF0B5
:1028B000E0210025C1F88001084C4010C4F848030D
:1028C000C4F8080366602F20FFF784F9A660044C63
:1028D0002F20A560FFF77EF9A57070BD00100140A4
:1028E0002C00002070B50546C87D0C4600284FF42A
:1028F000847128460AD0FFF7D2FED5F81805627E0B
:10290000E1688854607E401C607670BDFFF7C7FEAA
:10291000D5F8180570BD1FB501238DF800308DF86E
:1029200008100192D0E90012684690471FBD0000D0
:102930000148FFF771BB00005400002070B50D4640
:102940000A46014601240648FDF77AFDEAB2044929
:102950000448FFF7DBFA00B10024204670BD0000F8
:10296000B001002054000020014610B50020CBB279
:102970004FEA000123FA01F202F00102C1F107045B
:10298000A2401043491C0829F4D310BD2DE9F84F8B
:10299000204C00256846D4E901B6FEF747FF804683
:1029A000FEF7D6FF0746A946B8F1000F25D0002351
:1029B000009ACC46606819E007680146974202D940
:1029C000BA1A026014E0C1F800C0D1F80C80D21B22
:1029D000C8693B448A46B8F1000F07D0F71827F0C2
:1029E0007F47C1E90178CAF81C500D460028E3D1A1
:1029F00060602846FFF700F804E02846FEF7FCFF79
:102A000000B917B15846FEF78BFE84F80390BDE875
:102A1000F88F00002C0000200D4B10B5596831B123
:102A200002680C68A24204D8A21A0A60C161586008
:102A300010BD0B4603E00B46C969121B21B10C689F
:102A40009442F8D3A41A0C600260C161D86110BD31
:102A50002C000020F8B5064600240D462046FEF75F
:102A600051FB684600F0A0F968B10570084946605E
:102A70009DF8000048700020FEF746FB1420FDF78B
:102A80002BFE2046F8BD04240020FEF73DFBF8E7AE
:102A90003C0000202DE9F0411D4D6C68002C35D024
:102AA0001C4800270068A968B846401A20F07F46F5
:102AB0002068B04215D82246361A0744E469107CD3
:102AC00068B182F81080EB6833B1D2E9050198470C
:102AD00028B1FEF771FA02E0D2E905108847002C10
:102AE000E6D129786878814206D1401CC0B268706E
:102AF000022801D185F8018005486978183040F82E
:102B00002170BDE8F0411420FDF7E6BDBDE8F0817D
:102B10002C0000200415014010B5144602004FF0AF
:102B200001000CD00846136806A24FF48071FDF72F
:102B30005FFF01462046BDE81040FEF73FBD002183
:102B4000216010BD5B253038645D000070B50C4617
:102B500005464FF48E71FFF7A2FDA18AA068415C83
:102B6000A08A401CA082C5F81C1570BD1FB50022AC
:102B70008DF800208DF80810816801918275D0E9E8
:102B80000012684690471FBD0078012801D1014915
:102B900088707047500000202DE9FF470C4605461D
:102BA0004FF40071FFF781FD01274FF401780026F3
:102BB00018B34FF4927949462846FFF76BFDE0B110
:102BC00049462846FFF76BFDC5F80883A07E00B98B
:102BD0006F6002208DF80000D5F88004C5F88004ED
:102BE0000390E07D8DF80800E0680190E675267698
:102BF000D4E900126846904727E004212846FFF7F1
:102C000054FD10B34FF484712846FFF743FDE0B143
:102C100021462846FFF766FEE07D617E884214D19A
:102C2000207E38B1617EE268E0752069E06026763A
:102C3000667607E0A07E00B96F60C5F80883E67588
:102C4000617EE2682046FFF766FE4FF48E784146CB
:102C50002846FFF71FFD88B1A08AA17D884204D2D3
:102C600021462846FFF772FF08E041462846FFF755
:102C700016FDA17D11B12046FFF778FF4FF4A27831
:102C800041462846FFF706FD002812D04146284657
:102C9000FFF705FDA07E00B12F60E07D002808D081
:102CA000E675617EE26804B02046BDE8F047FFF7B4
:102CB00032BEBDE8FF872DE9FF410C464FF4927705
:102CC00005463946FFF7F7FC0026C0B139462846CD
:102CD000FFF7F6FC02208DF80000D5F88004C5F857
:102CE00080040390D5F83C058DF80800E068019059
:102CF000E6752676D4E900126846904724E04FF442
:102D0000887739462846FFF7D6FCE8B13946284689
:102D1000FFF7D6FCD5F83C05C1B2E07D884213D15F
:102D2000207E60B1E268D5F8000220F02000C5F8EE
:102D30000002207EE0752069E060267601E0E675FD
:102D4000E2682046FFF7E7FD4FF4A27739462846B0
:102D5000FFF7B1FC68B139462846FFF7B1FCE07DCA
:102D600038B1E675D5F83C05E268C1B22046FFF7F8
:102D7000D2FD4FF4907631462846FFF79CFC0028A0
:102D80000FD031462846FFF79BFCA07D002808D0D5
:102D9000D5F84C0504B0C1B22046BDE8F041FFF7BC
:102DA000E5BEBDE8FF8100000A4A10B5537894786B
:102DB000591CC9B28C4200D1002114788C4201D137
:102DC000002010BD0170506803EB430100EBC1000F
:102DD00010BD00003C000020111213140D0E0F1046
:102DE000AC000020CC000020F80000200D00030003
:102DF000C11200000E000300C11200000F0003000A
:102E0000C112000010000300C112000000000050B9
:102E10009001002003000000FFFFFFFFFFFFFFFF06
:102E2000FFFFFFFFFFFFFFFF0000000000000000AA
:102E30000000D60107010000290000000100000089
:102E4000010000000100000001000000010000007E
:102E500001000000010000000200000000404040AE
:102E6000404040404040414141414140404040405D
:102E70004040404040404040404040404005020209
:102E800002020202020202020202020202202020C8
:102E90002020202020202002020202020202909024
:102EA0009090909010101010101010101010101022
:102EB0001010101010101010020202020202888876
:102EC0008888888808080808080808080808080882
:102ED000080808080808080802020202400000006A
:102EE0005D2E00004F766572666C6F770D0A0000EC
:102EF000102F00000000002064000000180A0000ED
:102F0000742F00006400002064260000280A0000DE
:102F100000000000000000000000000000000000B1
:102F200000000000000000000000000000000000A1
:102F30000000000000000000000000000000000091
:102F40000000000000000000000000000000000081
:102F50000000000000000000000000000000000071
:102F6000000000000020004000000000E42E0000EF
:042F70000090D003FA
:0400000500000401F2
:00000001FF
