:020000040000FA
:10000000800A0020150100002F01000031010000CE
:1000100000000000000000000000000000000000E0
:10002000000000000000000000000000330100009C
:100030000000000000000000350100003701000052
:1000400039010000390100003901000039010000C8
:1000500039010000000000009D010000390100008E
:1000600039010000390100003901000039010000A8
:100070003901000039010000390100003901000098
:1000800065030000E90200003901000039010000A9
:1000900009030000390100003901000039010000A6
:1000A00039010000390100000000000000000000DC
:1000B0000000000000000000000000000000000040
:1000C0000348854600F058F800480047C10E00007C
:1000D000800A0020401E00BF00BF00BF00BF00BF5D
:1000E00000BF00BF00BF00BF00BF00BF00BFF1D115
:1000F00070470000401E00BF00BF00BF00BF00BF30
:1001000000BF00BF00BF00BF00BF00BF00BFF1D1F4
:10011000704700000321094802680A43026008484A
:1001200002680A4302600748804707480047FEE725
:10013000FEE7FEE7FEE7FEE7FEE7000024050040DD
:100140005405004011030000C100000030B50B460B
:10015000014600202022012409E00D46D5409D42A1
:1001600005D31D469540491B254695404019154627
:10017000521E002DF1DC30BD064C0125064E05E077
:10018000E36807CC2B430C3C98471034B442F7D3B8
:10019000FFF79AFFE815000008160000F8B50024E4
:1001A000FF250135012627460094284601F0B6F8C0
:1001B000002808D034484068304204D03348002139
:1001C0002818344301602D1D76007F1CADB2042F2A
:1001D000EBD3FF207D3001F0A1F8002807D02C4898
:1001E00000210160400704432A48006900902A4F1B
:1001F000200712D00126002526420AD02748AA004F
:10020000111808690969C004C00E8903BA58890F1A
:10021000904776006D1C042DEED3002C30DA0024BC
:100220001D4E0021301940304156491C25D0077819
:10023000BD06AD0E284600F0F3FB80003658002EB8
:100240001BD0BF090121A940154AA80080180068E9
:10025000009A8003800F114202D0022802D00CE0E5
:1002600003280AD1032F05D102280AD002212846EB
:1002700001F044F839462846B047641C042CCFD31B
:10028000F8BD0321F3E70000006300400060004078
:100290007C61004000050050140200200065004011
:1002A000000700508307FF22DB0E9A408907090EE2
:1002B000994000280BDA0007000F08388308084827
:1002C0009B001818C36993430B43C36170478308AD
:1002D00004489B001B181868904308431860704737
:1002E00000ED00E000E400E010B5064900200860E1
:1002F00048608860C860034940390860486001F080
:10030000BBF810BD4011014010B501F04BF810BD15
:1003100010B500F0ABFC002805D00E490C48486031
:10032000C8130D4988610D48018CC9B201290ED14D
:10033000818C09070BD1018D0906090F042906D10B
:10034000808D0006000F02D105490120886010BD94
:10035000DFFF07C000050040006C0040C00F00F048
:100360000006004006484068C107C90F0020002968
:1003700004D0044908600448406800477047000002
:1003800000030140000101401C00002030B474460D
:10039000641E2578641CAB4200D21D46635D5B0081
:1003A000E31830BC184702E008C8121F08C1002A31
:1003B000FAD170477047002001E001C1121F002AE6
:1003C000FBD17047044842680121C9050B4693439D
:1003D00083600A40C26070470005005070B5002479
:1003E000064D06E06968E000085C012100F03CFE73
:1003F000641C28788442F5D3002070BD28000020BA
:10040000F8B515460C460646052A01D20720F8BD68
:1004100000F000FF002803D100F0D2FE0028F6D142
:10042000104900204E600C70C8608D6008610E4D50
:100430000DE0E00069688019009181786A4651708A
:1004400000780A4A694600F05FFE0028DFD12046A6
:10045000641EE4B20028ECD1054A0021024800F0F5
:1004600013F8F8BD28000020E01500009D0B0000E7
:10047000FD0A00000F210348490581600021C16089
:10048000FEE7000000050050094B9B68002B07D0D9
:10049000002A07D0002805D00068037C002B03D079
:1004A0000820704707207047417442610020704760
:1004B0003C000020FFB59007002581B014460E4691
:1004C000002832D11B4F002C31D000F049FF049896
:1004D00078610320387033461821224600204B43B0
:1004E000BC601834C10089180D704D708E704C605E
:1004F0001C19401C0328F5DBFD607D7001240E48AB
:10050000BD702405046003211420FFF7CBFE0B48C7
:1005100004600B4C0198A06003211120FFF7C2FE7C
:1005200060683861002005B0F0BD0720FBE7BD60C2
:10053000FBE700003C00002080E200E000E100E07A
:1005400000150140FEB50D461B4917468968044653
:1005500000292AD0002C28D0052D01D20720FEBD6D
:100560006069002821D0607C012820D0002600F09E
:10057000C5FFC0001049019089684018694600F025
:10058000E7FF002815D0012101700C49446049683B
:100590000830E2C008490198896841186846007827
:1005A000487000F041FF0020FEBD0820FEBD2E4631
:1005B000DDE70420FEBD00003C00002000150140E6
:1005C000F8B5134D0446A96800291CD0002C1AD098
:1005D0006069002817D00026267400F08FFFC7003E
:1005E000A8686946381800F0B3FF00280DD0022132
:1005F00001704460A868391868460078487000F0B7
:1006000013FF3046F8BD0820F8BD0420F8BD0000F7
:100610003C000020F8B507460024234802E0641C93
:10062000042C1AD2A2008258BA42F8D1042C14D257
:100630001D481E4E0C38002929D001290ED0022950
:100640000BD16000201880194578002D05D018487E
:100650000169002901D028468847F8BD610061186A
:10066000755C8E19717800290CD011490A224968ED
:10067000806851430E4A521CFFF764FF002801D1E5
:100680000B4847700A48B17814300155DDE780689F
:10069000FFF796FF06486100611814308919005D64
:1006A0008D78A842D1D0F8BDA4150000DC0100204F
:1006B0000400002010B5FFF791FE10BD10B50D2805
:1006C00003D10248007800F0C9FD10BD00000020F1
:1006D00070B50023042811D2440004190D4D012ADD
:1006E00002D101290DD0002246008019094E80193F
:1006F00000290CD0012906D0022906D0072318466C
:1007000070BD0D30C2B22A55F9E74270F7E782702A
:10071000F5E70000DC01002070B50E4620490546D3
:100720004E608D6000200A61A9071ED500240122B9
:1007300011462046FFF7CCFF641C042C02D200288F
:10074000F5D012E0002810D1720804211548FFF7F7
:1007500057FE002809D1FFF741FE002805D11148B6
:10076000114A00211438FFF78FFEE90706D00F2247
:100770000E4952058A600023CB608A6100280DD1A2
:1007800008480B4A00211C38FFF77EFE002805D1DF
:100790000448084A01211838FFF776FE70BD0000B2
:1007A00004000020B4150000B1090000000500504D
:1007B000B50C0000C5030000FEB57A4D0722EB68BA
:1007C00092059A4302936B6800939C0006461B199E
:1007D00000200121019349050746734C3300FFF7C0
:1007E000D5FD180D1515374755677C887F8891DE34
:1007F0009E9E9E9E9EC8CED1D8DEDE140F21029A08
:1008000049059143A160E7602F70FEBDA260E760DB
:1008100060680F2252055040800209D5A160E76050
:10082000022E02D1E120C0000AE07D20400107E055
:10083000E160A760022E01D1C82001E0FF209130C5
:100840002E706421FFF782FC0099414300223FE0B3
:10085000A260E76060680F2252055040800204D514
:10086000A160E76019204001EAE7E160A760E3E7E3
:10087000A260E76060680F2252055040800202D5F6
:10088000A160E760D1E7E160A760D7E7A260E76019
:1008900060680F2252055040800202D5A160E760D7
:1008A00001E0E160A7602E700098410000220FE097
:1008B000A260E76060680F2252055040800202D5B6
:1008C000A160E76001E0E160A7602E70009900225E
:1008D00036480068FFF736FEFEBDA260E7601BE009
:1008E00061680120800502468A43A2600140E16000
:1008F00010E06068012189050A468243A260084031
:10090000E060E3E76068012189050A468243A2604E
:100910000840E0600199C9E7E160A7602DE0234845
:100920004068FFF74DFE11218A1B01D0002807D037
:100930000F22E96852051140A160E760EF60FEBD3B
:100940000121C905E960012A0CD91046C821484394
:100950006421FFF7FBFB69680022414313484068AC
:10096000FFF7F0FD0F22E96852051140E160A76032
:10097000FEBD0F214905A160E7602E70FEBD072274
:100980009205AAE70D214905A160E76001218905CB
:10099000C2E70321C905A160E7608910BCE70F2108
:1009A0004905B9E704000020000500509815000033
:1009B00010B500780221FFF72DFE10BD0022D243B2
:1009C000830004490428CA5002D308182030027753
:1009D0007047000014020020F0B50025ED43002A06
:1009E00002D00023042601E0042308260B4C04E077
:1009F0009F00E7597F1C04D05B1CB342F8D3284604
:100A0000F0BD26185DB2203635709E00A151002A37
:100A1000F5D1E11820310877F1E700001402002039
:100A200002490918202008567047000014020020CF
:100A3000F8B52348C16800293ED00E6821494C68AA
:100A40000769C078E11B0D022D0AED1C002814D1A6
:100A500001201D4A000450601B4A403A50601B4967
:100A6000400008601A4908601A49012008602F20D8
:100A7000FFF740FB12490120C870B54200D235464D
:100A8000E81900020F4B000A403318600D4A516804
:100A9000001B091B0902090A0002000AC91C814245
:100AA00009D9506818602F20FFF724FB012007495F
:100AB000400480390860F8BD00F052FCF8BD000029
:100AC0003C000020001501404013014080E200E09E
:100AD00000E100E00010014072B602480168491CC4
:100AE000016070475C00002003490868401E0860F0
:100AF00000D162B6704700005C000020F8B5002607
:100B00000124154D23E06968F00047183878214624
:100B10002A698140114218D08A432A6100F046FBBD
:100B20003A782146EB689140194003469340994238
:100B30000BD17978012901D0012100E000217B68E7
:100B40004140002B01D010469847761CF6B2287819
:100B50008642D8D3F8BD00002800002010B50E4909
:100B600000234A788C78A24212D0521CD2B24A702A
:100B7000022A00D14B704A78074B920018339A58DA
:100B80000260086910180002000A0861012010BD07
:100B90000360002010BD00003C000020F8B50746AF
:100BA000104E0125BD403068FFF70AFD00280DD129
:100BB0000D4C2069284207D1384600F0F7FA00288A
:100BC000E06804D0284303E0A8432061F8BDA843AF
:100BD000E0602069002228432061A1683068FFF7A7
:100BE000B1FCF8BDE01500002800002010B5144944
:100BF00000244A681349002A15D0CA68D207D20FC8
:100C00001BD18968C907C90F17D10124002802D058
:100C10000D490120486000210C4A01208007116025
:100C20000121016009E0C868C007C00F03D18868CE
:100C3000C007C00F01D000F00BF8204610BD000027
:100C400008020020000400400003004000010040B2
:100C50000449012008600448C168C907C90FFBD1D5
:100C60007047000004000040000400401048018C60
:100C7000C9B2012917D1818C090714D1018D090648
:100C80000A0F03D1828D1206120F0ED0090F01290F
:100C900003D1828D1206120F07D0032903D1808D54
:100CA0000006000F01D000207047012070470000AF
:100CB000C00F00F010B50448017AC90702D00078CF
:100CC000FFF77AFD10BD00000400002010B50F48AA
:100CD0000F4C806800280ED000F05AF9002809D186
:100CE0006069C007C00F05D10A49086009490120A1
:100CF000FC39086010BD00F04BF9002803D1606991
:100D0000C007C00FF6D000F007F810BD08020020A1
:100D1000000400400401004010B5044901200860AF
:100D200000F036F90028FBD110BD00000C00004097
:100D3000F8B52C49C8680A690C780F798968864625
:100D4000944600913EE00099E20055182A7836E07A
:100D5000182353436968521CC918AB78D2B2934226
:100D600000D100220B78022B02D0032B27D123E0E5
:100D70004E680346014603E0B14204D00B46C96900
:100D800000291CD0F8E7002919D08B4208D1C0698E
:100D9000002805D1144F0126BE600026B446012765
:100DA0000E68C969D961002909D00B689B190B60CD
:100DB00005E00174C06900E000210028F9D16978DC
:100DC0009142C5D12146641EE4B20029BBD1054938
:100DD00062460A61C8600F71704501D00120F8BDFC
:100DE0000020F8BD3C00002000100140F8B504468A
:100DF00031480026C168009107784EE02E48F9007E
:100E000080680D1843E0002C02D02046E4691FE002
:100E10002878182141436A68401CC0B251182870D4
:100E2000AA78904200D12E700A784868012A30D101
:100E3000027C002A2DD18A684260CA6882600A69F1
:100E4000C260496981611C490979002900D0466066
:100E5000194943680A699C46991A0902174B090AFD
:100E6000994202D28268891807E06146511A090244
:100E70008268090A8A4202D9511A016000E00660BC
:100E80004660012186600174C66100F0D5FA002C2D
:100E9000B9D1287869788842BAD138467F1EFFB226
:100EA0000028ABD10448C1680098814201D00120DC
:100EB000F8BD0020F8BD00003C000020FFFF7F00CF
:100EC0000EB5002000F07AF8002847D100F08EF827
:100ED0000023274A03211846FFF7ECFA00283DD1EA
:100EE000244A25490220FFF717FC002836D10121AA
:100EF000224B032206460C468440E401240F02D014
:100F00008400E4182260401C2028F4D30F201C4DDC
:100F10004005A860EE60002401277F05C82000F08E
:100F20003FF83846A0400F2149050840E860AE6010
:100F3000641C042CF2D3FFF7BDFB00280ED1114A2C
:100F40006B4607CA07C31049684600F0A1F900289C
:100F500004D10E4800F066F9002803D000221146A3
:100F6000FFF788FA00F084F940BF20BF20BFFBE7FD
:100F700064000020BD060000CD0C000000070050FA
:100F8000000500508C1500007915000000000020BD
:100F900002488069C003C00F704700000004004091
:100FA00031B5054C04E0401E00902046FFF792F852
:100FB00000980028F7D138BDE70300000949002058
:100FC0000A78002A01D08520704700224A608A6092
:100FD000054BFF221A61044B0122403B9A610A70C3
:100FE00070470000080200204005004010B5054889
:100FF0008168491C81600020FFF7F8FDFFF766FE5D
:1010000010BD0000080200208207D30EFF229A4084
:101010008907090E10B5994000280BDA03071B0F4A
:10102000083B9C080C4BA400E318DC6994430C4378
:10103000DC6107E08408094BA400E41823689343AB
:101040000B432360C106C90E012088400449086093
:101050000449086010BD000000ED00E000E400E07D
:1010600080E200E000E100E0F3B581B00F460198B6
:1010700000F05EF9012400281E4E019817D0FFF7FA
:10108000CFFC80192030007F8009032802D001287E
:1010900006D007E01848006901998C40204201D130
:1010A000022100E00321019800F028F9FEBD00F0C4
:1010B0004BF90028FAD00198FFF7B2FC05468100F1
:1010C000C81D0E4AF93089180A6980B222430A61A4
:1010D0000B49401800210160002FE7D00198FFF76D
:1010E0009FFC800030580028E0D00648AC404460A7
:1010F000FEBD000014020020000500500065004005
:101100000060004000630040FEB5044623480E46E0
:101110000019202141560027C8171346401C01D052
:10112000082738E0F27819462046FFF755FC0546B7
:10113000401C2FD0B078002807D01948A10009180A
:10114000086802229043086007E000217378204677
:1011500000910A46019100F0BFF8F078002810D005
:101160001048AA001018317802690F4B1A4002612A
:10117000E206D20C8907890B0A4301690A4302611E
:1011800009E00648327840192030017F920111436E
:10119000017700E004273846FEBD0000140200205D
:1011A0000007005000650040FFE0FCFF03490969AB
:1011B000C140C807C00F00D0012070470005005093
:1011C00070B5124D2879002801D0082070BD0F4954
:1011D00000204039421E0B182033401CC0B21A7048
:1011E0002028F8D300242046FFF7E8FB641CE4B273
:1011F000082CF8D303210620FFF706FF012004493D
:10120000C007486001202871002070BD54020020F2
:101210000063004002480079002800D00120704798
:101220005402002010B50446FFF756FC09488168B7
:1012300008290AD221704A1C82600748826801236B
:101240008B401A438260002400E00424FFF74CFC2A
:10125000204610BD1C00002000050140034A80000C
:1012600001498018016070473546526E0006014002
:1012700004490120486001460348016003490220F7
:101280000870704700030140000001401C0000206E
:1012900070B504460D4841600178002901D008204E
:1012A00070BD01210170002C00D1094C094D20783E
:1012B000E86060687D21C003C900FEF747FF6860F1
:1012C000217A1020FFF7A0FE002070BD1C00002036
:1012D000D41500000005014030B552000A439900C2
:1012E000039C0A432102049D0A4329040A4302493C
:1012F00080004018026030BD0007005082000648A0
:101300001018026803231B049A4302600268090450
:101310000A4302607047000000070050034940186C
:101320000068012800D000207047000000600040E5
:101330000449081820214156042901DB0120704787
:10134000002070471402002004490818202141564B
:10135000042901D2012070470020704714020020A8
:1013600070B501240B49600408600B494010886087
:10137000094940398860094D6C602F20FEF7BAFE9C
:10138000AC60074D00242F202C61FEF7B3FEEC70FB
:1013900070BD000080E100E04013014000100140FA
:1013A0003C000020FEB51F4C00252769E068029034
:1013B0006846FFF7D3FB0190FFF7BAFC0646019899
:1013C000002822D000230098E16817E00E680A4642
:1013D000864202D9301A086012E0801BF3180026FA
:1013E0001660D668D169B446002E07D0FE183602C2
:1013F000360A566066469660D56115460029E5D1E5
:101400002846E160FFF7F2FC06E02846FFF7EEFC15
:10141000002801D1002E02D00298FFF709FB00201E
:101420002071FEBD3C00002001200249000508603B
:101430007047000000E200E010B50E4BD9680029AB
:1014400006D002680C68A24204D8A21A0A60C161E0
:10145000D86010BD0B4604E00B46C969121B002979
:1014600004D00C689442F7D3A41A0C600260C161E6
:10147000D86110BD3C000020F8B51E4DEC68002C72
:1014800036D01D48002740682969401A0602360AEE
:101490002068B0421AD8361AC7192246107CE4696F
:1014A000002811D0002010746B69002B09D09169BD
:1014B00050699847002807D000221146FEF7DAFF4E
:1014C00002E0516990698847002CE1D16978A878D9
:1014D000814206D1401CC0B2A870022801D1002070
:1014E000A87004490006800D18310F50FFF79CFFCB
:1014F000F8BD00003C00002000150140124948687A
:10150000C005C00D19D0103840B2002807DA020714
:10151000120F083A920892005118C96904E0810834
:101520000A4A8900891809688007C00EC140080668
:10153000800F012803D0032803D002207047002029
:10154000704701207047000000ED00E000E400E07B
:1015500042788378521CD2B2934200D100220378A1
:10156000934201D1002070470A70416840781822E8
:1015700050430818704700000F2103484905816057
:101580000021C1607047000000050050010000000C
:10159000D0070000010000009C010020BC010020D9
:1015A000E8010020110000001200000013000000FC
:1015B00014000000110003001506000012000300D3
:1015C00015060000130003001506000014000300B8
:1015D0001506000001000000D00700000100000017
:1015E0005C0200200300000008160000000000203C
:1015F00064000000A60300006C16000064000020D8
:101600001C0A0000B60300000000000000000000FB
:1016100000000000000000000000000000000000CA
:1016200000000000000000000000000000000000BA
:1016300000000000000000000000000000000000AA
:10164000000000000000000000000000000000009A
:10165000000000000000000000000000000000008A
:0C16600000000000000000000024F40066
:04000005000000C136
:00000001FF
